{"abi":[{"inputs":[{"internalType":"uint256","name":"time","type":"uint256"},{"internalType":"contract IERC20","name":"contractProject","type":"address"},{"internalType":"uint256","name":"value","type":"uint256"},{"internalType":"uint256","name":"minimumTokenHolder","type":"uint256"}],"stateMutability":"payable","type":"constructor"},{"inputs":[],"name":"addImage","outputs":[],"stateMutability":"nonpayable","type":"function"},{"inputs":[],"name":"checkTokenBalance","outputs":[],"stateMutability":"nonpayable","type":"function"},{"inputs":[],"name":"complete","outputs":[{"internalType":"bool","name":"","type":"bool"}],"stateMutability":"view","type":"function"},{"inputs":[],"name":"deployDate","outputs":[{"internalType":"uint256","name":"","type":"uint256"}],"stateMutability":"view","type":"function"},{"inputs":[],"name":"finalizeContest","outputs":[{"internalType":"address","name":"","type":"address"}],"stateMutability":"nonpayable","type":"function"},{"inputs":[{"internalType":"uint256","name":"index","type":"uint256"}],"name":"getVotersPicCount","outputs":[{"internalType":"uint256","name":"","type":"uint256"},{"internalType":"uint256","name":"","type":"uint256"},{"internalType":"address","name":"","type":"address"}],"stateMutability":"view","type":"function"},{"inputs":[{"internalType":"address","name":"","type":"address"}],"name":"holders","outputs":[{"internalType":"bool","name":"","type":"bool"}],"stateMutability":"view","type":"function"},{"inputs":[{"internalType":"uint256","name":"","type":"uint256"}],"name":"images","outputs":[{"internalType":"uint256","name":"picId","type":"uint256"},{"internalType":"uint256","name":"votersPicCount","type":"uint256"},{"internalType":"address","name":"ownerPic","type":"address"}],"stateMutability":"view","type":"function"},{"inputs":[],"name":"manager","outputs":[{"internalType":"address","name":"","type":"address"}],"stateMutability":"view","type":"function"},{"inputs":[],"name":"minimumToken","outputs":[{"internalType":"uint256","name":"","type":"uint256"}],"stateMutability":"view","type":"function"},{"inputs":[{"internalType":"address","name":"","type":"address"}],"name":"partecipants","outputs":[{"internalType":"bool","name":"","type":"bool"}],"stateMutability":"view","type":"function"},{"inputs":[],"name":"prize","outputs":[{"internalType":"uint256","name":"","type":"uint256"}],"stateMutability":"view","type":"function"},{"inputs":[],"name":"project","outputs":[{"internalType":"contract IERC20","name":"","type":"address"}],"stateMutability":"view","type":"function"},{"inputs":[],"name":"tempo","outputs":[{"internalType":"uint256","name":"","type":"uint256"}],"stateMutability":"view","type":"function"},{"inputs":[{"internalType":"uint256","name":"index","type":"uint256"}],"name":"vote","outputs":[],"stateMutability":"nonpayable","type":"function"},{"inputs":[{"internalType":"address","name":"","type":"address"}],"name":"voters","outputs":[{"internalType":"bool","name":"","type":"bool"}],"stateMutability":"view","type":"function"},{"inputs":[],"name":"winner","outputs":[{"internalType":"address payable","name":"","type":"address"}],"stateMutability":"view","type":"function"},{"stateMutability":"payable","type":"receive"}],"devdoc":{"kind":"dev","methods":{},"version":1},"evm":{"assembly":"    /* \"Contest.sol\":61618:64548  contract Contest {... */\n  mstore(0x40, 0x80)\n    /* \"Contest.sol\":62719:63036  constructor (uint time, IERC20 contractProject, uint value,uint minimumTokenHolder) payable {... */\n  mload(0x40)\n  sub(codesize, bytecodeSize)\n  dup1\n  bytecodeSize\n  dup4\n  codecopy\n  dup2\n  dup2\n  add\n  0x40\n  mstore\n  dup2\n  add\n  swap1\n  tag_1\n  swap2\n  swap1\n  tag_2\n  jump\t// in\ntag_1:\n    /* \"Contest.sol\":62831:62841  msg.sender */\n  caller\n    /* \"Contest.sol\":62821:62828  manager */\n  0x00\n  dup1\n    /* \"Contest.sol\":62821:62841  manager = msg.sender */\n  0x0100\n  exp\n  dup2\n  sload\n  dup2\n  0xffffffffffffffffffffffffffffffffffffffff\n  mul\n  not\n  and\n  swap1\n  dup4\n  0xffffffffffffffffffffffffffffffffffffffff\n  and\n  mul\n  or\n  swap1\n  sstore\n  pop\n    /* \"Contest.sol\":62864:62879  block.timestamp */\n  timestamp\n    /* \"Contest.sol\":62851:62861  deployDate */\n  0x03\n    /* \"Contest.sol\":62851:62879  deployDate = block.timestamp */\n  dup2\n  swap1\n  sstore\n  pop\n    /* \"Contest.sol\":62899:62914  contractProject */\n  dup3\n    /* \"Contest.sol\":62889:62896  project */\n  0x04\n  0x00\n    /* \"Contest.sol\":62889:62914  project = contractProject */\n  0x0100\n  exp\n  dup2\n  sload\n  dup2\n  0xffffffffffffffffffffffffffffffffffffffff\n  mul\n  not\n  and\n  swap1\n  dup4\n  0xffffffffffffffffffffffffffffffffffffffff\n  and\n  mul\n  or\n  swap1\n  sstore\n  pop\n    /* \"Contest.sol\":62932:62936  time */\n  dup4\n    /* \"Contest.sol\":62924:62929  tempo */\n  0x02\n    /* \"Contest.sol\":62924:62936  tempo = time */\n  dup2\n  swap1\n  sstore\n  pop\n    /* \"Contest.sol\":62954:62959  value */\n  dup2\n    /* \"Contest.sol\":62946:62951  prize */\n  0x09\n    /* \"Contest.sol\":62946:62959  prize = value */\n  dup2\n  swap1\n  sstore\n  pop\n    /* \"Contest.sol\":62984:63002  minimumTokenHolder */\n  dup1\n    /* \"Contest.sol\":62969:62981  minimumToken */\n  0x05\n    /* \"Contest.sol\":62969:63002  minimumToken = minimumTokenHolder */\n  dup2\n  swap1\n  sstore\n  pop\n    /* \"Contest.sol\":63024:63029  false */\n  0x00\n    /* \"Contest.sol\":63013:63021  complete */\n  dup1\n  0x14\n    /* \"Contest.sol\":63013:63029  complete = false */\n  0x0100\n  exp\n  dup2\n  sload\n  dup2\n  0xff\n  mul\n  not\n  and\n  swap1\n  dup4\n  iszero\n  iszero\n  mul\n  or\n  swap1\n  sstore\n  pop\n    /* \"Contest.sol\":62719:63036  constructor (uint time, IERC20 contractProject, uint value,uint minimumTokenHolder) payable {... */\n  pop\n  pop\n  pop\n  pop\n    /* \"Contest.sol\":61618:64548  contract Contest {... */\n  jump(tag_5)\n    /* \"#utility.yul\":88:205   */\ntag_7:\n    /* \"#utility.yul\":197:198   */\n  0x00\n    /* \"#utility.yul\":194:195   */\n  dup1\n    /* \"#utility.yul\":187:199   */\n  revert\n    /* \"#utility.yul\":334:411   */\ntag_9:\n    /* \"#utility.yul\":371:378   */\n  0x00\n    /* \"#utility.yul\":400:405   */\n  dup2\n    /* \"#utility.yul\":389:405   */\n  swap1\n  pop\n    /* \"#utility.yul\":334:411   */\n  swap2\n  swap1\n  pop\n  jump\t// out\n    /* \"#utility.yul\":417:539   */\ntag_10:\n    /* \"#utility.yul\":490:514   */\n  tag_23\n    /* \"#utility.yul\":508:513   */\n  dup2\n    /* \"#utility.yul\":490:514   */\n  tag_9\n  jump\t// in\ntag_23:\n    /* \"#utility.yul\":483:488   */\n  dup2\n    /* \"#utility.yul\":480:515   */\n  eq\n    /* \"#utility.yul\":470:533   */\n  tag_24\n  jumpi\n    /* \"#utility.yul\":529:530   */\n  0x00\n    /* \"#utility.yul\":526:527   */\n  dup1\n    /* \"#utility.yul\":519:531   */\n  revert\n    /* \"#utility.yul\":470:533   */\ntag_24:\n    /* \"#utility.yul\":417:539   */\n  pop\n  jump\t// out\n    /* \"#utility.yul\":545:688   */\ntag_11:\n    /* \"#utility.yul\":602:607   */\n  0x00\n    /* \"#utility.yul\":633:639   */\n  dup2\n    /* \"#utility.yul\":627:640   */\n  mload\n    /* \"#utility.yul\":618:640   */\n  swap1\n  pop\n    /* \"#utility.yul\":649:682   */\n  tag_26\n    /* \"#utility.yul\":676:681   */\n  dup2\n    /* \"#utility.yul\":649:682   */\n  tag_10\n  jump\t// in\ntag_26:\n    /* \"#utility.yul\":545:688   */\n  swap3\n  swap2\n  pop\n  pop\n  jump\t// out\n    /* \"#utility.yul\":694:820   */\ntag_12:\n    /* \"#utility.yul\":731:738   */\n  0x00\n    /* \"#utility.yul\":771:813   */\n  0xffffffffffffffffffffffffffffffffffffffff\n    /* \"#utility.yul\":764:769   */\n  dup3\n    /* \"#utility.yul\":760:814   */\n  and\n    /* \"#utility.yul\":749:814   */\n  swap1\n  pop\n    /* \"#utility.yul\":694:820   */\n  swap2\n  swap1\n  pop\n  jump\t// out\n    /* \"#utility.yul\":826:922   */\ntag_13:\n    /* \"#utility.yul\":863:870   */\n  0x00\n    /* \"#utility.yul\":892:916   */\n  tag_29\n    /* \"#utility.yul\":910:915   */\n  dup3\n    /* \"#utility.yul\":892:916   */\n  tag_12\n  jump\t// in\ntag_29:\n    /* \"#utility.yul\":881:916   */\n  swap1\n  pop\n    /* \"#utility.yul\":826:922   */\n  swap2\n  swap1\n  pop\n  jump\t// out\n    /* \"#utility.yul\":928:1039   */\ntag_14:\n    /* \"#utility.yul\":980:987   */\n  0x00\n    /* \"#utility.yul\":1009:1033   */\n  tag_31\n    /* \"#utility.yul\":1027:1032   */\n  dup3\n    /* \"#utility.yul\":1009:1033   */\n  tag_13\n  jump\t// in\ntag_31:\n    /* \"#utility.yul\":998:1033   */\n  swap1\n  pop\n    /* \"#utility.yul\":928:1039   */\n  swap2\n  swap1\n  pop\n  jump\t// out\n    /* \"#utility.yul\":1045:1197   */\ntag_15:\n    /* \"#utility.yul\":1133:1172   */\n  tag_33\n    /* \"#utility.yul\":1166:1171   */\n  dup2\n    /* \"#utility.yul\":1133:1172   */\n  tag_14\n  jump\t// in\ntag_33:\n    /* \"#utility.yul\":1126:1131   */\n  dup2\n    /* \"#utility.yul\":1123:1173   */\n  eq\n    /* \"#utility.yul\":1113:1191   */\n  tag_34\n  jumpi\n    /* \"#utility.yul\":1187:1188   */\n  0x00\n    /* \"#utility.yul\":1184:1185   */\n  dup1\n    /* \"#utility.yul\":1177:1189   */\n  revert\n    /* \"#utility.yul\":1113:1191   */\ntag_34:\n    /* \"#utility.yul\":1045:1197   */\n  pop\n  jump\t// out\n    /* \"#utility.yul\":1203:1376   */\ntag_16:\n    /* \"#utility.yul\":1275:1280   */\n  0x00\n    /* \"#utility.yul\":1306:1312   */\n  dup2\n    /* \"#utility.yul\":1300:1313   */\n  mload\n    /* \"#utility.yul\":1291:1313   */\n  swap1\n  pop\n    /* \"#utility.yul\":1322:1370   */\n  tag_36\n    /* \"#utility.yul\":1364:1369   */\n  dup2\n    /* \"#utility.yul\":1322:1370   */\n  tag_15\n  jump\t// in\ntag_36:\n    /* \"#utility.yul\":1203:1376   */\n  swap3\n  swap2\n  pop\n  pop\n  jump\t// out\n    /* \"#utility.yul\":1382:2232   */\ntag_2:\n    /* \"#utility.yul\":1494:1500   */\n  0x00\n    /* \"#utility.yul\":1502:1508   */\n  dup1\n    /* \"#utility.yul\":1510:1516   */\n  0x00\n    /* \"#utility.yul\":1518:1524   */\n  dup1\n    /* \"#utility.yul\":1567:1570   */\n  0x80\n    /* \"#utility.yul\":1555:1564   */\n  dup6\n    /* \"#utility.yul\":1546:1553   */\n  dup8\n    /* \"#utility.yul\":1542:1565   */\n  sub\n    /* \"#utility.yul\":1538:1571   */\n  slt\n    /* \"#utility.yul\":1535:1655   */\n  iszero\n  tag_38\n  jumpi\n    /* \"#utility.yul\":1574:1653   */\n  tag_39\n  tag_7\n  jump\t// in\ntag_39:\n    /* \"#utility.yul\":1535:1655   */\ntag_38:\n    /* \"#utility.yul\":1694:1695   */\n  0x00\n    /* \"#utility.yul\":1719:1783   */\n  tag_40\n    /* \"#utility.yul\":1775:1782   */\n  dup8\n    /* \"#utility.yul\":1766:1772   */\n  dup3\n    /* \"#utility.yul\":1755:1764   */\n  dup9\n    /* \"#utility.yul\":1751:1773   */\n  add\n    /* \"#utility.yul\":1719:1783   */\n  tag_11\n  jump\t// in\ntag_40:\n    /* \"#utility.yul\":1709:1783   */\n  swap5\n  pop\n    /* \"#utility.yul\":1665:1793   */\n  pop\n    /* \"#utility.yul\":1832:1834   */\n  0x20\n    /* \"#utility.yul\":1858:1937   */\n  tag_41\n    /* \"#utility.yul\":1929:1936   */\n  dup8\n    /* \"#utility.yul\":1920:1926   */\n  dup3\n    /* \"#utility.yul\":1909:1918   */\n  dup9\n    /* \"#utility.yul\":1905:1927   */\n  add\n    /* \"#utility.yul\":1858:1937   */\n  tag_16\n  jump\t// in\ntag_41:\n    /* \"#utility.yul\":1848:1937   */\n  swap4\n  pop\n    /* \"#utility.yul\":1803:1947   */\n  pop\n    /* \"#utility.yul\":1986:1988   */\n  0x40\n    /* \"#utility.yul\":2012:2076   */\n  tag_42\n    /* \"#utility.yul\":2068:2075   */\n  dup8\n    /* \"#utility.yul\":2059:2065   */\n  dup3\n    /* \"#utility.yul\":2048:2057   */\n  dup9\n    /* \"#utility.yul\":2044:2066   */\n  add\n    /* \"#utility.yul\":2012:2076   */\n  tag_11\n  jump\t// in\ntag_42:\n    /* \"#utility.yul\":2002:2076   */\n  swap3\n  pop\n    /* \"#utility.yul\":1957:2086   */\n  pop\n    /* \"#utility.yul\":2125:2127   */\n  0x60\n    /* \"#utility.yul\":2151:2215   */\n  tag_43\n    /* \"#utility.yul\":2207:2214   */\n  dup8\n    /* \"#utility.yul\":2198:2204   */\n  dup3\n    /* \"#utility.yul\":2187:2196   */\n  dup9\n    /* \"#utility.yul\":2183:2205   */\n  add\n    /* \"#utility.yul\":2151:2215   */\n  tag_11\n  jump\t// in\ntag_43:\n    /* \"#utility.yul\":2141:2215   */\n  swap2\n  pop\n    /* \"#utility.yul\":2096:2225   */\n  pop\n    /* \"#utility.yul\":1382:2232   */\n  swap3\n  swap6\n  swap2\n  swap5\n  pop\n  swap3\n  pop\n  jump\t// out\n    /* \"Contest.sol\":61618:64548  contract Contest {... */\ntag_5:\n  dataSize(sub_0)\n  dup1\n  dataOffset(sub_0)\n  0x00\n  codecopy\n  0x00\n  return\nstop\n\nsub_0: assembly {\n        /* \"Contest.sol\":61618:64548  contract Contest {... */\n      mstore(0x40, 0x80)\n      jumpi(tag_1, lt(calldatasize, 0x04))\n      shr(0xe0, calldataload(0x00))\n      dup1\n      0x6ff42c82\n      gt\n      tag_20\n      jumpi\n      dup1\n      0xbb1d592d\n      gt\n      tag_21\n      jumpi\n      dup1\n      0xbb1d592d\n      eq\n      tag_15\n      jumpi\n      dup1\n      0xc64134bd\n      eq\n      tag_16\n      jumpi\n      dup1\n      0xdfbf53ae\n      eq\n      tag_17\n      jumpi\n      dup1\n      0xe3ac5d26\n      eq\n      tag_18\n      jumpi\n      dup1\n      0xf60ca60d\n      eq\n      tag_19\n      jumpi\n      jump(tag_2)\n    tag_21:\n      dup1\n      0x6ff42c82\n      eq\n      tag_11\n      jumpi\n      dup1\n      0x84856482\n      eq\n      tag_12\n      jumpi\n      dup1\n      0x94ac5818\n      eq\n      tag_13\n      jumpi\n      dup1\n      0xa3ec138d\n      eq\n      tag_14\n      jumpi\n      jump(tag_2)\n    tag_20:\n      dup1\n      0x481c6a75\n      gt\n      tag_22\n      jumpi\n      dup1\n      0x481c6a75\n      eq\n      tag_7\n      jumpi\n      dup1\n      0x4f731087\n      eq\n      tag_8\n      jumpi\n      dup1\n      0x522e1177\n      eq\n      tag_9\n      jumpi\n      dup1\n      0x69668fe9\n      eq\n      tag_10\n      jumpi\n      jump(tag_2)\n    tag_22:\n      dup1\n      0x0121b93f\n      eq\n      tag_3\n      jumpi\n      dup1\n      0x1729f9d5\n      eq\n      tag_4\n      jumpi\n      dup1\n      0x18a5bbdc\n      eq\n      tag_5\n      jumpi\n      dup1\n      0x215973cc\n      eq\n      tag_6\n      jumpi\n      jump(tag_2)\n    tag_1:\n      jumpi(tag_2, calldatasize)\n      stop\n    tag_2:\n      0x00\n      dup1\n      revert\n        /* \"Contest.sol\":63566:63827  function vote(uint index) public restrictedHolders restrictedNoVoters inTime {... */\n    tag_3:\n      callvalue\n      dup1\n      iszero\n      tag_25\n      jumpi\n      0x00\n      dup1\n      revert\n    tag_25:\n      pop\n      tag_26\n      0x04\n      dup1\n      calldatasize\n      sub\n      dup2\n      add\n      swap1\n      tag_27\n      swap2\n      swap1\n      tag_28\n      jump\t// in\n    tag_27:\n      tag_29\n      jump\t// in\n    tag_26:\n      stop\n        /* \"Contest.sol\":64067:64545  function finalizeContest() restrictedManager outOfTime  public returns (address) {... */\n    tag_4:\n      callvalue\n      dup1\n      iszero\n      tag_30\n      jumpi\n      0x00\n      dup1\n      revert\n    tag_30:\n      pop\n      tag_31\n      tag_32\n      jump\t// in\n    tag_31:\n      mload(0x40)\n      tag_33\n      swap2\n      swap1\n      tag_34\n      jump\t// in\n    tag_33:\n      mload(0x40)\n      dup1\n      swap2\n      sub\n      swap1\n      return\n        /* \"Contest.sol\":61935:61976  mapping ( address => bool) public holders */\n    tag_5:\n      callvalue\n      dup1\n      iszero\n      tag_35\n      jumpi\n      0x00\n      dup1\n      revert\n    tag_35:\n      pop\n      tag_36\n      0x04\n      dup1\n      calldatasize\n      sub\n      dup2\n      add\n      swap1\n      tag_37\n      swap2\n      swap1\n      tag_38\n      jump\t// in\n    tag_37:\n      tag_39\n      jump\t// in\n    tag_36:\n      mload(0x40)\n      tag_40\n      swap2\n      swap1\n      tag_41\n      jump\t// in\n    tag_40:\n      mload(0x40)\n      dup1\n      swap2\n      sub\n      swap1\n      return\n        /* \"Contest.sol\":63833:64061  function getVotersPicCount(uint index) public view returns (uint256, uint, address){... */\n    tag_6:\n      callvalue\n      dup1\n      iszero\n      tag_42\n      jumpi\n      0x00\n      dup1\n      revert\n    tag_42:\n      pop\n      tag_43\n      0x04\n      dup1\n      calldatasize\n      sub\n      dup2\n      add\n      swap1\n      tag_44\n      swap2\n      swap1\n      tag_28\n      jump\t// in\n    tag_44:\n      tag_45\n      jump\t// in\n    tag_43:\n      mload(0x40)\n      tag_46\n      swap4\n      swap3\n      swap2\n      swap1\n      tag_47\n      jump\t// in\n    tag_46:\n      mload(0x40)\n      dup1\n      swap2\n      sub\n      swap1\n      return\n        /* \"Contest.sol\":61746:61768  address public manager */\n    tag_7:\n      callvalue\n      dup1\n      iszero\n      tag_48\n      jumpi\n      0x00\n      dup1\n      revert\n    tag_48:\n      pop\n      tag_49\n      tag_50\n      jump\t// in\n    tag_49:\n      mload(0x40)\n      tag_51\n      swap2\n      swap1\n      tag_34\n      jump\t// in\n    tag_51:\n      mload(0x40)\n      dup1\n      swap2\n      sub\n      swap1\n      return\n        /* \"Contest.sol\":63080:63269  function checkTokenBalance() public inTime  {... */\n    tag_8:\n      callvalue\n      dup1\n      iszero\n      tag_52\n      jumpi\n      0x00\n      dup1\n      revert\n    tag_52:\n      pop\n      tag_53\n      tag_54\n      jump\t// in\n    tag_53:\n      stop\n        /* \"Contest.sol\":61774:61794  bool public complete */\n    tag_9:\n      callvalue\n      dup1\n      iszero\n      tag_55\n      jumpi\n      0x00\n      dup1\n      revert\n    tag_55:\n      pop\n      tag_56\n      tag_57\n      jump\t// in\n    tag_56:\n      mload(0x40)\n      tag_58\n      swap2\n      swap1\n      tag_41\n      jump\t// in\n    tag_58:\n      mload(0x40)\n      dup1\n      swap2\n      sub\n      swap1\n      return\n        /* \"Contest.sol\":61850:61872  uint public deployDate */\n    tag_10:\n      callvalue\n      dup1\n      iszero\n      tag_59\n      jumpi\n      0x00\n      dup1\n      revert\n    tag_59:\n      pop\n      tag_60\n      tag_61\n      jump\t// in\n    tag_60:\n      mload(0x40)\n      tag_62\n      swap2\n      swap1\n      tag_63\n      jump\t// in\n    tag_62:\n      mload(0x40)\n      dup1\n      swap2\n      sub\n      swap1\n      return\n        /* \"Contest.sol\":63275:63560  function addImage() public restrictedHolders inTime {... */\n    tag_11:\n      callvalue\n      dup1\n      iszero\n      tag_64\n      jumpi\n      0x00\n      dup1\n      revert\n    tag_64:\n      pop\n      tag_65\n      tag_66\n      jump\t// in\n    tag_65:\n      stop\n        /* \"Contest.sol\":61800:61821  Image[] public images */\n    tag_12:\n      callvalue\n      dup1\n      iszero\n      tag_67\n      jumpi\n      0x00\n      dup1\n      revert\n    tag_67:\n      pop\n      tag_68\n      0x04\n      dup1\n      calldatasize\n      sub\n      dup2\n      add\n      swap1\n      tag_69\n      swap2\n      swap1\n      tag_28\n      jump\t// in\n    tag_69:\n      tag_70\n      jump\t// in\n    tag_68:\n      mload(0x40)\n      tag_71\n      swap4\n      swap3\n      swap2\n      swap1\n      tag_47\n      jump\t// in\n    tag_71:\n      mload(0x40)\n      dup1\n      swap2\n      sub\n      swap1\n      return\n        /* \"Contest.sol\":61905:61929  uint public minimumToken */\n    tag_13:\n      callvalue\n      dup1\n      iszero\n      tag_72\n      jumpi\n      0x00\n      dup1\n      revert\n    tag_72:\n      pop\n      tag_73\n      tag_74\n      jump\t// in\n    tag_73:\n      mload(0x40)\n      tag_75\n      swap2\n      swap1\n      tag_63\n      jump\t// in\n    tag_75:\n      mload(0x40)\n      dup1\n      swap2\n      sub\n      swap1\n      return\n        /* \"Contest.sol\":61982:62022  mapping ( address => bool) public voters */\n    tag_14:\n      callvalue\n      dup1\n      iszero\n      tag_76\n      jumpi\n      0x00\n      dup1\n      revert\n    tag_76:\n      pop\n      tag_77\n      0x04\n      dup1\n      calldatasize\n      sub\n      dup2\n      add\n      swap1\n      tag_78\n      swap2\n      swap1\n      tag_38\n      jump\t// in\n    tag_78:\n      tag_79\n      jump\t// in\n    tag_77:\n      mload(0x40)\n      tag_80\n      swap2\n      swap1\n      tag_41\n      jump\t// in\n    tag_80:\n      mload(0x40)\n      dup1\n      swap2\n      sub\n      swap1\n      return\n        /* \"Contest.sol\":61827:61844  uint public tempo */\n    tag_15:\n      callvalue\n      dup1\n      iszero\n      tag_81\n      jumpi\n      0x00\n      dup1\n      revert\n    tag_81:\n      pop\n      tag_82\n      tag_83\n      jump\t// in\n    tag_82:\n      mload(0x40)\n      tag_84\n      swap2\n      swap1\n      tag_63\n      jump\t// in\n    tag_84:\n      mload(0x40)\n      dup1\n      swap2\n      sub\n      swap1\n      return\n        /* \"Contest.sol\":62028:62074  mapping ( address => bool) public partecipants */\n    tag_16:\n      callvalue\n      dup1\n      iszero\n      tag_85\n      jumpi\n      0x00\n      dup1\n      revert\n    tag_85:\n      pop\n      tag_86\n      0x04\n      dup1\n      calldatasize\n      sub\n      dup2\n      add\n      swap1\n      tag_87\n      swap2\n      swap1\n      tag_38\n      jump\t// in\n    tag_87:\n      tag_88\n      jump\t// in\n    tag_86:\n      mload(0x40)\n      tag_89\n      swap2\n      swap1\n      tag_41\n      jump\t// in\n    tag_89:\n      mload(0x40)\n      dup1\n      swap2\n      sub\n      swap1\n      return\n        /* \"Contest.sol\":62103:62132  address payable public winner */\n    tag_17:\n      callvalue\n      dup1\n      iszero\n      tag_90\n      jumpi\n      0x00\n      dup1\n      revert\n    tag_90:\n      pop\n      tag_91\n      tag_92\n      jump\t// in\n    tag_91:\n      mload(0x40)\n      tag_93\n      swap2\n      swap1\n      tag_94\n      jump\t// in\n    tag_93:\n      mload(0x40)\n      dup1\n      swap2\n      sub\n      swap1\n      return\n        /* \"Contest.sol\":62080:62097  uint public prize */\n    tag_18:\n      callvalue\n      dup1\n      iszero\n      tag_95\n      jumpi\n      0x00\n      dup1\n      revert\n    tag_95:\n      pop\n      tag_96\n      tag_97\n      jump\t// in\n    tag_96:\n      mload(0x40)\n      tag_98\n      swap2\n      swap1\n      tag_63\n      jump\t// in\n    tag_98:\n      mload(0x40)\n      dup1\n      swap2\n      sub\n      swap1\n      return\n        /* \"Contest.sol\":61878:61899  IERC20 public project */\n    tag_19:\n      callvalue\n      dup1\n      iszero\n      tag_99\n      jumpi\n      0x00\n      dup1\n      revert\n    tag_99:\n      pop\n      tag_100\n      tag_101\n      jump\t// in\n    tag_100:\n      mload(0x40)\n      tag_102\n      swap2\n      swap1\n      tag_103\n      jump\t// in\n    tag_102:\n      mload(0x40)\n      dup1\n      swap2\n      sub\n      swap1\n      return\n        /* \"Contest.sol\":63566:63827  function vote(uint index) public restrictedHolders restrictedNoVoters inTime {... */\n    tag_29:\n        /* \"Contest.sol\":62280:62287  holders */\n      0x06\n        /* \"Contest.sol\":62280:62299  holders[msg.sender] */\n      0x00\n        /* \"Contest.sol\":62288:62298  msg.sender */\n      caller\n        /* \"Contest.sol\":62280:62299  holders[msg.sender] */\n      0xffffffffffffffffffffffffffffffffffffffff\n      and\n      0xffffffffffffffffffffffffffffffffffffffff\n      and\n      dup2\n      mstore\n      0x20\n      add\n      swap1\n      dup2\n      mstore\n      0x20\n      add\n      0x00\n      keccak256\n      0x00\n      swap1\n      sload\n      swap1\n      0x0100\n      exp\n      swap1\n      div\n      0xff\n      and\n        /* \"Contest.sol\":62272:62300  require(holders[msg.sender]) */\n      tag_105\n      jumpi\n      0x00\n      dup1\n      revert\n    tag_105:\n        /* \"Contest.sol\":62476:62482  voters */\n      0x07\n        /* \"Contest.sol\":62476:62494  voters[msg.sender] */\n      0x00\n        /* \"Contest.sol\":62483:62493  msg.sender */\n      caller\n        /* \"Contest.sol\":62476:62494  voters[msg.sender] */\n      0xffffffffffffffffffffffffffffffffffffffff\n      and\n      0xffffffffffffffffffffffffffffffffffffffff\n      and\n      dup2\n      mstore\n      0x20\n      add\n      swap1\n      dup2\n      mstore\n      0x20\n      add\n      0x00\n      keccak256\n      0x00\n      swap1\n      sload\n      swap1\n      0x0100\n      exp\n      swap1\n      div\n      0xff\n      and\n        /* \"Contest.sol\":62475:62494  !voters[msg.sender] */\n      iszero\n        /* \"Contest.sol\":62467:62495  require(!voters[msg.sender]) */\n      tag_107\n      jumpi\n      0x00\n      dup1\n      revert\n    tag_107:\n        /* \"Contest.sol\":62586:62591  tempo */\n      sload(0x02)\n        /* \"Contest.sol\":62572:62582  deployDate */\n      sload(0x03)\n        /* \"Contest.sol\":62554:62569  block.timestamp */\n      timestamp\n        /* \"Contest.sol\":62554:62582  block.timestamp - deployDate */\n      tag_109\n      swap2\n      swap1\n      tag_110\n      jump\t// in\n    tag_109:\n        /* \"Contest.sol\":62554:62591  block.timestamp - deployDate <= tempo */\n      gt\n      iszero\n        /* \"Contest.sol\":62546:62592  require(block.timestamp - deployDate <= tempo) */\n      tag_111\n      jumpi\n      0x00\n      dup1\n      revert\n    tag_111:\n        /* \"Contest.sol\":63687:63697  msg.sender */\n      caller\n        /* \"Contest.sol\":63661:63697  images[index].ownerPic != msg.sender */\n      0xffffffffffffffffffffffffffffffffffffffff\n      and\n        /* \"Contest.sol\":63661:63667  images */\n      0x01\n        /* \"Contest.sol\":63668:63673  index */\n      dup3\n        /* \"Contest.sol\":63661:63674  images[index] */\n      dup2\n      sload\n      dup2\n      lt\n      tag_113\n      jumpi\n      tag_114\n      tag_115\n      jump\t// in\n    tag_114:\n    tag_113:\n      swap1\n      0x00\n      mstore\n      keccak256(0x00, 0x20)\n      swap1\n      0x03\n      mul\n      add\n        /* \"Contest.sol\":63661:63683  images[index].ownerPic */\n      0x02\n      add\n      0x00\n      swap1\n      sload\n      swap1\n      0x0100\n      exp\n      swap1\n      div\n      0xffffffffffffffffffffffffffffffffffffffff\n      and\n        /* \"Contest.sol\":63661:63697  images[index].ownerPic != msg.sender */\n      0xffffffffffffffffffffffffffffffffffffffff\n      and\n      eq\n      iszero\n        /* \"Contest.sol\":63653:63698  require(images[index].ownerPic != msg.sender) */\n      tag_117\n      jumpi\n      0x00\n      dup1\n      revert\n    tag_117:\n        /* \"Contest.sol\":63755:63761  images */\n      0x01\n        /* \"Contest.sol\":63762:63767  index */\n      dup2\n        /* \"Contest.sol\":63755:63768  images[index] */\n      dup2\n      sload\n      dup2\n      lt\n      tag_118\n      jumpi\n      tag_119\n      tag_115\n      jump\t// in\n    tag_119:\n    tag_118:\n      swap1\n      0x00\n      mstore\n      keccak256(0x00, 0x20)\n      swap1\n      0x03\n      mul\n      add\n        /* \"Contest.sol\":63755:63783  images[index].votersPicCount */\n      0x01\n      add\n      0x00\n        /* \"Contest.sol\":63755:63785  images[index].votersPicCount++ */\n      dup2\n      sload\n      dup1\n      swap3\n      swap2\n      swap1\n      tag_121\n      swap1\n      tag_122\n      jump\t// in\n    tag_121:\n      swap2\n      swap1\n      pop\n      sstore\n      pop\n        /* \"Contest.sol\":63816:63820  true */\n      0x01\n        /* \"Contest.sol\":63795:63801  voters */\n      0x07\n        /* \"Contest.sol\":63795:63813  voters[msg.sender] */\n      0x00\n        /* \"Contest.sol\":63802:63812  msg.sender */\n      caller\n        /* \"Contest.sol\":63795:63813  voters[msg.sender] */\n      0xffffffffffffffffffffffffffffffffffffffff\n      and\n      0xffffffffffffffffffffffffffffffffffffffff\n      and\n      dup2\n      mstore\n      0x20\n      add\n      swap1\n      dup2\n      mstore\n      0x20\n      add\n      0x00\n      keccak256\n      0x00\n        /* \"Contest.sol\":63795:63820  voters[msg.sender] = true */\n      0x0100\n      exp\n      dup2\n      sload\n      dup2\n      0xff\n      mul\n      not\n      and\n      swap1\n      dup4\n      iszero\n      iszero\n      mul\n      or\n      swap1\n      sstore\n      pop\n        /* \"Contest.sol\":63566:63827  function vote(uint index) public restrictedHolders restrictedNoVoters inTime {... */\n      pop\n      jump\t// out\n        /* \"Contest.sol\":64067:64545  function finalizeContest() restrictedManager outOfTime  public returns (address) {... */\n    tag_32:\n        /* \"Contest.sol\":64139:64146  address */\n      0x00\n        /* \"Contest.sol\":62201:62208  manager */\n      dup1\n      0x00\n      swap1\n      sload\n      swap1\n      0x0100\n      exp\n      swap1\n      div\n      0xffffffffffffffffffffffffffffffffffffffff\n      and\n        /* \"Contest.sol\":62187:62208  msg.sender == manager */\n      0xffffffffffffffffffffffffffffffffffffffff\n      and\n        /* \"Contest.sol\":62187:62197  msg.sender */\n      caller\n        /* \"Contest.sol\":62187:62208  msg.sender == manager */\n      0xffffffffffffffffffffffffffffffffffffffff\n      and\n      eq\n        /* \"Contest.sol\":62179:62209  require(msg.sender == manager) */\n      tag_124\n      jumpi\n      0x00\n      dup1\n      revert\n    tag_124:\n        /* \"Contest.sol\":62685:62690  tempo */\n      sload(0x02)\n        /* \"Contest.sol\":62672:62682  deployDate */\n      sload(0x03)\n        /* \"Contest.sol\":62654:62669  block.timestamp */\n      timestamp\n        /* \"Contest.sol\":62654:62682  block.timestamp - deployDate */\n      tag_126\n      swap2\n      swap1\n      tag_110\n      jump\t// in\n    tag_126:\n        /* \"Contest.sol\":62654:62690  block.timestamp - deployDate > tempo */\n      gt\n        /* \"Contest.sol\":62646:62691  require(block.timestamp - deployDate > tempo) */\n      tag_127\n      jumpi\n      0x00\n      dup1\n      revert\n    tag_127:\n        /* \"Contest.sol\":64159:64180  Image storage bestPic */\n      0x00\n        /* \"Contest.sol\":64183:64189  images */\n      0x01\n        /* \"Contest.sol\":64190:64191  0 */\n      0x00\n        /* \"Contest.sol\":64183:64192  images[0] */\n      dup2\n      sload\n      dup2\n      lt\n      tag_129\n      jumpi\n      tag_130\n      tag_115\n      jump\t// in\n    tag_130:\n    tag_129:\n      swap1\n      0x00\n      mstore\n      keccak256(0x00, 0x20)\n      swap1\n      0x03\n      mul\n      add\n        /* \"Contest.sol\":64159:64192  Image storage bestPic = images[0] */\n      swap1\n      pop\n        /* \"Contest.sol\":64203:64212  uint256 i */\n      0x00\n        /* \"Contest.sol\":64223:64420  for(i = 0; i < images.length; i++){... */\n    tag_132:\n        /* \"Contest.sol\":64238:64244  images */\n      0x01\n        /* \"Contest.sol\":64238:64251  images.length */\n      dup1\n      sload\n      swap1\n      pop\n        /* \"Contest.sol\":64234:64235  i */\n      dup2\n        /* \"Contest.sol\":64234:64251  i < images.length */\n      lt\n        /* \"Contest.sol\":64223:64420  for(i = 0; i < images.length; i++){... */\n      iszero\n      tag_133\n      jumpi\n        /* \"Contest.sol\":64271:64288  Image storage pic */\n      0x00\n        /* \"Contest.sol\":64291:64297  images */\n      0x01\n        /* \"Contest.sol\":64298:64299  i */\n      dup3\n        /* \"Contest.sol\":64291:64300  images[i] */\n      dup2\n      sload\n      dup2\n      lt\n      tag_135\n      jumpi\n      tag_136\n      tag_115\n      jump\t// in\n    tag_136:\n    tag_135:\n      swap1\n      0x00\n      mstore\n      keccak256(0x00, 0x20)\n      swap1\n      0x03\n      mul\n      add\n        /* \"Contest.sol\":64271:64300  Image storage pic = images[i] */\n      swap1\n      pop\n        /* \"Contest.sol\":64338:64345  bestPic */\n      dup3\n        /* \"Contest.sol\":64338:64360  bestPic.votersPicCount */\n      0x01\n      add\n      sload\n        /* \"Contest.sol\":64317:64320  pic */\n      dup2\n        /* \"Contest.sol\":64317:64335  pic.votersPicCount */\n      0x01\n      add\n      sload\n        /* \"Contest.sol\":64317:64360  pic.votersPicCount > bestPic.votersPicCount */\n      gt\n        /* \"Contest.sol\":64314:64409  if(pic.votersPicCount > bestPic.votersPicCount) {... */\n      iszero\n      tag_138\n      jumpi\n        /* \"Contest.sol\":64390:64393  pic */\n      dup1\n        /* \"Contest.sol\":64380:64393  bestPic = pic */\n      swap3\n      pop\n        /* \"Contest.sol\":64314:64409  if(pic.votersPicCount > bestPic.votersPicCount) {... */\n    tag_138:\n        /* \"Contest.sol\":64257:64420  {... */\n      pop\n        /* \"Contest.sol\":64253:64256  i++ */\n      dup1\n      dup1\n      tag_139\n      swap1\n      tag_122\n      jump\t// in\n    tag_139:\n      swap2\n      pop\n      pop\n        /* \"Contest.sol\":64223:64420  for(i = 0; i < images.length; i++){... */\n      jump(tag_132)\n    tag_133:\n        /* \"Contest.sol\":64437:64444  bestPic */\n      dup2\n        /* \"Contest.sol\":64437:64453  bestPic.ownerPic */\n      0x02\n      add\n      0x00\n      swap1\n      sload\n      swap1\n      0x0100\n      exp\n      swap1\n      div\n      0xffffffffffffffffffffffffffffffffffffffff\n      and\n        /* \"Contest.sol\":64429:64463  payable(bestPic.ownerPic).transfer */\n      0xffffffffffffffffffffffffffffffffffffffff\n      and\n        /* \"Contest.sol\":64429:64470  payable(bestPic.ownerPic).transfer(prize) */\n      0x08fc\n        /* \"Contest.sol\":64464:64469  prize */\n      sload(0x09)\n        /* \"Contest.sol\":64429:64470  payable(bestPic.ownerPic).transfer(prize) */\n      swap1\n      dup2\n      iszero\n      mul\n      swap1\n      mload(0x40)\n      0x00\n      mload(0x40)\n      dup1\n      dup4\n      sub\n      dup2\n      dup6\n      dup9\n      dup9\n      call\n      swap4\n      pop\n      pop\n      pop\n      pop\n      iszero\n      dup1\n      iszero\n      tag_141\n      jumpi\n      returndatasize\n      0x00\n      dup1\n      returndatacopy\n      revert(0x00, returndatasize)\n    tag_141:\n      pop\n        /* \"Contest.sol\":64491:64495  true */\n      0x01\n        /* \"Contest.sol\":64480:64488  complete */\n      0x00\n      0x14\n        /* \"Contest.sol\":64480:64495  complete = true */\n      0x0100\n      exp\n      dup2\n      sload\n      dup2\n      0xff\n      mul\n      not\n      and\n      swap1\n      dup4\n      iszero\n      iszero\n      mul\n      or\n      swap1\n      sstore\n      pop\n        /* \"Contest.sol\":64512:64519  bestPic */\n      dup2\n        /* \"Contest.sol\":64512:64528  bestPic.ownerPic */\n      0x02\n      add\n      0x00\n      swap1\n      sload\n      swap1\n      0x0100\n      exp\n      swap1\n      div\n      0xffffffffffffffffffffffffffffffffffffffff\n      and\n        /* \"Contest.sol\":64505:64528  return bestPic.ownerPic */\n      swap3\n      pop\n      pop\n      pop\n        /* \"Contest.sol\":64067:64545  function finalizeContest() restrictedManager outOfTime  public returns (address) {... */\n      swap1\n      jump\t// out\n        /* \"Contest.sol\":61935:61976  mapping ( address => bool) public holders */\n    tag_39:\n      mstore(0x20, 0x06)\n      dup1\n      0x00\n      mstore\n      keccak256(0x00, 0x40)\n      0x00\n      swap2\n      pop\n      sload\n      swap1\n      0x0100\n      exp\n      swap1\n      div\n      0xff\n      and\n      dup2\n      jump\t// out\n        /* \"Contest.sol\":63833:64061  function getVotersPicCount(uint index) public view returns (uint256, uint, address){... */\n    tag_45:\n        /* \"Contest.sol\":63893:63900  uint256 */\n      0x00\n        /* \"Contest.sol\":63902:63906  uint */\n      dup1\n        /* \"Contest.sol\":63908:63915  address */\n      0x00\n        /* \"Contest.sol\":63947:63953  images */\n      0x01\n        /* \"Contest.sol\":63954:63959  index */\n      dup5\n        /* \"Contest.sol\":63947:63960  images[index] */\n      dup2\n      sload\n      dup2\n      lt\n      tag_143\n      jumpi\n      tag_144\n      tag_115\n      jump\t// in\n    tag_144:\n    tag_143:\n      swap1\n      0x00\n      mstore\n      keccak256(0x00, 0x20)\n      swap1\n      0x03\n      mul\n      add\n        /* \"Contest.sol\":63947:63966  images[index].picId */\n      0x00\n      add\n      sload\n        /* \"Contest.sol\":63980:63986  images */\n      0x01\n        /* \"Contest.sol\":63987:63992  index */\n      dup6\n        /* \"Contest.sol\":63980:63993  images[index] */\n      dup2\n      sload\n      dup2\n      lt\n      tag_146\n      jumpi\n      tag_147\n      tag_115\n      jump\t// in\n    tag_147:\n    tag_146:\n      swap1\n      0x00\n      mstore\n      keccak256(0x00, 0x20)\n      swap1\n      0x03\n      mul\n      add\n        /* \"Contest.sol\":63980:64008  images[index].votersPicCount */\n      0x01\n      add\n      sload\n        /* \"Contest.sol\":64022:64028  images */\n      0x01\n        /* \"Contest.sol\":64029:64034  index */\n      dup7\n        /* \"Contest.sol\":64022:64035  images[index] */\n      dup2\n      sload\n      dup2\n      lt\n      tag_149\n      jumpi\n      tag_150\n      tag_115\n      jump\t// in\n    tag_150:\n    tag_149:\n      swap1\n      0x00\n      mstore\n      keccak256(0x00, 0x20)\n      swap1\n      0x03\n      mul\n      add\n        /* \"Contest.sol\":64022:64044  images[index].ownerPic */\n      0x02\n      add\n      0x00\n      swap1\n      sload\n      swap1\n      0x0100\n      exp\n      swap1\n      div\n      0xffffffffffffffffffffffffffffffffffffffff\n      and\n        /* \"Contest.sol\":63926:64054  return (... */\n      swap3\n      pop\n      swap3\n      pop\n      swap3\n      pop\n        /* \"Contest.sol\":63833:64061  function getVotersPicCount(uint index) public view returns (uint256, uint, address){... */\n      swap2\n      swap4\n      swap1\n      swap3\n      pop\n      jump\t// out\n        /* \"Contest.sol\":61746:61768  address public manager */\n    tag_50:\n      0x00\n      dup1\n      sload\n      swap1\n      0x0100\n      exp\n      swap1\n      div\n      0xffffffffffffffffffffffffffffffffffffffff\n      and\n      dup2\n      jump\t// out\n        /* \"Contest.sol\":63080:63269  function checkTokenBalance() public inTime  {... */\n    tag_54:\n        /* \"Contest.sol\":62586:62591  tempo */\n      sload(0x02)\n        /* \"Contest.sol\":62572:62582  deployDate */\n      sload(0x03)\n        /* \"Contest.sol\":62554:62569  block.timestamp */\n      timestamp\n        /* \"Contest.sol\":62554:62582  block.timestamp - deployDate */\n      tag_153\n      swap2\n      swap1\n      tag_110\n      jump\t// in\n    tag_153:\n        /* \"Contest.sol\":62554:62591  block.timestamp - deployDate <= tempo */\n      gt\n      iszero\n        /* \"Contest.sol\":62546:62592  require(block.timestamp - deployDate <= tempo) */\n      tag_154\n      jumpi\n      0x00\n      dup1\n      revert\n    tag_154:\n        /* \"Contest.sol\":63134:63146  IERC20 token */\n      0x00\n        /* \"Contest.sol\":63156:63163  project */\n      0x04\n      0x00\n      swap1\n      sload\n      swap1\n      0x0100\n      exp\n      swap1\n      div\n      0xffffffffffffffffffffffffffffffffffffffff\n      and\n        /* \"Contest.sol\":63134:63164  IERC20 token = IERC20(project) */\n      swap1\n      pop\n        /* \"Contest.sol\":63213:63225  minimumToken */\n      sload(0x05)\n        /* \"Contest.sol\":63183:63188  token */\n      dup2\n        /* \"Contest.sol\":63183:63198  token.balanceOf */\n      0xffffffffffffffffffffffffffffffffffffffff\n      and\n      0x70a08231\n        /* \"Contest.sol\":63199:63209  msg.sender */\n      caller\n        /* \"Contest.sol\":63183:63210  token.balanceOf(msg.sender) */\n      mload(0x40)\n      dup3\n      0xffffffff\n      and\n      0xe0\n      shl\n      dup2\n      mstore\n      0x04\n      add\n      tag_156\n      swap2\n      swap1\n      tag_34\n      jump\t// in\n    tag_156:\n      0x20\n      mload(0x40)\n      dup1\n      dup4\n      sub\n      dup2\n      dup7\n      dup1\n      extcodesize\n      iszero\n      dup1\n      iszero\n      tag_157\n      jumpi\n      0x00\n      dup1\n      revert\n    tag_157:\n      pop\n      gas\n      staticcall\n      iszero\n      dup1\n      iszero\n      tag_159\n      jumpi\n      returndatasize\n      0x00\n      dup1\n      returndatacopy\n      revert(0x00, returndatasize)\n    tag_159:\n      pop\n      pop\n      pop\n      pop\n      mload(0x40)\n      returndatasize\n      not(0x1f)\n      0x1f\n      dup3\n      add\n      and\n      dup3\n      add\n      dup1\n      0x40\n      mstore\n      pop\n      dup2\n      add\n      swap1\n      tag_160\n      swap2\n      swap1\n      tag_161\n      jump\t// in\n    tag_160:\n        /* \"Contest.sol\":63183:63225  token.balanceOf(msg.sender) > minimumToken */\n      gt\n        /* \"Contest.sol\":63175:63226  require(token.balanceOf(msg.sender) > minimumToken) */\n      tag_162\n      jumpi\n      0x00\n      dup1\n      revert\n    tag_162:\n        /* \"Contest.sol\":63258:63262  true */\n      0x01\n        /* \"Contest.sol\":63236:63243  holders */\n      0x06\n        /* \"Contest.sol\":63236:63255  holders[msg.sender] */\n      0x00\n        /* \"Contest.sol\":63244:63254  msg.sender */\n      caller\n        /* \"Contest.sol\":63236:63255  holders[msg.sender] */\n      0xffffffffffffffffffffffffffffffffffffffff\n      and\n      0xffffffffffffffffffffffffffffffffffffffff\n      and\n      dup2\n      mstore\n      0x20\n      add\n      swap1\n      dup2\n      mstore\n      0x20\n      add\n      0x00\n      keccak256\n      0x00\n        /* \"Contest.sol\":63236:63262  holders[msg.sender] = true */\n      0x0100\n      exp\n      dup2\n      sload\n      dup2\n      0xff\n      mul\n      not\n      and\n      swap1\n      dup4\n      iszero\n      iszero\n      mul\n      or\n      swap1\n      sstore\n      pop\n        /* \"Contest.sol\":63124:63269  {... */\n      pop\n        /* \"Contest.sol\":63080:63269  function checkTokenBalance() public inTime  {... */\n      jump\t// out\n        /* \"Contest.sol\":61774:61794  bool public complete */\n    tag_57:\n      0x00\n      0x14\n      swap1\n      sload\n      swap1\n      0x0100\n      exp\n      swap1\n      div\n      0xff\n      and\n      dup2\n      jump\t// out\n        /* \"Contest.sol\":61850:61872  uint public deployDate */\n    tag_61:\n      sload(0x03)\n      dup2\n      jump\t// out\n        /* \"Contest.sol\":63275:63560  function addImage() public restrictedHolders inTime {... */\n    tag_66:\n        /* \"Contest.sol\":62280:62287  holders */\n      0x06\n        /* \"Contest.sol\":62280:62299  holders[msg.sender] */\n      0x00\n        /* \"Contest.sol\":62288:62298  msg.sender */\n      caller\n        /* \"Contest.sol\":62280:62299  holders[msg.sender] */\n      0xffffffffffffffffffffffffffffffffffffffff\n      and\n      0xffffffffffffffffffffffffffffffffffffffff\n      and\n      dup2\n      mstore\n      0x20\n      add\n      swap1\n      dup2\n      mstore\n      0x20\n      add\n      0x00\n      keccak256\n      0x00\n      swap1\n      sload\n      swap1\n      0x0100\n      exp\n      swap1\n      div\n      0xff\n      and\n        /* \"Contest.sol\":62272:62300  require(holders[msg.sender]) */\n      tag_164\n      jumpi\n      0x00\n      dup1\n      revert\n    tag_164:\n        /* \"Contest.sol\":62586:62591  tempo */\n      sload(0x02)\n        /* \"Contest.sol\":62572:62582  deployDate */\n      sload(0x03)\n        /* \"Contest.sol\":62554:62569  block.timestamp */\n      timestamp\n        /* \"Contest.sol\":62554:62582  block.timestamp - deployDate */\n      tag_166\n      swap2\n      swap1\n      tag_110\n      jump\t// in\n    tag_166:\n        /* \"Contest.sol\":62554:62591  block.timestamp - deployDate <= tempo */\n      gt\n      iszero\n        /* \"Contest.sol\":62546:62592  require(block.timestamp - deployDate <= tempo) */\n      tag_167\n      jumpi\n      0x00\n      dup1\n      revert\n    tag_167:\n        /* \"Contest.sol\":63337:63358  Image memory newImage */\n      tag_169\n      tag_170\n      jump\t// in\n    tag_169:\n        /* \"Contest.sol\":63401:63402  1 */\n      0x01\n        /* \"Contest.sol\":63385:63391  images */\n      dup1\n        /* \"Contest.sol\":63385:63398  images.length */\n      dup1\n      sload\n      swap1\n      pop\n        /* \"Contest.sol\":63385:63402  images.length + 1 */\n      tag_171\n      swap2\n      swap1\n      tag_172\n      jump\t// in\n    tag_171:\n        /* \"Contest.sol\":63368:63376  newImage */\n      dup2\n        /* \"Contest.sol\":63368:63382  newImage.picId */\n      0x00\n      add\n        /* \"Contest.sol\":63368:63402  newImage.picId = images.length + 1 */\n      dup2\n      dup2\n      mstore\n      pop\n      pop\n        /* \"Contest.sol\":63438:63439  0 */\n      0x00\n        /* \"Contest.sol\":63412:63420  newImage */\n      dup2\n        /* \"Contest.sol\":63412:63435  newImage.votersPicCount */\n      0x20\n      add\n        /* \"Contest.sol\":63412:63439  newImage.votersPicCount = 0 */\n      dup2\n      dup2\n      mstore\n      pop\n      pop\n        /* \"Contest.sol\":63470:63480  msg.sender */\n      caller\n        /* \"Contest.sol\":63450:63458  newImage */\n      dup2\n        /* \"Contest.sol\":63450:63467  newImage.ownerPic */\n      0x40\n      add\n        /* \"Contest.sol\":63450:63480  newImage.ownerPic = msg.sender */\n      swap1\n      0xffffffffffffffffffffffffffffffffffffffff\n      and\n      swap1\n      dup2\n      0xffffffffffffffffffffffffffffffffffffffff\n      and\n      dup2\n      mstore\n      pop\n      pop\n        /* \"Contest.sol\":63491:63497  images */\n      0x01\n        /* \"Contest.sol\":63503:63511  newImage */\n      dup2\n        /* \"Contest.sol\":63491:63512  images.push(newImage) */\n      swap1\n      dup1\n      0x01\n      dup2\n      sload\n      add\n      dup1\n      dup3\n      sstore\n      dup1\n      swap2\n      pop\n      pop\n      0x01\n      swap1\n      sub\n      swap1\n      0x00\n      mstore\n      keccak256(0x00, 0x20)\n      swap1\n      0x03\n      mul\n      add\n      0x00\n      swap1\n      swap2\n      swap1\n      swap2\n      swap1\n      swap2\n      pop\n      0x00\n      dup3\n      add\n      mload\n      dup2\n      0x00\n      add\n      sstore\n      0x20\n      dup3\n      add\n      mload\n      dup2\n      0x01\n      add\n      sstore\n      0x40\n      dup3\n      add\n      mload\n      dup2\n      0x02\n      add\n      exp(0x0100, 0x00)\n      dup2\n      sload\n      dup2\n      0xffffffffffffffffffffffffffffffffffffffff\n      mul\n      not\n      and\n      swap1\n      dup4\n      0xffffffffffffffffffffffffffffffffffffffff\n      and\n      mul\n      or\n      swap1\n      sstore\n      pop\n      pop\n      pop\n        /* \"Contest.sol\":63549:63553  true */\n      0x01\n        /* \"Contest.sol\":63522:63534  partecipants */\n      0x08\n        /* \"Contest.sol\":63522:63546  partecipants[msg.sender] */\n      0x00\n        /* \"Contest.sol\":63535:63545  msg.sender */\n      caller\n        /* \"Contest.sol\":63522:63546  partecipants[msg.sender] */\n      0xffffffffffffffffffffffffffffffffffffffff\n      and\n      0xffffffffffffffffffffffffffffffffffffffff\n      and\n      dup2\n      mstore\n      0x20\n      add\n      swap1\n      dup2\n      mstore\n      0x20\n      add\n      0x00\n      keccak256\n      0x00\n        /* \"Contest.sol\":63522:63553  partecipants[msg.sender] = true */\n      0x0100\n      exp\n      dup2\n      sload\n      dup2\n      0xff\n      mul\n      not\n      and\n      swap1\n      dup4\n      iszero\n      iszero\n      mul\n      or\n      swap1\n      sstore\n      pop\n        /* \"Contest.sol\":63327:63560  {... */\n      pop\n        /* \"Contest.sol\":63275:63560  function addImage() public restrictedHolders inTime {... */\n      jump\t// out\n        /* \"Contest.sol\":61800:61821  Image[] public images */\n    tag_70:\n      0x01\n      dup2\n      dup2\n      sload\n      dup2\n      lt\n      tag_174\n      jumpi\n      0x00\n      dup1\n      revert\n    tag_174:\n      swap1\n      0x00\n      mstore\n      keccak256(0x00, 0x20)\n      swap1\n      0x03\n      mul\n      add\n      0x00\n      swap2\n      pop\n      swap1\n      pop\n      dup1\n      0x00\n      add\n      sload\n      swap1\n      dup1\n      0x01\n      add\n      sload\n      swap1\n      dup1\n      0x02\n      add\n      0x00\n      swap1\n      sload\n      swap1\n      0x0100\n      exp\n      swap1\n      div\n      0xffffffffffffffffffffffffffffffffffffffff\n      and\n      swap1\n      pop\n      dup4\n      jump\t// out\n        /* \"Contest.sol\":61905:61929  uint public minimumToken */\n    tag_74:\n      sload(0x05)\n      dup2\n      jump\t// out\n        /* \"Contest.sol\":61982:62022  mapping ( address => bool) public voters */\n    tag_79:\n      mstore(0x20, 0x07)\n      dup1\n      0x00\n      mstore\n      keccak256(0x00, 0x40)\n      0x00\n      swap2\n      pop\n      sload\n      swap1\n      0x0100\n      exp\n      swap1\n      div\n      0xff\n      and\n      dup2\n      jump\t// out\n        /* \"Contest.sol\":61827:61844  uint public tempo */\n    tag_83:\n      sload(0x02)\n      dup2\n      jump\t// out\n        /* \"Contest.sol\":62028:62074  mapping ( address => bool) public partecipants */\n    tag_88:\n      mstore(0x20, 0x08)\n      dup1\n      0x00\n      mstore\n      keccak256(0x00, 0x40)\n      0x00\n      swap2\n      pop\n      sload\n      swap1\n      0x0100\n      exp\n      swap1\n      div\n      0xff\n      and\n      dup2\n      jump\t// out\n        /* \"Contest.sol\":62103:62132  address payable public winner */\n    tag_92:\n      0x0a\n      0x00\n      swap1\n      sload\n      swap1\n      0x0100\n      exp\n      swap1\n      div\n      0xffffffffffffffffffffffffffffffffffffffff\n      and\n      dup2\n      jump\t// out\n        /* \"Contest.sol\":62080:62097  uint public prize */\n    tag_97:\n      sload(0x09)\n      dup2\n      jump\t// out\n        /* \"Contest.sol\":61878:61899  IERC20 public project */\n    tag_101:\n      0x04\n      0x00\n      swap1\n      sload\n      swap1\n      0x0100\n      exp\n      swap1\n      div\n      0xffffffffffffffffffffffffffffffffffffffff\n      and\n      dup2\n      jump\t// out\n    tag_170:\n      mload(0x40)\n      dup1\n      0x60\n      add\n      0x40\n      mstore\n      dup1\n      0x00\n      dup2\n      mstore\n      0x20\n      add\n      0x00\n      dup2\n      mstore\n      0x20\n      add\n      and(0xffffffffffffffffffffffffffffffffffffffff, 0x00)\n      dup2\n      mstore\n      pop\n      swap1\n      jump\t// out\n        /* \"#utility.yul\":88:205   */\n    tag_177:\n        /* \"#utility.yul\":197:198   */\n      0x00\n        /* \"#utility.yul\":194:195   */\n      dup1\n        /* \"#utility.yul\":187:199   */\n      revert\n        /* \"#utility.yul\":334:411   */\n    tag_179:\n        /* \"#utility.yul\":371:378   */\n      0x00\n        /* \"#utility.yul\":400:405   */\n      dup2\n        /* \"#utility.yul\":389:405   */\n      swap1\n      pop\n        /* \"#utility.yul\":334:411   */\n      swap2\n      swap1\n      pop\n      jump\t// out\n        /* \"#utility.yul\":417:539   */\n    tag_180:\n        /* \"#utility.yul\":490:514   */\n      tag_205\n        /* \"#utility.yul\":508:513   */\n      dup2\n        /* \"#utility.yul\":490:514   */\n      tag_179\n      jump\t// in\n    tag_205:\n        /* \"#utility.yul\":483:488   */\n      dup2\n        /* \"#utility.yul\":480:515   */\n      eq\n        /* \"#utility.yul\":470:533   */\n      tag_206\n      jumpi\n        /* \"#utility.yul\":529:530   */\n      0x00\n        /* \"#utility.yul\":526:527   */\n      dup1\n        /* \"#utility.yul\":519:531   */\n      revert\n        /* \"#utility.yul\":470:533   */\n    tag_206:\n        /* \"#utility.yul\":417:539   */\n      pop\n      jump\t// out\n        /* \"#utility.yul\":545:684   */\n    tag_181:\n        /* \"#utility.yul\":591:596   */\n      0x00\n        /* \"#utility.yul\":629:635   */\n      dup2\n        /* \"#utility.yul\":616:636   */\n      calldataload\n        /* \"#utility.yul\":607:636   */\n      swap1\n      pop\n        /* \"#utility.yul\":645:678   */\n      tag_208\n        /* \"#utility.yul\":672:677   */\n      dup2\n        /* \"#utility.yul\":645:678   */\n      tag_180\n      jump\t// in\n    tag_208:\n        /* \"#utility.yul\":545:684   */\n      swap3\n      swap2\n      pop\n      pop\n      jump\t// out\n        /* \"#utility.yul\":690:1019   */\n    tag_28:\n        /* \"#utility.yul\":749:755   */\n      0x00\n        /* \"#utility.yul\":798:800   */\n      0x20\n        /* \"#utility.yul\":786:795   */\n      dup3\n        /* \"#utility.yul\":777:784   */\n      dup5\n        /* \"#utility.yul\":773:796   */\n      sub\n        /* \"#utility.yul\":769:801   */\n      slt\n        /* \"#utility.yul\":766:885   */\n      iszero\n      tag_210\n      jumpi\n        /* \"#utility.yul\":804:883   */\n      tag_211\n      tag_177\n      jump\t// in\n    tag_211:\n        /* \"#utility.yul\":766:885   */\n    tag_210:\n        /* \"#utility.yul\":924:925   */\n      0x00\n        /* \"#utility.yul\":949:1002   */\n      tag_212\n        /* \"#utility.yul\":994:1001   */\n      dup5\n        /* \"#utility.yul\":985:991   */\n      dup3\n        /* \"#utility.yul\":974:983   */\n      dup6\n        /* \"#utility.yul\":970:992   */\n      add\n        /* \"#utility.yul\":949:1002   */\n      tag_181\n      jump\t// in\n    tag_212:\n        /* \"#utility.yul\":939:1002   */\n      swap2\n      pop\n        /* \"#utility.yul\":895:1012   */\n      pop\n        /* \"#utility.yul\":690:1019   */\n      swap3\n      swap2\n      pop\n      pop\n      jump\t// out\n        /* \"#utility.yul\":1025:1151   */\n    tag_182:\n        /* \"#utility.yul\":1062:1069   */\n      0x00\n        /* \"#utility.yul\":1102:1144   */\n      0xffffffffffffffffffffffffffffffffffffffff\n        /* \"#utility.yul\":1095:1100   */\n      dup3\n        /* \"#utility.yul\":1091:1145   */\n      and\n        /* \"#utility.yul\":1080:1145   */\n      swap1\n      pop\n        /* \"#utility.yul\":1025:1151   */\n      swap2\n      swap1\n      pop\n      jump\t// out\n        /* \"#utility.yul\":1157:1253   */\n    tag_183:\n        /* \"#utility.yul\":1194:1201   */\n      0x00\n        /* \"#utility.yul\":1223:1247   */\n      tag_215\n        /* \"#utility.yul\":1241:1246   */\n      dup3\n        /* \"#utility.yul\":1223:1247   */\n      tag_182\n      jump\t// in\n    tag_215:\n        /* \"#utility.yul\":1212:1247   */\n      swap1\n      pop\n        /* \"#utility.yul\":1157:1253   */\n      swap2\n      swap1\n      pop\n      jump\t// out\n        /* \"#utility.yul\":1259:1377   */\n    tag_184:\n        /* \"#utility.yul\":1346:1370   */\n      tag_217\n        /* \"#utility.yul\":1364:1369   */\n      dup2\n        /* \"#utility.yul\":1346:1370   */\n      tag_183\n      jump\t// in\n    tag_217:\n        /* \"#utility.yul\":1341:1344   */\n      dup3\n        /* \"#utility.yul\":1334:1371   */\n      mstore\n        /* \"#utility.yul\":1259:1377   */\n      pop\n      pop\n      jump\t// out\n        /* \"#utility.yul\":1383:1605   */\n    tag_34:\n        /* \"#utility.yul\":1476:1480   */\n      0x00\n        /* \"#utility.yul\":1514:1516   */\n      0x20\n        /* \"#utility.yul\":1503:1512   */\n      dup3\n        /* \"#utility.yul\":1499:1517   */\n      add\n        /* \"#utility.yul\":1491:1517   */\n      swap1\n      pop\n        /* \"#utility.yul\":1527:1598   */\n      tag_219\n        /* \"#utility.yul\":1595:1596   */\n      0x00\n        /* \"#utility.yul\":1584:1593   */\n      dup4\n        /* \"#utility.yul\":1580:1597   */\n      add\n        /* \"#utility.yul\":1571:1577   */\n      dup5\n        /* \"#utility.yul\":1527:1598   */\n      tag_184\n      jump\t// in\n    tag_219:\n        /* \"#utility.yul\":1383:1605   */\n      swap3\n      swap2\n      pop\n      pop\n      jump\t// out\n        /* \"#utility.yul\":1611:1733   */\n    tag_185:\n        /* \"#utility.yul\":1684:1708   */\n      tag_221\n        /* \"#utility.yul\":1702:1707   */\n      dup2\n        /* \"#utility.yul\":1684:1708   */\n      tag_183\n      jump\t// in\n    tag_221:\n        /* \"#utility.yul\":1677:1682   */\n      dup2\n        /* \"#utility.yul\":1674:1709   */\n      eq\n        /* \"#utility.yul\":1664:1727   */\n      tag_222\n      jumpi\n        /* \"#utility.yul\":1723:1724   */\n      0x00\n        /* \"#utility.yul\":1720:1721   */\n      dup1\n        /* \"#utility.yul\":1713:1725   */\n      revert\n        /* \"#utility.yul\":1664:1727   */\n    tag_222:\n        /* \"#utility.yul\":1611:1733   */\n      pop\n      jump\t// out\n        /* \"#utility.yul\":1739:1878   */\n    tag_186:\n        /* \"#utility.yul\":1785:1790   */\n      0x00\n        /* \"#utility.yul\":1823:1829   */\n      dup2\n        /* \"#utility.yul\":1810:1830   */\n      calldataload\n        /* \"#utility.yul\":1801:1830   */\n      swap1\n      pop\n        /* \"#utility.yul\":1839:1872   */\n      tag_224\n        /* \"#utility.yul\":1866:1871   */\n      dup2\n        /* \"#utility.yul\":1839:1872   */\n      tag_185\n      jump\t// in\n    tag_224:\n        /* \"#utility.yul\":1739:1878   */\n      swap3\n      swap2\n      pop\n      pop\n      jump\t// out\n        /* \"#utility.yul\":1884:2213   */\n    tag_38:\n        /* \"#utility.yul\":1943:1949   */\n      0x00\n        /* \"#utility.yul\":1992:1994   */\n      0x20\n        /* \"#utility.yul\":1980:1989   */\n      dup3\n        /* \"#utility.yul\":1971:1978   */\n      dup5\n        /* \"#utility.yul\":1967:1990   */\n      sub\n        /* \"#utility.yul\":1963:1995   */\n      slt\n        /* \"#utility.yul\":1960:2079   */\n      iszero\n      tag_226\n      jumpi\n        /* \"#utility.yul\":1998:2077   */\n      tag_227\n      tag_177\n      jump\t// in\n    tag_227:\n        /* \"#utility.yul\":1960:2079   */\n    tag_226:\n        /* \"#utility.yul\":2118:2119   */\n      0x00\n        /* \"#utility.yul\":2143:2196   */\n      tag_228\n        /* \"#utility.yul\":2188:2195   */\n      dup5\n        /* \"#utility.yul\":2179:2185   */\n      dup3\n        /* \"#utility.yul\":2168:2177   */\n      dup6\n        /* \"#utility.yul\":2164:2186   */\n      add\n        /* \"#utility.yul\":2143:2196   */\n      tag_186\n      jump\t// in\n    tag_228:\n        /* \"#utility.yul\":2133:2196   */\n      swap2\n      pop\n        /* \"#utility.yul\":2089:2206   */\n      pop\n        /* \"#utility.yul\":1884:2213   */\n      swap3\n      swap2\n      pop\n      pop\n      jump\t// out\n        /* \"#utility.yul\":2219:2309   */\n    tag_187:\n        /* \"#utility.yul\":2253:2260   */\n      0x00\n        /* \"#utility.yul\":2296:2301   */\n      dup2\n        /* \"#utility.yul\":2289:2302   */\n      iszero\n        /* \"#utility.yul\":2282:2303   */\n      iszero\n        /* \"#utility.yul\":2271:2303   */\n      swap1\n      pop\n        /* \"#utility.yul\":2219:2309   */\n      swap2\n      swap1\n      pop\n      jump\t// out\n        /* \"#utility.yul\":2315:2424   */\n    tag_188:\n        /* \"#utility.yul\":2396:2417   */\n      tag_231\n        /* \"#utility.yul\":2411:2416   */\n      dup2\n        /* \"#utility.yul\":2396:2417   */\n      tag_187\n      jump\t// in\n    tag_231:\n        /* \"#utility.yul\":2391:2394   */\n      dup3\n        /* \"#utility.yul\":2384:2418   */\n      mstore\n        /* \"#utility.yul\":2315:2424   */\n      pop\n      pop\n      jump\t// out\n        /* \"#utility.yul\":2430:2640   */\n    tag_41:\n        /* \"#utility.yul\":2517:2521   */\n      0x00\n        /* \"#utility.yul\":2555:2557   */\n      0x20\n        /* \"#utility.yul\":2544:2553   */\n      dup3\n        /* \"#utility.yul\":2540:2558   */\n      add\n        /* \"#utility.yul\":2532:2558   */\n      swap1\n      pop\n        /* \"#utility.yul\":2568:2633   */\n      tag_233\n        /* \"#utility.yul\":2630:2631   */\n      0x00\n        /* \"#utility.yul\":2619:2628   */\n      dup4\n        /* \"#utility.yul\":2615:2632   */\n      add\n        /* \"#utility.yul\":2606:2612   */\n      dup5\n        /* \"#utility.yul\":2568:2633   */\n      tag_188\n      jump\t// in\n    tag_233:\n        /* \"#utility.yul\":2430:2640   */\n      swap3\n      swap2\n      pop\n      pop\n      jump\t// out\n        /* \"#utility.yul\":2646:2764   */\n    tag_189:\n        /* \"#utility.yul\":2733:2757   */\n      tag_235\n        /* \"#utility.yul\":2751:2756   */\n      dup2\n        /* \"#utility.yul\":2733:2757   */\n      tag_179\n      jump\t// in\n    tag_235:\n        /* \"#utility.yul\":2728:2731   */\n      dup3\n        /* \"#utility.yul\":2721:2758   */\n      mstore\n        /* \"#utility.yul\":2646:2764   */\n      pop\n      pop\n      jump\t// out\n        /* \"#utility.yul\":2770:3212   */\n    tag_47:\n        /* \"#utility.yul\":2919:2923   */\n      0x00\n        /* \"#utility.yul\":2957:2959   */\n      0x60\n        /* \"#utility.yul\":2946:2955   */\n      dup3\n        /* \"#utility.yul\":2942:2960   */\n      add\n        /* \"#utility.yul\":2934:2960   */\n      swap1\n      pop\n        /* \"#utility.yul\":2970:3041   */\n      tag_237\n        /* \"#utility.yul\":3038:3039   */\n      0x00\n        /* \"#utility.yul\":3027:3036   */\n      dup4\n        /* \"#utility.yul\":3023:3040   */\n      add\n        /* \"#utility.yul\":3014:3020   */\n      dup7\n        /* \"#utility.yul\":2970:3041   */\n      tag_189\n      jump\t// in\n    tag_237:\n        /* \"#utility.yul\":3051:3123   */\n      tag_238\n        /* \"#utility.yul\":3119:3121   */\n      0x20\n        /* \"#utility.yul\":3108:3117   */\n      dup4\n        /* \"#utility.yul\":3104:3122   */\n      add\n        /* \"#utility.yul\":3095:3101   */\n      dup6\n        /* \"#utility.yul\":3051:3123   */\n      tag_189\n      jump\t// in\n    tag_238:\n        /* \"#utility.yul\":3133:3205   */\n      tag_239\n        /* \"#utility.yul\":3201:3203   */\n      0x40\n        /* \"#utility.yul\":3190:3199   */\n      dup4\n        /* \"#utility.yul\":3186:3204   */\n      add\n        /* \"#utility.yul\":3177:3183   */\n      dup5\n        /* \"#utility.yul\":3133:3205   */\n      tag_184\n      jump\t// in\n    tag_239:\n        /* \"#utility.yul\":2770:3212   */\n      swap5\n      swap4\n      pop\n      pop\n      pop\n      pop\n      jump\t// out\n        /* \"#utility.yul\":3218:3440   */\n    tag_63:\n        /* \"#utility.yul\":3311:3315   */\n      0x00\n        /* \"#utility.yul\":3349:3351   */\n      0x20\n        /* \"#utility.yul\":3338:3347   */\n      dup3\n        /* \"#utility.yul\":3334:3352   */\n      add\n        /* \"#utility.yul\":3326:3352   */\n      swap1\n      pop\n        /* \"#utility.yul\":3362:3433   */\n      tag_241\n        /* \"#utility.yul\":3430:3431   */\n      0x00\n        /* \"#utility.yul\":3419:3428   */\n      dup4\n        /* \"#utility.yul\":3415:3432   */\n      add\n        /* \"#utility.yul\":3406:3412   */\n      dup5\n        /* \"#utility.yul\":3362:3433   */\n      tag_189\n      jump\t// in\n    tag_241:\n        /* \"#utility.yul\":3218:3440   */\n      swap3\n      swap2\n      pop\n      pop\n      jump\t// out\n        /* \"#utility.yul\":3446:3550   */\n    tag_190:\n        /* \"#utility.yul\":3491:3498   */\n      0x00\n        /* \"#utility.yul\":3520:3544   */\n      tag_243\n        /* \"#utility.yul\":3538:3543   */\n      dup3\n        /* \"#utility.yul\":3520:3544   */\n      tag_182\n      jump\t// in\n    tag_243:\n        /* \"#utility.yul\":3509:3544   */\n      swap1\n      pop\n        /* \"#utility.yul\":3446:3550   */\n      swap2\n      swap1\n      pop\n      jump\t// out\n        /* \"#utility.yul\":3556:3698   */\n    tag_191:\n        /* \"#utility.yul\":3659:3691   */\n      tag_245\n        /* \"#utility.yul\":3685:3690   */\n      dup2\n        /* \"#utility.yul\":3659:3691   */\n      tag_190\n      jump\t// in\n    tag_245:\n        /* \"#utility.yul\":3654:3657   */\n      dup3\n        /* \"#utility.yul\":3647:3692   */\n      mstore\n        /* \"#utility.yul\":3556:3698   */\n      pop\n      pop\n      jump\t// out\n        /* \"#utility.yul\":3704:3958   */\n    tag_94:\n        /* \"#utility.yul\":3813:3817   */\n      0x00\n        /* \"#utility.yul\":3851:3853   */\n      0x20\n        /* \"#utility.yul\":3840:3849   */\n      dup3\n        /* \"#utility.yul\":3836:3854   */\n      add\n        /* \"#utility.yul\":3828:3854   */\n      swap1\n      pop\n        /* \"#utility.yul\":3864:3951   */\n      tag_247\n        /* \"#utility.yul\":3948:3949   */\n      0x00\n        /* \"#utility.yul\":3937:3946   */\n      dup4\n        /* \"#utility.yul\":3933:3950   */\n      add\n        /* \"#utility.yul\":3924:3930   */\n      dup5\n        /* \"#utility.yul\":3864:3951   */\n      tag_191\n      jump\t// in\n    tag_247:\n        /* \"#utility.yul\":3704:3958   */\n      swap3\n      swap2\n      pop\n      pop\n      jump\t// out\n        /* \"#utility.yul\":3964:4024   */\n    tag_192:\n        /* \"#utility.yul\":3992:3995   */\n      0x00\n        /* \"#utility.yul\":4013:4018   */\n      dup2\n        /* \"#utility.yul\":4006:4018   */\n      swap1\n      pop\n        /* \"#utility.yul\":3964:4024   */\n      swap2\n      swap1\n      pop\n      jump\t// out\n        /* \"#utility.yul\":4030:4172   */\n    tag_193:\n        /* \"#utility.yul\":4080:4089   */\n      0x00\n        /* \"#utility.yul\":4113:4166   */\n      tag_250\n        /* \"#utility.yul\":4131:4165   */\n      tag_251\n        /* \"#utility.yul\":4140:4164   */\n      tag_252\n        /* \"#utility.yul\":4158:4163   */\n      dup5\n        /* \"#utility.yul\":4140:4164   */\n      tag_182\n      jump\t// in\n    tag_252:\n        /* \"#utility.yul\":4131:4165   */\n      tag_192\n      jump\t// in\n    tag_251:\n        /* \"#utility.yul\":4113:4166   */\n      tag_182\n      jump\t// in\n    tag_250:\n        /* \"#utility.yul\":4100:4166   */\n      swap1\n      pop\n        /* \"#utility.yul\":4030:4172   */\n      swap2\n      swap1\n      pop\n      jump\t// out\n        /* \"#utility.yul\":4178:4304   */\n    tag_194:\n        /* \"#utility.yul\":4228:4237   */\n      0x00\n        /* \"#utility.yul\":4261:4298   */\n      tag_254\n        /* \"#utility.yul\":4292:4297   */\n      dup3\n        /* \"#utility.yul\":4261:4298   */\n      tag_193\n      jump\t// in\n    tag_254:\n        /* \"#utility.yul\":4248:4298   */\n      swap1\n      pop\n        /* \"#utility.yul\":4178:4304   */\n      swap2\n      swap1\n      pop\n      jump\t// out\n        /* \"#utility.yul\":4310:4451   */\n    tag_195:\n        /* \"#utility.yul\":4375:4384   */\n      0x00\n        /* \"#utility.yul\":4408:4445   */\n      tag_256\n        /* \"#utility.yul\":4439:4444   */\n      dup3\n        /* \"#utility.yul\":4408:4445   */\n      tag_194\n      jump\t// in\n    tag_256:\n        /* \"#utility.yul\":4395:4445   */\n      swap1\n      pop\n        /* \"#utility.yul\":4310:4451   */\n      swap2\n      swap1\n      pop\n      jump\t// out\n        /* \"#utility.yul\":4457:4618   */\n    tag_196:\n        /* \"#utility.yul\":4559:4611   */\n      tag_258\n        /* \"#utility.yul\":4605:4610   */\n      dup2\n        /* \"#utility.yul\":4559:4611   */\n      tag_195\n      jump\t// in\n    tag_258:\n        /* \"#utility.yul\":4554:4557   */\n      dup3\n        /* \"#utility.yul\":4547:4612   */\n      mstore\n        /* \"#utility.yul\":4457:4618   */\n      pop\n      pop\n      jump\t// out\n        /* \"#utility.yul\":4624:4876   */\n    tag_103:\n        /* \"#utility.yul\":4732:4736   */\n      0x00\n        /* \"#utility.yul\":4770:4772   */\n      0x20\n        /* \"#utility.yul\":4759:4768   */\n      dup3\n        /* \"#utility.yul\":4755:4773   */\n      add\n        /* \"#utility.yul\":4747:4773   */\n      swap1\n      pop\n        /* \"#utility.yul\":4783:4869   */\n      tag_260\n        /* \"#utility.yul\":4866:4867   */\n      0x00\n        /* \"#utility.yul\":4855:4864   */\n      dup4\n        /* \"#utility.yul\":4851:4868   */\n      add\n        /* \"#utility.yul\":4842:4848   */\n      dup5\n        /* \"#utility.yul\":4783:4869   */\n      tag_196\n      jump\t// in\n    tag_260:\n        /* \"#utility.yul\":4624:4876   */\n      swap3\n      swap2\n      pop\n      pop\n      jump\t// out\n        /* \"#utility.yul\":4882:5062   */\n    tag_197:\n        /* \"#utility.yul\":4930:5007   */\n      0x4e487b7100000000000000000000000000000000000000000000000000000000\n        /* \"#utility.yul\":4927:4928   */\n      0x00\n        /* \"#utility.yul\":4920:5008   */\n      mstore\n        /* \"#utility.yul\":5027:5031   */\n      0x11\n        /* \"#utility.yul\":5024:5025   */\n      0x04\n        /* \"#utility.yul\":5017:5032   */\n      mstore\n        /* \"#utility.yul\":5051:5055   */\n      0x24\n        /* \"#utility.yul\":5048:5049   */\n      0x00\n        /* \"#utility.yul\":5041:5056   */\n      revert\n        /* \"#utility.yul\":5068:5259   */\n    tag_110:\n        /* \"#utility.yul\":5108:5112   */\n      0x00\n        /* \"#utility.yul\":5128:5148   */\n      tag_263\n        /* \"#utility.yul\":5146:5147   */\n      dup3\n        /* \"#utility.yul\":5128:5148   */\n      tag_179\n      jump\t// in\n    tag_263:\n        /* \"#utility.yul\":5123:5148   */\n      swap2\n      pop\n        /* \"#utility.yul\":5162:5182   */\n      tag_264\n        /* \"#utility.yul\":5180:5181   */\n      dup4\n        /* \"#utility.yul\":5162:5182   */\n      tag_179\n      jump\t// in\n    tag_264:\n        /* \"#utility.yul\":5157:5182   */\n      swap3\n      pop\n        /* \"#utility.yul\":5201:5202   */\n      dup3\n        /* \"#utility.yul\":5198:5199   */\n      dup3\n        /* \"#utility.yul\":5195:5203   */\n      lt\n        /* \"#utility.yul\":5192:5226   */\n      iszero\n      tag_265\n      jumpi\n        /* \"#utility.yul\":5206:5224   */\n      tag_266\n      tag_197\n      jump\t// in\n    tag_266:\n        /* \"#utility.yul\":5192:5226   */\n    tag_265:\n        /* \"#utility.yul\":5251:5252   */\n      dup3\n        /* \"#utility.yul\":5248:5249   */\n      dup3\n        /* \"#utility.yul\":5244:5253   */\n      sub\n        /* \"#utility.yul\":5236:5253   */\n      swap1\n      pop\n        /* \"#utility.yul\":5068:5259   */\n      swap3\n      swap2\n      pop\n      pop\n      jump\t// out\n        /* \"#utility.yul\":5265:5445   */\n    tag_115:\n        /* \"#utility.yul\":5313:5390   */\n      0x4e487b7100000000000000000000000000000000000000000000000000000000\n        /* \"#utility.yul\":5310:5311   */\n      0x00\n        /* \"#utility.yul\":5303:5391   */\n      mstore\n        /* \"#utility.yul\":5410:5414   */\n      0x32\n        /* \"#utility.yul\":5407:5408   */\n      0x04\n        /* \"#utility.yul\":5400:5415   */\n      mstore\n        /* \"#utility.yul\":5434:5438   */\n      0x24\n        /* \"#utility.yul\":5431:5432   */\n      0x00\n        /* \"#utility.yul\":5424:5439   */\n      revert\n        /* \"#utility.yul\":5451:5684   */\n    tag_122:\n        /* \"#utility.yul\":5490:5493   */\n      0x00\n        /* \"#utility.yul\":5513:5537   */\n      tag_269\n        /* \"#utility.yul\":5531:5536   */\n      dup3\n        /* \"#utility.yul\":5513:5537   */\n      tag_179\n      jump\t// in\n    tag_269:\n        /* \"#utility.yul\":5504:5537   */\n      swap2\n      pop\n        /* \"#utility.yul\":5559:5625   */\n      0xffffffffffffffffffffffffffffffffffffffffffffffffffffffffffffffff\n        /* \"#utility.yul\":5552:5557   */\n      dup3\n        /* \"#utility.yul\":5549:5626   */\n      eq\n        /* \"#utility.yul\":5546:5649   */\n      iszero\n      tag_270\n      jumpi\n        /* \"#utility.yul\":5629:5647   */\n      tag_271\n      tag_197\n      jump\t// in\n    tag_271:\n        /* \"#utility.yul\":5546:5649   */\n    tag_270:\n        /* \"#utility.yul\":5676:5677   */\n      0x01\n        /* \"#utility.yul\":5669:5674   */\n      dup3\n        /* \"#utility.yul\":5665:5678   */\n      add\n        /* \"#utility.yul\":5658:5678   */\n      swap1\n      pop\n        /* \"#utility.yul\":5451:5684   */\n      swap2\n      swap1\n      pop\n      jump\t// out\n        /* \"#utility.yul\":5690:5833   */\n    tag_198:\n        /* \"#utility.yul\":5747:5752   */\n      0x00\n        /* \"#utility.yul\":5778:5784   */\n      dup2\n        /* \"#utility.yul\":5772:5785   */\n      mload\n        /* \"#utility.yul\":5763:5785   */\n      swap1\n      pop\n        /* \"#utility.yul\":5794:5827   */\n      tag_273\n        /* \"#utility.yul\":5821:5826   */\n      dup2\n        /* \"#utility.yul\":5794:5827   */\n      tag_180\n      jump\t// in\n    tag_273:\n        /* \"#utility.yul\":5690:5833   */\n      swap3\n      swap2\n      pop\n      pop\n      jump\t// out\n        /* \"#utility.yul\":5839:6190   */\n    tag_161:\n        /* \"#utility.yul\":5909:5915   */\n      0x00\n        /* \"#utility.yul\":5958:5960   */\n      0x20\n        /* \"#utility.yul\":5946:5955   */\n      dup3\n        /* \"#utility.yul\":5937:5944   */\n      dup5\n        /* \"#utility.yul\":5933:5956   */\n      sub\n        /* \"#utility.yul\":5929:5961   */\n      slt\n        /* \"#utility.yul\":5926:6045   */\n      iszero\n      tag_275\n      jumpi\n        /* \"#utility.yul\":5964:6043   */\n      tag_276\n      tag_177\n      jump\t// in\n    tag_276:\n        /* \"#utility.yul\":5926:6045   */\n    tag_275:\n        /* \"#utility.yul\":6084:6085   */\n      0x00\n        /* \"#utility.yul\":6109:6173   */\n      tag_277\n        /* \"#utility.yul\":6165:6172   */\n      dup5\n        /* \"#utility.yul\":6156:6162   */\n      dup3\n        /* \"#utility.yul\":6145:6154   */\n      dup6\n        /* \"#utility.yul\":6141:6163   */\n      add\n        /* \"#utility.yul\":6109:6173   */\n      tag_198\n      jump\t// in\n    tag_277:\n        /* \"#utility.yul\":6099:6173   */\n      swap2\n      pop\n        /* \"#utility.yul\":6055:6183   */\n      pop\n        /* \"#utility.yul\":5839:6190   */\n      swap3\n      swap2\n      pop\n      pop\n      jump\t// out\n        /* \"#utility.yul\":6196:6501   */\n    tag_172:\n        /* \"#utility.yul\":6236:6239   */\n      0x00\n        /* \"#utility.yul\":6255:6275   */\n      tag_279\n        /* \"#utility.yul\":6273:6274   */\n      dup3\n        /* \"#utility.yul\":6255:6275   */\n      tag_179\n      jump\t// in\n    tag_279:\n        /* \"#utility.yul\":6250:6275   */\n      swap2\n      pop\n        /* \"#utility.yul\":6289:6309   */\n      tag_280\n        /* \"#utility.yul\":6307:6308   */\n      dup4\n        /* \"#utility.yul\":6289:6309   */\n      tag_179\n      jump\t// in\n    tag_280:\n        /* \"#utility.yul\":6284:6309   */\n      swap3\n      pop\n        /* \"#utility.yul\":6443:6444   */\n      dup3\n        /* \"#utility.yul\":6375:6441   */\n      0xffffffffffffffffffffffffffffffffffffffffffffffffffffffffffffffff\n        /* \"#utility.yul\":6371:6445   */\n      sub\n        /* \"#utility.yul\":6368:6369   */\n      dup3\n        /* \"#utility.yul\":6365:6446   */\n      gt\n        /* \"#utility.yul\":6362:6469   */\n      iszero\n      tag_281\n      jumpi\n        /* \"#utility.yul\":6449:6467   */\n      tag_282\n      tag_197\n      jump\t// in\n    tag_282:\n        /* \"#utility.yul\":6362:6469   */\n    tag_281:\n        /* \"#utility.yul\":6493:6494   */\n      dup3\n        /* \"#utility.yul\":6490:6491   */\n      dup3\n        /* \"#utility.yul\":6486:6495   */\n      add\n        /* \"#utility.yul\":6479:6495   */\n      swap1\n      pop\n        /* \"#utility.yul\":6196:6501   */\n      swap3\n      swap2\n      pop\n      pop\n      jump\t// out\n\n    auxdata: 0xa264697066735822122054879feab89d710be123a26d8ba447d31f9be17de041bc6a535737a3cdab3e6164736f6c63430008090033\n}\n","bytecode":{"linkReferences":{},"object":"608060405260405162001300380380620013008339818101604052810190620000299190620001a3565b336000806101000a81548173ffffffffffffffffffffffffffffffffffffffff021916908373ffffffffffffffffffffffffffffffffffffffff1602179055504260038190555082600460006101000a81548173ffffffffffffffffffffffffffffffffffffffff021916908373ffffffffffffffffffffffffffffffffffffffff16021790555083600281905550816009819055508060058190555060008060146101000a81548160ff0219169083151502179055505050505062000215565b600080fd5b6000819050919050565b6200010481620000ef565b81146200011057600080fd5b50565b6000815190506200012481620000f9565b92915050565b600073ffffffffffffffffffffffffffffffffffffffff82169050919050565b600062000157826200012a565b9050919050565b60006200016b826200014a565b9050919050565b6200017d816200015e565b81146200018957600080fd5b50565b6000815190506200019d8162000172565b92915050565b60008060008060808587031215620001c057620001bf620000ea565b5b6000620001d08782880162000113565b9450506020620001e3878288016200018c565b9350506040620001f68782880162000113565b9250506060620002098782880162000113565b91505092959194509250565b6110db80620002256000396000f3fe6080604052600436106101025760003560e01c80636ff42c8211610095578063bb1d592d11610064578063bb1d592d14610334578063c64134bd1461035f578063dfbf53ae1461039c578063e3ac5d26146103c7578063f60ca60d146103f257610109565b80636ff42c8214610276578063848564821461028d57806394ac5818146102cc578063a3ec138d146102f757610109565b8063481c6a75116100d1578063481c6a75146101de5780634f73108714610209578063522e11771461022057806369668fe91461024b57610109565b80630121b93f1461010e5780631729f9d51461013757806318a5bbdc14610162578063215973cc1461019f57610109565b3661010957005b600080fd5b34801561011a57600080fd5b5061013560048036038101906101309190610d03565b61041d565b005b34801561014357600080fd5b5061014c6105fa565b6040516101599190610d71565b60405180910390f35b34801561016e57600080fd5b5061018960048036038101906101849190610db8565b6107a9565b6040516101969190610e00565b60405180910390f35b3480156101ab57600080fd5b506101c660048036038101906101c19190610d03565b6107c9565b6040516101d593929190610e2a565b60405180910390f35b3480156101ea57600080fd5b506101f361086d565b6040516102009190610d71565b60405180910390f35b34801561021557600080fd5b5061021e610891565b005b34801561022c57600080fd5b506102356109c5565b6040516102429190610e00565b60405180910390f35b34801561025757600080fd5b506102606109d8565b60405161026d9190610e61565b60405180910390f35b34801561028257600080fd5b5061028b6109de565b005b34801561029957600080fd5b506102b460048036038101906102af9190610d03565b610b99565b6040516102c393929190610e2a565b60405180910390f35b3480156102d857600080fd5b506102e1610bf3565b6040516102ee9190610e61565b60405180910390f35b34801561030357600080fd5b5061031e60048036038101906103199190610db8565b610bf9565b60405161032b9190610e00565b60405180910390f35b34801561034057600080fd5b50610349610c19565b6040516103569190610e61565b60405180910390f35b34801561036b57600080fd5b5061038660048036038101906103819190610db8565b610c1f565b6040516103939190610e00565b60405180910390f35b3480156103a857600080fd5b506103b1610c3f565b6040516103be9190610e9d565b60405180910390f35b3480156103d357600080fd5b506103dc610c65565b6040516103e99190610e61565b60405180910390f35b3480156103fe57600080fd5b50610407610c6b565b6040516104149190610f17565b60405180910390f35b600660003373ffffffffffffffffffffffffffffffffffffffff1673ffffffffffffffffffffffffffffffffffffffff16815260200190815260200160002060009054906101000a900460ff1661047357600080fd5b600760003373ffffffffffffffffffffffffffffffffffffffff1673ffffffffffffffffffffffffffffffffffffffff16815260200190815260200160002060009054906101000a900460ff16156104ca57600080fd5b600254600354426104db9190610f61565b11156104e657600080fd5b3373ffffffffffffffffffffffffffffffffffffffff166001828154811061051157610510610f95565b5b906000526020600020906003020160020160009054906101000a900473ffffffffffffffffffffffffffffffffffffffff1673ffffffffffffffffffffffffffffffffffffffff16141561056457600080fd5b6001818154811061057857610577610f95565b5b9060005260206000209060030201600101600081548092919061059a90610fc4565b91905055506001600760003373ffffffffffffffffffffffffffffffffffffffff1673ffffffffffffffffffffffffffffffffffffffff16815260200190815260200160002060006101000a81548160ff02191690831515021790555050565b60008060009054906101000a900473ffffffffffffffffffffffffffffffffffffffff1673ffffffffffffffffffffffffffffffffffffffff163373ffffffffffffffffffffffffffffffffffffffff161461065557600080fd5b600254600354426106669190610f61565b1161067057600080fd5b6000600160008154811061068757610686610f95565b5b9060005260206000209060030201905060005b6001805490508110156106f5576000600182815481106106bd576106bc610f95565b5b906000526020600020906003020190508260010154816001015411156106e1578092505b5080806106ed90610fc4565b91505061069a565b8160020160009054906101000a900473ffffffffffffffffffffffffffffffffffffffff1673ffffffffffffffffffffffffffffffffffffffff166108fc6009549081150290604051600060405180830381858888f19350505050158015610761573d6000803e3d6000fd5b506001600060146101000a81548160ff0219169083151502179055508160020160009054906101000a900473ffffffffffffffffffffffffffffffffffffffff169250505090565b60066020528060005260406000206000915054906101000a900460ff1681565b6000806000600184815481106107e2576107e1610f95565b5b9060005260206000209060030201600001546001858154811061080857610807610f95565b5b9060005260206000209060030201600101546001868154811061082e5761082d610f95565b5b906000526020600020906003020160020160009054906101000a900473ffffffffffffffffffffffffffffffffffffffff169250925092509193909250565b60008054906101000a900473ffffffffffffffffffffffffffffffffffffffff1681565b600254600354426108a29190610f61565b11156108ad57600080fd5b6000600460009054906101000a900473ffffffffffffffffffffffffffffffffffffffff1690506005548173ffffffffffffffffffffffffffffffffffffffff166370a08231336040518263ffffffff1660e01b81526004016109109190610d71565b60206040518083038186803b15801561092857600080fd5b505afa15801561093c573d6000803e3d6000fd5b505050506040513d601f19601f820116820180604052508101906109609190611022565b1161096a57600080fd5b6001600660003373ffffffffffffffffffffffffffffffffffffffff1673ffffffffffffffffffffffffffffffffffffffff16815260200190815260200160002060006101000a81548160ff02191690831515021790555050565b600060149054906101000a900460ff1681565b60035481565b600660003373ffffffffffffffffffffffffffffffffffffffff1673ffffffffffffffffffffffffffffffffffffffff16815260200190815260200160002060009054906101000a900460ff16610a3457600080fd5b60025460035442610a459190610f61565b1115610a5057600080fd5b610a58610c91565b60018080549050610a69919061104f565b816000018181525050600081602001818152505033816040019073ffffffffffffffffffffffffffffffffffffffff16908173ffffffffffffffffffffffffffffffffffffffff16815250506001819080600181540180825580915050600190039060005260206000209060030201600090919091909150600082015181600001556020820151816001015560408201518160020160006101000a81548173ffffffffffffffffffffffffffffffffffffffff021916908373ffffffffffffffffffffffffffffffffffffffff16021790555050506001600860003373ffffffffffffffffffffffffffffffffffffffff1673ffffffffffffffffffffffffffffffffffffffff16815260200190815260200160002060006101000a81548160ff02191690831515021790555050565b60018181548110610ba957600080fd5b90600052602060002090600302016000915090508060000154908060010154908060020160009054906101000a900473ffffffffffffffffffffffffffffffffffffffff16905083565b60055481565b60076020528060005260406000206000915054906101000a900460ff1681565b60025481565b60086020528060005260406000206000915054906101000a900460ff1681565b600a60009054906101000a900473ffffffffffffffffffffffffffffffffffffffff1681565b60095481565b600460009054906101000a900473ffffffffffffffffffffffffffffffffffffffff1681565b60405180606001604052806000815260200160008152602001600073ffffffffffffffffffffffffffffffffffffffff1681525090565b600080fd5b6000819050919050565b610ce081610ccd565b8114610ceb57600080fd5b50565b600081359050610cfd81610cd7565b92915050565b600060208284031215610d1957610d18610cc8565b5b6000610d2784828501610cee565b91505092915050565b600073ffffffffffffffffffffffffffffffffffffffff82169050919050565b6000610d5b82610d30565b9050919050565b610d6b81610d50565b82525050565b6000602082019050610d866000830184610d62565b92915050565b610d9581610d50565b8114610da057600080fd5b50565b600081359050610db281610d8c565b92915050565b600060208284031215610dce57610dcd610cc8565b5b6000610ddc84828501610da3565b91505092915050565b60008115159050919050565b610dfa81610de5565b82525050565b6000602082019050610e156000830184610df1565b92915050565b610e2481610ccd565b82525050565b6000606082019050610e3f6000830186610e1b565b610e4c6020830185610e1b565b610e596040830184610d62565b949350505050565b6000602082019050610e766000830184610e1b565b92915050565b6000610e8782610d30565b9050919050565b610e9781610e7c565b82525050565b6000602082019050610eb26000830184610e8e565b92915050565b6000819050919050565b6000610edd610ed8610ed384610d30565b610eb8565b610d30565b9050919050565b6000610eef82610ec2565b9050919050565b6000610f0182610ee4565b9050919050565b610f1181610ef6565b82525050565b6000602082019050610f2c6000830184610f08565b92915050565b7f4e487b7100000000000000000000000000000000000000000000000000000000600052601160045260246000fd5b6000610f6c82610ccd565b9150610f7783610ccd565b925082821015610f8a57610f89610f32565b5b828203905092915050565b7f4e487b7100000000000000000000000000000000000000000000000000000000600052603260045260246000fd5b6000610fcf82610ccd565b91507fffffffffffffffffffffffffffffffffffffffffffffffffffffffffffffffff82141561100257611001610f32565b5b600182019050919050565b60008151905061101c81610cd7565b92915050565b60006020828403121561103857611037610cc8565b5b60006110468482850161100d565b91505092915050565b600061105a82610ccd565b915061106583610ccd565b9250827fffffffffffffffffffffffffffffffffffffffffffffffffffffffffffffffff0382111561109a57611099610f32565b5b82820190509291505056fea264697066735822122054879feab89d710be123a26d8ba447d31f9be17de041bc6a535737a3cdab3e6164736f6c63430008090033","opcodes":"PUSH1 0x80 PUSH1 0x40 MSTORE PUSH1 0x40 MLOAD PUSH3 0x1300 CODESIZE SUB DUP1 PUSH3 0x1300 DUP4 CODECOPY DUP2 DUP2 ADD PUSH1 0x40 MSTORE DUP2 ADD SWAP1 PUSH3 0x29 SWAP2 SWAP1 PUSH3 0x1A3 JUMP JUMPDEST CALLER PUSH1 0x0 DUP1 PUSH2 0x100 EXP DUP2 SLOAD DUP2 PUSH20 0xFFFFFFFFFFFFFFFFFFFFFFFFFFFFFFFFFFFFFFFF MUL NOT AND SWAP1 DUP4 PUSH20 0xFFFFFFFFFFFFFFFFFFFFFFFFFFFFFFFFFFFFFFFF AND MUL OR SWAP1 SSTORE POP TIMESTAMP PUSH1 0x3 DUP2 SWAP1 SSTORE POP DUP3 PUSH1 0x4 PUSH1 0x0 PUSH2 0x100 EXP DUP2 SLOAD DUP2 PUSH20 0xFFFFFFFFFFFFFFFFFFFFFFFFFFFFFFFFFFFFFFFF MUL NOT AND SWAP1 DUP4 PUSH20 0xFFFFFFFFFFFFFFFFFFFFFFFFFFFFFFFFFFFFFFFF AND MUL OR SWAP1 SSTORE POP DUP4 PUSH1 0x2 DUP2 SWAP1 SSTORE POP DUP2 PUSH1 0x9 DUP2 SWAP1 SSTORE POP DUP1 PUSH1 0x5 DUP2 SWAP1 SSTORE POP PUSH1 0x0 DUP1 PUSH1 0x14 PUSH2 0x100 EXP DUP2 SLOAD DUP2 PUSH1 0xFF MUL NOT AND SWAP1 DUP4 ISZERO ISZERO MUL OR SWAP1 SSTORE POP POP POP POP POP PUSH3 0x215 JUMP JUMPDEST PUSH1 0x0 DUP1 REVERT JUMPDEST PUSH1 0x0 DUP2 SWAP1 POP SWAP2 SWAP1 POP JUMP JUMPDEST PUSH3 0x104 DUP2 PUSH3 0xEF JUMP JUMPDEST DUP2 EQ PUSH3 0x110 JUMPI PUSH1 0x0 DUP1 REVERT JUMPDEST POP JUMP JUMPDEST PUSH1 0x0 DUP2 MLOAD SWAP1 POP PUSH3 0x124 DUP2 PUSH3 0xF9 JUMP JUMPDEST SWAP3 SWAP2 POP POP JUMP JUMPDEST PUSH1 0x0 PUSH20 0xFFFFFFFFFFFFFFFFFFFFFFFFFFFFFFFFFFFFFFFF DUP3 AND SWAP1 POP SWAP2 SWAP1 POP JUMP JUMPDEST PUSH1 0x0 PUSH3 0x157 DUP3 PUSH3 0x12A JUMP JUMPDEST SWAP1 POP SWAP2 SWAP1 POP JUMP JUMPDEST PUSH1 0x0 PUSH3 0x16B DUP3 PUSH3 0x14A JUMP JUMPDEST SWAP1 POP SWAP2 SWAP1 POP JUMP JUMPDEST PUSH3 0x17D DUP2 PUSH3 0x15E JUMP JUMPDEST DUP2 EQ PUSH3 0x189 JUMPI PUSH1 0x0 DUP1 REVERT JUMPDEST POP JUMP JUMPDEST PUSH1 0x0 DUP2 MLOAD SWAP1 POP PUSH3 0x19D DUP2 PUSH3 0x172 JUMP JUMPDEST SWAP3 SWAP2 POP POP JUMP JUMPDEST PUSH1 0x0 DUP1 PUSH1 0x0 DUP1 PUSH1 0x80 DUP6 DUP8 SUB SLT ISZERO PUSH3 0x1C0 JUMPI PUSH3 0x1BF PUSH3 0xEA JUMP JUMPDEST JUMPDEST PUSH1 0x0 PUSH3 0x1D0 DUP8 DUP3 DUP9 ADD PUSH3 0x113 JUMP JUMPDEST SWAP5 POP POP PUSH1 0x20 PUSH3 0x1E3 DUP8 DUP3 DUP9 ADD PUSH3 0x18C JUMP JUMPDEST SWAP4 POP POP PUSH1 0x40 PUSH3 0x1F6 DUP8 DUP3 DUP9 ADD PUSH3 0x113 JUMP JUMPDEST SWAP3 POP POP PUSH1 0x60 PUSH3 0x209 DUP8 DUP3 DUP9 ADD PUSH3 0x113 JUMP JUMPDEST SWAP2 POP POP SWAP3 SWAP6 SWAP2 SWAP5 POP SWAP3 POP JUMP JUMPDEST PUSH2 0x10DB DUP1 PUSH3 0x225 PUSH1 0x0 CODECOPY PUSH1 0x0 RETURN INVALID PUSH1 0x80 PUSH1 0x40 MSTORE PUSH1 0x4 CALLDATASIZE LT PUSH2 0x102 JUMPI PUSH1 0x0 CALLDATALOAD PUSH1 0xE0 SHR DUP1 PUSH4 0x6FF42C82 GT PUSH2 0x95 JUMPI DUP1 PUSH4 0xBB1D592D GT PUSH2 0x64 JUMPI DUP1 PUSH4 0xBB1D592D EQ PUSH2 0x334 JUMPI DUP1 PUSH4 0xC64134BD EQ PUSH2 0x35F JUMPI DUP1 PUSH4 0xDFBF53AE EQ PUSH2 0x39C JUMPI DUP1 PUSH4 0xE3AC5D26 EQ PUSH2 0x3C7 JUMPI DUP1 PUSH4 0xF60CA60D EQ PUSH2 0x3F2 JUMPI PUSH2 0x109 JUMP JUMPDEST DUP1 PUSH4 0x6FF42C82 EQ PUSH2 0x276 JUMPI DUP1 PUSH4 0x84856482 EQ PUSH2 0x28D JUMPI DUP1 PUSH4 0x94AC5818 EQ PUSH2 0x2CC JUMPI DUP1 PUSH4 0xA3EC138D EQ PUSH2 0x2F7 JUMPI PUSH2 0x109 JUMP JUMPDEST DUP1 PUSH4 0x481C6A75 GT PUSH2 0xD1 JUMPI DUP1 PUSH4 0x481C6A75 EQ PUSH2 0x1DE JUMPI DUP1 PUSH4 0x4F731087 EQ PUSH2 0x209 JUMPI DUP1 PUSH4 0x522E1177 EQ PUSH2 0x220 JUMPI DUP1 PUSH4 0x69668FE9 EQ PUSH2 0x24B JUMPI PUSH2 0x109 JUMP JUMPDEST DUP1 PUSH4 0x121B93F EQ PUSH2 0x10E JUMPI DUP1 PUSH4 0x1729F9D5 EQ PUSH2 0x137 JUMPI DUP1 PUSH4 0x18A5BBDC EQ PUSH2 0x162 JUMPI DUP1 PUSH4 0x215973CC EQ PUSH2 0x19F JUMPI PUSH2 0x109 JUMP JUMPDEST CALLDATASIZE PUSH2 0x109 JUMPI STOP JUMPDEST PUSH1 0x0 DUP1 REVERT JUMPDEST CALLVALUE DUP1 ISZERO PUSH2 0x11A JUMPI PUSH1 0x0 DUP1 REVERT JUMPDEST POP PUSH2 0x135 PUSH1 0x4 DUP1 CALLDATASIZE SUB DUP2 ADD SWAP1 PUSH2 0x130 SWAP2 SWAP1 PUSH2 0xD03 JUMP JUMPDEST PUSH2 0x41D JUMP JUMPDEST STOP JUMPDEST CALLVALUE DUP1 ISZERO PUSH2 0x143 JUMPI PUSH1 0x0 DUP1 REVERT JUMPDEST POP PUSH2 0x14C PUSH2 0x5FA JUMP JUMPDEST PUSH1 0x40 MLOAD PUSH2 0x159 SWAP2 SWAP1 PUSH2 0xD71 JUMP JUMPDEST PUSH1 0x40 MLOAD DUP1 SWAP2 SUB SWAP1 RETURN JUMPDEST CALLVALUE DUP1 ISZERO PUSH2 0x16E JUMPI PUSH1 0x0 DUP1 REVERT JUMPDEST POP PUSH2 0x189 PUSH1 0x4 DUP1 CALLDATASIZE SUB DUP2 ADD SWAP1 PUSH2 0x184 SWAP2 SWAP1 PUSH2 0xDB8 JUMP JUMPDEST PUSH2 0x7A9 JUMP JUMPDEST PUSH1 0x40 MLOAD PUSH2 0x196 SWAP2 SWAP1 PUSH2 0xE00 JUMP JUMPDEST PUSH1 0x40 MLOAD DUP1 SWAP2 SUB SWAP1 RETURN JUMPDEST CALLVALUE DUP1 ISZERO PUSH2 0x1AB JUMPI PUSH1 0x0 DUP1 REVERT JUMPDEST POP PUSH2 0x1C6 PUSH1 0x4 DUP1 CALLDATASIZE SUB DUP2 ADD SWAP1 PUSH2 0x1C1 SWAP2 SWAP1 PUSH2 0xD03 JUMP JUMPDEST PUSH2 0x7C9 JUMP JUMPDEST PUSH1 0x40 MLOAD PUSH2 0x1D5 SWAP4 SWAP3 SWAP2 SWAP1 PUSH2 0xE2A JUMP JUMPDEST PUSH1 0x40 MLOAD DUP1 SWAP2 SUB SWAP1 RETURN JUMPDEST CALLVALUE DUP1 ISZERO PUSH2 0x1EA JUMPI PUSH1 0x0 DUP1 REVERT JUMPDEST POP PUSH2 0x1F3 PUSH2 0x86D JUMP JUMPDEST PUSH1 0x40 MLOAD PUSH2 0x200 SWAP2 SWAP1 PUSH2 0xD71 JUMP JUMPDEST PUSH1 0x40 MLOAD DUP1 SWAP2 SUB SWAP1 RETURN JUMPDEST CALLVALUE DUP1 ISZERO PUSH2 0x215 JUMPI PUSH1 0x0 DUP1 REVERT JUMPDEST POP PUSH2 0x21E PUSH2 0x891 JUMP JUMPDEST STOP JUMPDEST CALLVALUE DUP1 ISZERO PUSH2 0x22C JUMPI PUSH1 0x0 DUP1 REVERT JUMPDEST POP PUSH2 0x235 PUSH2 0x9C5 JUMP JUMPDEST PUSH1 0x40 MLOAD PUSH2 0x242 SWAP2 SWAP1 PUSH2 0xE00 JUMP JUMPDEST PUSH1 0x40 MLOAD DUP1 SWAP2 SUB SWAP1 RETURN JUMPDEST CALLVALUE DUP1 ISZERO PUSH2 0x257 JUMPI PUSH1 0x0 DUP1 REVERT JUMPDEST POP PUSH2 0x260 PUSH2 0x9D8 JUMP JUMPDEST PUSH1 0x40 MLOAD PUSH2 0x26D SWAP2 SWAP1 PUSH2 0xE61 JUMP JUMPDEST PUSH1 0x40 MLOAD DUP1 SWAP2 SUB SWAP1 RETURN JUMPDEST CALLVALUE DUP1 ISZERO PUSH2 0x282 JUMPI PUSH1 0x0 DUP1 REVERT JUMPDEST POP PUSH2 0x28B PUSH2 0x9DE JUMP JUMPDEST STOP JUMPDEST CALLVALUE DUP1 ISZERO PUSH2 0x299 JUMPI PUSH1 0x0 DUP1 REVERT JUMPDEST POP PUSH2 0x2B4 PUSH1 0x4 DUP1 CALLDATASIZE SUB DUP2 ADD SWAP1 PUSH2 0x2AF SWAP2 SWAP1 PUSH2 0xD03 JUMP JUMPDEST PUSH2 0xB99 JUMP JUMPDEST PUSH1 0x40 MLOAD PUSH2 0x2C3 SWAP4 SWAP3 SWAP2 SWAP1 PUSH2 0xE2A JUMP JUMPDEST PUSH1 0x40 MLOAD DUP1 SWAP2 SUB SWAP1 RETURN JUMPDEST CALLVALUE DUP1 ISZERO PUSH2 0x2D8 JUMPI PUSH1 0x0 DUP1 REVERT JUMPDEST POP PUSH2 0x2E1 PUSH2 0xBF3 JUMP JUMPDEST PUSH1 0x40 MLOAD PUSH2 0x2EE SWAP2 SWAP1 PUSH2 0xE61 JUMP JUMPDEST PUSH1 0x40 MLOAD DUP1 SWAP2 SUB SWAP1 RETURN JUMPDEST CALLVALUE DUP1 ISZERO PUSH2 0x303 JUMPI PUSH1 0x0 DUP1 REVERT JUMPDEST POP PUSH2 0x31E PUSH1 0x4 DUP1 CALLDATASIZE SUB DUP2 ADD SWAP1 PUSH2 0x319 SWAP2 SWAP1 PUSH2 0xDB8 JUMP JUMPDEST PUSH2 0xBF9 JUMP JUMPDEST PUSH1 0x40 MLOAD PUSH2 0x32B SWAP2 SWAP1 PUSH2 0xE00 JUMP JUMPDEST PUSH1 0x40 MLOAD DUP1 SWAP2 SUB SWAP1 RETURN JUMPDEST CALLVALUE DUP1 ISZERO PUSH2 0x340 JUMPI PUSH1 0x0 DUP1 REVERT JUMPDEST POP PUSH2 0x349 PUSH2 0xC19 JUMP JUMPDEST PUSH1 0x40 MLOAD PUSH2 0x356 SWAP2 SWAP1 PUSH2 0xE61 JUMP JUMPDEST PUSH1 0x40 MLOAD DUP1 SWAP2 SUB SWAP1 RETURN JUMPDEST CALLVALUE DUP1 ISZERO PUSH2 0x36B JUMPI PUSH1 0x0 DUP1 REVERT JUMPDEST POP PUSH2 0x386 PUSH1 0x4 DUP1 CALLDATASIZE SUB DUP2 ADD SWAP1 PUSH2 0x381 SWAP2 SWAP1 PUSH2 0xDB8 JUMP JUMPDEST PUSH2 0xC1F JUMP JUMPDEST PUSH1 0x40 MLOAD PUSH2 0x393 SWAP2 SWAP1 PUSH2 0xE00 JUMP JUMPDEST PUSH1 0x40 MLOAD DUP1 SWAP2 SUB SWAP1 RETURN JUMPDEST CALLVALUE DUP1 ISZERO PUSH2 0x3A8 JUMPI PUSH1 0x0 DUP1 REVERT JUMPDEST POP PUSH2 0x3B1 PUSH2 0xC3F JUMP JUMPDEST PUSH1 0x40 MLOAD PUSH2 0x3BE SWAP2 SWAP1 PUSH2 0xE9D JUMP JUMPDEST PUSH1 0x40 MLOAD DUP1 SWAP2 SUB SWAP1 RETURN JUMPDEST CALLVALUE DUP1 ISZERO PUSH2 0x3D3 JUMPI PUSH1 0x0 DUP1 REVERT JUMPDEST POP PUSH2 0x3DC PUSH2 0xC65 JUMP JUMPDEST PUSH1 0x40 MLOAD PUSH2 0x3E9 SWAP2 SWAP1 PUSH2 0xE61 JUMP JUMPDEST PUSH1 0x40 MLOAD DUP1 SWAP2 SUB SWAP1 RETURN JUMPDEST CALLVALUE DUP1 ISZERO PUSH2 0x3FE JUMPI PUSH1 0x0 DUP1 REVERT JUMPDEST POP PUSH2 0x407 PUSH2 0xC6B JUMP JUMPDEST PUSH1 0x40 MLOAD PUSH2 0x414 SWAP2 SWAP1 PUSH2 0xF17 JUMP JUMPDEST PUSH1 0x40 MLOAD DUP1 SWAP2 SUB SWAP1 RETURN JUMPDEST PUSH1 0x6 PUSH1 0x0 CALLER PUSH20 0xFFFFFFFFFFFFFFFFFFFFFFFFFFFFFFFFFFFFFFFF AND PUSH20 0xFFFFFFFFFFFFFFFFFFFFFFFFFFFFFFFFFFFFFFFF AND DUP2 MSTORE PUSH1 0x20 ADD SWAP1 DUP2 MSTORE PUSH1 0x20 ADD PUSH1 0x0 KECCAK256 PUSH1 0x0 SWAP1 SLOAD SWAP1 PUSH2 0x100 EXP SWAP1 DIV PUSH1 0xFF AND PUSH2 0x473 JUMPI PUSH1 0x0 DUP1 REVERT JUMPDEST PUSH1 0x7 PUSH1 0x0 CALLER PUSH20 0xFFFFFFFFFFFFFFFFFFFFFFFFFFFFFFFFFFFFFFFF AND PUSH20 0xFFFFFFFFFFFFFFFFFFFFFFFFFFFFFFFFFFFFFFFF AND DUP2 MSTORE PUSH1 0x20 ADD SWAP1 DUP2 MSTORE PUSH1 0x20 ADD PUSH1 0x0 KECCAK256 PUSH1 0x0 SWAP1 SLOAD SWAP1 PUSH2 0x100 EXP SWAP1 DIV PUSH1 0xFF AND ISZERO PUSH2 0x4CA JUMPI PUSH1 0x0 DUP1 REVERT JUMPDEST PUSH1 0x2 SLOAD PUSH1 0x3 SLOAD TIMESTAMP PUSH2 0x4DB SWAP2 SWAP1 PUSH2 0xF61 JUMP JUMPDEST GT ISZERO PUSH2 0x4E6 JUMPI PUSH1 0x0 DUP1 REVERT JUMPDEST CALLER PUSH20 0xFFFFFFFFFFFFFFFFFFFFFFFFFFFFFFFFFFFFFFFF AND PUSH1 0x1 DUP3 DUP2 SLOAD DUP2 LT PUSH2 0x511 JUMPI PUSH2 0x510 PUSH2 0xF95 JUMP JUMPDEST JUMPDEST SWAP1 PUSH1 0x0 MSTORE PUSH1 0x20 PUSH1 0x0 KECCAK256 SWAP1 PUSH1 0x3 MUL ADD PUSH1 0x2 ADD PUSH1 0x0 SWAP1 SLOAD SWAP1 PUSH2 0x100 EXP SWAP1 DIV PUSH20 0xFFFFFFFFFFFFFFFFFFFFFFFFFFFFFFFFFFFFFFFF AND PUSH20 0xFFFFFFFFFFFFFFFFFFFFFFFFFFFFFFFFFFFFFFFF AND EQ ISZERO PUSH2 0x564 JUMPI PUSH1 0x0 DUP1 REVERT JUMPDEST PUSH1 0x1 DUP2 DUP2 SLOAD DUP2 LT PUSH2 0x578 JUMPI PUSH2 0x577 PUSH2 0xF95 JUMP JUMPDEST JUMPDEST SWAP1 PUSH1 0x0 MSTORE PUSH1 0x20 PUSH1 0x0 KECCAK256 SWAP1 PUSH1 0x3 MUL ADD PUSH1 0x1 ADD PUSH1 0x0 DUP2 SLOAD DUP1 SWAP3 SWAP2 SWAP1 PUSH2 0x59A SWAP1 PUSH2 0xFC4 JUMP JUMPDEST SWAP2 SWAP1 POP SSTORE POP PUSH1 0x1 PUSH1 0x7 PUSH1 0x0 CALLER PUSH20 0xFFFFFFFFFFFFFFFFFFFFFFFFFFFFFFFFFFFFFFFF AND PUSH20 0xFFFFFFFFFFFFFFFFFFFFFFFFFFFFFFFFFFFFFFFF AND DUP2 MSTORE PUSH1 0x20 ADD SWAP1 DUP2 MSTORE PUSH1 0x20 ADD PUSH1 0x0 KECCAK256 PUSH1 0x0 PUSH2 0x100 EXP DUP2 SLOAD DUP2 PUSH1 0xFF MUL NOT AND SWAP1 DUP4 ISZERO ISZERO MUL OR SWAP1 SSTORE POP POP JUMP JUMPDEST PUSH1 0x0 DUP1 PUSH1 0x0 SWAP1 SLOAD SWAP1 PUSH2 0x100 EXP SWAP1 DIV PUSH20 0xFFFFFFFFFFFFFFFFFFFFFFFFFFFFFFFFFFFFFFFF AND PUSH20 0xFFFFFFFFFFFFFFFFFFFFFFFFFFFFFFFFFFFFFFFF AND CALLER PUSH20 0xFFFFFFFFFFFFFFFFFFFFFFFFFFFFFFFFFFFFFFFF AND EQ PUSH2 0x655 JUMPI PUSH1 0x0 DUP1 REVERT JUMPDEST PUSH1 0x2 SLOAD PUSH1 0x3 SLOAD TIMESTAMP PUSH2 0x666 SWAP2 SWAP1 PUSH2 0xF61 JUMP JUMPDEST GT PUSH2 0x670 JUMPI PUSH1 0x0 DUP1 REVERT JUMPDEST PUSH1 0x0 PUSH1 0x1 PUSH1 0x0 DUP2 SLOAD DUP2 LT PUSH2 0x687 JUMPI PUSH2 0x686 PUSH2 0xF95 JUMP JUMPDEST JUMPDEST SWAP1 PUSH1 0x0 MSTORE PUSH1 0x20 PUSH1 0x0 KECCAK256 SWAP1 PUSH1 0x3 MUL ADD SWAP1 POP PUSH1 0x0 JUMPDEST PUSH1 0x1 DUP1 SLOAD SWAP1 POP DUP2 LT ISZERO PUSH2 0x6F5 JUMPI PUSH1 0x0 PUSH1 0x1 DUP3 DUP2 SLOAD DUP2 LT PUSH2 0x6BD JUMPI PUSH2 0x6BC PUSH2 0xF95 JUMP JUMPDEST JUMPDEST SWAP1 PUSH1 0x0 MSTORE PUSH1 0x20 PUSH1 0x0 KECCAK256 SWAP1 PUSH1 0x3 MUL ADD SWAP1 POP DUP3 PUSH1 0x1 ADD SLOAD DUP2 PUSH1 0x1 ADD SLOAD GT ISZERO PUSH2 0x6E1 JUMPI DUP1 SWAP3 POP JUMPDEST POP DUP1 DUP1 PUSH2 0x6ED SWAP1 PUSH2 0xFC4 JUMP JUMPDEST SWAP2 POP POP PUSH2 0x69A JUMP JUMPDEST DUP2 PUSH1 0x2 ADD PUSH1 0x0 SWAP1 SLOAD SWAP1 PUSH2 0x100 EXP SWAP1 DIV PUSH20 0xFFFFFFFFFFFFFFFFFFFFFFFFFFFFFFFFFFFFFFFF AND PUSH20 0xFFFFFFFFFFFFFFFFFFFFFFFFFFFFFFFFFFFFFFFF AND PUSH2 0x8FC PUSH1 0x9 SLOAD SWAP1 DUP2 ISZERO MUL SWAP1 PUSH1 0x40 MLOAD PUSH1 0x0 PUSH1 0x40 MLOAD DUP1 DUP4 SUB DUP2 DUP6 DUP9 DUP9 CALL SWAP4 POP POP POP POP ISZERO DUP1 ISZERO PUSH2 0x761 JUMPI RETURNDATASIZE PUSH1 0x0 DUP1 RETURNDATACOPY RETURNDATASIZE PUSH1 0x0 REVERT JUMPDEST POP PUSH1 0x1 PUSH1 0x0 PUSH1 0x14 PUSH2 0x100 EXP DUP2 SLOAD DUP2 PUSH1 0xFF MUL NOT AND SWAP1 DUP4 ISZERO ISZERO MUL OR SWAP1 SSTORE POP DUP2 PUSH1 0x2 ADD PUSH1 0x0 SWAP1 SLOAD SWAP1 PUSH2 0x100 EXP SWAP1 DIV PUSH20 0xFFFFFFFFFFFFFFFFFFFFFFFFFFFFFFFFFFFFFFFF AND SWAP3 POP POP POP SWAP1 JUMP JUMPDEST PUSH1 0x6 PUSH1 0x20 MSTORE DUP1 PUSH1 0x0 MSTORE PUSH1 0x40 PUSH1 0x0 KECCAK256 PUSH1 0x0 SWAP2 POP SLOAD SWAP1 PUSH2 0x100 EXP SWAP1 DIV PUSH1 0xFF AND DUP2 JUMP JUMPDEST PUSH1 0x0 DUP1 PUSH1 0x0 PUSH1 0x1 DUP5 DUP2 SLOAD DUP2 LT PUSH2 0x7E2 JUMPI PUSH2 0x7E1 PUSH2 0xF95 JUMP JUMPDEST JUMPDEST SWAP1 PUSH1 0x0 MSTORE PUSH1 0x20 PUSH1 0x0 KECCAK256 SWAP1 PUSH1 0x3 MUL ADD PUSH1 0x0 ADD SLOAD PUSH1 0x1 DUP6 DUP2 SLOAD DUP2 LT PUSH2 0x808 JUMPI PUSH2 0x807 PUSH2 0xF95 JUMP JUMPDEST JUMPDEST SWAP1 PUSH1 0x0 MSTORE PUSH1 0x20 PUSH1 0x0 KECCAK256 SWAP1 PUSH1 0x3 MUL ADD PUSH1 0x1 ADD SLOAD PUSH1 0x1 DUP7 DUP2 SLOAD DUP2 LT PUSH2 0x82E JUMPI PUSH2 0x82D PUSH2 0xF95 JUMP JUMPDEST JUMPDEST SWAP1 PUSH1 0x0 MSTORE PUSH1 0x20 PUSH1 0x0 KECCAK256 SWAP1 PUSH1 0x3 MUL ADD PUSH1 0x2 ADD PUSH1 0x0 SWAP1 SLOAD SWAP1 PUSH2 0x100 EXP SWAP1 DIV PUSH20 0xFFFFFFFFFFFFFFFFFFFFFFFFFFFFFFFFFFFFFFFF AND SWAP3 POP SWAP3 POP SWAP3 POP SWAP2 SWAP4 SWAP1 SWAP3 POP JUMP JUMPDEST PUSH1 0x0 DUP1 SLOAD SWAP1 PUSH2 0x100 EXP SWAP1 DIV PUSH20 0xFFFFFFFFFFFFFFFFFFFFFFFFFFFFFFFFFFFFFFFF AND DUP2 JUMP JUMPDEST PUSH1 0x2 SLOAD PUSH1 0x3 SLOAD TIMESTAMP PUSH2 0x8A2 SWAP2 SWAP1 PUSH2 0xF61 JUMP JUMPDEST GT ISZERO PUSH2 0x8AD JUMPI PUSH1 0x0 DUP1 REVERT JUMPDEST PUSH1 0x0 PUSH1 0x4 PUSH1 0x0 SWAP1 SLOAD SWAP1 PUSH2 0x100 EXP SWAP1 DIV PUSH20 0xFFFFFFFFFFFFFFFFFFFFFFFFFFFFFFFFFFFFFFFF AND SWAP1 POP PUSH1 0x5 SLOAD DUP2 PUSH20 0xFFFFFFFFFFFFFFFFFFFFFFFFFFFFFFFFFFFFFFFF AND PUSH4 0x70A08231 CALLER PUSH1 0x40 MLOAD DUP3 PUSH4 0xFFFFFFFF AND PUSH1 0xE0 SHL DUP2 MSTORE PUSH1 0x4 ADD PUSH2 0x910 SWAP2 SWAP1 PUSH2 0xD71 JUMP JUMPDEST PUSH1 0x20 PUSH1 0x40 MLOAD DUP1 DUP4 SUB DUP2 DUP7 DUP1 EXTCODESIZE ISZERO DUP1 ISZERO PUSH2 0x928 JUMPI PUSH1 0x0 DUP1 REVERT JUMPDEST POP GAS STATICCALL ISZERO DUP1 ISZERO PUSH2 0x93C JUMPI RETURNDATASIZE PUSH1 0x0 DUP1 RETURNDATACOPY RETURNDATASIZE PUSH1 0x0 REVERT JUMPDEST POP POP POP POP PUSH1 0x40 MLOAD RETURNDATASIZE PUSH1 0x1F NOT PUSH1 0x1F DUP3 ADD AND DUP3 ADD DUP1 PUSH1 0x40 MSTORE POP DUP2 ADD SWAP1 PUSH2 0x960 SWAP2 SWAP1 PUSH2 0x1022 JUMP JUMPDEST GT PUSH2 0x96A JUMPI PUSH1 0x0 DUP1 REVERT JUMPDEST PUSH1 0x1 PUSH1 0x6 PUSH1 0x0 CALLER PUSH20 0xFFFFFFFFFFFFFFFFFFFFFFFFFFFFFFFFFFFFFFFF AND PUSH20 0xFFFFFFFFFFFFFFFFFFFFFFFFFFFFFFFFFFFFFFFF AND DUP2 MSTORE PUSH1 0x20 ADD SWAP1 DUP2 MSTORE PUSH1 0x20 ADD PUSH1 0x0 KECCAK256 PUSH1 0x0 PUSH2 0x100 EXP DUP2 SLOAD DUP2 PUSH1 0xFF MUL NOT AND SWAP1 DUP4 ISZERO ISZERO MUL OR SWAP1 SSTORE POP POP JUMP JUMPDEST PUSH1 0x0 PUSH1 0x14 SWAP1 SLOAD SWAP1 PUSH2 0x100 EXP SWAP1 DIV PUSH1 0xFF AND DUP2 JUMP JUMPDEST PUSH1 0x3 SLOAD DUP2 JUMP JUMPDEST PUSH1 0x6 PUSH1 0x0 CALLER PUSH20 0xFFFFFFFFFFFFFFFFFFFFFFFFFFFFFFFFFFFFFFFF AND PUSH20 0xFFFFFFFFFFFFFFFFFFFFFFFFFFFFFFFFFFFFFFFF AND DUP2 MSTORE PUSH1 0x20 ADD SWAP1 DUP2 MSTORE PUSH1 0x20 ADD PUSH1 0x0 KECCAK256 PUSH1 0x0 SWAP1 SLOAD SWAP1 PUSH2 0x100 EXP SWAP1 DIV PUSH1 0xFF AND PUSH2 0xA34 JUMPI PUSH1 0x0 DUP1 REVERT JUMPDEST PUSH1 0x2 SLOAD PUSH1 0x3 SLOAD TIMESTAMP PUSH2 0xA45 SWAP2 SWAP1 PUSH2 0xF61 JUMP JUMPDEST GT ISZERO PUSH2 0xA50 JUMPI PUSH1 0x0 DUP1 REVERT JUMPDEST PUSH2 0xA58 PUSH2 0xC91 JUMP JUMPDEST PUSH1 0x1 DUP1 DUP1 SLOAD SWAP1 POP PUSH2 0xA69 SWAP2 SWAP1 PUSH2 0x104F JUMP JUMPDEST DUP2 PUSH1 0x0 ADD DUP2 DUP2 MSTORE POP POP PUSH1 0x0 DUP2 PUSH1 0x20 ADD DUP2 DUP2 MSTORE POP POP CALLER DUP2 PUSH1 0x40 ADD SWAP1 PUSH20 0xFFFFFFFFFFFFFFFFFFFFFFFFFFFFFFFFFFFFFFFF AND SWAP1 DUP2 PUSH20 0xFFFFFFFFFFFFFFFFFFFFFFFFFFFFFFFFFFFFFFFF AND DUP2 MSTORE POP POP PUSH1 0x1 DUP2 SWAP1 DUP1 PUSH1 0x1 DUP2 SLOAD ADD DUP1 DUP3 SSTORE DUP1 SWAP2 POP POP PUSH1 0x1 SWAP1 SUB SWAP1 PUSH1 0x0 MSTORE PUSH1 0x20 PUSH1 0x0 KECCAK256 SWAP1 PUSH1 0x3 MUL ADD PUSH1 0x0 SWAP1 SWAP2 SWAP1 SWAP2 SWAP1 SWAP2 POP PUSH1 0x0 DUP3 ADD MLOAD DUP2 PUSH1 0x0 ADD SSTORE PUSH1 0x20 DUP3 ADD MLOAD DUP2 PUSH1 0x1 ADD SSTORE PUSH1 0x40 DUP3 ADD MLOAD DUP2 PUSH1 0x2 ADD PUSH1 0x0 PUSH2 0x100 EXP DUP2 SLOAD DUP2 PUSH20 0xFFFFFFFFFFFFFFFFFFFFFFFFFFFFFFFFFFFFFFFF MUL NOT AND SWAP1 DUP4 PUSH20 0xFFFFFFFFFFFFFFFFFFFFFFFFFFFFFFFFFFFFFFFF AND MUL OR SWAP1 SSTORE POP POP POP PUSH1 0x1 PUSH1 0x8 PUSH1 0x0 CALLER PUSH20 0xFFFFFFFFFFFFFFFFFFFFFFFFFFFFFFFFFFFFFFFF AND PUSH20 0xFFFFFFFFFFFFFFFFFFFFFFFFFFFFFFFFFFFFFFFF AND DUP2 MSTORE PUSH1 0x20 ADD SWAP1 DUP2 MSTORE PUSH1 0x20 ADD PUSH1 0x0 KECCAK256 PUSH1 0x0 PUSH2 0x100 EXP DUP2 SLOAD DUP2 PUSH1 0xFF MUL NOT AND SWAP1 DUP4 ISZERO ISZERO MUL OR SWAP1 SSTORE POP POP JUMP JUMPDEST PUSH1 0x1 DUP2 DUP2 SLOAD DUP2 LT PUSH2 0xBA9 JUMPI PUSH1 0x0 DUP1 REVERT JUMPDEST SWAP1 PUSH1 0x0 MSTORE PUSH1 0x20 PUSH1 0x0 KECCAK256 SWAP1 PUSH1 0x3 MUL ADD PUSH1 0x0 SWAP2 POP SWAP1 POP DUP1 PUSH1 0x0 ADD SLOAD SWAP1 DUP1 PUSH1 0x1 ADD SLOAD SWAP1 DUP1 PUSH1 0x2 ADD PUSH1 0x0 SWAP1 SLOAD SWAP1 PUSH2 0x100 EXP SWAP1 DIV PUSH20 0xFFFFFFFFFFFFFFFFFFFFFFFFFFFFFFFFFFFFFFFF AND SWAP1 POP DUP4 JUMP JUMPDEST PUSH1 0x5 SLOAD DUP2 JUMP JUMPDEST PUSH1 0x7 PUSH1 0x20 MSTORE DUP1 PUSH1 0x0 MSTORE PUSH1 0x40 PUSH1 0x0 KECCAK256 PUSH1 0x0 SWAP2 POP SLOAD SWAP1 PUSH2 0x100 EXP SWAP1 DIV PUSH1 0xFF AND DUP2 JUMP JUMPDEST PUSH1 0x2 SLOAD DUP2 JUMP JUMPDEST PUSH1 0x8 PUSH1 0x20 MSTORE DUP1 PUSH1 0x0 MSTORE PUSH1 0x40 PUSH1 0x0 KECCAK256 PUSH1 0x0 SWAP2 POP SLOAD SWAP1 PUSH2 0x100 EXP SWAP1 DIV PUSH1 0xFF AND DUP2 JUMP JUMPDEST PUSH1 0xA PUSH1 0x0 SWAP1 SLOAD SWAP1 PUSH2 0x100 EXP SWAP1 DIV PUSH20 0xFFFFFFFFFFFFFFFFFFFFFFFFFFFFFFFFFFFFFFFF AND DUP2 JUMP JUMPDEST PUSH1 0x9 SLOAD DUP2 JUMP JUMPDEST PUSH1 0x4 PUSH1 0x0 SWAP1 SLOAD SWAP1 PUSH2 0x100 EXP SWAP1 DIV PUSH20 0xFFFFFFFFFFFFFFFFFFFFFFFFFFFFFFFFFFFFFFFF AND DUP2 JUMP JUMPDEST PUSH1 0x40 MLOAD DUP1 PUSH1 0x60 ADD PUSH1 0x40 MSTORE DUP1 PUSH1 0x0 DUP2 MSTORE PUSH1 0x20 ADD PUSH1 0x0 DUP2 MSTORE PUSH1 0x20 ADD PUSH1 0x0 PUSH20 0xFFFFFFFFFFFFFFFFFFFFFFFFFFFFFFFFFFFFFFFF AND DUP2 MSTORE POP SWAP1 JUMP JUMPDEST PUSH1 0x0 DUP1 REVERT JUMPDEST PUSH1 0x0 DUP2 SWAP1 POP SWAP2 SWAP1 POP JUMP JUMPDEST PUSH2 0xCE0 DUP2 PUSH2 0xCCD JUMP JUMPDEST DUP2 EQ PUSH2 0xCEB JUMPI PUSH1 0x0 DUP1 REVERT JUMPDEST POP JUMP JUMPDEST PUSH1 0x0 DUP2 CALLDATALOAD SWAP1 POP PUSH2 0xCFD DUP2 PUSH2 0xCD7 JUMP JUMPDEST SWAP3 SWAP2 POP POP JUMP JUMPDEST PUSH1 0x0 PUSH1 0x20 DUP3 DUP5 SUB SLT ISZERO PUSH2 0xD19 JUMPI PUSH2 0xD18 PUSH2 0xCC8 JUMP JUMPDEST JUMPDEST PUSH1 0x0 PUSH2 0xD27 DUP5 DUP3 DUP6 ADD PUSH2 0xCEE JUMP JUMPDEST SWAP2 POP POP SWAP3 SWAP2 POP POP JUMP JUMPDEST PUSH1 0x0 PUSH20 0xFFFFFFFFFFFFFFFFFFFFFFFFFFFFFFFFFFFFFFFF DUP3 AND SWAP1 POP SWAP2 SWAP1 POP JUMP JUMPDEST PUSH1 0x0 PUSH2 0xD5B DUP3 PUSH2 0xD30 JUMP JUMPDEST SWAP1 POP SWAP2 SWAP1 POP JUMP JUMPDEST PUSH2 0xD6B DUP2 PUSH2 0xD50 JUMP JUMPDEST DUP3 MSTORE POP POP JUMP JUMPDEST PUSH1 0x0 PUSH1 0x20 DUP3 ADD SWAP1 POP PUSH2 0xD86 PUSH1 0x0 DUP4 ADD DUP5 PUSH2 0xD62 JUMP JUMPDEST SWAP3 SWAP2 POP POP JUMP JUMPDEST PUSH2 0xD95 DUP2 PUSH2 0xD50 JUMP JUMPDEST DUP2 EQ PUSH2 0xDA0 JUMPI PUSH1 0x0 DUP1 REVERT JUMPDEST POP JUMP JUMPDEST PUSH1 0x0 DUP2 CALLDATALOAD SWAP1 POP PUSH2 0xDB2 DUP2 PUSH2 0xD8C JUMP JUMPDEST SWAP3 SWAP2 POP POP JUMP JUMPDEST PUSH1 0x0 PUSH1 0x20 DUP3 DUP5 SUB SLT ISZERO PUSH2 0xDCE JUMPI PUSH2 0xDCD PUSH2 0xCC8 JUMP JUMPDEST JUMPDEST PUSH1 0x0 PUSH2 0xDDC DUP5 DUP3 DUP6 ADD PUSH2 0xDA3 JUMP JUMPDEST SWAP2 POP POP SWAP3 SWAP2 POP POP JUMP JUMPDEST PUSH1 0x0 DUP2 ISZERO ISZERO SWAP1 POP SWAP2 SWAP1 POP JUMP JUMPDEST PUSH2 0xDFA DUP2 PUSH2 0xDE5 JUMP JUMPDEST DUP3 MSTORE POP POP JUMP JUMPDEST PUSH1 0x0 PUSH1 0x20 DUP3 ADD SWAP1 POP PUSH2 0xE15 PUSH1 0x0 DUP4 ADD DUP5 PUSH2 0xDF1 JUMP JUMPDEST SWAP3 SWAP2 POP POP JUMP JUMPDEST PUSH2 0xE24 DUP2 PUSH2 0xCCD JUMP JUMPDEST DUP3 MSTORE POP POP JUMP JUMPDEST PUSH1 0x0 PUSH1 0x60 DUP3 ADD SWAP1 POP PUSH2 0xE3F PUSH1 0x0 DUP4 ADD DUP7 PUSH2 0xE1B JUMP JUMPDEST PUSH2 0xE4C PUSH1 0x20 DUP4 ADD DUP6 PUSH2 0xE1B JUMP JUMPDEST PUSH2 0xE59 PUSH1 0x40 DUP4 ADD DUP5 PUSH2 0xD62 JUMP JUMPDEST SWAP5 SWAP4 POP POP POP POP JUMP JUMPDEST PUSH1 0x0 PUSH1 0x20 DUP3 ADD SWAP1 POP PUSH2 0xE76 PUSH1 0x0 DUP4 ADD DUP5 PUSH2 0xE1B JUMP JUMPDEST SWAP3 SWAP2 POP POP JUMP JUMPDEST PUSH1 0x0 PUSH2 0xE87 DUP3 PUSH2 0xD30 JUMP JUMPDEST SWAP1 POP SWAP2 SWAP1 POP JUMP JUMPDEST PUSH2 0xE97 DUP2 PUSH2 0xE7C JUMP JUMPDEST DUP3 MSTORE POP POP JUMP JUMPDEST PUSH1 0x0 PUSH1 0x20 DUP3 ADD SWAP1 POP PUSH2 0xEB2 PUSH1 0x0 DUP4 ADD DUP5 PUSH2 0xE8E JUMP JUMPDEST SWAP3 SWAP2 POP POP JUMP JUMPDEST PUSH1 0x0 DUP2 SWAP1 POP SWAP2 SWAP1 POP JUMP JUMPDEST PUSH1 0x0 PUSH2 0xEDD PUSH2 0xED8 PUSH2 0xED3 DUP5 PUSH2 0xD30 JUMP JUMPDEST PUSH2 0xEB8 JUMP JUMPDEST PUSH2 0xD30 JUMP JUMPDEST SWAP1 POP SWAP2 SWAP1 POP JUMP JUMPDEST PUSH1 0x0 PUSH2 0xEEF DUP3 PUSH2 0xEC2 JUMP JUMPDEST SWAP1 POP SWAP2 SWAP1 POP JUMP JUMPDEST PUSH1 0x0 PUSH2 0xF01 DUP3 PUSH2 0xEE4 JUMP JUMPDEST SWAP1 POP SWAP2 SWAP1 POP JUMP JUMPDEST PUSH2 0xF11 DUP2 PUSH2 0xEF6 JUMP JUMPDEST DUP3 MSTORE POP POP JUMP JUMPDEST PUSH1 0x0 PUSH1 0x20 DUP3 ADD SWAP1 POP PUSH2 0xF2C PUSH1 0x0 DUP4 ADD DUP5 PUSH2 0xF08 JUMP JUMPDEST SWAP3 SWAP2 POP POP JUMP JUMPDEST PUSH32 0x4E487B7100000000000000000000000000000000000000000000000000000000 PUSH1 0x0 MSTORE PUSH1 0x11 PUSH1 0x4 MSTORE PUSH1 0x24 PUSH1 0x0 REVERT JUMPDEST PUSH1 0x0 PUSH2 0xF6C DUP3 PUSH2 0xCCD JUMP JUMPDEST SWAP2 POP PUSH2 0xF77 DUP4 PUSH2 0xCCD JUMP JUMPDEST SWAP3 POP DUP3 DUP3 LT ISZERO PUSH2 0xF8A JUMPI PUSH2 0xF89 PUSH2 0xF32 JUMP JUMPDEST JUMPDEST DUP3 DUP3 SUB SWAP1 POP SWAP3 SWAP2 POP POP JUMP JUMPDEST PUSH32 0x4E487B7100000000000000000000000000000000000000000000000000000000 PUSH1 0x0 MSTORE PUSH1 0x32 PUSH1 0x4 MSTORE PUSH1 0x24 PUSH1 0x0 REVERT JUMPDEST PUSH1 0x0 PUSH2 0xFCF DUP3 PUSH2 0xCCD JUMP JUMPDEST SWAP2 POP PUSH32 0xFFFFFFFFFFFFFFFFFFFFFFFFFFFFFFFFFFFFFFFFFFFFFFFFFFFFFFFFFFFFFFFF DUP3 EQ ISZERO PUSH2 0x1002 JUMPI PUSH2 0x1001 PUSH2 0xF32 JUMP JUMPDEST JUMPDEST PUSH1 0x1 DUP3 ADD SWAP1 POP SWAP2 SWAP1 POP JUMP JUMPDEST PUSH1 0x0 DUP2 MLOAD SWAP1 POP PUSH2 0x101C DUP2 PUSH2 0xCD7 JUMP JUMPDEST SWAP3 SWAP2 POP POP JUMP JUMPDEST PUSH1 0x0 PUSH1 0x20 DUP3 DUP5 SUB SLT ISZERO PUSH2 0x1038 JUMPI PUSH2 0x1037 PUSH2 0xCC8 JUMP JUMPDEST JUMPDEST PUSH1 0x0 PUSH2 0x1046 DUP5 DUP3 DUP6 ADD PUSH2 0x100D JUMP JUMPDEST SWAP2 POP POP SWAP3 SWAP2 POP POP JUMP JUMPDEST PUSH1 0x0 PUSH2 0x105A DUP3 PUSH2 0xCCD JUMP JUMPDEST SWAP2 POP PUSH2 0x1065 DUP4 PUSH2 0xCCD JUMP JUMPDEST SWAP3 POP DUP3 PUSH32 0xFFFFFFFFFFFFFFFFFFFFFFFFFFFFFFFFFFFFFFFFFFFFFFFFFFFFFFFFFFFFFFFF SUB DUP3 GT ISZERO PUSH2 0x109A JUMPI PUSH2 0x1099 PUSH2 0xF32 JUMP JUMPDEST JUMPDEST DUP3 DUP3 ADD SWAP1 POP SWAP3 SWAP2 POP POP JUMP INVALID LOG2 PUSH5 0x6970667358 0x22 SLT KECCAK256 SLOAD DUP8 SWAP16 0xEA 0xB8 SWAP14 PUSH18 0xBE123A26D8BA447D31F9BE17DE041BC6A53 JUMPI CALLDATACOPY LOG3 0xCD 0xAB RETURNDATACOPY PUSH2 0x6473 PUSH16 0x6C634300080900330000000000000000 "},"gasEstimates":{"creation":{"codeDepositCost":"863000","executionCost":"infinite","totalCost":"infinite"},"external":{"addImage()":"infinite","checkTokenBalance()":"infinite","complete()":"2588","deployDate()":"2518","finalizeContest()":"infinite","getVotersPicCount(uint256)":"infinite","holders(address)":"2913","images(uint256)":"infinite","manager()":"2534","minimumToken()":"2496","partecipants(address)":"2889","prize()":"2517","project()":"infinite","tempo()":"2451","vote(uint256)":"infinite","voters(address)":"2934","winner()":"2580"}},"methodIdentifiers":{"addImage()":"6ff42c82","checkTokenBalance()":"4f731087","complete()":"522e1177","deployDate()":"69668fe9","finalizeContest()":"1729f9d5","getVotersPicCount(uint256)":"215973cc","holders(address)":"18a5bbdc","images(uint256)":"84856482","manager()":"481c6a75","minimumToken()":"94ac5818","partecipants(address)":"c64134bd","prize()":"e3ac5d26","project()":"f60ca60d","tempo()":"bb1d592d","vote(uint256)":"0121b93f","voters(address)":"a3ec138d","winner()":"dfbf53ae"}},"storageLayout":{"storage":[{"astId":3173,"contract":"Contest.sol:Contest","label":"manager","offset":0,"slot":"0","type":"t_address"},{"astId":3175,"contract":"Contest.sol:Contest","label":"complete","offset":20,"slot":"0","type":"t_bool"},{"astId":3179,"contract":"Contest.sol:Contest","label":"images","offset":0,"slot":"1","type":"t_array(t_struct(Image)3171_storage)dyn_storage"},{"astId":3181,"contract":"Contest.sol:Contest","label":"tempo","offset":0,"slot":"2","type":"t_uint256"},{"astId":3183,"contract":"Contest.sol:Contest","label":"deployDate","offset":0,"slot":"3","type":"t_uint256"},{"astId":3186,"contract":"Contest.sol:Contest","label":"project","offset":0,"slot":"4","type":"t_contract(IERC20)2955"},{"astId":3188,"contract":"Contest.sol:Contest","label":"minimumToken","offset":0,"slot":"5","type":"t_uint256"},{"astId":3192,"contract":"Contest.sol:Contest","label":"holders","offset":0,"slot":"6","type":"t_mapping(t_address,t_bool)"},{"astId":3196,"contract":"Contest.sol:Contest","label":"voters","offset":0,"slot":"7","type":"t_mapping(t_address,t_bool)"},{"astId":3200,"contract":"Contest.sol:Contest","label":"partecipants","offset":0,"slot":"8","type":"t_mapping(t_address,t_bool)"},{"astId":3202,"contract":"Contest.sol:Contest","label":"prize","offset":0,"slot":"9","type":"t_uint256"},{"astId":3204,"contract":"Contest.sol:Contest","label":"winner","offset":0,"slot":"10","type":"t_address_payable"}],"types":{"t_address":{"encoding":"inplace","label":"address","numberOfBytes":"20"},"t_address_payable":{"encoding":"inplace","label":"address payable","numberOfBytes":"20"},"t_array(t_struct(Image)3171_storage)dyn_storage":{"base":"t_struct(Image)3171_storage","encoding":"dynamic_array","label":"struct Contest.Image[]","numberOfBytes":"32"},"t_bool":{"encoding":"inplace","label":"bool","numberOfBytes":"1"},"t_contract(IERC20)2955":{"encoding":"inplace","label":"contract IERC20","numberOfBytes":"20"},"t_mapping(t_address,t_bool)":{"encoding":"mapping","key":"t_address","label":"mapping(address => bool)","numberOfBytes":"32","value":"t_bool"},"t_struct(Image)3171_storage":{"encoding":"inplace","label":"struct Contest.Image","members":[{"astId":3166,"contract":"Contest.sol:Contest","label":"picId","offset":0,"slot":"0","type":"t_uint256"},{"astId":3168,"contract":"Contest.sol:Contest","label":"votersPicCount","offset":0,"slot":"1","type":"t_uint256"},{"astId":3170,"contract":"Contest.sol:Contest","label":"ownerPic","offset":0,"slot":"2","type":"t_address"}],"numberOfBytes":"96"},"t_uint256":{"encoding":"inplace","label":"uint256","numberOfBytes":"32"}}},"userdoc":{"kind":"user","methods":{},"version":1}}