{"abi":[{"inputs":[{"internalType":"uint256","name":"time","type":"uint256"},{"internalType":"contract IERC20","name":"contractProject","type":"address"},{"internalType":"uint256","name":"value","type":"uint256"},{"internalType":"uint256","name":"minimumTokenHolder","type":"uint256"}],"stateMutability":"payable","type":"constructor"},{"inputs":[],"name":"addImage","outputs":[],"stateMutability":"nonpayable","type":"function"},{"inputs":[],"name":"checkTokenBalance","outputs":[],"stateMutability":"nonpayable","type":"function"},{"inputs":[],"name":"complete","outputs":[{"internalType":"bool","name":"","type":"bool"}],"stateMutability":"view","type":"function"},{"inputs":[],"name":"deployDate","outputs":[{"internalType":"uint256","name":"","type":"uint256"}],"stateMutability":"view","type":"function"},{"inputs":[],"name":"finalizeContest","outputs":[{"internalType":"address","name":"","type":"address"}],"stateMutability":"nonpayable","type":"function"},{"inputs":[{"internalType":"uint256","name":"index","type":"uint256"}],"name":"getVotersPicCount","outputs":[{"internalType":"uint256","name":"","type":"uint256"},{"internalType":"uint256","name":"","type":"uint256"},{"internalType":"address","name":"","type":"address"}],"stateMutability":"view","type":"function"},{"inputs":[{"internalType":"address","name":"","type":"address"}],"name":"holders","outputs":[{"internalType":"bool","name":"","type":"bool"}],"stateMutability":"view","type":"function"},{"inputs":[{"internalType":"uint256","name":"","type":"uint256"}],"name":"images","outputs":[{"internalType":"uint256","name":"picId","type":"uint256"},{"internalType":"uint256","name":"votersPicCount","type":"uint256"},{"internalType":"address","name":"ownerPic","type":"address"}],"stateMutability":"view","type":"function"},{"inputs":[],"name":"manager","outputs":[{"internalType":"address","name":"","type":"address"}],"stateMutability":"view","type":"function"},{"inputs":[{"internalType":"address","name":"","type":"address"}],"name":"partecipants","outputs":[{"internalType":"bool","name":"","type":"bool"}],"stateMutability":"view","type":"function"},{"inputs":[],"name":"prize","outputs":[{"internalType":"uint256","name":"","type":"uint256"}],"stateMutability":"view","type":"function"},{"inputs":[],"name":"project","outputs":[{"internalType":"contract IERC20","name":"","type":"address"}],"stateMutability":"view","type":"function"},{"inputs":[],"name":"tempo","outputs":[{"internalType":"uint256","name":"","type":"uint256"}],"stateMutability":"view","type":"function"},{"inputs":[{"internalType":"uint256","name":"index","type":"uint256"}],"name":"vote","outputs":[],"stateMutability":"nonpayable","type":"function"},{"inputs":[{"internalType":"address","name":"","type":"address"}],"name":"voters","outputs":[{"internalType":"bool","name":"","type":"bool"}],"stateMutability":"view","type":"function"},{"inputs":[],"name":"winner","outputs":[{"internalType":"address payable","name":"","type":"address"}],"stateMutability":"view","type":"function"},{"stateMutability":"payable","type":"receive"}],"devdoc":{"kind":"dev","methods":{},"version":1},"evm":{"assembly":"    /* \"Contest.sol\":61618:64541  contract Contest {... */\n  mstore(0x40, 0x80)\n    /* \"Contest.sol\":62712:63029  constructor (uint time, IERC20 contractProject, uint value,uint minimumTokenHolder) payable {... */\n  mload(0x40)\n  sub(codesize, bytecodeSize)\n  dup1\n  bytecodeSize\n  dup4\n  codecopy\n  dup2\n  dup2\n  add\n  0x40\n  mstore\n  dup2\n  add\n  swap1\n  tag_1\n  swap2\n  swap1\n  tag_2\n  jump\t// in\ntag_1:\n    /* \"Contest.sol\":62824:62834  msg.sender */\n  caller\n    /* \"Contest.sol\":62814:62821  manager */\n  0x00\n  dup1\n    /* \"Contest.sol\":62814:62834  manager = msg.sender */\n  0x0100\n  exp\n  dup2\n  sload\n  dup2\n  0xffffffffffffffffffffffffffffffffffffffff\n  mul\n  not\n  and\n  swap1\n  dup4\n  0xffffffffffffffffffffffffffffffffffffffff\n  and\n  mul\n  or\n  swap1\n  sstore\n  pop\n    /* \"Contest.sol\":62857:62872  block.timestamp */\n  timestamp\n    /* \"Contest.sol\":62844:62854  deployDate */\n  0x03\n    /* \"Contest.sol\":62844:62872  deployDate = block.timestamp */\n  dup2\n  swap1\n  sstore\n  pop\n    /* \"Contest.sol\":62892:62907  contractProject */\n  dup3\n    /* \"Contest.sol\":62882:62889  project */\n  0x04\n  0x00\n    /* \"Contest.sol\":62882:62907  project = contractProject */\n  0x0100\n  exp\n  dup2\n  sload\n  dup2\n  0xffffffffffffffffffffffffffffffffffffffff\n  mul\n  not\n  and\n  swap1\n  dup4\n  0xffffffffffffffffffffffffffffffffffffffff\n  and\n  mul\n  or\n  swap1\n  sstore\n  pop\n    /* \"Contest.sol\":62925:62929  time */\n  dup4\n    /* \"Contest.sol\":62917:62922  tempo */\n  0x02\n    /* \"Contest.sol\":62917:62929  tempo = time */\n  dup2\n  swap1\n  sstore\n  pop\n    /* \"Contest.sol\":62947:62952  value */\n  dup2\n    /* \"Contest.sol\":62939:62944  prize */\n  0x09\n    /* \"Contest.sol\":62939:62952  prize = value */\n  dup2\n  swap1\n  sstore\n  pop\n    /* \"Contest.sol\":62977:62995  minimumTokenHolder */\n  dup1\n    /* \"Contest.sol\":62962:62974  minimumToken */\n  0x05\n    /* \"Contest.sol\":62962:62995  minimumToken = minimumTokenHolder */\n  dup2\n  swap1\n  sstore\n  pop\n    /* \"Contest.sol\":63017:63022  false */\n  0x00\n    /* \"Contest.sol\":63006:63014  complete */\n  dup1\n  0x14\n    /* \"Contest.sol\":63006:63022  complete = false */\n  0x0100\n  exp\n  dup2\n  sload\n  dup2\n  0xff\n  mul\n  not\n  and\n  swap1\n  dup4\n  iszero\n  iszero\n  mul\n  or\n  swap1\n  sstore\n  pop\n    /* \"Contest.sol\":62712:63029  constructor (uint time, IERC20 contractProject, uint value,uint minimumTokenHolder) payable {... */\n  pop\n  pop\n  pop\n  pop\n    /* \"Contest.sol\":61618:64541  contract Contest {... */\n  jump(tag_5)\n    /* \"#utility.yul\":88:205   */\ntag_7:\n    /* \"#utility.yul\":197:198   */\n  0x00\n    /* \"#utility.yul\":194:195   */\n  dup1\n    /* \"#utility.yul\":187:199   */\n  revert\n    /* \"#utility.yul\":334:411   */\ntag_9:\n    /* \"#utility.yul\":371:378   */\n  0x00\n    /* \"#utility.yul\":400:405   */\n  dup2\n    /* \"#utility.yul\":389:405   */\n  swap1\n  pop\n    /* \"#utility.yul\":334:411   */\n  swap2\n  swap1\n  pop\n  jump\t// out\n    /* \"#utility.yul\":417:539   */\ntag_10:\n    /* \"#utility.yul\":490:514   */\n  tag_23\n    /* \"#utility.yul\":508:513   */\n  dup2\n    /* \"#utility.yul\":490:514   */\n  tag_9\n  jump\t// in\ntag_23:\n    /* \"#utility.yul\":483:488   */\n  dup2\n    /* \"#utility.yul\":480:515   */\n  eq\n    /* \"#utility.yul\":470:533   */\n  tag_24\n  jumpi\n    /* \"#utility.yul\":529:530   */\n  0x00\n    /* \"#utility.yul\":526:527   */\n  dup1\n    /* \"#utility.yul\":519:531   */\n  revert\n    /* \"#utility.yul\":470:533   */\ntag_24:\n    /* \"#utility.yul\":417:539   */\n  pop\n  jump\t// out\n    /* \"#utility.yul\":545:688   */\ntag_11:\n    /* \"#utility.yul\":602:607   */\n  0x00\n    /* \"#utility.yul\":633:639   */\n  dup2\n    /* \"#utility.yul\":627:640   */\n  mload\n    /* \"#utility.yul\":618:640   */\n  swap1\n  pop\n    /* \"#utility.yul\":649:682   */\n  tag_26\n    /* \"#utility.yul\":676:681   */\n  dup2\n    /* \"#utility.yul\":649:682   */\n  tag_10\n  jump\t// in\ntag_26:\n    /* \"#utility.yul\":545:688   */\n  swap3\n  swap2\n  pop\n  pop\n  jump\t// out\n    /* \"#utility.yul\":694:820   */\ntag_12:\n    /* \"#utility.yul\":731:738   */\n  0x00\n    /* \"#utility.yul\":771:813   */\n  0xffffffffffffffffffffffffffffffffffffffff\n    /* \"#utility.yul\":764:769   */\n  dup3\n    /* \"#utility.yul\":760:814   */\n  and\n    /* \"#utility.yul\":749:814   */\n  swap1\n  pop\n    /* \"#utility.yul\":694:820   */\n  swap2\n  swap1\n  pop\n  jump\t// out\n    /* \"#utility.yul\":826:922   */\ntag_13:\n    /* \"#utility.yul\":863:870   */\n  0x00\n    /* \"#utility.yul\":892:916   */\n  tag_29\n    /* \"#utility.yul\":910:915   */\n  dup3\n    /* \"#utility.yul\":892:916   */\n  tag_12\n  jump\t// in\ntag_29:\n    /* \"#utility.yul\":881:916   */\n  swap1\n  pop\n    /* \"#utility.yul\":826:922   */\n  swap2\n  swap1\n  pop\n  jump\t// out\n    /* \"#utility.yul\":928:1039   */\ntag_14:\n    /* \"#utility.yul\":980:987   */\n  0x00\n    /* \"#utility.yul\":1009:1033   */\n  tag_31\n    /* \"#utility.yul\":1027:1032   */\n  dup3\n    /* \"#utility.yul\":1009:1033   */\n  tag_13\n  jump\t// in\ntag_31:\n    /* \"#utility.yul\":998:1033   */\n  swap1\n  pop\n    /* \"#utility.yul\":928:1039   */\n  swap2\n  swap1\n  pop\n  jump\t// out\n    /* \"#utility.yul\":1045:1197   */\ntag_15:\n    /* \"#utility.yul\":1133:1172   */\n  tag_33\n    /* \"#utility.yul\":1166:1171   */\n  dup2\n    /* \"#utility.yul\":1133:1172   */\n  tag_14\n  jump\t// in\ntag_33:\n    /* \"#utility.yul\":1126:1131   */\n  dup2\n    /* \"#utility.yul\":1123:1173   */\n  eq\n    /* \"#utility.yul\":1113:1191   */\n  tag_34\n  jumpi\n    /* \"#utility.yul\":1187:1188   */\n  0x00\n    /* \"#utility.yul\":1184:1185   */\n  dup1\n    /* \"#utility.yul\":1177:1189   */\n  revert\n    /* \"#utility.yul\":1113:1191   */\ntag_34:\n    /* \"#utility.yul\":1045:1197   */\n  pop\n  jump\t// out\n    /* \"#utility.yul\":1203:1376   */\ntag_16:\n    /* \"#utility.yul\":1275:1280   */\n  0x00\n    /* \"#utility.yul\":1306:1312   */\n  dup2\n    /* \"#utility.yul\":1300:1313   */\n  mload\n    /* \"#utility.yul\":1291:1313   */\n  swap1\n  pop\n    /* \"#utility.yul\":1322:1370   */\n  tag_36\n    /* \"#utility.yul\":1364:1369   */\n  dup2\n    /* \"#utility.yul\":1322:1370   */\n  tag_15\n  jump\t// in\ntag_36:\n    /* \"#utility.yul\":1203:1376   */\n  swap3\n  swap2\n  pop\n  pop\n  jump\t// out\n    /* \"#utility.yul\":1382:2232   */\ntag_2:\n    /* \"#utility.yul\":1494:1500   */\n  0x00\n    /* \"#utility.yul\":1502:1508   */\n  dup1\n    /* \"#utility.yul\":1510:1516   */\n  0x00\n    /* \"#utility.yul\":1518:1524   */\n  dup1\n    /* \"#utility.yul\":1567:1570   */\n  0x80\n    /* \"#utility.yul\":1555:1564   */\n  dup6\n    /* \"#utility.yul\":1546:1553   */\n  dup8\n    /* \"#utility.yul\":1542:1565   */\n  sub\n    /* \"#utility.yul\":1538:1571   */\n  slt\n    /* \"#utility.yul\":1535:1655   */\n  iszero\n  tag_38\n  jumpi\n    /* \"#utility.yul\":1574:1653   */\n  tag_39\n  tag_7\n  jump\t// in\ntag_39:\n    /* \"#utility.yul\":1535:1655   */\ntag_38:\n    /* \"#utility.yul\":1694:1695   */\n  0x00\n    /* \"#utility.yul\":1719:1783   */\n  tag_40\n    /* \"#utility.yul\":1775:1782   */\n  dup8\n    /* \"#utility.yul\":1766:1772   */\n  dup3\n    /* \"#utility.yul\":1755:1764   */\n  dup9\n    /* \"#utility.yul\":1751:1773   */\n  add\n    /* \"#utility.yul\":1719:1783   */\n  tag_11\n  jump\t// in\ntag_40:\n    /* \"#utility.yul\":1709:1783   */\n  swap5\n  pop\n    /* \"#utility.yul\":1665:1793   */\n  pop\n    /* \"#utility.yul\":1832:1834   */\n  0x20\n    /* \"#utility.yul\":1858:1937   */\n  tag_41\n    /* \"#utility.yul\":1929:1936   */\n  dup8\n    /* \"#utility.yul\":1920:1926   */\n  dup3\n    /* \"#utility.yul\":1909:1918   */\n  dup9\n    /* \"#utility.yul\":1905:1927   */\n  add\n    /* \"#utility.yul\":1858:1937   */\n  tag_16\n  jump\t// in\ntag_41:\n    /* \"#utility.yul\":1848:1937   */\n  swap4\n  pop\n    /* \"#utility.yul\":1803:1947   */\n  pop\n    /* \"#utility.yul\":1986:1988   */\n  0x40\n    /* \"#utility.yul\":2012:2076   */\n  tag_42\n    /* \"#utility.yul\":2068:2075   */\n  dup8\n    /* \"#utility.yul\":2059:2065   */\n  dup3\n    /* \"#utility.yul\":2048:2057   */\n  dup9\n    /* \"#utility.yul\":2044:2066   */\n  add\n    /* \"#utility.yul\":2012:2076   */\n  tag_11\n  jump\t// in\ntag_42:\n    /* \"#utility.yul\":2002:2076   */\n  swap3\n  pop\n    /* \"#utility.yul\":1957:2086   */\n  pop\n    /* \"#utility.yul\":2125:2127   */\n  0x60\n    /* \"#utility.yul\":2151:2215   */\n  tag_43\n    /* \"#utility.yul\":2207:2214   */\n  dup8\n    /* \"#utility.yul\":2198:2204   */\n  dup3\n    /* \"#utility.yul\":2187:2196   */\n  dup9\n    /* \"#utility.yul\":2183:2205   */\n  add\n    /* \"#utility.yul\":2151:2215   */\n  tag_11\n  jump\t// in\ntag_43:\n    /* \"#utility.yul\":2141:2215   */\n  swap2\n  pop\n    /* \"#utility.yul\":2096:2225   */\n  pop\n    /* \"#utility.yul\":1382:2232   */\n  swap3\n  swap6\n  swap2\n  swap5\n  pop\n  swap3\n  pop\n  jump\t// out\n    /* \"Contest.sol\":61618:64541  contract Contest {... */\ntag_5:\n  dataSize(sub_0)\n  dup1\n  dataOffset(sub_0)\n  0x00\n  codecopy\n  0x00\n  return\nstop\n\nsub_0: assembly {\n        /* \"Contest.sol\":61618:64541  contract Contest {... */\n      mstore(0x40, 0x80)\n      jumpi(tag_1, lt(calldatasize, 0x04))\n      shr(0xe0, calldataload(0x00))\n      dup1\n      0x6ff42c82\n      gt\n      tag_19\n      jumpi\n      dup1\n      0xc64134bd\n      gt\n      tag_20\n      jumpi\n      dup1\n      0xc64134bd\n      eq\n      tag_15\n      jumpi\n      dup1\n      0xdfbf53ae\n      eq\n      tag_16\n      jumpi\n      dup1\n      0xe3ac5d26\n      eq\n      tag_17\n      jumpi\n      dup1\n      0xf60ca60d\n      eq\n      tag_18\n      jumpi\n      jump(tag_2)\n    tag_20:\n      dup1\n      0x6ff42c82\n      eq\n      tag_11\n      jumpi\n      dup1\n      0x84856482\n      eq\n      tag_12\n      jumpi\n      dup1\n      0xa3ec138d\n      eq\n      tag_13\n      jumpi\n      dup1\n      0xbb1d592d\n      eq\n      tag_14\n      jumpi\n      jump(tag_2)\n    tag_19:\n      dup1\n      0x481c6a75\n      gt\n      tag_21\n      jumpi\n      dup1\n      0x481c6a75\n      eq\n      tag_7\n      jumpi\n      dup1\n      0x4f731087\n      eq\n      tag_8\n      jumpi\n      dup1\n      0x522e1177\n      eq\n      tag_9\n      jumpi\n      dup1\n      0x69668fe9\n      eq\n      tag_10\n      jumpi\n      jump(tag_2)\n    tag_21:\n      dup1\n      0x0121b93f\n      eq\n      tag_3\n      jumpi\n      dup1\n      0x1729f9d5\n      eq\n      tag_4\n      jumpi\n      dup1\n      0x18a5bbdc\n      eq\n      tag_5\n      jumpi\n      dup1\n      0x215973cc\n      eq\n      tag_6\n      jumpi\n      jump(tag_2)\n    tag_1:\n      jumpi(tag_2, calldatasize)\n      stop\n    tag_2:\n      0x00\n      dup1\n      revert\n        /* \"Contest.sol\":63559:63820  function vote(uint index) public restrictedHolders restrictedNoVoters inTime {... */\n    tag_3:\n      callvalue\n      dup1\n      iszero\n      tag_24\n      jumpi\n      0x00\n      dup1\n      revert\n    tag_24:\n      pop\n      tag_25\n      0x04\n      dup1\n      calldatasize\n      sub\n      dup2\n      add\n      swap1\n      tag_26\n      swap2\n      swap1\n      tag_27\n      jump\t// in\n    tag_26:\n      tag_28\n      jump\t// in\n    tag_25:\n      stop\n        /* \"Contest.sol\":64060:64538  function finalizeContest() restrictedManager outOfTime  public returns (address) {... */\n    tag_4:\n      callvalue\n      dup1\n      iszero\n      tag_29\n      jumpi\n      0x00\n      dup1\n      revert\n    tag_29:\n      pop\n      tag_30\n      tag_31\n      jump\t// in\n    tag_30:\n      mload(0x40)\n      tag_32\n      swap2\n      swap1\n      tag_33\n      jump\t// in\n    tag_32:\n      mload(0x40)\n      dup1\n      swap2\n      sub\n      swap1\n      return\n        /* \"Contest.sol\":61928:61969  mapping ( address => bool) public holders */\n    tag_5:\n      callvalue\n      dup1\n      iszero\n      tag_34\n      jumpi\n      0x00\n      dup1\n      revert\n    tag_34:\n      pop\n      tag_35\n      0x04\n      dup1\n      calldatasize\n      sub\n      dup2\n      add\n      swap1\n      tag_36\n      swap2\n      swap1\n      tag_37\n      jump\t// in\n    tag_36:\n      tag_38\n      jump\t// in\n    tag_35:\n      mload(0x40)\n      tag_39\n      swap2\n      swap1\n      tag_40\n      jump\t// in\n    tag_39:\n      mload(0x40)\n      dup1\n      swap2\n      sub\n      swap1\n      return\n        /* \"Contest.sol\":63826:64054  function getVotersPicCount(uint index) public view returns (uint256, uint, address){... */\n    tag_6:\n      callvalue\n      dup1\n      iszero\n      tag_41\n      jumpi\n      0x00\n      dup1\n      revert\n    tag_41:\n      pop\n      tag_42\n      0x04\n      dup1\n      calldatasize\n      sub\n      dup2\n      add\n      swap1\n      tag_43\n      swap2\n      swap1\n      tag_27\n      jump\t// in\n    tag_43:\n      tag_44\n      jump\t// in\n    tag_42:\n      mload(0x40)\n      tag_45\n      swap4\n      swap3\n      swap2\n      swap1\n      tag_46\n      jump\t// in\n    tag_45:\n      mload(0x40)\n      dup1\n      swap2\n      sub\n      swap1\n      return\n        /* \"Contest.sol\":61746:61768  address public manager */\n    tag_7:\n      callvalue\n      dup1\n      iszero\n      tag_47\n      jumpi\n      0x00\n      dup1\n      revert\n    tag_47:\n      pop\n      tag_48\n      tag_49\n      jump\t// in\n    tag_48:\n      mload(0x40)\n      tag_50\n      swap2\n      swap1\n      tag_33\n      jump\t// in\n    tag_50:\n      mload(0x40)\n      dup1\n      swap2\n      sub\n      swap1\n      return\n        /* \"Contest.sol\":63073:63262  function checkTokenBalance() public inTime  {... */\n    tag_8:\n      callvalue\n      dup1\n      iszero\n      tag_51\n      jumpi\n      0x00\n      dup1\n      revert\n    tag_51:\n      pop\n      tag_52\n      tag_53\n      jump\t// in\n    tag_52:\n      stop\n        /* \"Contest.sol\":61774:61794  bool public complete */\n    tag_9:\n      callvalue\n      dup1\n      iszero\n      tag_54\n      jumpi\n      0x00\n      dup1\n      revert\n    tag_54:\n      pop\n      tag_55\n      tag_56\n      jump\t// in\n    tag_55:\n      mload(0x40)\n      tag_57\n      swap2\n      swap1\n      tag_40\n      jump\t// in\n    tag_57:\n      mload(0x40)\n      dup1\n      swap2\n      sub\n      swap1\n      return\n        /* \"Contest.sol\":61850:61872  uint public deployDate */\n    tag_10:\n      callvalue\n      dup1\n      iszero\n      tag_58\n      jumpi\n      0x00\n      dup1\n      revert\n    tag_58:\n      pop\n      tag_59\n      tag_60\n      jump\t// in\n    tag_59:\n      mload(0x40)\n      tag_61\n      swap2\n      swap1\n      tag_62\n      jump\t// in\n    tag_61:\n      mload(0x40)\n      dup1\n      swap2\n      sub\n      swap1\n      return\n        /* \"Contest.sol\":63268:63553  function addImage() public restrictedHolders inTime {... */\n    tag_11:\n      callvalue\n      dup1\n      iszero\n      tag_63\n      jumpi\n      0x00\n      dup1\n      revert\n    tag_63:\n      pop\n      tag_64\n      tag_65\n      jump\t// in\n    tag_64:\n      stop\n        /* \"Contest.sol\":61800:61821  Image[] public images */\n    tag_12:\n      callvalue\n      dup1\n      iszero\n      tag_66\n      jumpi\n      0x00\n      dup1\n      revert\n    tag_66:\n      pop\n      tag_67\n      0x04\n      dup1\n      calldatasize\n      sub\n      dup2\n      add\n      swap1\n      tag_68\n      swap2\n      swap1\n      tag_27\n      jump\t// in\n    tag_68:\n      tag_69\n      jump\t// in\n    tag_67:\n      mload(0x40)\n      tag_70\n      swap4\n      swap3\n      swap2\n      swap1\n      tag_46\n      jump\t// in\n    tag_70:\n      mload(0x40)\n      dup1\n      swap2\n      sub\n      swap1\n      return\n        /* \"Contest.sol\":61975:62015  mapping ( address => bool) public voters */\n    tag_13:\n      callvalue\n      dup1\n      iszero\n      tag_71\n      jumpi\n      0x00\n      dup1\n      revert\n    tag_71:\n      pop\n      tag_72\n      0x04\n      dup1\n      calldatasize\n      sub\n      dup2\n      add\n      swap1\n      tag_73\n      swap2\n      swap1\n      tag_37\n      jump\t// in\n    tag_73:\n      tag_74\n      jump\t// in\n    tag_72:\n      mload(0x40)\n      tag_75\n      swap2\n      swap1\n      tag_40\n      jump\t// in\n    tag_75:\n      mload(0x40)\n      dup1\n      swap2\n      sub\n      swap1\n      return\n        /* \"Contest.sol\":61827:61844  uint public tempo */\n    tag_14:\n      callvalue\n      dup1\n      iszero\n      tag_76\n      jumpi\n      0x00\n      dup1\n      revert\n    tag_76:\n      pop\n      tag_77\n      tag_78\n      jump\t// in\n    tag_77:\n      mload(0x40)\n      tag_79\n      swap2\n      swap1\n      tag_62\n      jump\t// in\n    tag_79:\n      mload(0x40)\n      dup1\n      swap2\n      sub\n      swap1\n      return\n        /* \"Contest.sol\":62021:62067  mapping ( address => bool) public partecipants */\n    tag_15:\n      callvalue\n      dup1\n      iszero\n      tag_80\n      jumpi\n      0x00\n      dup1\n      revert\n    tag_80:\n      pop\n      tag_81\n      0x04\n      dup1\n      calldatasize\n      sub\n      dup2\n      add\n      swap1\n      tag_82\n      swap2\n      swap1\n      tag_37\n      jump\t// in\n    tag_82:\n      tag_83\n      jump\t// in\n    tag_81:\n      mload(0x40)\n      tag_84\n      swap2\n      swap1\n      tag_40\n      jump\t// in\n    tag_84:\n      mload(0x40)\n      dup1\n      swap2\n      sub\n      swap1\n      return\n        /* \"Contest.sol\":62096:62125  address payable public winner */\n    tag_16:\n      callvalue\n      dup1\n      iszero\n      tag_85\n      jumpi\n      0x00\n      dup1\n      revert\n    tag_85:\n      pop\n      tag_86\n      tag_87\n      jump\t// in\n    tag_86:\n      mload(0x40)\n      tag_88\n      swap2\n      swap1\n      tag_89\n      jump\t// in\n    tag_88:\n      mload(0x40)\n      dup1\n      swap2\n      sub\n      swap1\n      return\n        /* \"Contest.sol\":62073:62090  uint public prize */\n    tag_17:\n      callvalue\n      dup1\n      iszero\n      tag_90\n      jumpi\n      0x00\n      dup1\n      revert\n    tag_90:\n      pop\n      tag_91\n      tag_92\n      jump\t// in\n    tag_91:\n      mload(0x40)\n      tag_93\n      swap2\n      swap1\n      tag_62\n      jump\t// in\n    tag_93:\n      mload(0x40)\n      dup1\n      swap2\n      sub\n      swap1\n      return\n        /* \"Contest.sol\":61878:61899  IERC20 public project */\n    tag_18:\n      callvalue\n      dup1\n      iszero\n      tag_94\n      jumpi\n      0x00\n      dup1\n      revert\n    tag_94:\n      pop\n      tag_95\n      tag_96\n      jump\t// in\n    tag_95:\n      mload(0x40)\n      tag_97\n      swap2\n      swap1\n      tag_98\n      jump\t// in\n    tag_97:\n      mload(0x40)\n      dup1\n      swap2\n      sub\n      swap1\n      return\n        /* \"Contest.sol\":63559:63820  function vote(uint index) public restrictedHolders restrictedNoVoters inTime {... */\n    tag_28:\n        /* \"Contest.sol\":62273:62280  holders */\n      0x06\n        /* \"Contest.sol\":62273:62292  holders[msg.sender] */\n      0x00\n        /* \"Contest.sol\":62281:62291  msg.sender */\n      caller\n        /* \"Contest.sol\":62273:62292  holders[msg.sender] */\n      0xffffffffffffffffffffffffffffffffffffffff\n      and\n      0xffffffffffffffffffffffffffffffffffffffff\n      and\n      dup2\n      mstore\n      0x20\n      add\n      swap1\n      dup2\n      mstore\n      0x20\n      add\n      0x00\n      keccak256\n      0x00\n      swap1\n      sload\n      swap1\n      0x0100\n      exp\n      swap1\n      div\n      0xff\n      and\n        /* \"Contest.sol\":62265:62293  require(holders[msg.sender]) */\n      tag_100\n      jumpi\n      0x00\n      dup1\n      revert\n    tag_100:\n        /* \"Contest.sol\":62469:62475  voters */\n      0x07\n        /* \"Contest.sol\":62469:62487  voters[msg.sender] */\n      0x00\n        /* \"Contest.sol\":62476:62486  msg.sender */\n      caller\n        /* \"Contest.sol\":62469:62487  voters[msg.sender] */\n      0xffffffffffffffffffffffffffffffffffffffff\n      and\n      0xffffffffffffffffffffffffffffffffffffffff\n      and\n      dup2\n      mstore\n      0x20\n      add\n      swap1\n      dup2\n      mstore\n      0x20\n      add\n      0x00\n      keccak256\n      0x00\n      swap1\n      sload\n      swap1\n      0x0100\n      exp\n      swap1\n      div\n      0xff\n      and\n        /* \"Contest.sol\":62468:62487  !voters[msg.sender] */\n      iszero\n        /* \"Contest.sol\":62460:62488  require(!voters[msg.sender]) */\n      tag_102\n      jumpi\n      0x00\n      dup1\n      revert\n    tag_102:\n        /* \"Contest.sol\":62579:62584  tempo */\n      sload(0x02)\n        /* \"Contest.sol\":62565:62575  deployDate */\n      sload(0x03)\n        /* \"Contest.sol\":62547:62562  block.timestamp */\n      timestamp\n        /* \"Contest.sol\":62547:62575  block.timestamp - deployDate */\n      tag_104\n      swap2\n      swap1\n      tag_105\n      jump\t// in\n    tag_104:\n        /* \"Contest.sol\":62547:62584  block.timestamp - deployDate <= tempo */\n      gt\n      iszero\n        /* \"Contest.sol\":62539:62585  require(block.timestamp - deployDate <= tempo) */\n      tag_106\n      jumpi\n      0x00\n      dup1\n      revert\n    tag_106:\n        /* \"Contest.sol\":63680:63690  msg.sender */\n      caller\n        /* \"Contest.sol\":63654:63690  images[index].ownerPic != msg.sender */\n      0xffffffffffffffffffffffffffffffffffffffff\n      and\n        /* \"Contest.sol\":63654:63660  images */\n      0x01\n        /* \"Contest.sol\":63661:63666  index */\n      dup3\n        /* \"Contest.sol\":63654:63667  images[index] */\n      dup2\n      sload\n      dup2\n      lt\n      tag_108\n      jumpi\n      tag_109\n      tag_110\n      jump\t// in\n    tag_109:\n    tag_108:\n      swap1\n      0x00\n      mstore\n      keccak256(0x00, 0x20)\n      swap1\n      0x03\n      mul\n      add\n        /* \"Contest.sol\":63654:63676  images[index].ownerPic */\n      0x02\n      add\n      0x00\n      swap1\n      sload\n      swap1\n      0x0100\n      exp\n      swap1\n      div\n      0xffffffffffffffffffffffffffffffffffffffff\n      and\n        /* \"Contest.sol\":63654:63690  images[index].ownerPic != msg.sender */\n      0xffffffffffffffffffffffffffffffffffffffff\n      and\n      eq\n      iszero\n        /* \"Contest.sol\":63646:63691  require(images[index].ownerPic != msg.sender) */\n      tag_112\n      jumpi\n      0x00\n      dup1\n      revert\n    tag_112:\n        /* \"Contest.sol\":63748:63754  images */\n      0x01\n        /* \"Contest.sol\":63755:63760  index */\n      dup2\n        /* \"Contest.sol\":63748:63761  images[index] */\n      dup2\n      sload\n      dup2\n      lt\n      tag_113\n      jumpi\n      tag_114\n      tag_110\n      jump\t// in\n    tag_114:\n    tag_113:\n      swap1\n      0x00\n      mstore\n      keccak256(0x00, 0x20)\n      swap1\n      0x03\n      mul\n      add\n        /* \"Contest.sol\":63748:63776  images[index].votersPicCount */\n      0x01\n      add\n      0x00\n        /* \"Contest.sol\":63748:63778  images[index].votersPicCount++ */\n      dup2\n      sload\n      dup1\n      swap3\n      swap2\n      swap1\n      tag_116\n      swap1\n      tag_117\n      jump\t// in\n    tag_116:\n      swap2\n      swap1\n      pop\n      sstore\n      pop\n        /* \"Contest.sol\":63809:63813  true */\n      0x01\n        /* \"Contest.sol\":63788:63794  voters */\n      0x07\n        /* \"Contest.sol\":63788:63806  voters[msg.sender] */\n      0x00\n        /* \"Contest.sol\":63795:63805  msg.sender */\n      caller\n        /* \"Contest.sol\":63788:63806  voters[msg.sender] */\n      0xffffffffffffffffffffffffffffffffffffffff\n      and\n      0xffffffffffffffffffffffffffffffffffffffff\n      and\n      dup2\n      mstore\n      0x20\n      add\n      swap1\n      dup2\n      mstore\n      0x20\n      add\n      0x00\n      keccak256\n      0x00\n        /* \"Contest.sol\":63788:63813  voters[msg.sender] = true */\n      0x0100\n      exp\n      dup2\n      sload\n      dup2\n      0xff\n      mul\n      not\n      and\n      swap1\n      dup4\n      iszero\n      iszero\n      mul\n      or\n      swap1\n      sstore\n      pop\n        /* \"Contest.sol\":63559:63820  function vote(uint index) public restrictedHolders restrictedNoVoters inTime {... */\n      pop\n      jump\t// out\n        /* \"Contest.sol\":64060:64538  function finalizeContest() restrictedManager outOfTime  public returns (address) {... */\n    tag_31:\n        /* \"Contest.sol\":64132:64139  address */\n      0x00\n        /* \"Contest.sol\":62194:62201  manager */\n      dup1\n      0x00\n      swap1\n      sload\n      swap1\n      0x0100\n      exp\n      swap1\n      div\n      0xffffffffffffffffffffffffffffffffffffffff\n      and\n        /* \"Contest.sol\":62180:62201  msg.sender == manager */\n      0xffffffffffffffffffffffffffffffffffffffff\n      and\n        /* \"Contest.sol\":62180:62190  msg.sender */\n      caller\n        /* \"Contest.sol\":62180:62201  msg.sender == manager */\n      0xffffffffffffffffffffffffffffffffffffffff\n      and\n      eq\n        /* \"Contest.sol\":62172:62202  require(msg.sender == manager) */\n      tag_119\n      jumpi\n      0x00\n      dup1\n      revert\n    tag_119:\n        /* \"Contest.sol\":62678:62683  tempo */\n      sload(0x02)\n        /* \"Contest.sol\":62665:62675  deployDate */\n      sload(0x03)\n        /* \"Contest.sol\":62647:62662  block.timestamp */\n      timestamp\n        /* \"Contest.sol\":62647:62675  block.timestamp - deployDate */\n      tag_121\n      swap2\n      swap1\n      tag_105\n      jump\t// in\n    tag_121:\n        /* \"Contest.sol\":62647:62683  block.timestamp - deployDate > tempo */\n      gt\n        /* \"Contest.sol\":62639:62684  require(block.timestamp - deployDate > tempo) */\n      tag_122\n      jumpi\n      0x00\n      dup1\n      revert\n    tag_122:\n        /* \"Contest.sol\":64152:64173  Image storage bestPic */\n      0x00\n        /* \"Contest.sol\":64176:64182  images */\n      0x01\n        /* \"Contest.sol\":64183:64184  0 */\n      0x00\n        /* \"Contest.sol\":64176:64185  images[0] */\n      dup2\n      sload\n      dup2\n      lt\n      tag_124\n      jumpi\n      tag_125\n      tag_110\n      jump\t// in\n    tag_125:\n    tag_124:\n      swap1\n      0x00\n      mstore\n      keccak256(0x00, 0x20)\n      swap1\n      0x03\n      mul\n      add\n        /* \"Contest.sol\":64152:64185  Image storage bestPic = images[0] */\n      swap1\n      pop\n        /* \"Contest.sol\":64196:64205  uint256 i */\n      0x00\n        /* \"Contest.sol\":64216:64413  for(i = 0; i < images.length; i++){... */\n    tag_127:\n        /* \"Contest.sol\":64231:64237  images */\n      0x01\n        /* \"Contest.sol\":64231:64244  images.length */\n      dup1\n      sload\n      swap1\n      pop\n        /* \"Contest.sol\":64227:64228  i */\n      dup2\n        /* \"Contest.sol\":64227:64244  i < images.length */\n      lt\n        /* \"Contest.sol\":64216:64413  for(i = 0; i < images.length; i++){... */\n      iszero\n      tag_128\n      jumpi\n        /* \"Contest.sol\":64264:64281  Image storage pic */\n      0x00\n        /* \"Contest.sol\":64284:64290  images */\n      0x01\n        /* \"Contest.sol\":64291:64292  i */\n      dup3\n        /* \"Contest.sol\":64284:64293  images[i] */\n      dup2\n      sload\n      dup2\n      lt\n      tag_130\n      jumpi\n      tag_131\n      tag_110\n      jump\t// in\n    tag_131:\n    tag_130:\n      swap1\n      0x00\n      mstore\n      keccak256(0x00, 0x20)\n      swap1\n      0x03\n      mul\n      add\n        /* \"Contest.sol\":64264:64293  Image storage pic = images[i] */\n      swap1\n      pop\n        /* \"Contest.sol\":64331:64338  bestPic */\n      dup3\n        /* \"Contest.sol\":64331:64353  bestPic.votersPicCount */\n      0x01\n      add\n      sload\n        /* \"Contest.sol\":64310:64313  pic */\n      dup2\n        /* \"Contest.sol\":64310:64328  pic.votersPicCount */\n      0x01\n      add\n      sload\n        /* \"Contest.sol\":64310:64353  pic.votersPicCount > bestPic.votersPicCount */\n      gt\n        /* \"Contest.sol\":64307:64402  if(pic.votersPicCount > bestPic.votersPicCount) {... */\n      iszero\n      tag_133\n      jumpi\n        /* \"Contest.sol\":64383:64386  pic */\n      dup1\n        /* \"Contest.sol\":64373:64386  bestPic = pic */\n      swap3\n      pop\n        /* \"Contest.sol\":64307:64402  if(pic.votersPicCount > bestPic.votersPicCount) {... */\n    tag_133:\n        /* \"Contest.sol\":64250:64413  {... */\n      pop\n        /* \"Contest.sol\":64246:64249  i++ */\n      dup1\n      dup1\n      tag_134\n      swap1\n      tag_117\n      jump\t// in\n    tag_134:\n      swap2\n      pop\n      pop\n        /* \"Contest.sol\":64216:64413  for(i = 0; i < images.length; i++){... */\n      jump(tag_127)\n    tag_128:\n        /* \"Contest.sol\":64430:64437  bestPic */\n      dup2\n        /* \"Contest.sol\":64430:64446  bestPic.ownerPic */\n      0x02\n      add\n      0x00\n      swap1\n      sload\n      swap1\n      0x0100\n      exp\n      swap1\n      div\n      0xffffffffffffffffffffffffffffffffffffffff\n      and\n        /* \"Contest.sol\":64422:64456  payable(bestPic.ownerPic).transfer */\n      0xffffffffffffffffffffffffffffffffffffffff\n      and\n        /* \"Contest.sol\":64422:64463  payable(bestPic.ownerPic).transfer(prize) */\n      0x08fc\n        /* \"Contest.sol\":64457:64462  prize */\n      sload(0x09)\n        /* \"Contest.sol\":64422:64463  payable(bestPic.ownerPic).transfer(prize) */\n      swap1\n      dup2\n      iszero\n      mul\n      swap1\n      mload(0x40)\n      0x00\n      mload(0x40)\n      dup1\n      dup4\n      sub\n      dup2\n      dup6\n      dup9\n      dup9\n      call\n      swap4\n      pop\n      pop\n      pop\n      pop\n      iszero\n      dup1\n      iszero\n      tag_136\n      jumpi\n      returndatasize\n      0x00\n      dup1\n      returndatacopy\n      revert(0x00, returndatasize)\n    tag_136:\n      pop\n        /* \"Contest.sol\":64484:64488  true */\n      0x01\n        /* \"Contest.sol\":64473:64481  complete */\n      0x00\n      0x14\n        /* \"Contest.sol\":64473:64488  complete = true */\n      0x0100\n      exp\n      dup2\n      sload\n      dup2\n      0xff\n      mul\n      not\n      and\n      swap1\n      dup4\n      iszero\n      iszero\n      mul\n      or\n      swap1\n      sstore\n      pop\n        /* \"Contest.sol\":64505:64512  bestPic */\n      dup2\n        /* \"Contest.sol\":64505:64521  bestPic.ownerPic */\n      0x02\n      add\n      0x00\n      swap1\n      sload\n      swap1\n      0x0100\n      exp\n      swap1\n      div\n      0xffffffffffffffffffffffffffffffffffffffff\n      and\n        /* \"Contest.sol\":64498:64521  return bestPic.ownerPic */\n      swap3\n      pop\n      pop\n      pop\n        /* \"Contest.sol\":64060:64538  function finalizeContest() restrictedManager outOfTime  public returns (address) {... */\n      swap1\n      jump\t// out\n        /* \"Contest.sol\":61928:61969  mapping ( address => bool) public holders */\n    tag_38:\n      mstore(0x20, 0x06)\n      dup1\n      0x00\n      mstore\n      keccak256(0x00, 0x40)\n      0x00\n      swap2\n      pop\n      sload\n      swap1\n      0x0100\n      exp\n      swap1\n      div\n      0xff\n      and\n      dup2\n      jump\t// out\n        /* \"Contest.sol\":63826:64054  function getVotersPicCount(uint index) public view returns (uint256, uint, address){... */\n    tag_44:\n        /* \"Contest.sol\":63886:63893  uint256 */\n      0x00\n        /* \"Contest.sol\":63895:63899  uint */\n      dup1\n        /* \"Contest.sol\":63901:63908  address */\n      0x00\n        /* \"Contest.sol\":63940:63946  images */\n      0x01\n        /* \"Contest.sol\":63947:63952  index */\n      dup5\n        /* \"Contest.sol\":63940:63953  images[index] */\n      dup2\n      sload\n      dup2\n      lt\n      tag_138\n      jumpi\n      tag_139\n      tag_110\n      jump\t// in\n    tag_139:\n    tag_138:\n      swap1\n      0x00\n      mstore\n      keccak256(0x00, 0x20)\n      swap1\n      0x03\n      mul\n      add\n        /* \"Contest.sol\":63940:63959  images[index].picId */\n      0x00\n      add\n      sload\n        /* \"Contest.sol\":63973:63979  images */\n      0x01\n        /* \"Contest.sol\":63980:63985  index */\n      dup6\n        /* \"Contest.sol\":63973:63986  images[index] */\n      dup2\n      sload\n      dup2\n      lt\n      tag_141\n      jumpi\n      tag_142\n      tag_110\n      jump\t// in\n    tag_142:\n    tag_141:\n      swap1\n      0x00\n      mstore\n      keccak256(0x00, 0x20)\n      swap1\n      0x03\n      mul\n      add\n        /* \"Contest.sol\":63973:64001  images[index].votersPicCount */\n      0x01\n      add\n      sload\n        /* \"Contest.sol\":64015:64021  images */\n      0x01\n        /* \"Contest.sol\":64022:64027  index */\n      dup7\n        /* \"Contest.sol\":64015:64028  images[index] */\n      dup2\n      sload\n      dup2\n      lt\n      tag_144\n      jumpi\n      tag_145\n      tag_110\n      jump\t// in\n    tag_145:\n    tag_144:\n      swap1\n      0x00\n      mstore\n      keccak256(0x00, 0x20)\n      swap1\n      0x03\n      mul\n      add\n        /* \"Contest.sol\":64015:64037  images[index].ownerPic */\n      0x02\n      add\n      0x00\n      swap1\n      sload\n      swap1\n      0x0100\n      exp\n      swap1\n      div\n      0xffffffffffffffffffffffffffffffffffffffff\n      and\n        /* \"Contest.sol\":63919:64047  return (... */\n      swap3\n      pop\n      swap3\n      pop\n      swap3\n      pop\n        /* \"Contest.sol\":63826:64054  function getVotersPicCount(uint index) public view returns (uint256, uint, address){... */\n      swap2\n      swap4\n      swap1\n      swap3\n      pop\n      jump\t// out\n        /* \"Contest.sol\":61746:61768  address public manager */\n    tag_49:\n      0x00\n      dup1\n      sload\n      swap1\n      0x0100\n      exp\n      swap1\n      div\n      0xffffffffffffffffffffffffffffffffffffffff\n      and\n      dup2\n      jump\t// out\n        /* \"Contest.sol\":63073:63262  function checkTokenBalance() public inTime  {... */\n    tag_53:\n        /* \"Contest.sol\":62579:62584  tempo */\n      sload(0x02)\n        /* \"Contest.sol\":62565:62575  deployDate */\n      sload(0x03)\n        /* \"Contest.sol\":62547:62562  block.timestamp */\n      timestamp\n        /* \"Contest.sol\":62547:62575  block.timestamp - deployDate */\n      tag_148\n      swap2\n      swap1\n      tag_105\n      jump\t// in\n    tag_148:\n        /* \"Contest.sol\":62547:62584  block.timestamp - deployDate <= tempo */\n      gt\n      iszero\n        /* \"Contest.sol\":62539:62585  require(block.timestamp - deployDate <= tempo) */\n      tag_149\n      jumpi\n      0x00\n      dup1\n      revert\n    tag_149:\n        /* \"Contest.sol\":63127:63139  IERC20 token */\n      0x00\n        /* \"Contest.sol\":63149:63156  project */\n      0x04\n      0x00\n      swap1\n      sload\n      swap1\n      0x0100\n      exp\n      swap1\n      div\n      0xffffffffffffffffffffffffffffffffffffffff\n      and\n        /* \"Contest.sol\":63127:63157  IERC20 token = IERC20(project) */\n      swap1\n      pop\n        /* \"Contest.sol\":63206:63218  minimumToken */\n      sload(0x05)\n        /* \"Contest.sol\":63176:63181  token */\n      dup2\n        /* \"Contest.sol\":63176:63191  token.balanceOf */\n      0xffffffffffffffffffffffffffffffffffffffff\n      and\n      0x70a08231\n        /* \"Contest.sol\":63192:63202  msg.sender */\n      caller\n        /* \"Contest.sol\":63176:63203  token.balanceOf(msg.sender) */\n      mload(0x40)\n      dup3\n      0xffffffff\n      and\n      0xe0\n      shl\n      dup2\n      mstore\n      0x04\n      add\n      tag_151\n      swap2\n      swap1\n      tag_33\n      jump\t// in\n    tag_151:\n      0x20\n      mload(0x40)\n      dup1\n      dup4\n      sub\n      dup2\n      dup7\n      dup1\n      extcodesize\n      iszero\n      dup1\n      iszero\n      tag_152\n      jumpi\n      0x00\n      dup1\n      revert\n    tag_152:\n      pop\n      gas\n      staticcall\n      iszero\n      dup1\n      iszero\n      tag_154\n      jumpi\n      returndatasize\n      0x00\n      dup1\n      returndatacopy\n      revert(0x00, returndatasize)\n    tag_154:\n      pop\n      pop\n      pop\n      pop\n      mload(0x40)\n      returndatasize\n      not(0x1f)\n      0x1f\n      dup3\n      add\n      and\n      dup3\n      add\n      dup1\n      0x40\n      mstore\n      pop\n      dup2\n      add\n      swap1\n      tag_155\n      swap2\n      swap1\n      tag_156\n      jump\t// in\n    tag_155:\n        /* \"Contest.sol\":63176:63218  token.balanceOf(msg.sender) > minimumToken */\n      gt\n        /* \"Contest.sol\":63168:63219  require(token.balanceOf(msg.sender) > minimumToken) */\n      tag_157\n      jumpi\n      0x00\n      dup1\n      revert\n    tag_157:\n        /* \"Contest.sol\":63251:63255  true */\n      0x01\n        /* \"Contest.sol\":63229:63236  holders */\n      0x06\n        /* \"Contest.sol\":63229:63248  holders[msg.sender] */\n      0x00\n        /* \"Contest.sol\":63237:63247  msg.sender */\n      caller\n        /* \"Contest.sol\":63229:63248  holders[msg.sender] */\n      0xffffffffffffffffffffffffffffffffffffffff\n      and\n      0xffffffffffffffffffffffffffffffffffffffff\n      and\n      dup2\n      mstore\n      0x20\n      add\n      swap1\n      dup2\n      mstore\n      0x20\n      add\n      0x00\n      keccak256\n      0x00\n        /* \"Contest.sol\":63229:63255  holders[msg.sender] = true */\n      0x0100\n      exp\n      dup2\n      sload\n      dup2\n      0xff\n      mul\n      not\n      and\n      swap1\n      dup4\n      iszero\n      iszero\n      mul\n      or\n      swap1\n      sstore\n      pop\n        /* \"Contest.sol\":63117:63262  {... */\n      pop\n        /* \"Contest.sol\":63073:63262  function checkTokenBalance() public inTime  {... */\n      jump\t// out\n        /* \"Contest.sol\":61774:61794  bool public complete */\n    tag_56:\n      0x00\n      0x14\n      swap1\n      sload\n      swap1\n      0x0100\n      exp\n      swap1\n      div\n      0xff\n      and\n      dup2\n      jump\t// out\n        /* \"Contest.sol\":61850:61872  uint public deployDate */\n    tag_60:\n      sload(0x03)\n      dup2\n      jump\t// out\n        /* \"Contest.sol\":63268:63553  function addImage() public restrictedHolders inTime {... */\n    tag_65:\n        /* \"Contest.sol\":62273:62280  holders */\n      0x06\n        /* \"Contest.sol\":62273:62292  holders[msg.sender] */\n      0x00\n        /* \"Contest.sol\":62281:62291  msg.sender */\n      caller\n        /* \"Contest.sol\":62273:62292  holders[msg.sender] */\n      0xffffffffffffffffffffffffffffffffffffffff\n      and\n      0xffffffffffffffffffffffffffffffffffffffff\n      and\n      dup2\n      mstore\n      0x20\n      add\n      swap1\n      dup2\n      mstore\n      0x20\n      add\n      0x00\n      keccak256\n      0x00\n      swap1\n      sload\n      swap1\n      0x0100\n      exp\n      swap1\n      div\n      0xff\n      and\n        /* \"Contest.sol\":62265:62293  require(holders[msg.sender]) */\n      tag_159\n      jumpi\n      0x00\n      dup1\n      revert\n    tag_159:\n        /* \"Contest.sol\":62579:62584  tempo */\n      sload(0x02)\n        /* \"Contest.sol\":62565:62575  deployDate */\n      sload(0x03)\n        /* \"Contest.sol\":62547:62562  block.timestamp */\n      timestamp\n        /* \"Contest.sol\":62547:62575  block.timestamp - deployDate */\n      tag_161\n      swap2\n      swap1\n      tag_105\n      jump\t// in\n    tag_161:\n        /* \"Contest.sol\":62547:62584  block.timestamp - deployDate <= tempo */\n      gt\n      iszero\n        /* \"Contest.sol\":62539:62585  require(block.timestamp - deployDate <= tempo) */\n      tag_162\n      jumpi\n      0x00\n      dup1\n      revert\n    tag_162:\n        /* \"Contest.sol\":63330:63351  Image memory newImage */\n      tag_164\n      tag_165\n      jump\t// in\n    tag_164:\n        /* \"Contest.sol\":63394:63395  1 */\n      0x01\n        /* \"Contest.sol\":63378:63384  images */\n      dup1\n        /* \"Contest.sol\":63378:63391  images.length */\n      dup1\n      sload\n      swap1\n      pop\n        /* \"Contest.sol\":63378:63395  images.length + 1 */\n      tag_166\n      swap2\n      swap1\n      tag_167\n      jump\t// in\n    tag_166:\n        /* \"Contest.sol\":63361:63369  newImage */\n      dup2\n        /* \"Contest.sol\":63361:63375  newImage.picId */\n      0x00\n      add\n        /* \"Contest.sol\":63361:63395  newImage.picId = images.length + 1 */\n      dup2\n      dup2\n      mstore\n      pop\n      pop\n        /* \"Contest.sol\":63431:63432  0 */\n      0x00\n        /* \"Contest.sol\":63405:63413  newImage */\n      dup2\n        /* \"Contest.sol\":63405:63428  newImage.votersPicCount */\n      0x20\n      add\n        /* \"Contest.sol\":63405:63432  newImage.votersPicCount = 0 */\n      dup2\n      dup2\n      mstore\n      pop\n      pop\n        /* \"Contest.sol\":63463:63473  msg.sender */\n      caller\n        /* \"Contest.sol\":63443:63451  newImage */\n      dup2\n        /* \"Contest.sol\":63443:63460  newImage.ownerPic */\n      0x40\n      add\n        /* \"Contest.sol\":63443:63473  newImage.ownerPic = msg.sender */\n      swap1\n      0xffffffffffffffffffffffffffffffffffffffff\n      and\n      swap1\n      dup2\n      0xffffffffffffffffffffffffffffffffffffffff\n      and\n      dup2\n      mstore\n      pop\n      pop\n        /* \"Contest.sol\":63484:63490  images */\n      0x01\n        /* \"Contest.sol\":63496:63504  newImage */\n      dup2\n        /* \"Contest.sol\":63484:63505  images.push(newImage) */\n      swap1\n      dup1\n      0x01\n      dup2\n      sload\n      add\n      dup1\n      dup3\n      sstore\n      dup1\n      swap2\n      pop\n      pop\n      0x01\n      swap1\n      sub\n      swap1\n      0x00\n      mstore\n      keccak256(0x00, 0x20)\n      swap1\n      0x03\n      mul\n      add\n      0x00\n      swap1\n      swap2\n      swap1\n      swap2\n      swap1\n      swap2\n      pop\n      0x00\n      dup3\n      add\n      mload\n      dup2\n      0x00\n      add\n      sstore\n      0x20\n      dup3\n      add\n      mload\n      dup2\n      0x01\n      add\n      sstore\n      0x40\n      dup3\n      add\n      mload\n      dup2\n      0x02\n      add\n      exp(0x0100, 0x00)\n      dup2\n      sload\n      dup2\n      0xffffffffffffffffffffffffffffffffffffffff\n      mul\n      not\n      and\n      swap1\n      dup4\n      0xffffffffffffffffffffffffffffffffffffffff\n      and\n      mul\n      or\n      swap1\n      sstore\n      pop\n      pop\n      pop\n        /* \"Contest.sol\":63542:63546  true */\n      0x01\n        /* \"Contest.sol\":63515:63527  partecipants */\n      0x08\n        /* \"Contest.sol\":63515:63539  partecipants[msg.sender] */\n      0x00\n        /* \"Contest.sol\":63528:63538  msg.sender */\n      caller\n        /* \"Contest.sol\":63515:63539  partecipants[msg.sender] */\n      0xffffffffffffffffffffffffffffffffffffffff\n      and\n      0xffffffffffffffffffffffffffffffffffffffff\n      and\n      dup2\n      mstore\n      0x20\n      add\n      swap1\n      dup2\n      mstore\n      0x20\n      add\n      0x00\n      keccak256\n      0x00\n        /* \"Contest.sol\":63515:63546  partecipants[msg.sender] = true */\n      0x0100\n      exp\n      dup2\n      sload\n      dup2\n      0xff\n      mul\n      not\n      and\n      swap1\n      dup4\n      iszero\n      iszero\n      mul\n      or\n      swap1\n      sstore\n      pop\n        /* \"Contest.sol\":63320:63553  {... */\n      pop\n        /* \"Contest.sol\":63268:63553  function addImage() public restrictedHolders inTime {... */\n      jump\t// out\n        /* \"Contest.sol\":61800:61821  Image[] public images */\n    tag_69:\n      0x01\n      dup2\n      dup2\n      sload\n      dup2\n      lt\n      tag_169\n      jumpi\n      0x00\n      dup1\n      revert\n    tag_169:\n      swap1\n      0x00\n      mstore\n      keccak256(0x00, 0x20)\n      swap1\n      0x03\n      mul\n      add\n      0x00\n      swap2\n      pop\n      swap1\n      pop\n      dup1\n      0x00\n      add\n      sload\n      swap1\n      dup1\n      0x01\n      add\n      sload\n      swap1\n      dup1\n      0x02\n      add\n      0x00\n      swap1\n      sload\n      swap1\n      0x0100\n      exp\n      swap1\n      div\n      0xffffffffffffffffffffffffffffffffffffffff\n      and\n      swap1\n      pop\n      dup4\n      jump\t// out\n        /* \"Contest.sol\":61975:62015  mapping ( address => bool) public voters */\n    tag_74:\n      mstore(0x20, 0x07)\n      dup1\n      0x00\n      mstore\n      keccak256(0x00, 0x40)\n      0x00\n      swap2\n      pop\n      sload\n      swap1\n      0x0100\n      exp\n      swap1\n      div\n      0xff\n      and\n      dup2\n      jump\t// out\n        /* \"Contest.sol\":61827:61844  uint public tempo */\n    tag_78:\n      sload(0x02)\n      dup2\n      jump\t// out\n        /* \"Contest.sol\":62021:62067  mapping ( address => bool) public partecipants */\n    tag_83:\n      mstore(0x20, 0x08)\n      dup1\n      0x00\n      mstore\n      keccak256(0x00, 0x40)\n      0x00\n      swap2\n      pop\n      sload\n      swap1\n      0x0100\n      exp\n      swap1\n      div\n      0xff\n      and\n      dup2\n      jump\t// out\n        /* \"Contest.sol\":62096:62125  address payable public winner */\n    tag_87:\n      0x0a\n      0x00\n      swap1\n      sload\n      swap1\n      0x0100\n      exp\n      swap1\n      div\n      0xffffffffffffffffffffffffffffffffffffffff\n      and\n      dup2\n      jump\t// out\n        /* \"Contest.sol\":62073:62090  uint public prize */\n    tag_92:\n      sload(0x09)\n      dup2\n      jump\t// out\n        /* \"Contest.sol\":61878:61899  IERC20 public project */\n    tag_96:\n      0x04\n      0x00\n      swap1\n      sload\n      swap1\n      0x0100\n      exp\n      swap1\n      div\n      0xffffffffffffffffffffffffffffffffffffffff\n      and\n      dup2\n      jump\t// out\n    tag_165:\n      mload(0x40)\n      dup1\n      0x60\n      add\n      0x40\n      mstore\n      dup1\n      0x00\n      dup2\n      mstore\n      0x20\n      add\n      0x00\n      dup2\n      mstore\n      0x20\n      add\n      and(0xffffffffffffffffffffffffffffffffffffffff, 0x00)\n      dup2\n      mstore\n      pop\n      swap1\n      jump\t// out\n        /* \"#utility.yul\":88:205   */\n    tag_172:\n        /* \"#utility.yul\":197:198   */\n      0x00\n        /* \"#utility.yul\":194:195   */\n      dup1\n        /* \"#utility.yul\":187:199   */\n      revert\n        /* \"#utility.yul\":334:411   */\n    tag_174:\n        /* \"#utility.yul\":371:378   */\n      0x00\n        /* \"#utility.yul\":400:405   */\n      dup2\n        /* \"#utility.yul\":389:405   */\n      swap1\n      pop\n        /* \"#utility.yul\":334:411   */\n      swap2\n      swap1\n      pop\n      jump\t// out\n        /* \"#utility.yul\":417:539   */\n    tag_175:\n        /* \"#utility.yul\":490:514   */\n      tag_200\n        /* \"#utility.yul\":508:513   */\n      dup2\n        /* \"#utility.yul\":490:514   */\n      tag_174\n      jump\t// in\n    tag_200:\n        /* \"#utility.yul\":483:488   */\n      dup2\n        /* \"#utility.yul\":480:515   */\n      eq\n        /* \"#utility.yul\":470:533   */\n      tag_201\n      jumpi\n        /* \"#utility.yul\":529:530   */\n      0x00\n        /* \"#utility.yul\":526:527   */\n      dup1\n        /* \"#utility.yul\":519:531   */\n      revert\n        /* \"#utility.yul\":470:533   */\n    tag_201:\n        /* \"#utility.yul\":417:539   */\n      pop\n      jump\t// out\n        /* \"#utility.yul\":545:684   */\n    tag_176:\n        /* \"#utility.yul\":591:596   */\n      0x00\n        /* \"#utility.yul\":629:635   */\n      dup2\n        /* \"#utility.yul\":616:636   */\n      calldataload\n        /* \"#utility.yul\":607:636   */\n      swap1\n      pop\n        /* \"#utility.yul\":645:678   */\n      tag_203\n        /* \"#utility.yul\":672:677   */\n      dup2\n        /* \"#utility.yul\":645:678   */\n      tag_175\n      jump\t// in\n    tag_203:\n        /* \"#utility.yul\":545:684   */\n      swap3\n      swap2\n      pop\n      pop\n      jump\t// out\n        /* \"#utility.yul\":690:1019   */\n    tag_27:\n        /* \"#utility.yul\":749:755   */\n      0x00\n        /* \"#utility.yul\":798:800   */\n      0x20\n        /* \"#utility.yul\":786:795   */\n      dup3\n        /* \"#utility.yul\":777:784   */\n      dup5\n        /* \"#utility.yul\":773:796   */\n      sub\n        /* \"#utility.yul\":769:801   */\n      slt\n        /* \"#utility.yul\":766:885   */\n      iszero\n      tag_205\n      jumpi\n        /* \"#utility.yul\":804:883   */\n      tag_206\n      tag_172\n      jump\t// in\n    tag_206:\n        /* \"#utility.yul\":766:885   */\n    tag_205:\n        /* \"#utility.yul\":924:925   */\n      0x00\n        /* \"#utility.yul\":949:1002   */\n      tag_207\n        /* \"#utility.yul\":994:1001   */\n      dup5\n        /* \"#utility.yul\":985:991   */\n      dup3\n        /* \"#utility.yul\":974:983   */\n      dup6\n        /* \"#utility.yul\":970:992   */\n      add\n        /* \"#utility.yul\":949:1002   */\n      tag_176\n      jump\t// in\n    tag_207:\n        /* \"#utility.yul\":939:1002   */\n      swap2\n      pop\n        /* \"#utility.yul\":895:1012   */\n      pop\n        /* \"#utility.yul\":690:1019   */\n      swap3\n      swap2\n      pop\n      pop\n      jump\t// out\n        /* \"#utility.yul\":1025:1151   */\n    tag_177:\n        /* \"#utility.yul\":1062:1069   */\n      0x00\n        /* \"#utility.yul\":1102:1144   */\n      0xffffffffffffffffffffffffffffffffffffffff\n        /* \"#utility.yul\":1095:1100   */\n      dup3\n        /* \"#utility.yul\":1091:1145   */\n      and\n        /* \"#utility.yul\":1080:1145   */\n      swap1\n      pop\n        /* \"#utility.yul\":1025:1151   */\n      swap2\n      swap1\n      pop\n      jump\t// out\n        /* \"#utility.yul\":1157:1253   */\n    tag_178:\n        /* \"#utility.yul\":1194:1201   */\n      0x00\n        /* \"#utility.yul\":1223:1247   */\n      tag_210\n        /* \"#utility.yul\":1241:1246   */\n      dup3\n        /* \"#utility.yul\":1223:1247   */\n      tag_177\n      jump\t// in\n    tag_210:\n        /* \"#utility.yul\":1212:1247   */\n      swap1\n      pop\n        /* \"#utility.yul\":1157:1253   */\n      swap2\n      swap1\n      pop\n      jump\t// out\n        /* \"#utility.yul\":1259:1377   */\n    tag_179:\n        /* \"#utility.yul\":1346:1370   */\n      tag_212\n        /* \"#utility.yul\":1364:1369   */\n      dup2\n        /* \"#utility.yul\":1346:1370   */\n      tag_178\n      jump\t// in\n    tag_212:\n        /* \"#utility.yul\":1341:1344   */\n      dup3\n        /* \"#utility.yul\":1334:1371   */\n      mstore\n        /* \"#utility.yul\":1259:1377   */\n      pop\n      pop\n      jump\t// out\n        /* \"#utility.yul\":1383:1605   */\n    tag_33:\n        /* \"#utility.yul\":1476:1480   */\n      0x00\n        /* \"#utility.yul\":1514:1516   */\n      0x20\n        /* \"#utility.yul\":1503:1512   */\n      dup3\n        /* \"#utility.yul\":1499:1517   */\n      add\n        /* \"#utility.yul\":1491:1517   */\n      swap1\n      pop\n        /* \"#utility.yul\":1527:1598   */\n      tag_214\n        /* \"#utility.yul\":1595:1596   */\n      0x00\n        /* \"#utility.yul\":1584:1593   */\n      dup4\n        /* \"#utility.yul\":1580:1597   */\n      add\n        /* \"#utility.yul\":1571:1577   */\n      dup5\n        /* \"#utility.yul\":1527:1598   */\n      tag_179\n      jump\t// in\n    tag_214:\n        /* \"#utility.yul\":1383:1605   */\n      swap3\n      swap2\n      pop\n      pop\n      jump\t// out\n        /* \"#utility.yul\":1611:1733   */\n    tag_180:\n        /* \"#utility.yul\":1684:1708   */\n      tag_216\n        /* \"#utility.yul\":1702:1707   */\n      dup2\n        /* \"#utility.yul\":1684:1708   */\n      tag_178\n      jump\t// in\n    tag_216:\n        /* \"#utility.yul\":1677:1682   */\n      dup2\n        /* \"#utility.yul\":1674:1709   */\n      eq\n        /* \"#utility.yul\":1664:1727   */\n      tag_217\n      jumpi\n        /* \"#utility.yul\":1723:1724   */\n      0x00\n        /* \"#utility.yul\":1720:1721   */\n      dup1\n        /* \"#utility.yul\":1713:1725   */\n      revert\n        /* \"#utility.yul\":1664:1727   */\n    tag_217:\n        /* \"#utility.yul\":1611:1733   */\n      pop\n      jump\t// out\n        /* \"#utility.yul\":1739:1878   */\n    tag_181:\n        /* \"#utility.yul\":1785:1790   */\n      0x00\n        /* \"#utility.yul\":1823:1829   */\n      dup2\n        /* \"#utility.yul\":1810:1830   */\n      calldataload\n        /* \"#utility.yul\":1801:1830   */\n      swap1\n      pop\n        /* \"#utility.yul\":1839:1872   */\n      tag_219\n        /* \"#utility.yul\":1866:1871   */\n      dup2\n        /* \"#utility.yul\":1839:1872   */\n      tag_180\n      jump\t// in\n    tag_219:\n        /* \"#utility.yul\":1739:1878   */\n      swap3\n      swap2\n      pop\n      pop\n      jump\t// out\n        /* \"#utility.yul\":1884:2213   */\n    tag_37:\n        /* \"#utility.yul\":1943:1949   */\n      0x00\n        /* \"#utility.yul\":1992:1994   */\n      0x20\n        /* \"#utility.yul\":1980:1989   */\n      dup3\n        /* \"#utility.yul\":1971:1978   */\n      dup5\n        /* \"#utility.yul\":1967:1990   */\n      sub\n        /* \"#utility.yul\":1963:1995   */\n      slt\n        /* \"#utility.yul\":1960:2079   */\n      iszero\n      tag_221\n      jumpi\n        /* \"#utility.yul\":1998:2077   */\n      tag_222\n      tag_172\n      jump\t// in\n    tag_222:\n        /* \"#utility.yul\":1960:2079   */\n    tag_221:\n        /* \"#utility.yul\":2118:2119   */\n      0x00\n        /* \"#utility.yul\":2143:2196   */\n      tag_223\n        /* \"#utility.yul\":2188:2195   */\n      dup5\n        /* \"#utility.yul\":2179:2185   */\n      dup3\n        /* \"#utility.yul\":2168:2177   */\n      dup6\n        /* \"#utility.yul\":2164:2186   */\n      add\n        /* \"#utility.yul\":2143:2196   */\n      tag_181\n      jump\t// in\n    tag_223:\n        /* \"#utility.yul\":2133:2196   */\n      swap2\n      pop\n        /* \"#utility.yul\":2089:2206   */\n      pop\n        /* \"#utility.yul\":1884:2213   */\n      swap3\n      swap2\n      pop\n      pop\n      jump\t// out\n        /* \"#utility.yul\":2219:2309   */\n    tag_182:\n        /* \"#utility.yul\":2253:2260   */\n      0x00\n        /* \"#utility.yul\":2296:2301   */\n      dup2\n        /* \"#utility.yul\":2289:2302   */\n      iszero\n        /* \"#utility.yul\":2282:2303   */\n      iszero\n        /* \"#utility.yul\":2271:2303   */\n      swap1\n      pop\n        /* \"#utility.yul\":2219:2309   */\n      swap2\n      swap1\n      pop\n      jump\t// out\n        /* \"#utility.yul\":2315:2424   */\n    tag_183:\n        /* \"#utility.yul\":2396:2417   */\n      tag_226\n        /* \"#utility.yul\":2411:2416   */\n      dup2\n        /* \"#utility.yul\":2396:2417   */\n      tag_182\n      jump\t// in\n    tag_226:\n        /* \"#utility.yul\":2391:2394   */\n      dup3\n        /* \"#utility.yul\":2384:2418   */\n      mstore\n        /* \"#utility.yul\":2315:2424   */\n      pop\n      pop\n      jump\t// out\n        /* \"#utility.yul\":2430:2640   */\n    tag_40:\n        /* \"#utility.yul\":2517:2521   */\n      0x00\n        /* \"#utility.yul\":2555:2557   */\n      0x20\n        /* \"#utility.yul\":2544:2553   */\n      dup3\n        /* \"#utility.yul\":2540:2558   */\n      add\n        /* \"#utility.yul\":2532:2558   */\n      swap1\n      pop\n        /* \"#utility.yul\":2568:2633   */\n      tag_228\n        /* \"#utility.yul\":2630:2631   */\n      0x00\n        /* \"#utility.yul\":2619:2628   */\n      dup4\n        /* \"#utility.yul\":2615:2632   */\n      add\n        /* \"#utility.yul\":2606:2612   */\n      dup5\n        /* \"#utility.yul\":2568:2633   */\n      tag_183\n      jump\t// in\n    tag_228:\n        /* \"#utility.yul\":2430:2640   */\n      swap3\n      swap2\n      pop\n      pop\n      jump\t// out\n        /* \"#utility.yul\":2646:2764   */\n    tag_184:\n        /* \"#utility.yul\":2733:2757   */\n      tag_230\n        /* \"#utility.yul\":2751:2756   */\n      dup2\n        /* \"#utility.yul\":2733:2757   */\n      tag_174\n      jump\t// in\n    tag_230:\n        /* \"#utility.yul\":2728:2731   */\n      dup3\n        /* \"#utility.yul\":2721:2758   */\n      mstore\n        /* \"#utility.yul\":2646:2764   */\n      pop\n      pop\n      jump\t// out\n        /* \"#utility.yul\":2770:3212   */\n    tag_46:\n        /* \"#utility.yul\":2919:2923   */\n      0x00\n        /* \"#utility.yul\":2957:2959   */\n      0x60\n        /* \"#utility.yul\":2946:2955   */\n      dup3\n        /* \"#utility.yul\":2942:2960   */\n      add\n        /* \"#utility.yul\":2934:2960   */\n      swap1\n      pop\n        /* \"#utility.yul\":2970:3041   */\n      tag_232\n        /* \"#utility.yul\":3038:3039   */\n      0x00\n        /* \"#utility.yul\":3027:3036   */\n      dup4\n        /* \"#utility.yul\":3023:3040   */\n      add\n        /* \"#utility.yul\":3014:3020   */\n      dup7\n        /* \"#utility.yul\":2970:3041   */\n      tag_184\n      jump\t// in\n    tag_232:\n        /* \"#utility.yul\":3051:3123   */\n      tag_233\n        /* \"#utility.yul\":3119:3121   */\n      0x20\n        /* \"#utility.yul\":3108:3117   */\n      dup4\n        /* \"#utility.yul\":3104:3122   */\n      add\n        /* \"#utility.yul\":3095:3101   */\n      dup6\n        /* \"#utility.yul\":3051:3123   */\n      tag_184\n      jump\t// in\n    tag_233:\n        /* \"#utility.yul\":3133:3205   */\n      tag_234\n        /* \"#utility.yul\":3201:3203   */\n      0x40\n        /* \"#utility.yul\":3190:3199   */\n      dup4\n        /* \"#utility.yul\":3186:3204   */\n      add\n        /* \"#utility.yul\":3177:3183   */\n      dup5\n        /* \"#utility.yul\":3133:3205   */\n      tag_179\n      jump\t// in\n    tag_234:\n        /* \"#utility.yul\":2770:3212   */\n      swap5\n      swap4\n      pop\n      pop\n      pop\n      pop\n      jump\t// out\n        /* \"#utility.yul\":3218:3440   */\n    tag_62:\n        /* \"#utility.yul\":3311:3315   */\n      0x00\n        /* \"#utility.yul\":3349:3351   */\n      0x20\n        /* \"#utility.yul\":3338:3347   */\n      dup3\n        /* \"#utility.yul\":3334:3352   */\n      add\n        /* \"#utility.yul\":3326:3352   */\n      swap1\n      pop\n        /* \"#utility.yul\":3362:3433   */\n      tag_236\n        /* \"#utility.yul\":3430:3431   */\n      0x00\n        /* \"#utility.yul\":3419:3428   */\n      dup4\n        /* \"#utility.yul\":3415:3432   */\n      add\n        /* \"#utility.yul\":3406:3412   */\n      dup5\n        /* \"#utility.yul\":3362:3433   */\n      tag_184\n      jump\t// in\n    tag_236:\n        /* \"#utility.yul\":3218:3440   */\n      swap3\n      swap2\n      pop\n      pop\n      jump\t// out\n        /* \"#utility.yul\":3446:3550   */\n    tag_185:\n        /* \"#utility.yul\":3491:3498   */\n      0x00\n        /* \"#utility.yul\":3520:3544   */\n      tag_238\n        /* \"#utility.yul\":3538:3543   */\n      dup3\n        /* \"#utility.yul\":3520:3544   */\n      tag_177\n      jump\t// in\n    tag_238:\n        /* \"#utility.yul\":3509:3544   */\n      swap1\n      pop\n        /* \"#utility.yul\":3446:3550   */\n      swap2\n      swap1\n      pop\n      jump\t// out\n        /* \"#utility.yul\":3556:3698   */\n    tag_186:\n        /* \"#utility.yul\":3659:3691   */\n      tag_240\n        /* \"#utility.yul\":3685:3690   */\n      dup2\n        /* \"#utility.yul\":3659:3691   */\n      tag_185\n      jump\t// in\n    tag_240:\n        /* \"#utility.yul\":3654:3657   */\n      dup3\n        /* \"#utility.yul\":3647:3692   */\n      mstore\n        /* \"#utility.yul\":3556:3698   */\n      pop\n      pop\n      jump\t// out\n        /* \"#utility.yul\":3704:3958   */\n    tag_89:\n        /* \"#utility.yul\":3813:3817   */\n      0x00\n        /* \"#utility.yul\":3851:3853   */\n      0x20\n        /* \"#utility.yul\":3840:3849   */\n      dup3\n        /* \"#utility.yul\":3836:3854   */\n      add\n        /* \"#utility.yul\":3828:3854   */\n      swap1\n      pop\n        /* \"#utility.yul\":3864:3951   */\n      tag_242\n        /* \"#utility.yul\":3948:3949   */\n      0x00\n        /* \"#utility.yul\":3937:3946   */\n      dup4\n        /* \"#utility.yul\":3933:3950   */\n      add\n        /* \"#utility.yul\":3924:3930   */\n      dup5\n        /* \"#utility.yul\":3864:3951   */\n      tag_186\n      jump\t// in\n    tag_242:\n        /* \"#utility.yul\":3704:3958   */\n      swap3\n      swap2\n      pop\n      pop\n      jump\t// out\n        /* \"#utility.yul\":3964:4024   */\n    tag_187:\n        /* \"#utility.yul\":3992:3995   */\n      0x00\n        /* \"#utility.yul\":4013:4018   */\n      dup2\n        /* \"#utility.yul\":4006:4018   */\n      swap1\n      pop\n        /* \"#utility.yul\":3964:4024   */\n      swap2\n      swap1\n      pop\n      jump\t// out\n        /* \"#utility.yul\":4030:4172   */\n    tag_188:\n        /* \"#utility.yul\":4080:4089   */\n      0x00\n        /* \"#utility.yul\":4113:4166   */\n      tag_245\n        /* \"#utility.yul\":4131:4165   */\n      tag_246\n        /* \"#utility.yul\":4140:4164   */\n      tag_247\n        /* \"#utility.yul\":4158:4163   */\n      dup5\n        /* \"#utility.yul\":4140:4164   */\n      tag_177\n      jump\t// in\n    tag_247:\n        /* \"#utility.yul\":4131:4165   */\n      tag_187\n      jump\t// in\n    tag_246:\n        /* \"#utility.yul\":4113:4166   */\n      tag_177\n      jump\t// in\n    tag_245:\n        /* \"#utility.yul\":4100:4166   */\n      swap1\n      pop\n        /* \"#utility.yul\":4030:4172   */\n      swap2\n      swap1\n      pop\n      jump\t// out\n        /* \"#utility.yul\":4178:4304   */\n    tag_189:\n        /* \"#utility.yul\":4228:4237   */\n      0x00\n        /* \"#utility.yul\":4261:4298   */\n      tag_249\n        /* \"#utility.yul\":4292:4297   */\n      dup3\n        /* \"#utility.yul\":4261:4298   */\n      tag_188\n      jump\t// in\n    tag_249:\n        /* \"#utility.yul\":4248:4298   */\n      swap1\n      pop\n        /* \"#utility.yul\":4178:4304   */\n      swap2\n      swap1\n      pop\n      jump\t// out\n        /* \"#utility.yul\":4310:4451   */\n    tag_190:\n        /* \"#utility.yul\":4375:4384   */\n      0x00\n        /* \"#utility.yul\":4408:4445   */\n      tag_251\n        /* \"#utility.yul\":4439:4444   */\n      dup3\n        /* \"#utility.yul\":4408:4445   */\n      tag_189\n      jump\t// in\n    tag_251:\n        /* \"#utility.yul\":4395:4445   */\n      swap1\n      pop\n        /* \"#utility.yul\":4310:4451   */\n      swap2\n      swap1\n      pop\n      jump\t// out\n        /* \"#utility.yul\":4457:4618   */\n    tag_191:\n        /* \"#utility.yul\":4559:4611   */\n      tag_253\n        /* \"#utility.yul\":4605:4610   */\n      dup2\n        /* \"#utility.yul\":4559:4611   */\n      tag_190\n      jump\t// in\n    tag_253:\n        /* \"#utility.yul\":4554:4557   */\n      dup3\n        /* \"#utility.yul\":4547:4612   */\n      mstore\n        /* \"#utility.yul\":4457:4618   */\n      pop\n      pop\n      jump\t// out\n        /* \"#utility.yul\":4624:4876   */\n    tag_98:\n        /* \"#utility.yul\":4732:4736   */\n      0x00\n        /* \"#utility.yul\":4770:4772   */\n      0x20\n        /* \"#utility.yul\":4759:4768   */\n      dup3\n        /* \"#utility.yul\":4755:4773   */\n      add\n        /* \"#utility.yul\":4747:4773   */\n      swap1\n      pop\n        /* \"#utility.yul\":4783:4869   */\n      tag_255\n        /* \"#utility.yul\":4866:4867   */\n      0x00\n        /* \"#utility.yul\":4855:4864   */\n      dup4\n        /* \"#utility.yul\":4851:4868   */\n      add\n        /* \"#utility.yul\":4842:4848   */\n      dup5\n        /* \"#utility.yul\":4783:4869   */\n      tag_191\n      jump\t// in\n    tag_255:\n        /* \"#utility.yul\":4624:4876   */\n      swap3\n      swap2\n      pop\n      pop\n      jump\t// out\n        /* \"#utility.yul\":4882:5062   */\n    tag_192:\n        /* \"#utility.yul\":4930:5007   */\n      0x4e487b7100000000000000000000000000000000000000000000000000000000\n        /* \"#utility.yul\":4927:4928   */\n      0x00\n        /* \"#utility.yul\":4920:5008   */\n      mstore\n        /* \"#utility.yul\":5027:5031   */\n      0x11\n        /* \"#utility.yul\":5024:5025   */\n      0x04\n        /* \"#utility.yul\":5017:5032   */\n      mstore\n        /* \"#utility.yul\":5051:5055   */\n      0x24\n        /* \"#utility.yul\":5048:5049   */\n      0x00\n        /* \"#utility.yul\":5041:5056   */\n      revert\n        /* \"#utility.yul\":5068:5259   */\n    tag_105:\n        /* \"#utility.yul\":5108:5112   */\n      0x00\n        /* \"#utility.yul\":5128:5148   */\n      tag_258\n        /* \"#utility.yul\":5146:5147   */\n      dup3\n        /* \"#utility.yul\":5128:5148   */\n      tag_174\n      jump\t// in\n    tag_258:\n        /* \"#utility.yul\":5123:5148   */\n      swap2\n      pop\n        /* \"#utility.yul\":5162:5182   */\n      tag_259\n        /* \"#utility.yul\":5180:5181   */\n      dup4\n        /* \"#utility.yul\":5162:5182   */\n      tag_174\n      jump\t// in\n    tag_259:\n        /* \"#utility.yul\":5157:5182   */\n      swap3\n      pop\n        /* \"#utility.yul\":5201:5202   */\n      dup3\n        /* \"#utility.yul\":5198:5199   */\n      dup3\n        /* \"#utility.yul\":5195:5203   */\n      lt\n        /* \"#utility.yul\":5192:5226   */\n      iszero\n      tag_260\n      jumpi\n        /* \"#utility.yul\":5206:5224   */\n      tag_261\n      tag_192\n      jump\t// in\n    tag_261:\n        /* \"#utility.yul\":5192:5226   */\n    tag_260:\n        /* \"#utility.yul\":5251:5252   */\n      dup3\n        /* \"#utility.yul\":5248:5249   */\n      dup3\n        /* \"#utility.yul\":5244:5253   */\n      sub\n        /* \"#utility.yul\":5236:5253   */\n      swap1\n      pop\n        /* \"#utility.yul\":5068:5259   */\n      swap3\n      swap2\n      pop\n      pop\n      jump\t// out\n        /* \"#utility.yul\":5265:5445   */\n    tag_110:\n        /* \"#utility.yul\":5313:5390   */\n      0x4e487b7100000000000000000000000000000000000000000000000000000000\n        /* \"#utility.yul\":5310:5311   */\n      0x00\n        /* \"#utility.yul\":5303:5391   */\n      mstore\n        /* \"#utility.yul\":5410:5414   */\n      0x32\n        /* \"#utility.yul\":5407:5408   */\n      0x04\n        /* \"#utility.yul\":5400:5415   */\n      mstore\n        /* \"#utility.yul\":5434:5438   */\n      0x24\n        /* \"#utility.yul\":5431:5432   */\n      0x00\n        /* \"#utility.yul\":5424:5439   */\n      revert\n        /* \"#utility.yul\":5451:5684   */\n    tag_117:\n        /* \"#utility.yul\":5490:5493   */\n      0x00\n        /* \"#utility.yul\":5513:5537   */\n      tag_264\n        /* \"#utility.yul\":5531:5536   */\n      dup3\n        /* \"#utility.yul\":5513:5537   */\n      tag_174\n      jump\t// in\n    tag_264:\n        /* \"#utility.yul\":5504:5537   */\n      swap2\n      pop\n        /* \"#utility.yul\":5559:5625   */\n      0xffffffffffffffffffffffffffffffffffffffffffffffffffffffffffffffff\n        /* \"#utility.yul\":5552:5557   */\n      dup3\n        /* \"#utility.yul\":5549:5626   */\n      eq\n        /* \"#utility.yul\":5546:5649   */\n      iszero\n      tag_265\n      jumpi\n        /* \"#utility.yul\":5629:5647   */\n      tag_266\n      tag_192\n      jump\t// in\n    tag_266:\n        /* \"#utility.yul\":5546:5649   */\n    tag_265:\n        /* \"#utility.yul\":5676:5677   */\n      0x01\n        /* \"#utility.yul\":5669:5674   */\n      dup3\n        /* \"#utility.yul\":5665:5678   */\n      add\n        /* \"#utility.yul\":5658:5678   */\n      swap1\n      pop\n        /* \"#utility.yul\":5451:5684   */\n      swap2\n      swap1\n      pop\n      jump\t// out\n        /* \"#utility.yul\":5690:5833   */\n    tag_193:\n        /* \"#utility.yul\":5747:5752   */\n      0x00\n        /* \"#utility.yul\":5778:5784   */\n      dup2\n        /* \"#utility.yul\":5772:5785   */\n      mload\n        /* \"#utility.yul\":5763:5785   */\n      swap1\n      pop\n        /* \"#utility.yul\":5794:5827   */\n      tag_268\n        /* \"#utility.yul\":5821:5826   */\n      dup2\n        /* \"#utility.yul\":5794:5827   */\n      tag_175\n      jump\t// in\n    tag_268:\n        /* \"#utility.yul\":5690:5833   */\n      swap3\n      swap2\n      pop\n      pop\n      jump\t// out\n        /* \"#utility.yul\":5839:6190   */\n    tag_156:\n        /* \"#utility.yul\":5909:5915   */\n      0x00\n        /* \"#utility.yul\":5958:5960   */\n      0x20\n        /* \"#utility.yul\":5946:5955   */\n      dup3\n        /* \"#utility.yul\":5937:5944   */\n      dup5\n        /* \"#utility.yul\":5933:5956   */\n      sub\n        /* \"#utility.yul\":5929:5961   */\n      slt\n        /* \"#utility.yul\":5926:6045   */\n      iszero\n      tag_270\n      jumpi\n        /* \"#utility.yul\":5964:6043   */\n      tag_271\n      tag_172\n      jump\t// in\n    tag_271:\n        /* \"#utility.yul\":5926:6045   */\n    tag_270:\n        /* \"#utility.yul\":6084:6085   */\n      0x00\n        /* \"#utility.yul\":6109:6173   */\n      tag_272\n        /* \"#utility.yul\":6165:6172   */\n      dup5\n        /* \"#utility.yul\":6156:6162   */\n      dup3\n        /* \"#utility.yul\":6145:6154   */\n      dup6\n        /* \"#utility.yul\":6141:6163   */\n      add\n        /* \"#utility.yul\":6109:6173   */\n      tag_193\n      jump\t// in\n    tag_272:\n        /* \"#utility.yul\":6099:6173   */\n      swap2\n      pop\n        /* \"#utility.yul\":6055:6183   */\n      pop\n        /* \"#utility.yul\":5839:6190   */\n      swap3\n      swap2\n      pop\n      pop\n      jump\t// out\n        /* \"#utility.yul\":6196:6501   */\n    tag_167:\n        /* \"#utility.yul\":6236:6239   */\n      0x00\n        /* \"#utility.yul\":6255:6275   */\n      tag_274\n        /* \"#utility.yul\":6273:6274   */\n      dup3\n        /* \"#utility.yul\":6255:6275   */\n      tag_174\n      jump\t// in\n    tag_274:\n        /* \"#utility.yul\":6250:6275   */\n      swap2\n      pop\n        /* \"#utility.yul\":6289:6309   */\n      tag_275\n        /* \"#utility.yul\":6307:6308   */\n      dup4\n        /* \"#utility.yul\":6289:6309   */\n      tag_174\n      jump\t// in\n    tag_275:\n        /* \"#utility.yul\":6284:6309   */\n      swap3\n      pop\n        /* \"#utility.yul\":6443:6444   */\n      dup3\n        /* \"#utility.yul\":6375:6441   */\n      0xffffffffffffffffffffffffffffffffffffffffffffffffffffffffffffffff\n        /* \"#utility.yul\":6371:6445   */\n      sub\n        /* \"#utility.yul\":6368:6369   */\n      dup3\n        /* \"#utility.yul\":6365:6446   */\n      gt\n        /* \"#utility.yul\":6362:6469   */\n      iszero\n      tag_276\n      jumpi\n        /* \"#utility.yul\":6449:6467   */\n      tag_277\n      tag_192\n      jump\t// in\n    tag_277:\n        /* \"#utility.yul\":6362:6469   */\n    tag_276:\n        /* \"#utility.yul\":6493:6494   */\n      dup3\n        /* \"#utility.yul\":6490:6491   */\n      dup3\n        /* \"#utility.yul\":6486:6495   */\n      add\n        /* \"#utility.yul\":6479:6495   */\n      swap1\n      pop\n        /* \"#utility.yul\":6196:6501   */\n      swap3\n      swap2\n      pop\n      pop\n      jump\t// out\n\n    auxdata: 0xa26469706673582212206402329cb9267971ba1ffdee870ec23c4e7c4cd3a3de9d6389f4caba4dd7e55764736f6c63430008090033\n}\n","bytecode":{"linkReferences":{},"object":"6080604052604051620012c4380380620012c48339818101604052810190620000299190620001a3565b336000806101000a81548173ffffffffffffffffffffffffffffffffffffffff021916908373ffffffffffffffffffffffffffffffffffffffff1602179055504260038190555082600460006101000a81548173ffffffffffffffffffffffffffffffffffffffff021916908373ffffffffffffffffffffffffffffffffffffffff16021790555083600281905550816009819055508060058190555060008060146101000a81548160ff0219169083151502179055505050505062000215565b600080fd5b6000819050919050565b6200010481620000ef565b81146200011057600080fd5b50565b6000815190506200012481620000f9565b92915050565b600073ffffffffffffffffffffffffffffffffffffffff82169050919050565b600062000157826200012a565b9050919050565b60006200016b826200014a565b9050919050565b6200017d816200015e565b81146200018957600080fd5b50565b6000815190506200019d8162000172565b92915050565b60008060008060808587031215620001c057620001bf620000ea565b5b6000620001d08782880162000113565b9450506020620001e3878288016200018c565b9350506040620001f68782880162000113565b9250506060620002098782880162000113565b91505092959194509250565b61109f80620002256000396000f3fe6080604052600436106100f75760003560e01c80636ff42c821161008a578063c64134bd11610059578063c64134bd14610329578063dfbf53ae14610366578063e3ac5d2614610391578063f60ca60d146103bc576100fe565b80636ff42c821461026b5780638485648214610282578063a3ec138d146102c1578063bb1d592d146102fe576100fe565b8063481c6a75116100c6578063481c6a75146101d35780634f731087146101fe578063522e11771461021557806369668fe914610240576100fe565b80630121b93f146101035780631729f9d51461012c57806318a5bbdc14610157578063215973cc14610194576100fe565b366100fe57005b600080fd5b34801561010f57600080fd5b5061012a60048036038101906101259190610cc7565b6103e7565b005b34801561013857600080fd5b506101416105c4565b60405161014e9190610d35565b60405180910390f35b34801561016357600080fd5b5061017e60048036038101906101799190610d7c565b610773565b60405161018b9190610dc4565b60405180910390f35b3480156101a057600080fd5b506101bb60048036038101906101b69190610cc7565b610793565b6040516101ca93929190610dee565b60405180910390f35b3480156101df57600080fd5b506101e8610837565b6040516101f59190610d35565b60405180910390f35b34801561020a57600080fd5b5061021361085b565b005b34801561022157600080fd5b5061022a61098f565b6040516102379190610dc4565b60405180910390f35b34801561024c57600080fd5b506102556109a2565b6040516102629190610e25565b60405180910390f35b34801561027757600080fd5b506102806109a8565b005b34801561028e57600080fd5b506102a960048036038101906102a49190610cc7565b610b63565b6040516102b893929190610dee565b60405180910390f35b3480156102cd57600080fd5b506102e860048036038101906102e39190610d7c565b610bbd565b6040516102f59190610dc4565b60405180910390f35b34801561030a57600080fd5b50610313610bdd565b6040516103209190610e25565b60405180910390f35b34801561033557600080fd5b50610350600480360381019061034b9190610d7c565b610be3565b60405161035d9190610dc4565b60405180910390f35b34801561037257600080fd5b5061037b610c03565b6040516103889190610e61565b60405180910390f35b34801561039d57600080fd5b506103a6610c29565b6040516103b39190610e25565b60405180910390f35b3480156103c857600080fd5b506103d1610c2f565b6040516103de9190610edb565b60405180910390f35b600660003373ffffffffffffffffffffffffffffffffffffffff1673ffffffffffffffffffffffffffffffffffffffff16815260200190815260200160002060009054906101000a900460ff1661043d57600080fd5b600760003373ffffffffffffffffffffffffffffffffffffffff1673ffffffffffffffffffffffffffffffffffffffff16815260200190815260200160002060009054906101000a900460ff161561049457600080fd5b600254600354426104a59190610f25565b11156104b057600080fd5b3373ffffffffffffffffffffffffffffffffffffffff16600182815481106104db576104da610f59565b5b906000526020600020906003020160020160009054906101000a900473ffffffffffffffffffffffffffffffffffffffff1673ffffffffffffffffffffffffffffffffffffffff16141561052e57600080fd5b6001818154811061054257610541610f59565b5b9060005260206000209060030201600101600081548092919061056490610f88565b91905055506001600760003373ffffffffffffffffffffffffffffffffffffffff1673ffffffffffffffffffffffffffffffffffffffff16815260200190815260200160002060006101000a81548160ff02191690831515021790555050565b60008060009054906101000a900473ffffffffffffffffffffffffffffffffffffffff1673ffffffffffffffffffffffffffffffffffffffff163373ffffffffffffffffffffffffffffffffffffffff161461061f57600080fd5b600254600354426106309190610f25565b1161063a57600080fd5b6000600160008154811061065157610650610f59565b5b9060005260206000209060030201905060005b6001805490508110156106bf5760006001828154811061068757610686610f59565b5b906000526020600020906003020190508260010154816001015411156106ab578092505b5080806106b790610f88565b915050610664565b8160020160009054906101000a900473ffffffffffffffffffffffffffffffffffffffff1673ffffffffffffffffffffffffffffffffffffffff166108fc6009549081150290604051600060405180830381858888f1935050505015801561072b573d6000803e3d6000fd5b506001600060146101000a81548160ff0219169083151502179055508160020160009054906101000a900473ffffffffffffffffffffffffffffffffffffffff169250505090565b60066020528060005260406000206000915054906101000a900460ff1681565b6000806000600184815481106107ac576107ab610f59565b5b906000526020600020906003020160000154600185815481106107d2576107d1610f59565b5b906000526020600020906003020160010154600186815481106107f8576107f7610f59565b5b906000526020600020906003020160020160009054906101000a900473ffffffffffffffffffffffffffffffffffffffff169250925092509193909250565b60008054906101000a900473ffffffffffffffffffffffffffffffffffffffff1681565b6002546003544261086c9190610f25565b111561087757600080fd5b6000600460009054906101000a900473ffffffffffffffffffffffffffffffffffffffff1690506005548173ffffffffffffffffffffffffffffffffffffffff166370a08231336040518263ffffffff1660e01b81526004016108da9190610d35565b60206040518083038186803b1580156108f257600080fd5b505afa158015610906573d6000803e3d6000fd5b505050506040513d601f19601f8201168201806040525081019061092a9190610fe6565b1161093457600080fd5b6001600660003373ffffffffffffffffffffffffffffffffffffffff1673ffffffffffffffffffffffffffffffffffffffff16815260200190815260200160002060006101000a81548160ff02191690831515021790555050565b600060149054906101000a900460ff1681565b60035481565b600660003373ffffffffffffffffffffffffffffffffffffffff1673ffffffffffffffffffffffffffffffffffffffff16815260200190815260200160002060009054906101000a900460ff166109fe57600080fd5b60025460035442610a0f9190610f25565b1115610a1a57600080fd5b610a22610c55565b60018080549050610a339190611013565b816000018181525050600081602001818152505033816040019073ffffffffffffffffffffffffffffffffffffffff16908173ffffffffffffffffffffffffffffffffffffffff16815250506001819080600181540180825580915050600190039060005260206000209060030201600090919091909150600082015181600001556020820151816001015560408201518160020160006101000a81548173ffffffffffffffffffffffffffffffffffffffff021916908373ffffffffffffffffffffffffffffffffffffffff16021790555050506001600860003373ffffffffffffffffffffffffffffffffffffffff1673ffffffffffffffffffffffffffffffffffffffff16815260200190815260200160002060006101000a81548160ff02191690831515021790555050565b60018181548110610b7357600080fd5b90600052602060002090600302016000915090508060000154908060010154908060020160009054906101000a900473ffffffffffffffffffffffffffffffffffffffff16905083565b60076020528060005260406000206000915054906101000a900460ff1681565b60025481565b60086020528060005260406000206000915054906101000a900460ff1681565b600a60009054906101000a900473ffffffffffffffffffffffffffffffffffffffff1681565b60095481565b600460009054906101000a900473ffffffffffffffffffffffffffffffffffffffff1681565b60405180606001604052806000815260200160008152602001600073ffffffffffffffffffffffffffffffffffffffff1681525090565b600080fd5b6000819050919050565b610ca481610c91565b8114610caf57600080fd5b50565b600081359050610cc181610c9b565b92915050565b600060208284031215610cdd57610cdc610c8c565b5b6000610ceb84828501610cb2565b91505092915050565b600073ffffffffffffffffffffffffffffffffffffffff82169050919050565b6000610d1f82610cf4565b9050919050565b610d2f81610d14565b82525050565b6000602082019050610d4a6000830184610d26565b92915050565b610d5981610d14565b8114610d6457600080fd5b50565b600081359050610d7681610d50565b92915050565b600060208284031215610d9257610d91610c8c565b5b6000610da084828501610d67565b91505092915050565b60008115159050919050565b610dbe81610da9565b82525050565b6000602082019050610dd96000830184610db5565b92915050565b610de881610c91565b82525050565b6000606082019050610e036000830186610ddf565b610e106020830185610ddf565b610e1d6040830184610d26565b949350505050565b6000602082019050610e3a6000830184610ddf565b92915050565b6000610e4b82610cf4565b9050919050565b610e5b81610e40565b82525050565b6000602082019050610e766000830184610e52565b92915050565b6000819050919050565b6000610ea1610e9c610e9784610cf4565b610e7c565b610cf4565b9050919050565b6000610eb382610e86565b9050919050565b6000610ec582610ea8565b9050919050565b610ed581610eba565b82525050565b6000602082019050610ef06000830184610ecc565b92915050565b7f4e487b7100000000000000000000000000000000000000000000000000000000600052601160045260246000fd5b6000610f3082610c91565b9150610f3b83610c91565b925082821015610f4e57610f4d610ef6565b5b828203905092915050565b7f4e487b7100000000000000000000000000000000000000000000000000000000600052603260045260246000fd5b6000610f9382610c91565b91507fffffffffffffffffffffffffffffffffffffffffffffffffffffffffffffffff821415610fc657610fc5610ef6565b5b600182019050919050565b600081519050610fe081610c9b565b92915050565b600060208284031215610ffc57610ffb610c8c565b5b600061100a84828501610fd1565b91505092915050565b600061101e82610c91565b915061102983610c91565b9250827fffffffffffffffffffffffffffffffffffffffffffffffffffffffffffffffff0382111561105e5761105d610ef6565b5b82820190509291505056fea26469706673582212206402329cb9267971ba1ffdee870ec23c4e7c4cd3a3de9d6389f4caba4dd7e55764736f6c63430008090033","opcodes":"PUSH1 0x80 PUSH1 0x40 MSTORE PUSH1 0x40 MLOAD PUSH3 0x12C4 CODESIZE SUB DUP1 PUSH3 0x12C4 DUP4 CODECOPY DUP2 DUP2 ADD PUSH1 0x40 MSTORE DUP2 ADD SWAP1 PUSH3 0x29 SWAP2 SWAP1 PUSH3 0x1A3 JUMP JUMPDEST CALLER PUSH1 0x0 DUP1 PUSH2 0x100 EXP DUP2 SLOAD DUP2 PUSH20 0xFFFFFFFFFFFFFFFFFFFFFFFFFFFFFFFFFFFFFFFF MUL NOT AND SWAP1 DUP4 PUSH20 0xFFFFFFFFFFFFFFFFFFFFFFFFFFFFFFFFFFFFFFFF AND MUL OR SWAP1 SSTORE POP TIMESTAMP PUSH1 0x3 DUP2 SWAP1 SSTORE POP DUP3 PUSH1 0x4 PUSH1 0x0 PUSH2 0x100 EXP DUP2 SLOAD DUP2 PUSH20 0xFFFFFFFFFFFFFFFFFFFFFFFFFFFFFFFFFFFFFFFF MUL NOT AND SWAP1 DUP4 PUSH20 0xFFFFFFFFFFFFFFFFFFFFFFFFFFFFFFFFFFFFFFFF AND MUL OR SWAP1 SSTORE POP DUP4 PUSH1 0x2 DUP2 SWAP1 SSTORE POP DUP2 PUSH1 0x9 DUP2 SWAP1 SSTORE POP DUP1 PUSH1 0x5 DUP2 SWAP1 SSTORE POP PUSH1 0x0 DUP1 PUSH1 0x14 PUSH2 0x100 EXP DUP2 SLOAD DUP2 PUSH1 0xFF MUL NOT AND SWAP1 DUP4 ISZERO ISZERO MUL OR SWAP1 SSTORE POP POP POP POP POP PUSH3 0x215 JUMP JUMPDEST PUSH1 0x0 DUP1 REVERT JUMPDEST PUSH1 0x0 DUP2 SWAP1 POP SWAP2 SWAP1 POP JUMP JUMPDEST PUSH3 0x104 DUP2 PUSH3 0xEF JUMP JUMPDEST DUP2 EQ PUSH3 0x110 JUMPI PUSH1 0x0 DUP1 REVERT JUMPDEST POP JUMP JUMPDEST PUSH1 0x0 DUP2 MLOAD SWAP1 POP PUSH3 0x124 DUP2 PUSH3 0xF9 JUMP JUMPDEST SWAP3 SWAP2 POP POP JUMP JUMPDEST PUSH1 0x0 PUSH20 0xFFFFFFFFFFFFFFFFFFFFFFFFFFFFFFFFFFFFFFFF DUP3 AND SWAP1 POP SWAP2 SWAP1 POP JUMP JUMPDEST PUSH1 0x0 PUSH3 0x157 DUP3 PUSH3 0x12A JUMP JUMPDEST SWAP1 POP SWAP2 SWAP1 POP JUMP JUMPDEST PUSH1 0x0 PUSH3 0x16B DUP3 PUSH3 0x14A JUMP JUMPDEST SWAP1 POP SWAP2 SWAP1 POP JUMP JUMPDEST PUSH3 0x17D DUP2 PUSH3 0x15E JUMP JUMPDEST DUP2 EQ PUSH3 0x189 JUMPI PUSH1 0x0 DUP1 REVERT JUMPDEST POP JUMP JUMPDEST PUSH1 0x0 DUP2 MLOAD SWAP1 POP PUSH3 0x19D DUP2 PUSH3 0x172 JUMP JUMPDEST SWAP3 SWAP2 POP POP JUMP JUMPDEST PUSH1 0x0 DUP1 PUSH1 0x0 DUP1 PUSH1 0x80 DUP6 DUP8 SUB SLT ISZERO PUSH3 0x1C0 JUMPI PUSH3 0x1BF PUSH3 0xEA JUMP JUMPDEST JUMPDEST PUSH1 0x0 PUSH3 0x1D0 DUP8 DUP3 DUP9 ADD PUSH3 0x113 JUMP JUMPDEST SWAP5 POP POP PUSH1 0x20 PUSH3 0x1E3 DUP8 DUP3 DUP9 ADD PUSH3 0x18C JUMP JUMPDEST SWAP4 POP POP PUSH1 0x40 PUSH3 0x1F6 DUP8 DUP3 DUP9 ADD PUSH3 0x113 JUMP JUMPDEST SWAP3 POP POP PUSH1 0x60 PUSH3 0x209 DUP8 DUP3 DUP9 ADD PUSH3 0x113 JUMP JUMPDEST SWAP2 POP POP SWAP3 SWAP6 SWAP2 SWAP5 POP SWAP3 POP JUMP JUMPDEST PUSH2 0x109F DUP1 PUSH3 0x225 PUSH1 0x0 CODECOPY PUSH1 0x0 RETURN INVALID PUSH1 0x80 PUSH1 0x40 MSTORE PUSH1 0x4 CALLDATASIZE LT PUSH2 0xF7 JUMPI PUSH1 0x0 CALLDATALOAD PUSH1 0xE0 SHR DUP1 PUSH4 0x6FF42C82 GT PUSH2 0x8A JUMPI DUP1 PUSH4 0xC64134BD GT PUSH2 0x59 JUMPI DUP1 PUSH4 0xC64134BD EQ PUSH2 0x329 JUMPI DUP1 PUSH4 0xDFBF53AE EQ PUSH2 0x366 JUMPI DUP1 PUSH4 0xE3AC5D26 EQ PUSH2 0x391 JUMPI DUP1 PUSH4 0xF60CA60D EQ PUSH2 0x3BC JUMPI PUSH2 0xFE JUMP JUMPDEST DUP1 PUSH4 0x6FF42C82 EQ PUSH2 0x26B JUMPI DUP1 PUSH4 0x84856482 EQ PUSH2 0x282 JUMPI DUP1 PUSH4 0xA3EC138D EQ PUSH2 0x2C1 JUMPI DUP1 PUSH4 0xBB1D592D EQ PUSH2 0x2FE JUMPI PUSH2 0xFE JUMP JUMPDEST DUP1 PUSH4 0x481C6A75 GT PUSH2 0xC6 JUMPI DUP1 PUSH4 0x481C6A75 EQ PUSH2 0x1D3 JUMPI DUP1 PUSH4 0x4F731087 EQ PUSH2 0x1FE JUMPI DUP1 PUSH4 0x522E1177 EQ PUSH2 0x215 JUMPI DUP1 PUSH4 0x69668FE9 EQ PUSH2 0x240 JUMPI PUSH2 0xFE JUMP JUMPDEST DUP1 PUSH4 0x121B93F EQ PUSH2 0x103 JUMPI DUP1 PUSH4 0x1729F9D5 EQ PUSH2 0x12C JUMPI DUP1 PUSH4 0x18A5BBDC EQ PUSH2 0x157 JUMPI DUP1 PUSH4 0x215973CC EQ PUSH2 0x194 JUMPI PUSH2 0xFE JUMP JUMPDEST CALLDATASIZE PUSH2 0xFE JUMPI STOP JUMPDEST PUSH1 0x0 DUP1 REVERT JUMPDEST CALLVALUE DUP1 ISZERO PUSH2 0x10F JUMPI PUSH1 0x0 DUP1 REVERT JUMPDEST POP PUSH2 0x12A PUSH1 0x4 DUP1 CALLDATASIZE SUB DUP2 ADD SWAP1 PUSH2 0x125 SWAP2 SWAP1 PUSH2 0xCC7 JUMP JUMPDEST PUSH2 0x3E7 JUMP JUMPDEST STOP JUMPDEST CALLVALUE DUP1 ISZERO PUSH2 0x138 JUMPI PUSH1 0x0 DUP1 REVERT JUMPDEST POP PUSH2 0x141 PUSH2 0x5C4 JUMP JUMPDEST PUSH1 0x40 MLOAD PUSH2 0x14E SWAP2 SWAP1 PUSH2 0xD35 JUMP JUMPDEST PUSH1 0x40 MLOAD DUP1 SWAP2 SUB SWAP1 RETURN JUMPDEST CALLVALUE DUP1 ISZERO PUSH2 0x163 JUMPI PUSH1 0x0 DUP1 REVERT JUMPDEST POP PUSH2 0x17E PUSH1 0x4 DUP1 CALLDATASIZE SUB DUP2 ADD SWAP1 PUSH2 0x179 SWAP2 SWAP1 PUSH2 0xD7C JUMP JUMPDEST PUSH2 0x773 JUMP JUMPDEST PUSH1 0x40 MLOAD PUSH2 0x18B SWAP2 SWAP1 PUSH2 0xDC4 JUMP JUMPDEST PUSH1 0x40 MLOAD DUP1 SWAP2 SUB SWAP1 RETURN JUMPDEST CALLVALUE DUP1 ISZERO PUSH2 0x1A0 JUMPI PUSH1 0x0 DUP1 REVERT JUMPDEST POP PUSH2 0x1BB PUSH1 0x4 DUP1 CALLDATASIZE SUB DUP2 ADD SWAP1 PUSH2 0x1B6 SWAP2 SWAP1 PUSH2 0xCC7 JUMP JUMPDEST PUSH2 0x793 JUMP JUMPDEST PUSH1 0x40 MLOAD PUSH2 0x1CA SWAP4 SWAP3 SWAP2 SWAP1 PUSH2 0xDEE JUMP JUMPDEST PUSH1 0x40 MLOAD DUP1 SWAP2 SUB SWAP1 RETURN JUMPDEST CALLVALUE DUP1 ISZERO PUSH2 0x1DF JUMPI PUSH1 0x0 DUP1 REVERT JUMPDEST POP PUSH2 0x1E8 PUSH2 0x837 JUMP JUMPDEST PUSH1 0x40 MLOAD PUSH2 0x1F5 SWAP2 SWAP1 PUSH2 0xD35 JUMP JUMPDEST PUSH1 0x40 MLOAD DUP1 SWAP2 SUB SWAP1 RETURN JUMPDEST CALLVALUE DUP1 ISZERO PUSH2 0x20A JUMPI PUSH1 0x0 DUP1 REVERT JUMPDEST POP PUSH2 0x213 PUSH2 0x85B JUMP JUMPDEST STOP JUMPDEST CALLVALUE DUP1 ISZERO PUSH2 0x221 JUMPI PUSH1 0x0 DUP1 REVERT JUMPDEST POP PUSH2 0x22A PUSH2 0x98F JUMP JUMPDEST PUSH1 0x40 MLOAD PUSH2 0x237 SWAP2 SWAP1 PUSH2 0xDC4 JUMP JUMPDEST PUSH1 0x40 MLOAD DUP1 SWAP2 SUB SWAP1 RETURN JUMPDEST CALLVALUE DUP1 ISZERO PUSH2 0x24C JUMPI PUSH1 0x0 DUP1 REVERT JUMPDEST POP PUSH2 0x255 PUSH2 0x9A2 JUMP JUMPDEST PUSH1 0x40 MLOAD PUSH2 0x262 SWAP2 SWAP1 PUSH2 0xE25 JUMP JUMPDEST PUSH1 0x40 MLOAD DUP1 SWAP2 SUB SWAP1 RETURN JUMPDEST CALLVALUE DUP1 ISZERO PUSH2 0x277 JUMPI PUSH1 0x0 DUP1 REVERT JUMPDEST POP PUSH2 0x280 PUSH2 0x9A8 JUMP JUMPDEST STOP JUMPDEST CALLVALUE DUP1 ISZERO PUSH2 0x28E JUMPI PUSH1 0x0 DUP1 REVERT JUMPDEST POP PUSH2 0x2A9 PUSH1 0x4 DUP1 CALLDATASIZE SUB DUP2 ADD SWAP1 PUSH2 0x2A4 SWAP2 SWAP1 PUSH2 0xCC7 JUMP JUMPDEST PUSH2 0xB63 JUMP JUMPDEST PUSH1 0x40 MLOAD PUSH2 0x2B8 SWAP4 SWAP3 SWAP2 SWAP1 PUSH2 0xDEE JUMP JUMPDEST PUSH1 0x40 MLOAD DUP1 SWAP2 SUB SWAP1 RETURN JUMPDEST CALLVALUE DUP1 ISZERO PUSH2 0x2CD JUMPI PUSH1 0x0 DUP1 REVERT JUMPDEST POP PUSH2 0x2E8 PUSH1 0x4 DUP1 CALLDATASIZE SUB DUP2 ADD SWAP1 PUSH2 0x2E3 SWAP2 SWAP1 PUSH2 0xD7C JUMP JUMPDEST PUSH2 0xBBD JUMP JUMPDEST PUSH1 0x40 MLOAD PUSH2 0x2F5 SWAP2 SWAP1 PUSH2 0xDC4 JUMP JUMPDEST PUSH1 0x40 MLOAD DUP1 SWAP2 SUB SWAP1 RETURN JUMPDEST CALLVALUE DUP1 ISZERO PUSH2 0x30A JUMPI PUSH1 0x0 DUP1 REVERT JUMPDEST POP PUSH2 0x313 PUSH2 0xBDD JUMP JUMPDEST PUSH1 0x40 MLOAD PUSH2 0x320 SWAP2 SWAP1 PUSH2 0xE25 JUMP JUMPDEST PUSH1 0x40 MLOAD DUP1 SWAP2 SUB SWAP1 RETURN JUMPDEST CALLVALUE DUP1 ISZERO PUSH2 0x335 JUMPI PUSH1 0x0 DUP1 REVERT JUMPDEST POP PUSH2 0x350 PUSH1 0x4 DUP1 CALLDATASIZE SUB DUP2 ADD SWAP1 PUSH2 0x34B SWAP2 SWAP1 PUSH2 0xD7C JUMP JUMPDEST PUSH2 0xBE3 JUMP JUMPDEST PUSH1 0x40 MLOAD PUSH2 0x35D SWAP2 SWAP1 PUSH2 0xDC4 JUMP JUMPDEST PUSH1 0x40 MLOAD DUP1 SWAP2 SUB SWAP1 RETURN JUMPDEST CALLVALUE DUP1 ISZERO PUSH2 0x372 JUMPI PUSH1 0x0 DUP1 REVERT JUMPDEST POP PUSH2 0x37B PUSH2 0xC03 JUMP JUMPDEST PUSH1 0x40 MLOAD PUSH2 0x388 SWAP2 SWAP1 PUSH2 0xE61 JUMP JUMPDEST PUSH1 0x40 MLOAD DUP1 SWAP2 SUB SWAP1 RETURN JUMPDEST CALLVALUE DUP1 ISZERO PUSH2 0x39D JUMPI PUSH1 0x0 DUP1 REVERT JUMPDEST POP PUSH2 0x3A6 PUSH2 0xC29 JUMP JUMPDEST PUSH1 0x40 MLOAD PUSH2 0x3B3 SWAP2 SWAP1 PUSH2 0xE25 JUMP JUMPDEST PUSH1 0x40 MLOAD DUP1 SWAP2 SUB SWAP1 RETURN JUMPDEST CALLVALUE DUP1 ISZERO PUSH2 0x3C8 JUMPI PUSH1 0x0 DUP1 REVERT JUMPDEST POP PUSH2 0x3D1 PUSH2 0xC2F JUMP JUMPDEST PUSH1 0x40 MLOAD PUSH2 0x3DE SWAP2 SWAP1 PUSH2 0xEDB JUMP JUMPDEST PUSH1 0x40 MLOAD DUP1 SWAP2 SUB SWAP1 RETURN JUMPDEST PUSH1 0x6 PUSH1 0x0 CALLER PUSH20 0xFFFFFFFFFFFFFFFFFFFFFFFFFFFFFFFFFFFFFFFF AND PUSH20 0xFFFFFFFFFFFFFFFFFFFFFFFFFFFFFFFFFFFFFFFF AND DUP2 MSTORE PUSH1 0x20 ADD SWAP1 DUP2 MSTORE PUSH1 0x20 ADD PUSH1 0x0 KECCAK256 PUSH1 0x0 SWAP1 SLOAD SWAP1 PUSH2 0x100 EXP SWAP1 DIV PUSH1 0xFF AND PUSH2 0x43D JUMPI PUSH1 0x0 DUP1 REVERT JUMPDEST PUSH1 0x7 PUSH1 0x0 CALLER PUSH20 0xFFFFFFFFFFFFFFFFFFFFFFFFFFFFFFFFFFFFFFFF AND PUSH20 0xFFFFFFFFFFFFFFFFFFFFFFFFFFFFFFFFFFFFFFFF AND DUP2 MSTORE PUSH1 0x20 ADD SWAP1 DUP2 MSTORE PUSH1 0x20 ADD PUSH1 0x0 KECCAK256 PUSH1 0x0 SWAP1 SLOAD SWAP1 PUSH2 0x100 EXP SWAP1 DIV PUSH1 0xFF AND ISZERO PUSH2 0x494 JUMPI PUSH1 0x0 DUP1 REVERT JUMPDEST PUSH1 0x2 SLOAD PUSH1 0x3 SLOAD TIMESTAMP PUSH2 0x4A5 SWAP2 SWAP1 PUSH2 0xF25 JUMP JUMPDEST GT ISZERO PUSH2 0x4B0 JUMPI PUSH1 0x0 DUP1 REVERT JUMPDEST CALLER PUSH20 0xFFFFFFFFFFFFFFFFFFFFFFFFFFFFFFFFFFFFFFFF AND PUSH1 0x1 DUP3 DUP2 SLOAD DUP2 LT PUSH2 0x4DB JUMPI PUSH2 0x4DA PUSH2 0xF59 JUMP JUMPDEST JUMPDEST SWAP1 PUSH1 0x0 MSTORE PUSH1 0x20 PUSH1 0x0 KECCAK256 SWAP1 PUSH1 0x3 MUL ADD PUSH1 0x2 ADD PUSH1 0x0 SWAP1 SLOAD SWAP1 PUSH2 0x100 EXP SWAP1 DIV PUSH20 0xFFFFFFFFFFFFFFFFFFFFFFFFFFFFFFFFFFFFFFFF AND PUSH20 0xFFFFFFFFFFFFFFFFFFFFFFFFFFFFFFFFFFFFFFFF AND EQ ISZERO PUSH2 0x52E JUMPI PUSH1 0x0 DUP1 REVERT JUMPDEST PUSH1 0x1 DUP2 DUP2 SLOAD DUP2 LT PUSH2 0x542 JUMPI PUSH2 0x541 PUSH2 0xF59 JUMP JUMPDEST JUMPDEST SWAP1 PUSH1 0x0 MSTORE PUSH1 0x20 PUSH1 0x0 KECCAK256 SWAP1 PUSH1 0x3 MUL ADD PUSH1 0x1 ADD PUSH1 0x0 DUP2 SLOAD DUP1 SWAP3 SWAP2 SWAP1 PUSH2 0x564 SWAP1 PUSH2 0xF88 JUMP JUMPDEST SWAP2 SWAP1 POP SSTORE POP PUSH1 0x1 PUSH1 0x7 PUSH1 0x0 CALLER PUSH20 0xFFFFFFFFFFFFFFFFFFFFFFFFFFFFFFFFFFFFFFFF AND PUSH20 0xFFFFFFFFFFFFFFFFFFFFFFFFFFFFFFFFFFFFFFFF AND DUP2 MSTORE PUSH1 0x20 ADD SWAP1 DUP2 MSTORE PUSH1 0x20 ADD PUSH1 0x0 KECCAK256 PUSH1 0x0 PUSH2 0x100 EXP DUP2 SLOAD DUP2 PUSH1 0xFF MUL NOT AND SWAP1 DUP4 ISZERO ISZERO MUL OR SWAP1 SSTORE POP POP JUMP JUMPDEST PUSH1 0x0 DUP1 PUSH1 0x0 SWAP1 SLOAD SWAP1 PUSH2 0x100 EXP SWAP1 DIV PUSH20 0xFFFFFFFFFFFFFFFFFFFFFFFFFFFFFFFFFFFFFFFF AND PUSH20 0xFFFFFFFFFFFFFFFFFFFFFFFFFFFFFFFFFFFFFFFF AND CALLER PUSH20 0xFFFFFFFFFFFFFFFFFFFFFFFFFFFFFFFFFFFFFFFF AND EQ PUSH2 0x61F JUMPI PUSH1 0x0 DUP1 REVERT JUMPDEST PUSH1 0x2 SLOAD PUSH1 0x3 SLOAD TIMESTAMP PUSH2 0x630 SWAP2 SWAP1 PUSH2 0xF25 JUMP JUMPDEST GT PUSH2 0x63A JUMPI PUSH1 0x0 DUP1 REVERT JUMPDEST PUSH1 0x0 PUSH1 0x1 PUSH1 0x0 DUP2 SLOAD DUP2 LT PUSH2 0x651 JUMPI PUSH2 0x650 PUSH2 0xF59 JUMP JUMPDEST JUMPDEST SWAP1 PUSH1 0x0 MSTORE PUSH1 0x20 PUSH1 0x0 KECCAK256 SWAP1 PUSH1 0x3 MUL ADD SWAP1 POP PUSH1 0x0 JUMPDEST PUSH1 0x1 DUP1 SLOAD SWAP1 POP DUP2 LT ISZERO PUSH2 0x6BF JUMPI PUSH1 0x0 PUSH1 0x1 DUP3 DUP2 SLOAD DUP2 LT PUSH2 0x687 JUMPI PUSH2 0x686 PUSH2 0xF59 JUMP JUMPDEST JUMPDEST SWAP1 PUSH1 0x0 MSTORE PUSH1 0x20 PUSH1 0x0 KECCAK256 SWAP1 PUSH1 0x3 MUL ADD SWAP1 POP DUP3 PUSH1 0x1 ADD SLOAD DUP2 PUSH1 0x1 ADD SLOAD GT ISZERO PUSH2 0x6AB JUMPI DUP1 SWAP3 POP JUMPDEST POP DUP1 DUP1 PUSH2 0x6B7 SWAP1 PUSH2 0xF88 JUMP JUMPDEST SWAP2 POP POP PUSH2 0x664 JUMP JUMPDEST DUP2 PUSH1 0x2 ADD PUSH1 0x0 SWAP1 SLOAD SWAP1 PUSH2 0x100 EXP SWAP1 DIV PUSH20 0xFFFFFFFFFFFFFFFFFFFFFFFFFFFFFFFFFFFFFFFF AND PUSH20 0xFFFFFFFFFFFFFFFFFFFFFFFFFFFFFFFFFFFFFFFF AND PUSH2 0x8FC PUSH1 0x9 SLOAD SWAP1 DUP2 ISZERO MUL SWAP1 PUSH1 0x40 MLOAD PUSH1 0x0 PUSH1 0x40 MLOAD DUP1 DUP4 SUB DUP2 DUP6 DUP9 DUP9 CALL SWAP4 POP POP POP POP ISZERO DUP1 ISZERO PUSH2 0x72B JUMPI RETURNDATASIZE PUSH1 0x0 DUP1 RETURNDATACOPY RETURNDATASIZE PUSH1 0x0 REVERT JUMPDEST POP PUSH1 0x1 PUSH1 0x0 PUSH1 0x14 PUSH2 0x100 EXP DUP2 SLOAD DUP2 PUSH1 0xFF MUL NOT AND SWAP1 DUP4 ISZERO ISZERO MUL OR SWAP1 SSTORE POP DUP2 PUSH1 0x2 ADD PUSH1 0x0 SWAP1 SLOAD SWAP1 PUSH2 0x100 EXP SWAP1 DIV PUSH20 0xFFFFFFFFFFFFFFFFFFFFFFFFFFFFFFFFFFFFFFFF AND SWAP3 POP POP POP SWAP1 JUMP JUMPDEST PUSH1 0x6 PUSH1 0x20 MSTORE DUP1 PUSH1 0x0 MSTORE PUSH1 0x40 PUSH1 0x0 KECCAK256 PUSH1 0x0 SWAP2 POP SLOAD SWAP1 PUSH2 0x100 EXP SWAP1 DIV PUSH1 0xFF AND DUP2 JUMP JUMPDEST PUSH1 0x0 DUP1 PUSH1 0x0 PUSH1 0x1 DUP5 DUP2 SLOAD DUP2 LT PUSH2 0x7AC JUMPI PUSH2 0x7AB PUSH2 0xF59 JUMP JUMPDEST JUMPDEST SWAP1 PUSH1 0x0 MSTORE PUSH1 0x20 PUSH1 0x0 KECCAK256 SWAP1 PUSH1 0x3 MUL ADD PUSH1 0x0 ADD SLOAD PUSH1 0x1 DUP6 DUP2 SLOAD DUP2 LT PUSH2 0x7D2 JUMPI PUSH2 0x7D1 PUSH2 0xF59 JUMP JUMPDEST JUMPDEST SWAP1 PUSH1 0x0 MSTORE PUSH1 0x20 PUSH1 0x0 KECCAK256 SWAP1 PUSH1 0x3 MUL ADD PUSH1 0x1 ADD SLOAD PUSH1 0x1 DUP7 DUP2 SLOAD DUP2 LT PUSH2 0x7F8 JUMPI PUSH2 0x7F7 PUSH2 0xF59 JUMP JUMPDEST JUMPDEST SWAP1 PUSH1 0x0 MSTORE PUSH1 0x20 PUSH1 0x0 KECCAK256 SWAP1 PUSH1 0x3 MUL ADD PUSH1 0x2 ADD PUSH1 0x0 SWAP1 SLOAD SWAP1 PUSH2 0x100 EXP SWAP1 DIV PUSH20 0xFFFFFFFFFFFFFFFFFFFFFFFFFFFFFFFFFFFFFFFF AND SWAP3 POP SWAP3 POP SWAP3 POP SWAP2 SWAP4 SWAP1 SWAP3 POP JUMP JUMPDEST PUSH1 0x0 DUP1 SLOAD SWAP1 PUSH2 0x100 EXP SWAP1 DIV PUSH20 0xFFFFFFFFFFFFFFFFFFFFFFFFFFFFFFFFFFFFFFFF AND DUP2 JUMP JUMPDEST PUSH1 0x2 SLOAD PUSH1 0x3 SLOAD TIMESTAMP PUSH2 0x86C SWAP2 SWAP1 PUSH2 0xF25 JUMP JUMPDEST GT ISZERO PUSH2 0x877 JUMPI PUSH1 0x0 DUP1 REVERT JUMPDEST PUSH1 0x0 PUSH1 0x4 PUSH1 0x0 SWAP1 SLOAD SWAP1 PUSH2 0x100 EXP SWAP1 DIV PUSH20 0xFFFFFFFFFFFFFFFFFFFFFFFFFFFFFFFFFFFFFFFF AND SWAP1 POP PUSH1 0x5 SLOAD DUP2 PUSH20 0xFFFFFFFFFFFFFFFFFFFFFFFFFFFFFFFFFFFFFFFF AND PUSH4 0x70A08231 CALLER PUSH1 0x40 MLOAD DUP3 PUSH4 0xFFFFFFFF AND PUSH1 0xE0 SHL DUP2 MSTORE PUSH1 0x4 ADD PUSH2 0x8DA SWAP2 SWAP1 PUSH2 0xD35 JUMP JUMPDEST PUSH1 0x20 PUSH1 0x40 MLOAD DUP1 DUP4 SUB DUP2 DUP7 DUP1 EXTCODESIZE ISZERO DUP1 ISZERO PUSH2 0x8F2 JUMPI PUSH1 0x0 DUP1 REVERT JUMPDEST POP GAS STATICCALL ISZERO DUP1 ISZERO PUSH2 0x906 JUMPI RETURNDATASIZE PUSH1 0x0 DUP1 RETURNDATACOPY RETURNDATASIZE PUSH1 0x0 REVERT JUMPDEST POP POP POP POP PUSH1 0x40 MLOAD RETURNDATASIZE PUSH1 0x1F NOT PUSH1 0x1F DUP3 ADD AND DUP3 ADD DUP1 PUSH1 0x40 MSTORE POP DUP2 ADD SWAP1 PUSH2 0x92A SWAP2 SWAP1 PUSH2 0xFE6 JUMP JUMPDEST GT PUSH2 0x934 JUMPI PUSH1 0x0 DUP1 REVERT JUMPDEST PUSH1 0x1 PUSH1 0x6 PUSH1 0x0 CALLER PUSH20 0xFFFFFFFFFFFFFFFFFFFFFFFFFFFFFFFFFFFFFFFF AND PUSH20 0xFFFFFFFFFFFFFFFFFFFFFFFFFFFFFFFFFFFFFFFF AND DUP2 MSTORE PUSH1 0x20 ADD SWAP1 DUP2 MSTORE PUSH1 0x20 ADD PUSH1 0x0 KECCAK256 PUSH1 0x0 PUSH2 0x100 EXP DUP2 SLOAD DUP2 PUSH1 0xFF MUL NOT AND SWAP1 DUP4 ISZERO ISZERO MUL OR SWAP1 SSTORE POP POP JUMP JUMPDEST PUSH1 0x0 PUSH1 0x14 SWAP1 SLOAD SWAP1 PUSH2 0x100 EXP SWAP1 DIV PUSH1 0xFF AND DUP2 JUMP JUMPDEST PUSH1 0x3 SLOAD DUP2 JUMP JUMPDEST PUSH1 0x6 PUSH1 0x0 CALLER PUSH20 0xFFFFFFFFFFFFFFFFFFFFFFFFFFFFFFFFFFFFFFFF AND PUSH20 0xFFFFFFFFFFFFFFFFFFFFFFFFFFFFFFFFFFFFFFFF AND DUP2 MSTORE PUSH1 0x20 ADD SWAP1 DUP2 MSTORE PUSH1 0x20 ADD PUSH1 0x0 KECCAK256 PUSH1 0x0 SWAP1 SLOAD SWAP1 PUSH2 0x100 EXP SWAP1 DIV PUSH1 0xFF AND PUSH2 0x9FE JUMPI PUSH1 0x0 DUP1 REVERT JUMPDEST PUSH1 0x2 SLOAD PUSH1 0x3 SLOAD TIMESTAMP PUSH2 0xA0F SWAP2 SWAP1 PUSH2 0xF25 JUMP JUMPDEST GT ISZERO PUSH2 0xA1A JUMPI PUSH1 0x0 DUP1 REVERT JUMPDEST PUSH2 0xA22 PUSH2 0xC55 JUMP JUMPDEST PUSH1 0x1 DUP1 DUP1 SLOAD SWAP1 POP PUSH2 0xA33 SWAP2 SWAP1 PUSH2 0x1013 JUMP JUMPDEST DUP2 PUSH1 0x0 ADD DUP2 DUP2 MSTORE POP POP PUSH1 0x0 DUP2 PUSH1 0x20 ADD DUP2 DUP2 MSTORE POP POP CALLER DUP2 PUSH1 0x40 ADD SWAP1 PUSH20 0xFFFFFFFFFFFFFFFFFFFFFFFFFFFFFFFFFFFFFFFF AND SWAP1 DUP2 PUSH20 0xFFFFFFFFFFFFFFFFFFFFFFFFFFFFFFFFFFFFFFFF AND DUP2 MSTORE POP POP PUSH1 0x1 DUP2 SWAP1 DUP1 PUSH1 0x1 DUP2 SLOAD ADD DUP1 DUP3 SSTORE DUP1 SWAP2 POP POP PUSH1 0x1 SWAP1 SUB SWAP1 PUSH1 0x0 MSTORE PUSH1 0x20 PUSH1 0x0 KECCAK256 SWAP1 PUSH1 0x3 MUL ADD PUSH1 0x0 SWAP1 SWAP2 SWAP1 SWAP2 SWAP1 SWAP2 POP PUSH1 0x0 DUP3 ADD MLOAD DUP2 PUSH1 0x0 ADD SSTORE PUSH1 0x20 DUP3 ADD MLOAD DUP2 PUSH1 0x1 ADD SSTORE PUSH1 0x40 DUP3 ADD MLOAD DUP2 PUSH1 0x2 ADD PUSH1 0x0 PUSH2 0x100 EXP DUP2 SLOAD DUP2 PUSH20 0xFFFFFFFFFFFFFFFFFFFFFFFFFFFFFFFFFFFFFFFF MUL NOT AND SWAP1 DUP4 PUSH20 0xFFFFFFFFFFFFFFFFFFFFFFFFFFFFFFFFFFFFFFFF AND MUL OR SWAP1 SSTORE POP POP POP PUSH1 0x1 PUSH1 0x8 PUSH1 0x0 CALLER PUSH20 0xFFFFFFFFFFFFFFFFFFFFFFFFFFFFFFFFFFFFFFFF AND PUSH20 0xFFFFFFFFFFFFFFFFFFFFFFFFFFFFFFFFFFFFFFFF AND DUP2 MSTORE PUSH1 0x20 ADD SWAP1 DUP2 MSTORE PUSH1 0x20 ADD PUSH1 0x0 KECCAK256 PUSH1 0x0 PUSH2 0x100 EXP DUP2 SLOAD DUP2 PUSH1 0xFF MUL NOT AND SWAP1 DUP4 ISZERO ISZERO MUL OR SWAP1 SSTORE POP POP JUMP JUMPDEST PUSH1 0x1 DUP2 DUP2 SLOAD DUP2 LT PUSH2 0xB73 JUMPI PUSH1 0x0 DUP1 REVERT JUMPDEST SWAP1 PUSH1 0x0 MSTORE PUSH1 0x20 PUSH1 0x0 KECCAK256 SWAP1 PUSH1 0x3 MUL ADD PUSH1 0x0 SWAP2 POP SWAP1 POP DUP1 PUSH1 0x0 ADD SLOAD SWAP1 DUP1 PUSH1 0x1 ADD SLOAD SWAP1 DUP1 PUSH1 0x2 ADD PUSH1 0x0 SWAP1 SLOAD SWAP1 PUSH2 0x100 EXP SWAP1 DIV PUSH20 0xFFFFFFFFFFFFFFFFFFFFFFFFFFFFFFFFFFFFFFFF AND SWAP1 POP DUP4 JUMP JUMPDEST PUSH1 0x7 PUSH1 0x20 MSTORE DUP1 PUSH1 0x0 MSTORE PUSH1 0x40 PUSH1 0x0 KECCAK256 PUSH1 0x0 SWAP2 POP SLOAD SWAP1 PUSH2 0x100 EXP SWAP1 DIV PUSH1 0xFF AND DUP2 JUMP JUMPDEST PUSH1 0x2 SLOAD DUP2 JUMP JUMPDEST PUSH1 0x8 PUSH1 0x20 MSTORE DUP1 PUSH1 0x0 MSTORE PUSH1 0x40 PUSH1 0x0 KECCAK256 PUSH1 0x0 SWAP2 POP SLOAD SWAP1 PUSH2 0x100 EXP SWAP1 DIV PUSH1 0xFF AND DUP2 JUMP JUMPDEST PUSH1 0xA PUSH1 0x0 SWAP1 SLOAD SWAP1 PUSH2 0x100 EXP SWAP1 DIV PUSH20 0xFFFFFFFFFFFFFFFFFFFFFFFFFFFFFFFFFFFFFFFF AND DUP2 JUMP JUMPDEST PUSH1 0x9 SLOAD DUP2 JUMP JUMPDEST PUSH1 0x4 PUSH1 0x0 SWAP1 SLOAD SWAP1 PUSH2 0x100 EXP SWAP1 DIV PUSH20 0xFFFFFFFFFFFFFFFFFFFFFFFFFFFFFFFFFFFFFFFF AND DUP2 JUMP JUMPDEST PUSH1 0x40 MLOAD DUP1 PUSH1 0x60 ADD PUSH1 0x40 MSTORE DUP1 PUSH1 0x0 DUP2 MSTORE PUSH1 0x20 ADD PUSH1 0x0 DUP2 MSTORE PUSH1 0x20 ADD PUSH1 0x0 PUSH20 0xFFFFFFFFFFFFFFFFFFFFFFFFFFFFFFFFFFFFFFFF AND DUP2 MSTORE POP SWAP1 JUMP JUMPDEST PUSH1 0x0 DUP1 REVERT JUMPDEST PUSH1 0x0 DUP2 SWAP1 POP SWAP2 SWAP1 POP JUMP JUMPDEST PUSH2 0xCA4 DUP2 PUSH2 0xC91 JUMP JUMPDEST DUP2 EQ PUSH2 0xCAF JUMPI PUSH1 0x0 DUP1 REVERT JUMPDEST POP JUMP JUMPDEST PUSH1 0x0 DUP2 CALLDATALOAD SWAP1 POP PUSH2 0xCC1 DUP2 PUSH2 0xC9B JUMP JUMPDEST SWAP3 SWAP2 POP POP JUMP JUMPDEST PUSH1 0x0 PUSH1 0x20 DUP3 DUP5 SUB SLT ISZERO PUSH2 0xCDD JUMPI PUSH2 0xCDC PUSH2 0xC8C JUMP JUMPDEST JUMPDEST PUSH1 0x0 PUSH2 0xCEB DUP5 DUP3 DUP6 ADD PUSH2 0xCB2 JUMP JUMPDEST SWAP2 POP POP SWAP3 SWAP2 POP POP JUMP JUMPDEST PUSH1 0x0 PUSH20 0xFFFFFFFFFFFFFFFFFFFFFFFFFFFFFFFFFFFFFFFF DUP3 AND SWAP1 POP SWAP2 SWAP1 POP JUMP JUMPDEST PUSH1 0x0 PUSH2 0xD1F DUP3 PUSH2 0xCF4 JUMP JUMPDEST SWAP1 POP SWAP2 SWAP1 POP JUMP JUMPDEST PUSH2 0xD2F DUP2 PUSH2 0xD14 JUMP JUMPDEST DUP3 MSTORE POP POP JUMP JUMPDEST PUSH1 0x0 PUSH1 0x20 DUP3 ADD SWAP1 POP PUSH2 0xD4A PUSH1 0x0 DUP4 ADD DUP5 PUSH2 0xD26 JUMP JUMPDEST SWAP3 SWAP2 POP POP JUMP JUMPDEST PUSH2 0xD59 DUP2 PUSH2 0xD14 JUMP JUMPDEST DUP2 EQ PUSH2 0xD64 JUMPI PUSH1 0x0 DUP1 REVERT JUMPDEST POP JUMP JUMPDEST PUSH1 0x0 DUP2 CALLDATALOAD SWAP1 POP PUSH2 0xD76 DUP2 PUSH2 0xD50 JUMP JUMPDEST SWAP3 SWAP2 POP POP JUMP JUMPDEST PUSH1 0x0 PUSH1 0x20 DUP3 DUP5 SUB SLT ISZERO PUSH2 0xD92 JUMPI PUSH2 0xD91 PUSH2 0xC8C JUMP JUMPDEST JUMPDEST PUSH1 0x0 PUSH2 0xDA0 DUP5 DUP3 DUP6 ADD PUSH2 0xD67 JUMP JUMPDEST SWAP2 POP POP SWAP3 SWAP2 POP POP JUMP JUMPDEST PUSH1 0x0 DUP2 ISZERO ISZERO SWAP1 POP SWAP2 SWAP1 POP JUMP JUMPDEST PUSH2 0xDBE DUP2 PUSH2 0xDA9 JUMP JUMPDEST DUP3 MSTORE POP POP JUMP JUMPDEST PUSH1 0x0 PUSH1 0x20 DUP3 ADD SWAP1 POP PUSH2 0xDD9 PUSH1 0x0 DUP4 ADD DUP5 PUSH2 0xDB5 JUMP JUMPDEST SWAP3 SWAP2 POP POP JUMP JUMPDEST PUSH2 0xDE8 DUP2 PUSH2 0xC91 JUMP JUMPDEST DUP3 MSTORE POP POP JUMP JUMPDEST PUSH1 0x0 PUSH1 0x60 DUP3 ADD SWAP1 POP PUSH2 0xE03 PUSH1 0x0 DUP4 ADD DUP7 PUSH2 0xDDF JUMP JUMPDEST PUSH2 0xE10 PUSH1 0x20 DUP4 ADD DUP6 PUSH2 0xDDF JUMP JUMPDEST PUSH2 0xE1D PUSH1 0x40 DUP4 ADD DUP5 PUSH2 0xD26 JUMP JUMPDEST SWAP5 SWAP4 POP POP POP POP JUMP JUMPDEST PUSH1 0x0 PUSH1 0x20 DUP3 ADD SWAP1 POP PUSH2 0xE3A PUSH1 0x0 DUP4 ADD DUP5 PUSH2 0xDDF JUMP JUMPDEST SWAP3 SWAP2 POP POP JUMP JUMPDEST PUSH1 0x0 PUSH2 0xE4B DUP3 PUSH2 0xCF4 JUMP JUMPDEST SWAP1 POP SWAP2 SWAP1 POP JUMP JUMPDEST PUSH2 0xE5B DUP2 PUSH2 0xE40 JUMP JUMPDEST DUP3 MSTORE POP POP JUMP JUMPDEST PUSH1 0x0 PUSH1 0x20 DUP3 ADD SWAP1 POP PUSH2 0xE76 PUSH1 0x0 DUP4 ADD DUP5 PUSH2 0xE52 JUMP JUMPDEST SWAP3 SWAP2 POP POP JUMP JUMPDEST PUSH1 0x0 DUP2 SWAP1 POP SWAP2 SWAP1 POP JUMP JUMPDEST PUSH1 0x0 PUSH2 0xEA1 PUSH2 0xE9C PUSH2 0xE97 DUP5 PUSH2 0xCF4 JUMP JUMPDEST PUSH2 0xE7C JUMP JUMPDEST PUSH2 0xCF4 JUMP JUMPDEST SWAP1 POP SWAP2 SWAP1 POP JUMP JUMPDEST PUSH1 0x0 PUSH2 0xEB3 DUP3 PUSH2 0xE86 JUMP JUMPDEST SWAP1 POP SWAP2 SWAP1 POP JUMP JUMPDEST PUSH1 0x0 PUSH2 0xEC5 DUP3 PUSH2 0xEA8 JUMP JUMPDEST SWAP1 POP SWAP2 SWAP1 POP JUMP JUMPDEST PUSH2 0xED5 DUP2 PUSH2 0xEBA JUMP JUMPDEST DUP3 MSTORE POP POP JUMP JUMPDEST PUSH1 0x0 PUSH1 0x20 DUP3 ADD SWAP1 POP PUSH2 0xEF0 PUSH1 0x0 DUP4 ADD DUP5 PUSH2 0xECC JUMP JUMPDEST SWAP3 SWAP2 POP POP JUMP JUMPDEST PUSH32 0x4E487B7100000000000000000000000000000000000000000000000000000000 PUSH1 0x0 MSTORE PUSH1 0x11 PUSH1 0x4 MSTORE PUSH1 0x24 PUSH1 0x0 REVERT JUMPDEST PUSH1 0x0 PUSH2 0xF30 DUP3 PUSH2 0xC91 JUMP JUMPDEST SWAP2 POP PUSH2 0xF3B DUP4 PUSH2 0xC91 JUMP JUMPDEST SWAP3 POP DUP3 DUP3 LT ISZERO PUSH2 0xF4E JUMPI PUSH2 0xF4D PUSH2 0xEF6 JUMP JUMPDEST JUMPDEST DUP3 DUP3 SUB SWAP1 POP SWAP3 SWAP2 POP POP JUMP JUMPDEST PUSH32 0x4E487B7100000000000000000000000000000000000000000000000000000000 PUSH1 0x0 MSTORE PUSH1 0x32 PUSH1 0x4 MSTORE PUSH1 0x24 PUSH1 0x0 REVERT JUMPDEST PUSH1 0x0 PUSH2 0xF93 DUP3 PUSH2 0xC91 JUMP JUMPDEST SWAP2 POP PUSH32 0xFFFFFFFFFFFFFFFFFFFFFFFFFFFFFFFFFFFFFFFFFFFFFFFFFFFFFFFFFFFFFFFF DUP3 EQ ISZERO PUSH2 0xFC6 JUMPI PUSH2 0xFC5 PUSH2 0xEF6 JUMP JUMPDEST JUMPDEST PUSH1 0x1 DUP3 ADD SWAP1 POP SWAP2 SWAP1 POP JUMP JUMPDEST PUSH1 0x0 DUP2 MLOAD SWAP1 POP PUSH2 0xFE0 DUP2 PUSH2 0xC9B JUMP JUMPDEST SWAP3 SWAP2 POP POP JUMP JUMPDEST PUSH1 0x0 PUSH1 0x20 DUP3 DUP5 SUB SLT ISZERO PUSH2 0xFFC JUMPI PUSH2 0xFFB PUSH2 0xC8C JUMP JUMPDEST JUMPDEST PUSH1 0x0 PUSH2 0x100A DUP5 DUP3 DUP6 ADD PUSH2 0xFD1 JUMP JUMPDEST SWAP2 POP POP SWAP3 SWAP2 POP POP JUMP JUMPDEST PUSH1 0x0 PUSH2 0x101E DUP3 PUSH2 0xC91 JUMP JUMPDEST SWAP2 POP PUSH2 0x1029 DUP4 PUSH2 0xC91 JUMP JUMPDEST SWAP3 POP DUP3 PUSH32 0xFFFFFFFFFFFFFFFFFFFFFFFFFFFFFFFFFFFFFFFFFFFFFFFFFFFFFFFFFFFFFFFF SUB DUP3 GT ISZERO PUSH2 0x105E JUMPI PUSH2 0x105D PUSH2 0xEF6 JUMP JUMPDEST JUMPDEST DUP3 DUP3 ADD SWAP1 POP SWAP3 SWAP2 POP POP JUMP INVALID LOG2 PUSH5 0x6970667358 0x22 SLT KECCAK256 PUSH5 0x2329CB926 PUSH26 0x71BA1FFDEE870EC23C4E7C4CD3A3DE9D6389F4CABA4DD7E55764 PUSH20 0x6F6C634300080900330000000000000000000000 "},"gasEstimates":{"creation":{"codeDepositCost":"851000","executionCost":"infinite","totalCost":"infinite"},"external":{"addImage()":"infinite","checkTokenBalance()":"infinite","complete()":"2588","deployDate()":"2518","finalizeContest()":"infinite","getVotersPicCount(uint256)":"infinite","holders(address)":"2913","images(uint256)":"infinite","manager()":"2534","partecipants(address)":"2867","prize()":"2495","project()":"infinite","tempo()":"2518","vote(uint256)":"infinite","voters(address)":"2912","winner()":"2558"}},"methodIdentifiers":{"addImage()":"6ff42c82","checkTokenBalance()":"4f731087","complete()":"522e1177","deployDate()":"69668fe9","finalizeContest()":"1729f9d5","getVotersPicCount(uint256)":"215973cc","holders(address)":"18a5bbdc","images(uint256)":"84856482","manager()":"481c6a75","partecipants(address)":"c64134bd","prize()":"e3ac5d26","project()":"f60ca60d","tempo()":"bb1d592d","vote(uint256)":"0121b93f","voters(address)":"a3ec138d","winner()":"dfbf53ae"}},"storageLayout":{"storage":[{"astId":3173,"contract":"Contest.sol:Contest","label":"manager","offset":0,"slot":"0","type":"t_address"},{"astId":3175,"contract":"Contest.sol:Contest","label":"complete","offset":20,"slot":"0","type":"t_bool"},{"astId":3179,"contract":"Contest.sol:Contest","label":"images","offset":0,"slot":"1","type":"t_array(t_struct(Image)3171_storage)dyn_storage"},{"astId":3181,"contract":"Contest.sol:Contest","label":"tempo","offset":0,"slot":"2","type":"t_uint256"},{"astId":3183,"contract":"Contest.sol:Contest","label":"deployDate","offset":0,"slot":"3","type":"t_uint256"},{"astId":3186,"contract":"Contest.sol:Contest","label":"project","offset":0,"slot":"4","type":"t_contract(IERC20)2955"},{"astId":3188,"contract":"Contest.sol:Contest","label":"minimumToken","offset":0,"slot":"5","type":"t_uint256"},{"astId":3192,"contract":"Contest.sol:Contest","label":"holders","offset":0,"slot":"6","type":"t_mapping(t_address,t_bool)"},{"astId":3196,"contract":"Contest.sol:Contest","label":"voters","offset":0,"slot":"7","type":"t_mapping(t_address,t_bool)"},{"astId":3200,"contract":"Contest.sol:Contest","label":"partecipants","offset":0,"slot":"8","type":"t_mapping(t_address,t_bool)"},{"astId":3202,"contract":"Contest.sol:Contest","label":"prize","offset":0,"slot":"9","type":"t_uint256"},{"astId":3204,"contract":"Contest.sol:Contest","label":"winner","offset":0,"slot":"10","type":"t_address_payable"}],"types":{"t_address":{"encoding":"inplace","label":"address","numberOfBytes":"20"},"t_address_payable":{"encoding":"inplace","label":"address payable","numberOfBytes":"20"},"t_array(t_struct(Image)3171_storage)dyn_storage":{"base":"t_struct(Image)3171_storage","encoding":"dynamic_array","label":"struct Contest.Image[]","numberOfBytes":"32"},"t_bool":{"encoding":"inplace","label":"bool","numberOfBytes":"1"},"t_contract(IERC20)2955":{"encoding":"inplace","label":"contract IERC20","numberOfBytes":"20"},"t_mapping(t_address,t_bool)":{"encoding":"mapping","key":"t_address","label":"mapping(address => bool)","numberOfBytes":"32","value":"t_bool"},"t_struct(Image)3171_storage":{"encoding":"inplace","label":"struct Contest.Image","members":[{"astId":3166,"contract":"Contest.sol:Contest","label":"picId","offset":0,"slot":"0","type":"t_uint256"},{"astId":3168,"contract":"Contest.sol:Contest","label":"votersPicCount","offset":0,"slot":"1","type":"t_uint256"},{"astId":3170,"contract":"Contest.sol:Contest","label":"ownerPic","offset":0,"slot":"2","type":"t_address"}],"numberOfBytes":"96"},"t_uint256":{"encoding":"inplace","label":"uint256","numberOfBytes":"32"}}},"userdoc":{"kind":"user","methods":{},"version":1}}