{"abi":[{"inputs":[{"internalType":"string","name":"name","type":"string"},{"internalType":"string","name":"symbol","type":"string"}],"stateMutability":"nonpayable","type":"constructor"},{"anonymous":false,"inputs":[{"indexed":true,"internalType":"address","name":"owner","type":"address"},{"indexed":true,"internalType":"address","name":"approved","type":"address"},{"indexed":true,"internalType":"uint256","name":"tokenId","type":"uint256"}],"name":"Approval","type":"event"},{"anonymous":false,"inputs":[{"indexed":true,"internalType":"address","name":"owner","type":"address"},{"indexed":true,"internalType":"address","name":"operator","type":"address"},{"indexed":false,"internalType":"bool","name":"approved","type":"bool"}],"name":"ApprovalForAll","type":"event"},{"anonymous":false,"inputs":[{"indexed":true,"internalType":"address","name":"previousOwner","type":"address"},{"indexed":true,"internalType":"address","name":"newOwner","type":"address"}],"name":"OwnershipTransferred","type":"event"},{"anonymous":false,"inputs":[{"indexed":true,"internalType":"address","name":"from","type":"address"},{"indexed":true,"internalType":"address","name":"to","type":"address"},{"indexed":true,"internalType":"uint256","name":"tokenId","type":"uint256"}],"name":"Transfer","type":"event"},{"inputs":[],"name":"_tokenIds","outputs":[{"internalType":"uint256","name":"_value","type":"uint256"}],"stateMutability":"view","type":"function"},{"inputs":[{"internalType":"address","name":"to","type":"address"},{"internalType":"uint256","name":"tokenId","type":"uint256"}],"name":"approve","outputs":[],"stateMutability":"nonpayable","type":"function"},{"inputs":[{"internalType":"address","name":"owner","type":"address"}],"name":"balanceOf","outputs":[{"internalType":"uint256","name":"","type":"uint256"}],"stateMutability":"view","type":"function"},{"inputs":[{"internalType":"uint256","name":"tokenId","type":"uint256"}],"name":"getApproved","outputs":[{"internalType":"address","name":"","type":"address"}],"stateMutability":"view","type":"function"},{"inputs":[{"internalType":"address","name":"owner","type":"address"},{"internalType":"address","name":"operator","type":"address"}],"name":"isApprovedForAll","outputs":[{"internalType":"bool","name":"","type":"bool"}],"stateMutability":"view","type":"function"},{"inputs":[{"internalType":"address","name":"recipient","type":"address"},{"internalType":"string","name":"tokenURI","type":"string"}],"name":"mintNFT","outputs":[{"internalType":"uint256","name":"","type":"uint256"}],"stateMutability":"nonpayable","type":"function"},{"inputs":[],"name":"name","outputs":[{"internalType":"string","name":"","type":"string"}],"stateMutability":"view","type":"function"},{"inputs":[],"name":"owner","outputs":[{"internalType":"address","name":"","type":"address"}],"stateMutability":"view","type":"function"},{"inputs":[{"internalType":"uint256","name":"tokenId","type":"uint256"}],"name":"ownerOf","outputs":[{"internalType":"address","name":"","type":"address"}],"stateMutability":"view","type":"function"},{"inputs":[],"name":"renounceOwnership","outputs":[],"stateMutability":"nonpayable","type":"function"},{"inputs":[{"internalType":"address","name":"from","type":"address"},{"internalType":"address","name":"to","type":"address"},{"internalType":"uint256","name":"tokenId","type":"uint256"}],"name":"safeTransferFrom","outputs":[],"stateMutability":"nonpayable","type":"function"},{"inputs":[{"internalType":"address","name":"from","type":"address"},{"internalType":"address","name":"to","type":"address"},{"internalType":"uint256","name":"tokenId","type":"uint256"},{"internalType":"bytes","name":"data","type":"bytes"}],"name":"safeTransferFrom","outputs":[],"stateMutability":"nonpayable","type":"function"},{"inputs":[{"internalType":"address","name":"operator","type":"address"},{"internalType":"bool","name":"approved","type":"bool"}],"name":"setApprovalForAll","outputs":[],"stateMutability":"nonpayable","type":"function"},{"inputs":[{"internalType":"bytes4","name":"interfaceId","type":"bytes4"}],"name":"supportsInterface","outputs":[{"internalType":"bool","name":"","type":"bool"}],"stateMutability":"view","type":"function"},{"inputs":[],"name":"symbol","outputs":[{"internalType":"string","name":"","type":"string"}],"stateMutability":"view","type":"function"},{"inputs":[{"internalType":"uint256","name":"tokenId","type":"uint256"}],"name":"tokenURI","outputs":[{"internalType":"string","name":"","type":"string"}],"stateMutability":"view","type":"function"},{"inputs":[{"internalType":"address","name":"from","type":"address"},{"internalType":"address","name":"to","type":"address"},{"internalType":"uint256","name":"tokenId","type":"uint256"}],"name":"transferFrom","outputs":[],"stateMutability":"nonpayable","type":"function"},{"inputs":[{"internalType":"address","name":"newOwner","type":"address"}],"name":"transferOwnership","outputs":[],"stateMutability":"nonpayable","type":"function"}],"devdoc":{"kind":"dev","methods":{"approve(address,uint256)":{"details":"See {IERC721-approve}."},"balanceOf(address)":{"details":"See {IERC721-balanceOf}."},"getApproved(uint256)":{"details":"See {IERC721-getApproved}."},"isApprovedForAll(address,address)":{"details":"See {IERC721-isApprovedForAll}."},"name()":{"details":"See {IERC721Metadata-name}."},"owner()":{"details":"Returns the address of the current owner."},"ownerOf(uint256)":{"details":"See {IERC721-ownerOf}."},"renounceOwnership()":{"details":"Leaves the contract without owner. It will not be possible to call `onlyOwner` functions anymore. Can only be called by the current owner. NOTE: Renouncing ownership will leave the contract without an owner, thereby removing any functionality that is only available to the owner."},"safeTransferFrom(address,address,uint256)":{"details":"See {IERC721-safeTransferFrom}."},"safeTransferFrom(address,address,uint256,bytes)":{"details":"See {IERC721-safeTransferFrom}."},"setApprovalForAll(address,bool)":{"details":"See {IERC721-setApprovalForAll}."},"supportsInterface(bytes4)":{"details":"See {IERC165-supportsInterface}."},"symbol()":{"details":"See {IERC721Metadata-symbol}."},"tokenURI(uint256)":{"details":"See {IERC721Metadata-tokenURI}."},"transferFrom(address,address,uint256)":{"details":"See {IERC721-transferFrom}."},"transferOwnership(address)":{"details":"Transfers ownership of the contract to a new account (`newOwner`). Can only be called by the current owner."}},"version":1},"evm":{"assembly":"    /* \"Contest.sol\":56364:56876  contract kradlFactoryNFT is ERC721URIStorage, Ownable {... */\n  mstore(0x40, 0x80)\n    /* \"Contest.sol\":56505:56583  constructor(string memory name, string memory symbol) ERC721( name, symbol) {} */\n  callvalue\n  dup1\n  iszero\n  tag_1\n  jumpi\n  0x00\n  dup1\n  revert\ntag_1:\n  pop\n  mload(0x40)\n  sub(codesize, bytecodeSize)\n  dup1\n  bytecodeSize\n  dup4\n  codecopy\n  dup2\n  dup2\n  add\n  0x40\n  mstore\n  dup2\n  add\n  swap1\n  tag_2\n  swap2\n  swap1\n  tag_3\n  jump\t// in\ntag_2:\n    /* \"Contest.sol\":56567:56571  name */\n  dup2\n    /* \"Contest.sol\":56573:56579  symbol */\n  dup2\n    /* \"Contest.sol\":38796:38801  name_ */\n  dup2\n    /* \"Contest.sol\":38788:38793  _name */\n  0x00\n    /* \"Contest.sol\":38788:38801  _name = name_ */\n  swap1\n  dup1\n  mload\n  swap1\n  0x20\n  add\n  swap1\n  tag_8\n  swap3\n  swap2\n  swap1\n  tag_9\n  jump\t// in\ntag_8:\n  pop\n    /* \"Contest.sol\":38821:38828  symbol_ */\n  dup1\n    /* \"Contest.sol\":38811:38818  _symbol */\n  0x01\n    /* \"Contest.sol\":38811:38828  _symbol = symbol_ */\n  swap1\n  dup1\n  mload\n  swap1\n  0x20\n  add\n  swap1\n  tag_10\n  swap3\n  swap2\n  swap1\n  tag_9\n  jump\t// in\ntag_10:\n  pop\n    /* \"Contest.sol\":38722:38835  constructor(string memory name_, string memory symbol_) {... */\n  pop\n  pop\n    /* \"Contest.sol\":18026:18058  _transferOwnership(_msgSender()) */\n  tag_12\n    /* \"Contest.sol\":18045:18057  _msgSender() */\n  tag_13\n    /* \"Contest.sol\":18045:18055  _msgSender */\n  shl(0x20, tag_14)\n    /* \"Contest.sol\":18045:18057  _msgSender() */\n  0x20\n  shr\n  jump\t// in\ntag_13:\n    /* \"Contest.sol\":18026:18044  _transferOwnership */\n  shl(0x20, tag_15)\n    /* \"Contest.sol\":18026:18058  _transferOwnership(_msgSender()) */\n  0x20\n  shr\n  jump\t// in\ntag_12:\n    /* \"Contest.sol\":56505:56583  constructor(string memory name, string memory symbol) ERC721( name, symbol) {} */\n  pop\n  pop\n    /* \"Contest.sol\":56364:56876  contract kradlFactoryNFT is ERC721URIStorage, Ownable {... */\n  jump(tag_17)\n    /* \"Contest.sol\":16894:16990  function _msgSender() internal view virtual returns (address) {... */\ntag_14:\n    /* \"Contest.sol\":16947:16954  address */\n  0x00\n    /* \"Contest.sol\":16973:16983  msg.sender */\n  caller\n    /* \"Contest.sol\":16966:16983  return msg.sender */\n  swap1\n  pop\n    /* \"Contest.sol\":16894:16990  function _msgSender() internal view virtual returns (address) {... */\n  swap1\n  jump\t// out\n    /* \"Contest.sol\":19523:19710  function _transferOwnership(address newOwner) internal virtual {... */\ntag_15:\n    /* \"Contest.sol\":19596:19612  address oldOwner */\n  0x00\n    /* \"Contest.sol\":19615:19621  _owner */\n  0x07\n  0x00\n  swap1\n  sload\n  swap1\n  0x0100\n  exp\n  swap1\n  div\n  0xffffffffffffffffffffffffffffffffffffffff\n  and\n    /* \"Contest.sol\":19596:19621  address oldOwner = _owner */\n  swap1\n  pop\n    /* \"Contest.sol\":19640:19648  newOwner */\n  dup2\n    /* \"Contest.sol\":19631:19637  _owner */\n  0x07\n  0x00\n    /* \"Contest.sol\":19631:19648  _owner = newOwner */\n  0x0100\n  exp\n  dup2\n  sload\n  dup2\n  0xffffffffffffffffffffffffffffffffffffffff\n  mul\n  not\n  and\n  swap1\n  dup4\n  0xffffffffffffffffffffffffffffffffffffffff\n  and\n  mul\n  or\n  swap1\n  sstore\n  pop\n    /* \"Contest.sol\":19694:19702  newOwner */\n  dup2\n    /* \"Contest.sol\":19663:19703  OwnershipTransferred(oldOwner, newOwner) */\n  0xffffffffffffffffffffffffffffffffffffffff\n  and\n    /* \"Contest.sol\":19684:19692  oldOwner */\n  dup2\n    /* \"Contest.sol\":19663:19703  OwnershipTransferred(oldOwner, newOwner) */\n  0xffffffffffffffffffffffffffffffffffffffff\n  and\n  0x8be0079c531659141344cd1fd0a4f28419497f9722a3daafe3b4186f6b6457e0\n  mload(0x40)\n  mload(0x40)\n  dup1\n  swap2\n  sub\n  swap1\n  log3\n    /* \"Contest.sol\":19586:19710  {... */\n  pop\n    /* \"Contest.sol\":19523:19710  function _transferOwnership(address newOwner) internal virtual {... */\n  pop\n  jump\t// out\n    /* \"Contest.sol\":56364:56876  contract kradlFactoryNFT is ERC721URIStorage, Ownable {... */\ntag_9:\n  dup3\n  dup1\n  sload\n  tag_20\n  swap1\n  tag_21\n  jump\t// in\ntag_20:\n  swap1\n  0x00\n  mstore\n  keccak256(0x00, 0x20)\n  swap1\n  0x1f\n  add\n  0x20\n  swap1\n  div\n  dup2\n  add\n  swap3\n  dup3\n  tag_23\n  jumpi\n  0x00\n  dup6\n  sstore\n  jump(tag_22)\ntag_23:\n  dup3\n  0x1f\n  lt\n  tag_24\n  jumpi\n  dup1\n  mload\n  not(0xff)\n  and\n  dup4\n  dup1\n  add\n  or\n  dup6\n  sstore\n  jump(tag_22)\ntag_24:\n  dup3\n  dup1\n  add\n  0x01\n  add\n  dup6\n  sstore\n  dup3\n  iszero\n  tag_22\n  jumpi\n  swap2\n  dup3\n  add\ntag_25:\n  dup3\n  dup2\n  gt\n  iszero\n  tag_26\n  jumpi\n  dup3\n  mload\n  dup3\n  sstore\n  swap2\n  0x20\n  add\n  swap2\n  swap1\n  0x01\n  add\n  swap1\n  jump(tag_25)\ntag_26:\ntag_22:\n  pop\n  swap1\n  pop\n  tag_27\n  swap2\n  swap1\n  tag_28\n  jump\t// in\ntag_27:\n  pop\n  swap1\n  jump\t// out\ntag_28:\ntag_29:\n  dup1\n  dup3\n  gt\n  iszero\n  tag_30\n  jumpi\n  0x00\n  dup2\n  0x00\n  swap1\n  sstore\n  pop\n  0x01\n  add\n  jump(tag_29)\ntag_30:\n  pop\n  swap1\n  jump\t// out\n    /* \"#utility.yul\":7:82   */\ntag_31:\n    /* \"#utility.yul\":40:46   */\n  0x00\n    /* \"#utility.yul\":73:75   */\n  0x40\n    /* \"#utility.yul\":67:76   */\n  mload\n    /* \"#utility.yul\":57:76   */\n  swap1\n  pop\n    /* \"#utility.yul\":7:82   */\n  swap1\n  jump\t// out\n    /* \"#utility.yul\":88:205   */\ntag_32:\n    /* \"#utility.yul\":197:198   */\n  0x00\n    /* \"#utility.yul\":194:195   */\n  dup1\n    /* \"#utility.yul\":187:199   */\n  revert\n    /* \"#utility.yul\":211:328   */\ntag_33:\n    /* \"#utility.yul\":320:321   */\n  0x00\n    /* \"#utility.yul\":317:318   */\n  dup1\n    /* \"#utility.yul\":310:322   */\n  revert\n    /* \"#utility.yul\":334:451   */\ntag_34:\n    /* \"#utility.yul\":443:444   */\n  0x00\n    /* \"#utility.yul\":440:441   */\n  dup1\n    /* \"#utility.yul\":433:445   */\n  revert\n    /* \"#utility.yul\":457:574   */\ntag_35:\n    /* \"#utility.yul\":566:567   */\n  0x00\n    /* \"#utility.yul\":563:564   */\n  dup1\n    /* \"#utility.yul\":556:568   */\n  revert\n    /* \"#utility.yul\":580:682   */\ntag_36:\n    /* \"#utility.yul\":621:627   */\n  0x00\n    /* \"#utility.yul\":672:674   */\n  0x1f\n    /* \"#utility.yul\":668:675   */\n  not\n    /* \"#utility.yul\":663:665   */\n  0x1f\n    /* \"#utility.yul\":656:661   */\n  dup4\n    /* \"#utility.yul\":652:666   */\n  add\n    /* \"#utility.yul\":648:676   */\n  and\n    /* \"#utility.yul\":638:676   */\n  swap1\n  pop\n    /* \"#utility.yul\":580:682   */\n  swap2\n  swap1\n  pop\n  jump\t// out\n    /* \"#utility.yul\":688:868   */\ntag_37:\n    /* \"#utility.yul\":736:813   */\n  0x4e487b7100000000000000000000000000000000000000000000000000000000\n    /* \"#utility.yul\":733:734   */\n  0x00\n    /* \"#utility.yul\":726:814   */\n  mstore\n    /* \"#utility.yul\":833:837   */\n  0x41\n    /* \"#utility.yul\":830:831   */\n  0x04\n    /* \"#utility.yul\":823:838   */\n  mstore\n    /* \"#utility.yul\":857:861   */\n  0x24\n    /* \"#utility.yul\":854:855   */\n  0x00\n    /* \"#utility.yul\":847:862   */\n  revert\n    /* \"#utility.yul\":874:1155   */\ntag_38:\n    /* \"#utility.yul\":957:984   */\n  tag_54\n    /* \"#utility.yul\":979:983   */\n  dup3\n    /* \"#utility.yul\":957:984   */\n  tag_36\n  jump\t// in\ntag_54:\n    /* \"#utility.yul\":949:955   */\n  dup2\n    /* \"#utility.yul\":945:985   */\n  add\n    /* \"#utility.yul\":1087:1093   */\n  dup2\n    /* \"#utility.yul\":1075:1085   */\n  dup2\n    /* \"#utility.yul\":1072:1094   */\n  lt\n    /* \"#utility.yul\":1051:1069   */\n  0xffffffffffffffff\n    /* \"#utility.yul\":1039:1049   */\n  dup3\n    /* \"#utility.yul\":1036:1070   */\n  gt\n    /* \"#utility.yul\":1033:1095   */\n  or\n    /* \"#utility.yul\":1030:1118   */\n  iszero\n  tag_55\n  jumpi\n    /* \"#utility.yul\":1098:1116   */\n  tag_56\n  tag_37\n  jump\t// in\ntag_56:\n    /* \"#utility.yul\":1030:1118   */\ntag_55:\n    /* \"#utility.yul\":1138:1148   */\n  dup1\n    /* \"#utility.yul\":1134:1136   */\n  0x40\n    /* \"#utility.yul\":1127:1149   */\n  mstore\n    /* \"#utility.yul\":917:1155   */\n  pop\n    /* \"#utility.yul\":874:1155   */\n  pop\n  pop\n  jump\t// out\n    /* \"#utility.yul\":1161:1290   */\ntag_39:\n    /* \"#utility.yul\":1195:1201   */\n  0x00\n    /* \"#utility.yul\":1222:1242   */\n  tag_58\n  tag_31\n  jump\t// in\ntag_58:\n    /* \"#utility.yul\":1212:1242   */\n  swap1\n  pop\n    /* \"#utility.yul\":1251:1284   */\n  tag_59\n    /* \"#utility.yul\":1279:1283   */\n  dup3\n    /* \"#utility.yul\":1271:1277   */\n  dup3\n    /* \"#utility.yul\":1251:1284   */\n  tag_38\n  jump\t// in\ntag_59:\n    /* \"#utility.yul\":1161:1290   */\n  swap2\n  swap1\n  pop\n  jump\t// out\n    /* \"#utility.yul\":1296:1604   */\ntag_40:\n    /* \"#utility.yul\":1358:1362   */\n  0x00\n    /* \"#utility.yul\":1448:1466   */\n  0xffffffffffffffff\n    /* \"#utility.yul\":1440:1446   */\n  dup3\n    /* \"#utility.yul\":1437:1467   */\n  gt\n    /* \"#utility.yul\":1434:1490   */\n  iszero\n  tag_61\n  jumpi\n    /* \"#utility.yul\":1470:1488   */\n  tag_62\n  tag_37\n  jump\t// in\ntag_62:\n    /* \"#utility.yul\":1434:1490   */\ntag_61:\n    /* \"#utility.yul\":1508:1537   */\n  tag_63\n    /* \"#utility.yul\":1530:1536   */\n  dup3\n    /* \"#utility.yul\":1508:1537   */\n  tag_36\n  jump\t// in\ntag_63:\n    /* \"#utility.yul\":1500:1537   */\n  swap1\n  pop\n    /* \"#utility.yul\":1592:1596   */\n  0x20\n    /* \"#utility.yul\":1586:1590   */\n  dup2\n    /* \"#utility.yul\":1582:1597   */\n  add\n    /* \"#utility.yul\":1574:1597   */\n  swap1\n  pop\n    /* \"#utility.yul\":1296:1604   */\n  swap2\n  swap1\n  pop\n  jump\t// out\n    /* \"#utility.yul\":1610:1917   */\ntag_41:\n    /* \"#utility.yul\":1678:1679   */\n  0x00\n    /* \"#utility.yul\":1688:1801   */\ntag_65:\n    /* \"#utility.yul\":1702:1708   */\n  dup4\n    /* \"#utility.yul\":1699:1700   */\n  dup2\n    /* \"#utility.yul\":1696:1709   */\n  lt\n    /* \"#utility.yul\":1688:1801   */\n  iszero\n  tag_67\n  jumpi\n    /* \"#utility.yul\":1787:1788   */\n  dup1\n    /* \"#utility.yul\":1782:1785   */\n  dup3\n    /* \"#utility.yul\":1778:1789   */\n  add\n    /* \"#utility.yul\":1772:1790   */\n  mload\n    /* \"#utility.yul\":1768:1769   */\n  dup2\n    /* \"#utility.yul\":1763:1766   */\n  dup5\n    /* \"#utility.yul\":1759:1770   */\n  add\n    /* \"#utility.yul\":1752:1791   */\n  mstore\n    /* \"#utility.yul\":1724:1726   */\n  0x20\n    /* \"#utility.yul\":1721:1722   */\n  dup2\n    /* \"#utility.yul\":1717:1727   */\n  add\n    /* \"#utility.yul\":1712:1727   */\n  swap1\n  pop\n    /* \"#utility.yul\":1688:1801   */\n  jump(tag_65)\ntag_67:\n    /* \"#utility.yul\":1819:1825   */\n  dup4\n    /* \"#utility.yul\":1816:1817   */\n  dup2\n    /* \"#utility.yul\":1813:1826   */\n  gt\n    /* \"#utility.yul\":1810:1911   */\n  iszero\n  tag_68\n  jumpi\n    /* \"#utility.yul\":1899:1900   */\n  0x00\n    /* \"#utility.yul\":1890:1896   */\n  dup5\n    /* \"#utility.yul\":1885:1888   */\n  dup5\n    /* \"#utility.yul\":1881:1897   */\n  add\n    /* \"#utility.yul\":1874:1901   */\n  mstore\n    /* \"#utility.yul\":1810:1911   */\ntag_68:\n    /* \"#utility.yul\":1659:1917   */\n  pop\n    /* \"#utility.yul\":1610:1917   */\n  pop\n  pop\n  pop\n  jump\t// out\n    /* \"#utility.yul\":1923:2344   */\ntag_42:\n    /* \"#utility.yul\":2012:2017   */\n  0x00\n    /* \"#utility.yul\":2037:2103   */\n  tag_70\n    /* \"#utility.yul\":2053:2102   */\n  tag_71\n    /* \"#utility.yul\":2095:2101   */\n  dup5\n    /* \"#utility.yul\":2053:2102   */\n  tag_40\n  jump\t// in\ntag_71:\n    /* \"#utility.yul\":2037:2103   */\n  tag_39\n  jump\t// in\ntag_70:\n    /* \"#utility.yul\":2028:2103   */\n  swap1\n  pop\n    /* \"#utility.yul\":2126:2132   */\n  dup3\n    /* \"#utility.yul\":2119:2124   */\n  dup2\n    /* \"#utility.yul\":2112:2133   */\n  mstore\n    /* \"#utility.yul\":2164:2168   */\n  0x20\n    /* \"#utility.yul\":2157:2162   */\n  dup2\n    /* \"#utility.yul\":2153:2169   */\n  add\n    /* \"#utility.yul\":2202:2205   */\n  dup5\n    /* \"#utility.yul\":2193:2199   */\n  dup5\n    /* \"#utility.yul\":2188:2191   */\n  dup5\n    /* \"#utility.yul\":2184:2200   */\n  add\n    /* \"#utility.yul\":2181:2206   */\n  gt\n    /* \"#utility.yul\":2178:2290   */\n  iszero\n  tag_72\n  jumpi\n    /* \"#utility.yul\":2209:2288   */\n  tag_73\n  tag_35\n  jump\t// in\ntag_73:\n    /* \"#utility.yul\":2178:2290   */\ntag_72:\n    /* \"#utility.yul\":2299:2338   */\n  tag_74\n    /* \"#utility.yul\":2331:2337   */\n  dup5\n    /* \"#utility.yul\":2326:2329   */\n  dup3\n    /* \"#utility.yul\":2321:2324   */\n  dup6\n    /* \"#utility.yul\":2299:2338   */\n  tag_41\n  jump\t// in\ntag_74:\n    /* \"#utility.yul\":2018:2344   */\n  pop\n    /* \"#utility.yul\":1923:2344   */\n  swap4\n  swap3\n  pop\n  pop\n  pop\n  jump\t// out\n    /* \"#utility.yul\":2364:2719   */\ntag_43:\n    /* \"#utility.yul\":2431:2436   */\n  0x00\n    /* \"#utility.yul\":2480:2483   */\n  dup3\n    /* \"#utility.yul\":2473:2477   */\n  0x1f\n    /* \"#utility.yul\":2465:2471   */\n  dup4\n    /* \"#utility.yul\":2461:2478   */\n  add\n    /* \"#utility.yul\":2457:2484   */\n  slt\n    /* \"#utility.yul\":2447:2569   */\n  tag_76\n  jumpi\n    /* \"#utility.yul\":2488:2567   */\n  tag_77\n  tag_34\n  jump\t// in\ntag_77:\n    /* \"#utility.yul\":2447:2569   */\ntag_76:\n    /* \"#utility.yul\":2598:2604   */\n  dup2\n    /* \"#utility.yul\":2592:2605   */\n  mload\n    /* \"#utility.yul\":2623:2713   */\n  tag_78\n    /* \"#utility.yul\":2709:2712   */\n  dup5\n    /* \"#utility.yul\":2701:2707   */\n  dup3\n    /* \"#utility.yul\":2694:2698   */\n  0x20\n    /* \"#utility.yul\":2686:2692   */\n  dup7\n    /* \"#utility.yul\":2682:2699   */\n  add\n    /* \"#utility.yul\":2623:2713   */\n  tag_42\n  jump\t// in\ntag_78:\n    /* \"#utility.yul\":2614:2713   */\n  swap2\n  pop\n    /* \"#utility.yul\":2437:2719   */\n  pop\n    /* \"#utility.yul\":2364:2719   */\n  swap3\n  swap2\n  pop\n  pop\n  jump\t// out\n    /* \"#utility.yul\":2725:3578   */\ntag_3:\n    /* \"#utility.yul\":2824:2830   */\n  0x00\n    /* \"#utility.yul\":2832:2838   */\n  dup1\n    /* \"#utility.yul\":2881:2883   */\n  0x40\n    /* \"#utility.yul\":2869:2878   */\n  dup4\n    /* \"#utility.yul\":2860:2867   */\n  dup6\n    /* \"#utility.yul\":2856:2879   */\n  sub\n    /* \"#utility.yul\":2852:2884   */\n  slt\n    /* \"#utility.yul\":2849:2968   */\n  iszero\n  tag_80\n  jumpi\n    /* \"#utility.yul\":2887:2966   */\n  tag_81\n  tag_32\n  jump\t// in\ntag_81:\n    /* \"#utility.yul\":2849:2968   */\ntag_80:\n    /* \"#utility.yul\":3028:3029   */\n  0x00\n    /* \"#utility.yul\":3017:3026   */\n  dup4\n    /* \"#utility.yul\":3013:3030   */\n  add\n    /* \"#utility.yul\":3007:3031   */\n  mload\n    /* \"#utility.yul\":3058:3076   */\n  0xffffffffffffffff\n    /* \"#utility.yul\":3050:3056   */\n  dup2\n    /* \"#utility.yul\":3047:3077   */\n  gt\n    /* \"#utility.yul\":3044:3161   */\n  iszero\n  tag_82\n  jumpi\n    /* \"#utility.yul\":3080:3159   */\n  tag_83\n  tag_33\n  jump\t// in\ntag_83:\n    /* \"#utility.yul\":3044:3161   */\ntag_82:\n    /* \"#utility.yul\":3185:3259   */\n  tag_84\n    /* \"#utility.yul\":3251:3258   */\n  dup6\n    /* \"#utility.yul\":3242:3248   */\n  dup3\n    /* \"#utility.yul\":3231:3240   */\n  dup7\n    /* \"#utility.yul\":3227:3249   */\n  add\n    /* \"#utility.yul\":3185:3259   */\n  tag_43\n  jump\t// in\ntag_84:\n    /* \"#utility.yul\":3175:3259   */\n  swap3\n  pop\n    /* \"#utility.yul\":2978:3269   */\n  pop\n    /* \"#utility.yul\":3329:3331   */\n  0x20\n    /* \"#utility.yul\":3318:3327   */\n  dup4\n    /* \"#utility.yul\":3314:3332   */\n  add\n    /* \"#utility.yul\":3308:3333   */\n  mload\n    /* \"#utility.yul\":3360:3378   */\n  0xffffffffffffffff\n    /* \"#utility.yul\":3352:3358   */\n  dup2\n    /* \"#utility.yul\":3349:3379   */\n  gt\n    /* \"#utility.yul\":3346:3463   */\n  iszero\n  tag_85\n  jumpi\n    /* \"#utility.yul\":3382:3461   */\n  tag_86\n  tag_33\n  jump\t// in\ntag_86:\n    /* \"#utility.yul\":3346:3463   */\ntag_85:\n    /* \"#utility.yul\":3487:3561   */\n  tag_87\n    /* \"#utility.yul\":3553:3560   */\n  dup6\n    /* \"#utility.yul\":3544:3550   */\n  dup3\n    /* \"#utility.yul\":3533:3542   */\n  dup7\n    /* \"#utility.yul\":3529:3551   */\n  add\n    /* \"#utility.yul\":3487:3561   */\n  tag_43\n  jump\t// in\ntag_87:\n    /* \"#utility.yul\":3477:3561   */\n  swap2\n  pop\n    /* \"#utility.yul\":3279:3571   */\n  pop\n    /* \"#utility.yul\":2725:3578   */\n  swap3\n  pop\n  swap3\n  swap1\n  pop\n  jump\t// out\n    /* \"#utility.yul\":3584:3764   */\ntag_44:\n    /* \"#utility.yul\":3632:3709   */\n  0x4e487b7100000000000000000000000000000000000000000000000000000000\n    /* \"#utility.yul\":3629:3630   */\n  0x00\n    /* \"#utility.yul\":3622:3710   */\n  mstore\n    /* \"#utility.yul\":3729:3733   */\n  0x22\n    /* \"#utility.yul\":3726:3727   */\n  0x04\n    /* \"#utility.yul\":3719:3734   */\n  mstore\n    /* \"#utility.yul\":3753:3757   */\n  0x24\n    /* \"#utility.yul\":3750:3751   */\n  0x00\n    /* \"#utility.yul\":3743:3758   */\n  revert\n    /* \"#utility.yul\":3770:4090   */\ntag_21:\n    /* \"#utility.yul\":3814:3820   */\n  0x00\n    /* \"#utility.yul\":3851:3852   */\n  0x02\n    /* \"#utility.yul\":3845:3849   */\n  dup3\n    /* \"#utility.yul\":3841:3853   */\n  div\n    /* \"#utility.yul\":3831:3853   */\n  swap1\n  pop\n    /* \"#utility.yul\":3898:3899   */\n  0x01\n    /* \"#utility.yul\":3892:3896   */\n  dup3\n    /* \"#utility.yul\":3888:3900   */\n  and\n    /* \"#utility.yul\":3919:3937   */\n  dup1\n    /* \"#utility.yul\":3909:3990   */\n  tag_90\n  jumpi\n    /* \"#utility.yul\":3975:3979   */\n  0x7f\n    /* \"#utility.yul\":3967:3973   */\n  dup3\n    /* \"#utility.yul\":3963:3980   */\n  and\n    /* \"#utility.yul\":3953:3980   */\n  swap2\n  pop\n    /* \"#utility.yul\":3909:3990   */\ntag_90:\n    /* \"#utility.yul\":4037:4039   */\n  0x20\n    /* \"#utility.yul\":4029:4035   */\n  dup3\n    /* \"#utility.yul\":4026:4040   */\n  lt\n    /* \"#utility.yul\":4006:4024   */\n  dup2\n    /* \"#utility.yul\":4003:4041   */\n  eq\n    /* \"#utility.yul\":4000:4084   */\n  iszero\n  tag_91\n  jumpi\n    /* \"#utility.yul\":4056:4074   */\n  tag_92\n  tag_44\n  jump\t// in\ntag_92:\n    /* \"#utility.yul\":4000:4084   */\ntag_91:\n    /* \"#utility.yul\":3821:4090   */\n  pop\n    /* \"#utility.yul\":3770:4090   */\n  swap2\n  swap1\n  pop\n  jump\t// out\n    /* \"Contest.sol\":56364:56876  contract kradlFactoryNFT is ERC721URIStorage, Ownable {... */\ntag_17:\n  dataSize(sub_0)\n  dup1\n  dataOffset(sub_0)\n  0x00\n  codecopy\n  0x00\n  return\nstop\n\nsub_0: assembly {\n        /* \"Contest.sol\":56364:56876  contract kradlFactoryNFT is ERC721URIStorage, Ownable {... */\n      mstore(0x40, 0x80)\n      callvalue\n      dup1\n      iszero\n      tag_1\n      jumpi\n      0x00\n      dup1\n      revert\n    tag_1:\n      pop\n      jumpi(tag_2, lt(calldatasize, 0x04))\n      shr(0xe0, calldataload(0x00))\n      dup1\n      0x8da5cb5b\n      gt\n      tag_21\n      jumpi\n      dup1\n      0xb88d4fde\n      gt\n      tag_22\n      jumpi\n      dup1\n      0xb88d4fde\n      eq\n      tag_16\n      jumpi\n      dup1\n      0xc87b56dd\n      eq\n      tag_17\n      jumpi\n      dup1\n      0xe985e9c5\n      eq\n      tag_18\n      jumpi\n      dup1\n      0xeacabe14\n      eq\n      tag_19\n      jumpi\n      dup1\n      0xf2fde38b\n      eq\n      tag_20\n      jumpi\n      jump(tag_2)\n    tag_22:\n      dup1\n      0x8da5cb5b\n      eq\n      tag_12\n      jumpi\n      dup1\n      0x95d89b41\n      eq\n      tag_13\n      jumpi\n      dup1\n      0xa22cb465\n      eq\n      tag_14\n      jumpi\n      dup1\n      0xaa46a400\n      eq\n      tag_15\n      jumpi\n      jump(tag_2)\n    tag_21:\n      dup1\n      0x23b872dd\n      gt\n      tag_23\n      jumpi\n      dup1\n      0x23b872dd\n      eq\n      tag_7\n      jumpi\n      dup1\n      0x42842e0e\n      eq\n      tag_8\n      jumpi\n      dup1\n      0x6352211e\n      eq\n      tag_9\n      jumpi\n      dup1\n      0x70a08231\n      eq\n      tag_10\n      jumpi\n      dup1\n      0x715018a6\n      eq\n      tag_11\n      jumpi\n      jump(tag_2)\n    tag_23:\n      dup1\n      0x01ffc9a7\n      eq\n      tag_3\n      jumpi\n      dup1\n      0x06fdde03\n      eq\n      tag_4\n      jumpi\n      dup1\n      0x081812fc\n      eq\n      tag_5\n      jumpi\n      dup1\n      0x095ea7b3\n      eq\n      tag_6\n      jumpi\n    tag_2:\n      0x00\n      dup1\n      revert\n        /* \"Contest.sol\":38902:39202  function supportsInterface(bytes4 interfaceId) public view virtual override(ERC165, IERC165) returns (bool) {... */\n    tag_3:\n      tag_24\n      0x04\n      dup1\n      calldatasize\n      sub\n      dup2\n      add\n      swap1\n      tag_25\n      swap2\n      swap1\n      tag_26\n      jump\t// in\n    tag_25:\n      tag_27\n      jump\t// in\n    tag_24:\n      mload(0x40)\n      tag_28\n      swap2\n      swap1\n      tag_29\n      jump\t// in\n    tag_28:\n      mload(0x40)\n      dup1\n      swap2\n      sub\n      swap1\n      return\n        /* \"Contest.sol\":39803:39901  function name() public view virtual override returns (string memory) {... */\n    tag_4:\n      tag_30\n      tag_31\n      jump\t// in\n    tag_30:\n      mload(0x40)\n      tag_32\n      swap2\n      swap1\n      tag_33\n      jump\t// in\n    tag_32:\n      mload(0x40)\n      dup1\n      swap2\n      sub\n      swap1\n      return\n        /* \"Contest.sol\":41267:41434  function getApproved(uint256 tokenId) public view virtual override returns (address) {... */\n    tag_5:\n      tag_34\n      0x04\n      dup1\n      calldatasize\n      sub\n      dup2\n      add\n      swap1\n      tag_35\n      swap2\n      swap1\n      tag_36\n      jump\t// in\n    tag_35:\n      tag_37\n      jump\t// in\n    tag_34:\n      mload(0x40)\n      tag_38\n      swap2\n      swap1\n      tag_39\n      jump\t// in\n    tag_38:\n      mload(0x40)\n      dup1\n      swap2\n      sub\n      swap1\n      return\n        /* \"Contest.sol\":40800:41206  function approve(address to, uint256 tokenId) public virtual override {... */\n    tag_6:\n      tag_40\n      0x04\n      dup1\n      calldatasize\n      sub\n      dup2\n      add\n      swap1\n      tag_41\n      swap2\n      swap1\n      tag_42\n      jump\t// in\n    tag_41:\n      tag_43\n      jump\t// in\n    tag_40:\n      stop\n        /* \"Contest.sol\":41944:42270  function transferFrom(... */\n    tag_7:\n      tag_44\n      0x04\n      dup1\n      calldatasize\n      sub\n      dup2\n      add\n      swap1\n      tag_45\n      swap2\n      swap1\n      tag_46\n      jump\t// in\n    tag_45:\n      tag_47\n      jump\t// in\n    tag_44:\n      stop\n        /* \"Contest.sol\":42336:42515  function safeTransferFrom(... */\n    tag_8:\n      tag_48\n      0x04\n      dup1\n      calldatasize\n      sub\n      dup2\n      add\n      swap1\n      tag_49\n      swap2\n      swap1\n      tag_46\n      jump\t// in\n    tag_49:\n      tag_50\n      jump\t// in\n    tag_48:\n      stop\n        /* \"Contest.sol\":39522:39741  function ownerOf(uint256 tokenId) public view virtual override returns (address) {... */\n    tag_9:\n      tag_51\n      0x04\n      dup1\n      calldatasize\n      sub\n      dup2\n      add\n      swap1\n      tag_52\n      swap2\n      swap1\n      tag_36\n      jump\t// in\n    tag_52:\n      tag_53\n      jump\t// in\n    tag_51:\n      mload(0x40)\n      tag_54\n      swap2\n      swap1\n      tag_39\n      jump\t// in\n    tag_54:\n      mload(0x40)\n      dup1\n      swap2\n      sub\n      swap1\n      return\n        /* \"Contest.sol\":39261:39465  function balanceOf(address owner) public view virtual override returns (uint256) {... */\n    tag_10:\n      tag_55\n      0x04\n      dup1\n      calldatasize\n      sub\n      dup2\n      add\n      swap1\n      tag_56\n      swap2\n      swap1\n      tag_57\n      jump\t// in\n    tag_56:\n      tag_58\n      jump\t// in\n    tag_55:\n      mload(0x40)\n      tag_59\n      swap2\n      swap1\n      tag_60\n      jump\t// in\n    tag_59:\n      mload(0x40)\n      dup1\n      swap2\n      sub\n      swap1\n      return\n        /* \"Contest.sol\":18921:19022  function renounceOwnership() public virtual onlyOwner {... */\n    tag_11:\n      tag_61\n      tag_62\n      jump\t// in\n    tag_61:\n      stop\n        /* \"Contest.sol\":18291:18376  function owner() public view virtual returns (address) {... */\n    tag_12:\n      tag_63\n      tag_64\n      jump\t// in\n    tag_63:\n      mload(0x40)\n      tag_65\n      swap2\n      swap1\n      tag_39\n      jump\t// in\n    tag_65:\n      mload(0x40)\n      dup1\n      swap2\n      sub\n      swap1\n      return\n        /* \"Contest.sol\":39965:40067  function symbol() public view virtual override returns (string memory) {... */\n    tag_13:\n      tag_66\n      tag_67\n      jump\t// in\n    tag_66:\n      mload(0x40)\n      tag_68\n      swap2\n      swap1\n      tag_33\n      jump\t// in\n    tag_68:\n      mload(0x40)\n      dup1\n      swap2\n      sub\n      swap1\n      return\n        /* \"Contest.sol\":41501:41654  function setApprovalForAll(address operator, bool approved) public virtual override {... */\n    tag_14:\n      tag_69\n      0x04\n      dup1\n      calldatasize\n      sub\n      dup2\n      add\n      swap1\n      tag_70\n      swap2\n      swap1\n      tag_71\n      jump\t// in\n    tag_70:\n      tag_72\n      jump\t// in\n    tag_69:\n      stop\n        /* \"Contest.sol\":56465:56498  Counters.Counter public _tokenIds */\n    tag_15:\n      tag_73\n      tag_74\n      jump\t// in\n    tag_73:\n      mload(0x40)\n      tag_75\n      swap2\n      swap1\n      tag_60\n      jump\t// in\n    tag_75:\n      mload(0x40)\n      dup1\n      swap2\n      sub\n      swap1\n      return\n        /* \"Contest.sol\":42581:42895  function safeTransferFrom(... */\n    tag_16:\n      tag_76\n      0x04\n      dup1\n      calldatasize\n      sub\n      dup2\n      add\n      swap1\n      tag_77\n      swap2\n      swap1\n      tag_78\n      jump\t// in\n    tag_77:\n      tag_79\n      jump\t// in\n    tag_76:\n      stop\n        /* \"Contest.sol\":54795:55403  function tokenURI(uint256 tokenId) public view virtual override returns (string memory) {... */\n    tag_17:\n      tag_80\n      0x04\n      dup1\n      calldatasize\n      sub\n      dup2\n      add\n      swap1\n      tag_81\n      swap2\n      swap1\n      tag_36\n      jump\t// in\n    tag_81:\n      tag_82\n      jump\t// in\n    tag_80:\n      mload(0x40)\n      tag_83\n      swap2\n      swap1\n      tag_33\n      jump\t// in\n    tag_83:\n      mload(0x40)\n      dup1\n      swap2\n      sub\n      swap1\n      return\n        /* \"Contest.sol\":41720:41882  function isApprovedForAll(address owner, address operator) public view virtual override returns (bool) {... */\n    tag_18:\n      tag_84\n      0x04\n      dup1\n      calldatasize\n      sub\n      dup2\n      add\n      swap1\n      tag_85\n      swap2\n      swap1\n      tag_86\n      jump\t// in\n    tag_85:\n      tag_87\n      jump\t// in\n    tag_84:\n      mload(0x40)\n      tag_88\n      swap2\n      swap1\n      tag_29\n      jump\t// in\n    tag_88:\n      mload(0x40)\n      dup1\n      swap2\n      sub\n      swap1\n      return\n        /* \"Contest.sol\":56589:56869  function mintNFT(address recipient, string memory tokenURI) public returns (uint256) {... */\n    tag_19:\n      tag_89\n      0x04\n      dup1\n      calldatasize\n      sub\n      dup2\n      add\n      swap1\n      tag_90\n      swap2\n      swap1\n      tag_91\n      jump\t// in\n    tag_90:\n      tag_92\n      jump\t// in\n    tag_89:\n      mload(0x40)\n      tag_93\n      swap2\n      swap1\n      tag_60\n      jump\t// in\n    tag_93:\n      mload(0x40)\n      dup1\n      swap2\n      sub\n      swap1\n      return\n        /* \"Contest.sol\":19171:19369  function transferOwnership(address newOwner) public virtual onlyOwner {... */\n    tag_20:\n      tag_94\n      0x04\n      dup1\n      calldatasize\n      sub\n      dup2\n      add\n      swap1\n      tag_95\n      swap2\n      swap1\n      tag_57\n      jump\t// in\n    tag_95:\n      tag_96\n      jump\t// in\n    tag_94:\n      stop\n        /* \"Contest.sol\":38902:39202  function supportsInterface(bytes4 interfaceId) public view virtual override(ERC165, IERC165) returns (bool) {... */\n    tag_27:\n        /* \"Contest.sol\":39004:39008  bool */\n      0x00\n        /* \"Contest.sol\":39054:39079  type(IERC721).interfaceId */\n      0x80ac58cd00000000000000000000000000000000000000000000000000000000\n        /* \"Contest.sol\":39039:39079  interfaceId == type(IERC721).interfaceId */\n      not(0xffffffffffffffffffffffffffffffffffffffffffffffffffffffff)\n      and\n        /* \"Contest.sol\":39039:39050  interfaceId */\n      dup3\n        /* \"Contest.sol\":39039:39079  interfaceId == type(IERC721).interfaceId */\n      not(0xffffffffffffffffffffffffffffffffffffffffffffffffffffffff)\n      and\n      eq\n        /* \"Contest.sol\":39039:39143  interfaceId == type(IERC721).interfaceId ||... */\n      dup1\n      tag_98\n      jumpi\n      pop\n        /* \"Contest.sol\":39110:39143  type(IERC721Metadata).interfaceId */\n      0x5b5e139f00000000000000000000000000000000000000000000000000000000\n        /* \"Contest.sol\":39095:39143  interfaceId == type(IERC721Metadata).interfaceId */\n      not(0xffffffffffffffffffffffffffffffffffffffffffffffffffffffff)\n      and\n        /* \"Contest.sol\":39095:39106  interfaceId */\n      dup3\n        /* \"Contest.sol\":39095:39143  interfaceId == type(IERC721Metadata).interfaceId */\n      not(0xffffffffffffffffffffffffffffffffffffffffffffffffffffffff)\n      and\n      eq\n        /* \"Contest.sol\":39039:39143  interfaceId == type(IERC721).interfaceId ||... */\n    tag_98:\n        /* \"Contest.sol\":39039:39195  interfaceId == type(IERC721).interfaceId ||... */\n      dup1\n      tag_99\n      jumpi\n      pop\n        /* \"Contest.sol\":39159:39195  super.supportsInterface(interfaceId) */\n      tag_100\n        /* \"Contest.sol\":39183:39194  interfaceId */\n      dup3\n        /* \"Contest.sol\":39159:39182  super.supportsInterface */\n      tag_101\n        /* \"Contest.sol\":39159:39195  super.supportsInterface(interfaceId) */\n      jump\t// in\n    tag_100:\n        /* \"Contest.sol\":39039:39195  interfaceId == type(IERC721).interfaceId ||... */\n    tag_99:\n        /* \"Contest.sol\":39020:39195  return... */\n      swap1\n      pop\n        /* \"Contest.sol\":38902:39202  function supportsInterface(bytes4 interfaceId) public view virtual override(ERC165, IERC165) returns (bool) {... */\n      swap2\n      swap1\n      pop\n      jump\t// out\n        /* \"Contest.sol\":39803:39901  function name() public view virtual override returns (string memory) {... */\n    tag_31:\n        /* \"Contest.sol\":39857:39870  string memory */\n      0x60\n        /* \"Contest.sol\":39889:39894  _name */\n      0x00\n        /* \"Contest.sol\":39882:39894  return _name */\n      dup1\n      sload\n      tag_103\n      swap1\n      tag_104\n      jump\t// in\n    tag_103:\n      dup1\n      0x1f\n      add\n      0x20\n      dup1\n      swap2\n      div\n      mul\n      0x20\n      add\n      mload(0x40)\n      swap1\n      dup2\n      add\n      0x40\n      mstore\n      dup1\n      swap3\n      swap2\n      swap1\n      dup2\n      dup2\n      mstore\n      0x20\n      add\n      dup3\n      dup1\n      sload\n      tag_105\n      swap1\n      tag_104\n      jump\t// in\n    tag_105:\n      dup1\n      iszero\n      tag_106\n      jumpi\n      dup1\n      0x1f\n      lt\n      tag_107\n      jumpi\n      0x0100\n      dup1\n      dup4\n      sload\n      div\n      mul\n      dup4\n      mstore\n      swap2\n      0x20\n      add\n      swap2\n      jump(tag_106)\n    tag_107:\n      dup3\n      add\n      swap2\n      swap1\n      0x00\n      mstore\n      keccak256(0x00, 0x20)\n      swap1\n    tag_108:\n      dup2\n      sload\n      dup2\n      mstore\n      swap1\n      0x01\n      add\n      swap1\n      0x20\n      add\n      dup1\n      dup4\n      gt\n      tag_108\n      jumpi\n      dup3\n      swap1\n      sub\n      0x1f\n      and\n      dup3\n      add\n      swap2\n    tag_106:\n      pop\n      pop\n      pop\n      pop\n      pop\n      swap1\n      pop\n        /* \"Contest.sol\":39803:39901  function name() public view virtual override returns (string memory) {... */\n      swap1\n      jump\t// out\n        /* \"Contest.sol\":41267:41434  function getApproved(uint256 tokenId) public view virtual override returns (address) {... */\n    tag_37:\n        /* \"Contest.sol\":41343:41350  address */\n      0x00\n        /* \"Contest.sol\":41362:41385  _requireMinted(tokenId) */\n      tag_110\n        /* \"Contest.sol\":41377:41384  tokenId */\n      dup3\n        /* \"Contest.sol\":41362:41376  _requireMinted */\n      tag_111\n        /* \"Contest.sol\":41362:41385  _requireMinted(tokenId) */\n      jump\t// in\n    tag_110:\n        /* \"Contest.sol\":41403:41418  _tokenApprovals */\n      0x04\n        /* \"Contest.sol\":41403:41427  _tokenApprovals[tokenId] */\n      0x00\n        /* \"Contest.sol\":41419:41426  tokenId */\n      dup4\n        /* \"Contest.sol\":41403:41427  _tokenApprovals[tokenId] */\n      dup2\n      mstore\n      0x20\n      add\n      swap1\n      dup2\n      mstore\n      0x20\n      add\n      0x00\n      keccak256\n      0x00\n      swap1\n      sload\n      swap1\n      0x0100\n      exp\n      swap1\n      div\n      0xffffffffffffffffffffffffffffffffffffffff\n      and\n        /* \"Contest.sol\":41396:41427  return _tokenApprovals[tokenId] */\n      swap1\n      pop\n        /* \"Contest.sol\":41267:41434  function getApproved(uint256 tokenId) public view virtual override returns (address) {... */\n      swap2\n      swap1\n      pop\n      jump\t// out\n        /* \"Contest.sol\":40800:41206  function approve(address to, uint256 tokenId) public virtual override {... */\n    tag_43:\n        /* \"Contest.sol\":40880:40893  address owner */\n      0x00\n        /* \"Contest.sol\":40896:40919  ERC721.ownerOf(tokenId) */\n      tag_113\n        /* \"Contest.sol\":40911:40918  tokenId */\n      dup3\n        /* \"Contest.sol\":40896:40910  ERC721.ownerOf */\n      tag_53\n        /* \"Contest.sol\":40896:40919  ERC721.ownerOf(tokenId) */\n      jump\t// in\n    tag_113:\n        /* \"Contest.sol\":40880:40919  address owner = ERC721.ownerOf(tokenId) */\n      swap1\n      pop\n        /* \"Contest.sol\":40943:40948  owner */\n      dup1\n        /* \"Contest.sol\":40937:40948  to != owner */\n      0xffffffffffffffffffffffffffffffffffffffff\n      and\n        /* \"Contest.sol\":40937:40939  to */\n      dup4\n        /* \"Contest.sol\":40937:40948  to != owner */\n      0xffffffffffffffffffffffffffffffffffffffff\n      and\n      eq\n      iszero\n        /* \"Contest.sol\":40929:40986  require(to != owner, \"ERC721: approval to current owner\") */\n      tag_114\n      jumpi\n      mload(0x40)\n      0x08c379a000000000000000000000000000000000000000000000000000000000\n      dup2\n      mstore\n      0x04\n      add\n      tag_115\n      swap1\n      tag_116\n      jump\t// in\n    tag_115:\n      mload(0x40)\n      dup1\n      swap2\n      sub\n      swap1\n      revert\n    tag_114:\n        /* \"Contest.sol\":41034:41039  owner */\n      dup1\n        /* \"Contest.sol\":41018:41039  _msgSender() == owner */\n      0xffffffffffffffffffffffffffffffffffffffff\n      and\n        /* \"Contest.sol\":41018:41030  _msgSender() */\n      tag_117\n        /* \"Contest.sol\":41018:41028  _msgSender */\n      tag_118\n        /* \"Contest.sol\":41018:41030  _msgSender() */\n      jump\t// in\n    tag_117:\n        /* \"Contest.sol\":41018:41039  _msgSender() == owner */\n      0xffffffffffffffffffffffffffffffffffffffff\n      and\n      eq\n        /* \"Contest.sol\":41018:41080  _msgSender() == owner || isApprovedForAll(owner, _msgSender()) */\n      dup1\n      tag_119\n      jumpi\n      pop\n        /* \"Contest.sol\":41043:41080  isApprovedForAll(owner, _msgSender()) */\n      tag_120\n        /* \"Contest.sol\":41060:41065  owner */\n      dup2\n        /* \"Contest.sol\":41067:41079  _msgSender() */\n      tag_121\n        /* \"Contest.sol\":41067:41077  _msgSender */\n      tag_118\n        /* \"Contest.sol\":41067:41079  _msgSender() */\n      jump\t// in\n    tag_121:\n        /* \"Contest.sol\":41043:41059  isApprovedForAll */\n      tag_87\n        /* \"Contest.sol\":41043:41080  isApprovedForAll(owner, _msgSender()) */\n      jump\t// in\n    tag_120:\n        /* \"Contest.sol\":41018:41080  _msgSender() == owner || isApprovedForAll(owner, _msgSender()) */\n    tag_119:\n        /* \"Contest.sol\":40997:41167  require(... */\n      tag_122\n      jumpi\n      mload(0x40)\n      0x08c379a000000000000000000000000000000000000000000000000000000000\n      dup2\n      mstore\n      0x04\n      add\n      tag_123\n      swap1\n      tag_124\n      jump\t// in\n    tag_123:\n      mload(0x40)\n      dup1\n      swap2\n      sub\n      swap1\n      revert\n    tag_122:\n        /* \"Contest.sol\":41178:41199  _approve(to, tokenId) */\n      tag_125\n        /* \"Contest.sol\":41187:41189  to */\n      dup4\n        /* \"Contest.sol\":41191:41198  tokenId */\n      dup4\n        /* \"Contest.sol\":41178:41186  _approve */\n      tag_126\n        /* \"Contest.sol\":41178:41199  _approve(to, tokenId) */\n      jump\t// in\n    tag_125:\n        /* \"Contest.sol\":40870:41206  {... */\n      pop\n        /* \"Contest.sol\":40800:41206  function approve(address to, uint256 tokenId) public virtual override {... */\n      pop\n      pop\n      jump\t// out\n        /* \"Contest.sol\":41944:42270  function transferFrom(... */\n    tag_47:\n        /* \"Contest.sol\":42133:42174  _isApprovedOrOwner(_msgSender(), tokenId) */\n      tag_128\n        /* \"Contest.sol\":42152:42164  _msgSender() */\n      tag_129\n        /* \"Contest.sol\":42152:42162  _msgSender */\n      tag_118\n        /* \"Contest.sol\":42152:42164  _msgSender() */\n      jump\t// in\n    tag_129:\n        /* \"Contest.sol\":42166:42173  tokenId */\n      dup3\n        /* \"Contest.sol\":42133:42151  _isApprovedOrOwner */\n      tag_130\n        /* \"Contest.sol\":42133:42174  _isApprovedOrOwner(_msgSender(), tokenId) */\n      jump\t// in\n    tag_128:\n        /* \"Contest.sol\":42125:42224  require(_isApprovedOrOwner(_msgSender(), tokenId), \"ERC721: caller is not token owner or approved\") */\n      tag_131\n      jumpi\n      mload(0x40)\n      0x08c379a000000000000000000000000000000000000000000000000000000000\n      dup2\n      mstore\n      0x04\n      add\n      tag_132\n      swap1\n      tag_133\n      jump\t// in\n    tag_132:\n      mload(0x40)\n      dup1\n      swap2\n      sub\n      swap1\n      revert\n    tag_131:\n        /* \"Contest.sol\":42235:42263  _transfer(from, to, tokenId) */\n      tag_134\n        /* \"Contest.sol\":42245:42249  from */\n      dup4\n        /* \"Contest.sol\":42251:42253  to */\n      dup4\n        /* \"Contest.sol\":42255:42262  tokenId */\n      dup4\n        /* \"Contest.sol\":42235:42244  _transfer */\n      tag_135\n        /* \"Contest.sol\":42235:42263  _transfer(from, to, tokenId) */\n      jump\t// in\n    tag_134:\n        /* \"Contest.sol\":41944:42270  function transferFrom(... */\n      pop\n      pop\n      pop\n      jump\t// out\n        /* \"Contest.sol\":42336:42515  function safeTransferFrom(... */\n    tag_50:\n        /* \"Contest.sol\":42469:42508  safeTransferFrom(from, to, tokenId, \"\") */\n      tag_137\n        /* \"Contest.sol\":42486:42490  from */\n      dup4\n        /* \"Contest.sol\":42492:42494  to */\n      dup4\n        /* \"Contest.sol\":42496:42503  tokenId */\n      dup4\n        /* \"Contest.sol\":42469:42508  safeTransferFrom(from, to, tokenId, \"\") */\n      mload(0x40)\n      dup1\n      0x20\n      add\n      0x40\n      mstore\n      dup1\n      0x00\n      dup2\n      mstore\n      pop\n        /* \"Contest.sol\":42469:42485  safeTransferFrom */\n      tag_79\n        /* \"Contest.sol\":42469:42508  safeTransferFrom(from, to, tokenId, \"\") */\n      jump\t// in\n    tag_137:\n        /* \"Contest.sol\":42336:42515  function safeTransferFrom(... */\n      pop\n      pop\n      pop\n      jump\t// out\n        /* \"Contest.sol\":39522:39741  function ownerOf(uint256 tokenId) public view virtual override returns (address) {... */\n    tag_53:\n        /* \"Contest.sol\":39594:39601  address */\n      0x00\n        /* \"Contest.sol\":39613:39626  address owner */\n      dup1\n        /* \"Contest.sol\":39629:39646  _ownerOf(tokenId) */\n      tag_139\n        /* \"Contest.sol\":39638:39645  tokenId */\n      dup4\n        /* \"Contest.sol\":39629:39637  _ownerOf */\n      tag_140\n        /* \"Contest.sol\":39629:39646  _ownerOf(tokenId) */\n      jump\t// in\n    tag_139:\n        /* \"Contest.sol\":39613:39646  address owner = _ownerOf(tokenId) */\n      swap1\n      pop\n        /* \"Contest.sol\":39681:39682  0 */\n      0x00\n        /* \"Contest.sol\":39664:39683  owner != address(0) */\n      0xffffffffffffffffffffffffffffffffffffffff\n      and\n        /* \"Contest.sol\":39664:39669  owner */\n      dup2\n        /* \"Contest.sol\":39664:39683  owner != address(0) */\n      0xffffffffffffffffffffffffffffffffffffffff\n      and\n      eq\n      iszero\n        /* \"Contest.sol\":39656:39712  require(owner != address(0), \"ERC721: invalid token ID\") */\n      tag_141\n      jumpi\n      mload(0x40)\n      0x08c379a000000000000000000000000000000000000000000000000000000000\n      dup2\n      mstore\n      0x04\n      add\n      tag_142\n      swap1\n      tag_143\n      jump\t// in\n    tag_142:\n      mload(0x40)\n      dup1\n      swap2\n      sub\n      swap1\n      revert\n    tag_141:\n        /* \"Contest.sol\":39729:39734  owner */\n      dup1\n        /* \"Contest.sol\":39722:39734  return owner */\n      swap2\n      pop\n      pop\n        /* \"Contest.sol\":39522:39741  function ownerOf(uint256 tokenId) public view virtual override returns (address) {... */\n      swap2\n      swap1\n      pop\n      jump\t// out\n        /* \"Contest.sol\":39261:39465  function balanceOf(address owner) public view virtual override returns (uint256) {... */\n    tag_58:\n        /* \"Contest.sol\":39333:39340  uint256 */\n      0x00\n        /* \"Contest.sol\":39377:39378  0 */\n      dup1\n        /* \"Contest.sol\":39360:39379  owner != address(0) */\n      0xffffffffffffffffffffffffffffffffffffffff\n      and\n        /* \"Contest.sol\":39360:39365  owner */\n      dup3\n        /* \"Contest.sol\":39360:39379  owner != address(0) */\n      0xffffffffffffffffffffffffffffffffffffffff\n      and\n      eq\n      iszero\n        /* \"Contest.sol\":39352:39425  require(owner != address(0), \"ERC721: address zero is not a valid owner\") */\n      tag_145\n      jumpi\n      mload(0x40)\n      0x08c379a000000000000000000000000000000000000000000000000000000000\n      dup2\n      mstore\n      0x04\n      add\n      tag_146\n      swap1\n      tag_147\n      jump\t// in\n    tag_146:\n      mload(0x40)\n      dup1\n      swap2\n      sub\n      swap1\n      revert\n    tag_145:\n        /* \"Contest.sol\":39442:39451  _balances */\n      0x03\n        /* \"Contest.sol\":39442:39458  _balances[owner] */\n      0x00\n        /* \"Contest.sol\":39452:39457  owner */\n      dup4\n        /* \"Contest.sol\":39442:39458  _balances[owner] */\n      0xffffffffffffffffffffffffffffffffffffffff\n      and\n      0xffffffffffffffffffffffffffffffffffffffff\n      and\n      dup2\n      mstore\n      0x20\n      add\n      swap1\n      dup2\n      mstore\n      0x20\n      add\n      0x00\n      keccak256\n      sload\n        /* \"Contest.sol\":39435:39458  return _balances[owner] */\n      swap1\n      pop\n        /* \"Contest.sol\":39261:39465  function balanceOf(address owner) public view virtual override returns (uint256) {... */\n      swap2\n      swap1\n      pop\n      jump\t// out\n        /* \"Contest.sol\":18921:19022  function renounceOwnership() public virtual onlyOwner {... */\n    tag_62:\n        /* \"Contest.sol\":18184:18197  _checkOwner() */\n      tag_149\n        /* \"Contest.sol\":18184:18195  _checkOwner */\n      tag_150\n        /* \"Contest.sol\":18184:18197  _checkOwner() */\n      jump\t// in\n    tag_149:\n        /* \"Contest.sol\":18985:19015  _transferOwnership(address(0)) */\n      tag_152\n        /* \"Contest.sol\":19012:19013  0 */\n      0x00\n        /* \"Contest.sol\":18985:19003  _transferOwnership */\n      tag_153\n        /* \"Contest.sol\":18985:19015  _transferOwnership(address(0)) */\n      jump\t// in\n    tag_152:\n        /* \"Contest.sol\":18921:19022  function renounceOwnership() public virtual onlyOwner {... */\n      jump\t// out\n        /* \"Contest.sol\":18291:18376  function owner() public view virtual returns (address) {... */\n    tag_64:\n        /* \"Contest.sol\":18337:18344  address */\n      0x00\n        /* \"Contest.sol\":18363:18369  _owner */\n      0x07\n      0x00\n      swap1\n      sload\n      swap1\n      0x0100\n      exp\n      swap1\n      div\n      0xffffffffffffffffffffffffffffffffffffffff\n      and\n        /* \"Contest.sol\":18356:18369  return _owner */\n      swap1\n      pop\n        /* \"Contest.sol\":18291:18376  function owner() public view virtual returns (address) {... */\n      swap1\n      jump\t// out\n        /* \"Contest.sol\":39965:40067  function symbol() public view virtual override returns (string memory) {... */\n    tag_67:\n        /* \"Contest.sol\":40021:40034  string memory */\n      0x60\n        /* \"Contest.sol\":40053:40060  _symbol */\n      0x01\n        /* \"Contest.sol\":40046:40060  return _symbol */\n      dup1\n      sload\n      tag_156\n      swap1\n      tag_104\n      jump\t// in\n    tag_156:\n      dup1\n      0x1f\n      add\n      0x20\n      dup1\n      swap2\n      div\n      mul\n      0x20\n      add\n      mload(0x40)\n      swap1\n      dup2\n      add\n      0x40\n      mstore\n      dup1\n      swap3\n      swap2\n      swap1\n      dup2\n      dup2\n      mstore\n      0x20\n      add\n      dup3\n      dup1\n      sload\n      tag_157\n      swap1\n      tag_104\n      jump\t// in\n    tag_157:\n      dup1\n      iszero\n      tag_158\n      jumpi\n      dup1\n      0x1f\n      lt\n      tag_159\n      jumpi\n      0x0100\n      dup1\n      dup4\n      sload\n      div\n      mul\n      dup4\n      mstore\n      swap2\n      0x20\n      add\n      swap2\n      jump(tag_158)\n    tag_159:\n      dup3\n      add\n      swap2\n      swap1\n      0x00\n      mstore\n      keccak256(0x00, 0x20)\n      swap1\n    tag_160:\n      dup2\n      sload\n      dup2\n      mstore\n      swap1\n      0x01\n      add\n      swap1\n      0x20\n      add\n      dup1\n      dup4\n      gt\n      tag_160\n      jumpi\n      dup3\n      swap1\n      sub\n      0x1f\n      and\n      dup3\n      add\n      swap2\n    tag_158:\n      pop\n      pop\n      pop\n      pop\n      pop\n      swap1\n      pop\n        /* \"Contest.sol\":39965:40067  function symbol() public view virtual override returns (string memory) {... */\n      swap1\n      jump\t// out\n        /* \"Contest.sol\":41501:41654  function setApprovalForAll(address operator, bool approved) public virtual override {... */\n    tag_72:\n        /* \"Contest.sol\":41595:41647  _setApprovalForAll(_msgSender(), operator, approved) */\n      tag_162\n        /* \"Contest.sol\":41614:41626  _msgSender() */\n      tag_163\n        /* \"Contest.sol\":41614:41624  _msgSender */\n      tag_118\n        /* \"Contest.sol\":41614:41626  _msgSender() */\n      jump\t// in\n    tag_163:\n        /* \"Contest.sol\":41628:41636  operator */\n      dup4\n        /* \"Contest.sol\":41638:41646  approved */\n      dup4\n        /* \"Contest.sol\":41595:41613  _setApprovalForAll */\n      tag_164\n        /* \"Contest.sol\":41595:41647  _setApprovalForAll(_msgSender(), operator, approved) */\n      jump\t// in\n    tag_162:\n        /* \"Contest.sol\":41501:41654  function setApprovalForAll(address operator, bool approved) public virtual override {... */\n      pop\n      pop\n      jump\t// out\n        /* \"Contest.sol\":56465:56498  Counters.Counter public _tokenIds */\n    tag_74:\n      0x08\n      dup1\n      0x00\n      add\n      sload\n      swap1\n      pop\n      dup2\n      jump\t// out\n        /* \"Contest.sol\":42581:42895  function safeTransferFrom(... */\n    tag_79:\n        /* \"Contest.sol\":42749:42790  _isApprovedOrOwner(_msgSender(), tokenId) */\n      tag_166\n        /* \"Contest.sol\":42768:42780  _msgSender() */\n      tag_167\n        /* \"Contest.sol\":42768:42778  _msgSender */\n      tag_118\n        /* \"Contest.sol\":42768:42780  _msgSender() */\n      jump\t// in\n    tag_167:\n        /* \"Contest.sol\":42782:42789  tokenId */\n      dup4\n        /* \"Contest.sol\":42749:42767  _isApprovedOrOwner */\n      tag_130\n        /* \"Contest.sol\":42749:42790  _isApprovedOrOwner(_msgSender(), tokenId) */\n      jump\t// in\n    tag_166:\n        /* \"Contest.sol\":42741:42840  require(_isApprovedOrOwner(_msgSender(), tokenId), \"ERC721: caller is not token owner or approved\") */\n      tag_168\n      jumpi\n      mload(0x40)\n      0x08c379a000000000000000000000000000000000000000000000000000000000\n      dup2\n      mstore\n      0x04\n      add\n      tag_169\n      swap1\n      tag_133\n      jump\t// in\n    tag_169:\n      mload(0x40)\n      dup1\n      swap2\n      sub\n      swap1\n      revert\n    tag_168:\n        /* \"Contest.sol\":42850:42888  _safeTransfer(from, to, tokenId, data) */\n      tag_170\n        /* \"Contest.sol\":42864:42868  from */\n      dup5\n        /* \"Contest.sol\":42870:42872  to */\n      dup5\n        /* \"Contest.sol\":42874:42881  tokenId */\n      dup5\n        /* \"Contest.sol\":42883:42887  data */\n      dup5\n        /* \"Contest.sol\":42850:42863  _safeTransfer */\n      tag_171\n        /* \"Contest.sol\":42850:42888  _safeTransfer(from, to, tokenId, data) */\n      jump\t// in\n    tag_170:\n        /* \"Contest.sol\":42581:42895  function safeTransferFrom(... */\n      pop\n      pop\n      pop\n      pop\n      jump\t// out\n        /* \"Contest.sol\":54795:55403  function tokenURI(uint256 tokenId) public view virtual override returns (string memory) {... */\n    tag_82:\n        /* \"Contest.sol\":54868:54881  string memory */\n      0x60\n        /* \"Contest.sol\":54893:54916  _requireMinted(tokenId) */\n      tag_173\n        /* \"Contest.sol\":54908:54915  tokenId */\n      dup3\n        /* \"Contest.sol\":54893:54907  _requireMinted */\n      tag_111\n        /* \"Contest.sol\":54893:54916  _requireMinted(tokenId) */\n      jump\t// in\n    tag_173:\n        /* \"Contest.sol\":54927:54950  string memory _tokenURI */\n      0x00\n        /* \"Contest.sol\":54953:54963  _tokenURIs */\n      0x06\n        /* \"Contest.sol\":54953:54972  _tokenURIs[tokenId] */\n      0x00\n        /* \"Contest.sol\":54964:54971  tokenId */\n      dup5\n        /* \"Contest.sol\":54953:54972  _tokenURIs[tokenId] */\n      dup2\n      mstore\n      0x20\n      add\n      swap1\n      dup2\n      mstore\n      0x20\n      add\n      0x00\n      keccak256\n        /* \"Contest.sol\":54927:54972  string memory _tokenURI = _tokenURIs[tokenId] */\n      dup1\n      sload\n      tag_174\n      swap1\n      tag_104\n      jump\t// in\n    tag_174:\n      dup1\n      0x1f\n      add\n      0x20\n      dup1\n      swap2\n      div\n      mul\n      0x20\n      add\n      mload(0x40)\n      swap1\n      dup2\n      add\n      0x40\n      mstore\n      dup1\n      swap3\n      swap2\n      swap1\n      dup2\n      dup2\n      mstore\n      0x20\n      add\n      dup3\n      dup1\n      sload\n      tag_175\n      swap1\n      tag_104\n      jump\t// in\n    tag_175:\n      dup1\n      iszero\n      tag_176\n      jumpi\n      dup1\n      0x1f\n      lt\n      tag_177\n      jumpi\n      0x0100\n      dup1\n      dup4\n      sload\n      div\n      mul\n      dup4\n      mstore\n      swap2\n      0x20\n      add\n      swap2\n      jump(tag_176)\n    tag_177:\n      dup3\n      add\n      swap2\n      swap1\n      0x00\n      mstore\n      keccak256(0x00, 0x20)\n      swap1\n    tag_178:\n      dup2\n      sload\n      dup2\n      mstore\n      swap1\n      0x01\n      add\n      swap1\n      0x20\n      add\n      dup1\n      dup4\n      gt\n      tag_178\n      jumpi\n      dup3\n      swap1\n      sub\n      0x1f\n      and\n      dup3\n      add\n      swap2\n    tag_176:\n      pop\n      pop\n      pop\n      pop\n      pop\n      swap1\n      pop\n        /* \"Contest.sol\":54982:55000  string memory base */\n      0x00\n        /* \"Contest.sol\":55003:55013  _baseURI() */\n      tag_179\n        /* \"Contest.sol\":55003:55011  _baseURI */\n      tag_180\n        /* \"Contest.sol\":55003:55013  _baseURI() */\n      jump\t// in\n    tag_179:\n        /* \"Contest.sol\":54982:55013  string memory base = _baseURI() */\n      swap1\n      pop\n        /* \"Contest.sol\":55108:55109  0 */\n      0x00\n        /* \"Contest.sol\":55092:55096  base */\n      dup2\n        /* \"Contest.sol\":55086:55104  bytes(base).length */\n      mload\n        /* \"Contest.sol\":55086:55109  bytes(base).length == 0 */\n      eq\n        /* \"Contest.sol\":55082:55152  if (bytes(base).length == 0) {... */\n      iszero\n      tag_181\n      jumpi\n        /* \"Contest.sol\":55132:55141  _tokenURI */\n      dup2\n        /* \"Contest.sol\":55125:55141  return _tokenURI */\n      swap3\n      pop\n      pop\n      pop\n      jump(tag_172)\n        /* \"Contest.sol\":55082:55152  if (bytes(base).length == 0) {... */\n    tag_181:\n        /* \"Contest.sol\":55280:55281  0 */\n      0x00\n        /* \"Contest.sol\":55260:55269  _tokenURI */\n      dup3\n        /* \"Contest.sol\":55254:55277  bytes(_tokenURI).length */\n      mload\n        /* \"Contest.sol\":55254:55281  bytes(_tokenURI).length > 0 */\n      gt\n        /* \"Contest.sol\":55250:55356  if (bytes(_tokenURI).length > 0) {... */\n      iszero\n      tag_182\n      jumpi\n        /* \"Contest.sol\":55328:55332  base */\n      dup1\n        /* \"Contest.sol\":55334:55343  _tokenURI */\n      dup3\n        /* \"Contest.sol\":55311:55344  abi.encodePacked(base, _tokenURI) */\n      add(0x20, mload(0x40))\n      tag_183\n      swap3\n      swap2\n      swap1\n      tag_184\n      jump\t// in\n    tag_183:\n      mload(0x40)\n      0x20\n      dup2\n      dup4\n      sub\n      sub\n      dup2\n      mstore\n      swap1\n      0x40\n      mstore\n        /* \"Contest.sol\":55297:55345  return string(abi.encodePacked(base, _tokenURI)) */\n      swap3\n      pop\n      pop\n      pop\n      jump(tag_172)\n        /* \"Contest.sol\":55250:55356  if (bytes(_tokenURI).length > 0) {... */\n    tag_182:\n        /* \"Contest.sol\":55373:55396  super.tokenURI(tokenId) */\n      tag_185\n        /* \"Contest.sol\":55388:55395  tokenId */\n      dup5\n        /* \"Contest.sol\":55373:55387  super.tokenURI */\n      tag_186\n        /* \"Contest.sol\":55373:55396  super.tokenURI(tokenId) */\n      jump\t// in\n    tag_185:\n        /* \"Contest.sol\":55366:55396  return super.tokenURI(tokenId) */\n      swap3\n      pop\n      pop\n      pop\n        /* \"Contest.sol\":54795:55403  function tokenURI(uint256 tokenId) public view virtual override returns (string memory) {... */\n    tag_172:\n      swap2\n      swap1\n      pop\n      jump\t// out\n        /* \"Contest.sol\":41720:41882  function isApprovedForAll(address owner, address operator) public view virtual override returns (bool) {... */\n    tag_87:\n        /* \"Contest.sol\":41817:41821  bool */\n      0x00\n        /* \"Contest.sol\":41840:41858  _operatorApprovals */\n      0x05\n        /* \"Contest.sol\":41840:41865  _operatorApprovals[owner] */\n      0x00\n        /* \"Contest.sol\":41859:41864  owner */\n      dup5\n        /* \"Contest.sol\":41840:41865  _operatorApprovals[owner] */\n      0xffffffffffffffffffffffffffffffffffffffff\n      and\n      0xffffffffffffffffffffffffffffffffffffffff\n      and\n      dup2\n      mstore\n      0x20\n      add\n      swap1\n      dup2\n      mstore\n      0x20\n      add\n      0x00\n      keccak256\n        /* \"Contest.sol\":41840:41875  _operatorApprovals[owner][operator] */\n      0x00\n        /* \"Contest.sol\":41866:41874  operator */\n      dup4\n        /* \"Contest.sol\":41840:41875  _operatorApprovals[owner][operator] */\n      0xffffffffffffffffffffffffffffffffffffffff\n      and\n      0xffffffffffffffffffffffffffffffffffffffff\n      and\n      dup2\n      mstore\n      0x20\n      add\n      swap1\n      dup2\n      mstore\n      0x20\n      add\n      0x00\n      keccak256\n      0x00\n      swap1\n      sload\n      swap1\n      0x0100\n      exp\n      swap1\n      div\n      0xff\n      and\n        /* \"Contest.sol\":41833:41875  return _operatorApprovals[owner][operator] */\n      swap1\n      pop\n        /* \"Contest.sol\":41720:41882  function isApprovedForAll(address owner, address operator) public view virtual override returns (bool) {... */\n      swap3\n      swap2\n      pop\n      pop\n      jump\t// out\n        /* \"Contest.sol\":56589:56869  function mintNFT(address recipient, string memory tokenURI) public returns (uint256) {... */\n    tag_92:\n        /* \"Contest.sol\":56665:56672  uint256 */\n      0x00\n        /* \"Contest.sol\":56684:56705  _tokenIds.increment() */\n      tag_189\n        /* \"Contest.sol\":56684:56693  _tokenIds */\n      0x08\n        /* \"Contest.sol\":56684:56703  _tokenIds.increment */\n      tag_190\n        /* \"Contest.sol\":56684:56705  _tokenIds.increment() */\n      jump\t// in\n    tag_189:\n        /* \"Contest.sol\":56716:56733  uint256 newItemId */\n      0x00\n        /* \"Contest.sol\":56736:56755  _tokenIds.current() */\n      tag_191\n        /* \"Contest.sol\":56736:56745  _tokenIds */\n      0x08\n        /* \"Contest.sol\":56736:56753  _tokenIds.current */\n      tag_192\n        /* \"Contest.sol\":56736:56755  _tokenIds.current() */\n      jump\t// in\n    tag_191:\n        /* \"Contest.sol\":56716:56755  uint256 newItemId = _tokenIds.current() */\n      swap1\n      pop\n        /* \"Contest.sol\":56765:56792  _mint(recipient, newItemId) */\n      tag_193\n        /* \"Contest.sol\":56771:56780  recipient */\n      dup5\n        /* \"Contest.sol\":56782:56791  newItemId */\n      dup3\n        /* \"Contest.sol\":56765:56770  _mint */\n      tag_194\n        /* \"Contest.sol\":56765:56792  _mint(recipient, newItemId) */\n      jump\t// in\n    tag_193:\n        /* \"Contest.sol\":56802:56835  _setTokenURI(newItemId, tokenURI) */\n      tag_195\n        /* \"Contest.sol\":56815:56824  newItemId */\n      dup2\n        /* \"Contest.sol\":56826:56834  tokenURI */\n      dup5\n        /* \"Contest.sol\":56802:56814  _setTokenURI */\n      tag_196\n        /* \"Contest.sol\":56802:56835  _setTokenURI(newItemId, tokenURI) */\n      jump\t// in\n    tag_195:\n        /* \"Contest.sol\":56853:56862  newItemId */\n      dup1\n        /* \"Contest.sol\":56846:56862  return newItemId */\n      swap2\n      pop\n      pop\n        /* \"Contest.sol\":56589:56869  function mintNFT(address recipient, string memory tokenURI) public returns (uint256) {... */\n      swap3\n      swap2\n      pop\n      pop\n      jump\t// out\n        /* \"Contest.sol\":19171:19369  function transferOwnership(address newOwner) public virtual onlyOwner {... */\n    tag_96:\n        /* \"Contest.sol\":18184:18197  _checkOwner() */\n      tag_198\n        /* \"Contest.sol\":18184:18195  _checkOwner */\n      tag_150\n        /* \"Contest.sol\":18184:18197  _checkOwner() */\n      jump\t// in\n    tag_198:\n        /* \"Contest.sol\":19279:19280  0 */\n      0x00\n        /* \"Contest.sol\":19259:19281  newOwner != address(0) */\n      0xffffffffffffffffffffffffffffffffffffffff\n      and\n        /* \"Contest.sol\":19259:19267  newOwner */\n      dup2\n        /* \"Contest.sol\":19259:19281  newOwner != address(0) */\n      0xffffffffffffffffffffffffffffffffffffffff\n      and\n      eq\n      iszero\n        /* \"Contest.sol\":19251:19324  require(newOwner != address(0), \"Ownable: new owner is the zero address\") */\n      tag_200\n      jumpi\n      mload(0x40)\n      0x08c379a000000000000000000000000000000000000000000000000000000000\n      dup2\n      mstore\n      0x04\n      add\n      tag_201\n      swap1\n      tag_202\n      jump\t// in\n    tag_201:\n      mload(0x40)\n      dup1\n      swap2\n      sub\n      swap1\n      revert\n    tag_200:\n        /* \"Contest.sol\":19334:19362  _transferOwnership(newOwner) */\n      tag_203\n        /* \"Contest.sol\":19353:19361  newOwner */\n      dup2\n        /* \"Contest.sol\":19334:19352  _transferOwnership */\n      tag_153\n        /* \"Contest.sol\":19334:19362  _transferOwnership(newOwner) */\n      jump\t// in\n    tag_203:\n        /* \"Contest.sol\":19171:19369  function transferOwnership(address newOwner) public virtual onlyOwner {... */\n      pop\n      jump\t// out\n        /* \"Contest.sol\":31647:31802  function supportsInterface(bytes4 interfaceId) public view virtual override returns (bool) {... */\n    tag_101:\n        /* \"Contest.sol\":31732:31736  bool */\n      0x00\n        /* \"Contest.sol\":31770:31795  type(IERC165).interfaceId */\n      0x01ffc9a700000000000000000000000000000000000000000000000000000000\n        /* \"Contest.sol\":31755:31795  interfaceId == type(IERC165).interfaceId */\n      not(0xffffffffffffffffffffffffffffffffffffffffffffffffffffffff)\n      and\n        /* \"Contest.sol\":31755:31766  interfaceId */\n      dup3\n        /* \"Contest.sol\":31755:31795  interfaceId == type(IERC165).interfaceId */\n      not(0xffffffffffffffffffffffffffffffffffffffffffffffffffffffff)\n      and\n      eq\n        /* \"Contest.sol\":31748:31795  return interfaceId == type(IERC165).interfaceId */\n      swap1\n      pop\n        /* \"Contest.sol\":31647:31802  function supportsInterface(bytes4 interfaceId) public view virtual override returns (bool) {... */\n      swap2\n      swap1\n      pop\n      jump\t// out\n        /* \"Contest.sol\":50798:50931  function _requireMinted(uint256 tokenId) internal view virtual {... */\n    tag_111:\n        /* \"Contest.sol\":50879:50895  _exists(tokenId) */\n      tag_206\n        /* \"Contest.sol\":50887:50894  tokenId */\n      dup2\n        /* \"Contest.sol\":50879:50886  _exists */\n      tag_207\n        /* \"Contest.sol\":50879:50895  _exists(tokenId) */\n      jump\t// in\n    tag_206:\n        /* \"Contest.sol\":50871:50924  require(_exists(tokenId), \"ERC721: invalid token ID\") */\n      tag_208\n      jumpi\n      mload(0x40)\n      0x08c379a000000000000000000000000000000000000000000000000000000000\n      dup2\n      mstore\n      0x04\n      add\n      tag_209\n      swap1\n      tag_143\n      jump\t// in\n    tag_209:\n      mload(0x40)\n      dup1\n      swap2\n      sub\n      swap1\n      revert\n    tag_208:\n        /* \"Contest.sol\":50798:50931  function _requireMinted(uint256 tokenId) internal view virtual {... */\n      pop\n      jump\t// out\n        /* \"Contest.sol\":16894:16990  function _msgSender() internal view virtual returns (address) {... */\n    tag_118:\n        /* \"Contest.sol\":16947:16954  address */\n      0x00\n        /* \"Contest.sol\":16973:16983  msg.sender */\n      caller\n        /* \"Contest.sol\":16966:16983  return msg.sender */\n      swap1\n      pop\n        /* \"Contest.sol\":16894:16990  function _msgSender() internal view virtual returns (address) {... */\n      swap1\n      jump\t// out\n        /* \"Contest.sol\":50100:50271  function _approve(address to, uint256 tokenId) internal virtual {... */\n    tag_126:\n        /* \"Contest.sol\":50201:50203  to */\n      dup2\n        /* \"Contest.sol\":50174:50189  _tokenApprovals */\n      0x04\n        /* \"Contest.sol\":50174:50198  _tokenApprovals[tokenId] */\n      0x00\n        /* \"Contest.sol\":50190:50197  tokenId */\n      dup4\n        /* \"Contest.sol\":50174:50198  _tokenApprovals[tokenId] */\n      dup2\n      mstore\n      0x20\n      add\n      swap1\n      dup2\n      mstore\n      0x20\n      add\n      0x00\n      keccak256\n      0x00\n        /* \"Contest.sol\":50174:50203  _tokenApprovals[tokenId] = to */\n      0x0100\n      exp\n      dup2\n      sload\n      dup2\n      0xffffffffffffffffffffffffffffffffffffffff\n      mul\n      not\n      and\n      swap1\n      dup4\n      0xffffffffffffffffffffffffffffffffffffffff\n      and\n      mul\n      or\n      swap1\n      sstore\n      pop\n        /* \"Contest.sol\":50256:50263  tokenId */\n      dup1\n        /* \"Contest.sol\":50252:50254  to */\n      dup3\n        /* \"Contest.sol\":50218:50264  Approval(ERC721.ownerOf(tokenId), to, tokenId) */\n      0xffffffffffffffffffffffffffffffffffffffff\n      and\n        /* \"Contest.sol\":50227:50250  ERC721.ownerOf(tokenId) */\n      tag_212\n        /* \"Contest.sol\":50242:50249  tokenId */\n      dup4\n        /* \"Contest.sol\":50227:50241  ERC721.ownerOf */\n      tag_53\n        /* \"Contest.sol\":50227:50250  ERC721.ownerOf(tokenId) */\n      jump\t// in\n    tag_212:\n        /* \"Contest.sol\":50218:50264  Approval(ERC721.ownerOf(tokenId), to, tokenId) */\n      0xffffffffffffffffffffffffffffffffffffffff\n      and\n      0x8c5be1e5ebec7d5bd14f71427d1e84f3dd0314c0f7b2291e5b200ac8c7c3b925\n      mload(0x40)\n      mload(0x40)\n      dup1\n      swap2\n      sub\n      swap1\n      log4\n        /* \"Contest.sol\":50100:50271  function _approve(address to, uint256 tokenId) internal virtual {... */\n      pop\n      pop\n      jump\t// out\n        /* \"Contest.sol\":44872:45133  function _isApprovedOrOwner(address spender, uint256 tokenId) internal view virtual returns (bool) {... */\n    tag_130:\n        /* \"Contest.sol\":44965:44969  bool */\n      0x00\n        /* \"Contest.sol\":44981:44994  address owner */\n      dup1\n        /* \"Contest.sol\":44997:45020  ERC721.ownerOf(tokenId) */\n      tag_214\n        /* \"Contest.sol\":45012:45019  tokenId */\n      dup4\n        /* \"Contest.sol\":44997:45011  ERC721.ownerOf */\n      tag_53\n        /* \"Contest.sol\":44997:45020  ERC721.ownerOf(tokenId) */\n      jump\t// in\n    tag_214:\n        /* \"Contest.sol\":44981:45020  address owner = ERC721.ownerOf(tokenId) */\n      swap1\n      pop\n        /* \"Contest.sol\":45049:45054  owner */\n      dup1\n        /* \"Contest.sol\":45038:45054  spender == owner */\n      0xffffffffffffffffffffffffffffffffffffffff\n      and\n        /* \"Contest.sol\":45038:45045  spender */\n      dup5\n        /* \"Contest.sol\":45038:45054  spender == owner */\n      0xffffffffffffffffffffffffffffffffffffffff\n      and\n      eq\n        /* \"Contest.sol\":45038:45090  spender == owner || isApprovedForAll(owner, spender) */\n      dup1\n      tag_215\n      jumpi\n      pop\n        /* \"Contest.sol\":45058:45090  isApprovedForAll(owner, spender) */\n      tag_216\n        /* \"Contest.sol\":45075:45080  owner */\n      dup2\n        /* \"Contest.sol\":45082:45089  spender */\n      dup6\n        /* \"Contest.sol\":45058:45074  isApprovedForAll */\n      tag_87\n        /* \"Contest.sol\":45058:45090  isApprovedForAll(owner, spender) */\n      jump\t// in\n    tag_216:\n        /* \"Contest.sol\":45038:45090  spender == owner || isApprovedForAll(owner, spender) */\n    tag_215:\n        /* \"Contest.sol\":45038:45125  spender == owner || isApprovedForAll(owner, spender) || getApproved(tokenId) == spender */\n      dup1\n      tag_217\n      jumpi\n      pop\n        /* \"Contest.sol\":45118:45125  spender */\n      dup4\n        /* \"Contest.sol\":45094:45125  getApproved(tokenId) == spender */\n      0xffffffffffffffffffffffffffffffffffffffff\n      and\n        /* \"Contest.sol\":45094:45114  getApproved(tokenId) */\n      tag_218\n        /* \"Contest.sol\":45106:45113  tokenId */\n      dup5\n        /* \"Contest.sol\":45094:45105  getApproved */\n      tag_37\n        /* \"Contest.sol\":45094:45114  getApproved(tokenId) */\n      jump\t// in\n    tag_218:\n        /* \"Contest.sol\":45094:45125  getApproved(tokenId) == spender */\n      0xffffffffffffffffffffffffffffffffffffffff\n      and\n      eq\n        /* \"Contest.sol\":45038:45125  spender == owner || isApprovedForAll(owner, spender) || getApproved(tokenId) == spender */\n    tag_217:\n        /* \"Contest.sol\":45030:45126  return (spender == owner || isApprovedForAll(owner, spender) || getApproved(tokenId) == spender) */\n      swap2\n      pop\n      pop\n        /* \"Contest.sol\":44872:45133  function _isApprovedOrOwner(address spender, uint256 tokenId) internal view virtual returns (bool) {... */\n      swap3\n      swap2\n      pop\n      pop\n      jump\t// out\n        /* \"Contest.sol\":48755:49988  function _transfer(... */\n    tag_135:\n        /* \"Contest.sol\":48909:48913  from */\n      dup3\n        /* \"Contest.sol\":48882:48913  ERC721.ownerOf(tokenId) == from */\n      0xffffffffffffffffffffffffffffffffffffffff\n      and\n        /* \"Contest.sol\":48882:48905  ERC721.ownerOf(tokenId) */\n      tag_220\n        /* \"Contest.sol\":48897:48904  tokenId */\n      dup3\n        /* \"Contest.sol\":48882:48896  ERC721.ownerOf */\n      tag_53\n        /* \"Contest.sol\":48882:48905  ERC721.ownerOf(tokenId) */\n      jump\t// in\n    tag_220:\n        /* \"Contest.sol\":48882:48913  ERC721.ownerOf(tokenId) == from */\n      0xffffffffffffffffffffffffffffffffffffffff\n      and\n      eq\n        /* \"Contest.sol\":48874:48955  require(ERC721.ownerOf(tokenId) == from, \"ERC721: transfer from incorrect owner\") */\n      tag_221\n      jumpi\n      mload(0x40)\n      0x08c379a000000000000000000000000000000000000000000000000000000000\n      dup2\n      mstore\n      0x04\n      add\n      tag_222\n      swap1\n      tag_223\n      jump\t// in\n    tag_222:\n      mload(0x40)\n      dup1\n      swap2\n      sub\n      swap1\n      revert\n    tag_221:\n        /* \"Contest.sol\":48987:48988  0 */\n      0x00\n        /* \"Contest.sol\":48973:48989  to != address(0) */\n      0xffffffffffffffffffffffffffffffffffffffff\n      and\n        /* \"Contest.sol\":48973:48975  to */\n      dup3\n        /* \"Contest.sol\":48973:48989  to != address(0) */\n      0xffffffffffffffffffffffffffffffffffffffff\n      and\n      eq\n      iszero\n        /* \"Contest.sol\":48965:49030  require(to != address(0), \"ERC721: transfer to the zero address\") */\n      tag_224\n      jumpi\n      mload(0x40)\n      0x08c379a000000000000000000000000000000000000000000000000000000000\n      dup2\n      mstore\n      0x04\n      add\n      tag_225\n      swap1\n      tag_226\n      jump\t// in\n    tag_225:\n      mload(0x40)\n      dup1\n      swap2\n      sub\n      swap1\n      revert\n    tag_224:\n        /* \"Contest.sol\":49041:49083  _beforeTokenTransfer(from, to, tokenId, 1) */\n      tag_227\n        /* \"Contest.sol\":49062:49066  from */\n      dup4\n        /* \"Contest.sol\":49068:49070  to */\n      dup4\n        /* \"Contest.sol\":49072:49079  tokenId */\n      dup4\n        /* \"Contest.sol\":49081:49082  1 */\n      0x01\n        /* \"Contest.sol\":49041:49061  _beforeTokenTransfer */\n      tag_228\n        /* \"Contest.sol\":49041:49083  _beforeTokenTransfer(from, to, tokenId, 1) */\n      jump\t// in\n    tag_227:\n        /* \"Contest.sol\":49210:49214  from */\n      dup3\n        /* \"Contest.sol\":49183:49214  ERC721.ownerOf(tokenId) == from */\n      0xffffffffffffffffffffffffffffffffffffffff\n      and\n        /* \"Contest.sol\":49183:49206  ERC721.ownerOf(tokenId) */\n      tag_229\n        /* \"Contest.sol\":49198:49205  tokenId */\n      dup3\n        /* \"Contest.sol\":49183:49197  ERC721.ownerOf */\n      tag_53\n        /* \"Contest.sol\":49183:49206  ERC721.ownerOf(tokenId) */\n      jump\t// in\n    tag_229:\n        /* \"Contest.sol\":49183:49214  ERC721.ownerOf(tokenId) == from */\n      0xffffffffffffffffffffffffffffffffffffffff\n      and\n      eq\n        /* \"Contest.sol\":49175:49256  require(ERC721.ownerOf(tokenId) == from, \"ERC721: transfer from incorrect owner\") */\n      tag_230\n      jumpi\n      mload(0x40)\n      0x08c379a000000000000000000000000000000000000000000000000000000000\n      dup2\n      mstore\n      0x04\n      add\n      tag_231\n      swap1\n      tag_223\n      jump\t// in\n    tag_231:\n      mload(0x40)\n      dup1\n      swap2\n      sub\n      swap1\n      revert\n    tag_230:\n        /* \"Contest.sol\":49325:49340  _tokenApprovals */\n      0x04\n        /* \"Contest.sol\":49325:49349  _tokenApprovals[tokenId] */\n      0x00\n        /* \"Contest.sol\":49341:49348  tokenId */\n      dup3\n        /* \"Contest.sol\":49325:49349  _tokenApprovals[tokenId] */\n      dup2\n      mstore\n      0x20\n      add\n      swap1\n      dup2\n      mstore\n      0x20\n      add\n      0x00\n      keccak256\n      0x00\n        /* \"Contest.sol\":49318:49349  delete _tokenApprovals[tokenId] */\n      0x0100\n      exp\n      dup2\n      sload\n      swap1\n      0xffffffffffffffffffffffffffffffffffffffff\n      mul\n      not\n      and\n      swap1\n      sstore\n        /* \"Contest.sol\":49812:49813  1 */\n      0x01\n        /* \"Contest.sol\":49793:49802  _balances */\n      0x03\n        /* \"Contest.sol\":49793:49808  _balances[from] */\n      0x00\n        /* \"Contest.sol\":49803:49807  from */\n      dup6\n        /* \"Contest.sol\":49793:49808  _balances[from] */\n      0xffffffffffffffffffffffffffffffffffffffff\n      and\n      0xffffffffffffffffffffffffffffffffffffffff\n      and\n      dup2\n      mstore\n      0x20\n      add\n      swap1\n      dup2\n      mstore\n      0x20\n      add\n      0x00\n      keccak256\n      0x00\n        /* \"Contest.sol\":49793:49813  _balances[from] -= 1 */\n      dup3\n      dup3\n      sload\n      sub\n      swap3\n      pop\n      pop\n      dup2\n      swap1\n      sstore\n      pop\n        /* \"Contest.sol\":49844:49845  1 */\n      0x01\n        /* \"Contest.sol\":49827:49836  _balances */\n      0x03\n        /* \"Contest.sol\":49827:49840  _balances[to] */\n      0x00\n        /* \"Contest.sol\":49837:49839  to */\n      dup5\n        /* \"Contest.sol\":49827:49840  _balances[to] */\n      0xffffffffffffffffffffffffffffffffffffffff\n      and\n      0xffffffffffffffffffffffffffffffffffffffff\n      and\n      dup2\n      mstore\n      0x20\n      add\n      swap1\n      dup2\n      mstore\n      0x20\n      add\n      0x00\n      keccak256\n      0x00\n        /* \"Contest.sol\":49827:49845  _balances[to] += 1 */\n      dup3\n      dup3\n      sload\n      add\n      swap3\n      pop\n      pop\n      dup2\n      swap1\n      sstore\n      pop\n        /* \"Contest.sol\":49884:49886  to */\n      dup2\n        /* \"Contest.sol\":49865:49872  _owners */\n      0x02\n        /* \"Contest.sol\":49865:49881  _owners[tokenId] */\n      0x00\n        /* \"Contest.sol\":49873:49880  tokenId */\n      dup4\n        /* \"Contest.sol\":49865:49881  _owners[tokenId] */\n      dup2\n      mstore\n      0x20\n      add\n      swap1\n      dup2\n      mstore\n      0x20\n      add\n      0x00\n      keccak256\n      0x00\n        /* \"Contest.sol\":49865:49886  _owners[tokenId] = to */\n      0x0100\n      exp\n      dup2\n      sload\n      dup2\n      0xffffffffffffffffffffffffffffffffffffffff\n      mul\n      not\n      and\n      swap1\n      dup4\n      0xffffffffffffffffffffffffffffffffffffffff\n      and\n      mul\n      or\n      swap1\n      sstore\n      pop\n        /* \"Contest.sol\":49921:49928  tokenId */\n      dup1\n        /* \"Contest.sol\":49917:49919  to */\n      dup3\n        /* \"Contest.sol\":49902:49929  Transfer(from, to, tokenId) */\n      0xffffffffffffffffffffffffffffffffffffffff\n      and\n        /* \"Contest.sol\":49911:49915  from */\n      dup5\n        /* \"Contest.sol\":49902:49929  Transfer(from, to, tokenId) */\n      0xffffffffffffffffffffffffffffffffffffffff\n      and\n      0xddf252ad1be2c89b69c2b068fc378daa952ba7f163c4a11628f55a4df523b3ef\n      mload(0x40)\n      mload(0x40)\n      dup1\n      swap2\n      sub\n      swap1\n      log4\n        /* \"Contest.sol\":49940:49981  _afterTokenTransfer(from, to, tokenId, 1) */\n      tag_232\n        /* \"Contest.sol\":49960:49964  from */\n      dup4\n        /* \"Contest.sol\":49966:49968  to */\n      dup4\n        /* \"Contest.sol\":49970:49977  tokenId */\n      dup4\n        /* \"Contest.sol\":49979:49980  1 */\n      0x01\n        /* \"Contest.sol\":49940:49959  _afterTokenTransfer */\n      tag_233\n        /* \"Contest.sol\":49940:49981  _afterTokenTransfer(from, to, tokenId, 1) */\n      jump\t// in\n    tag_232:\n        /* \"Contest.sol\":48755:49988  function _transfer(... */\n      pop\n      pop\n      pop\n      jump\t// out\n        /* \"Contest.sol\":44170:44285  function _ownerOf(uint256 tokenId) internal view virtual returns (address) {... */\n    tag_140:\n        /* \"Contest.sol\":44236:44243  address */\n      0x00\n        /* \"Contest.sol\":44262:44269  _owners */\n      0x02\n        /* \"Contest.sol\":44262:44278  _owners[tokenId] */\n      0x00\n        /* \"Contest.sol\":44270:44277  tokenId */\n      dup4\n        /* \"Contest.sol\":44262:44278  _owners[tokenId] */\n      dup2\n      mstore\n      0x20\n      add\n      swap1\n      dup2\n      mstore\n      0x20\n      add\n      0x00\n      keccak256\n      0x00\n      swap1\n      sload\n      swap1\n      0x0100\n      exp\n      swap1\n      div\n      0xffffffffffffffffffffffffffffffffffffffff\n      and\n        /* \"Contest.sol\":44255:44278  return _owners[tokenId] */\n      swap1\n      pop\n        /* \"Contest.sol\":44170:44285  function _ownerOf(uint256 tokenId) internal view virtual returns (address) {... */\n      swap2\n      swap1\n      pop\n      jump\t// out\n        /* \"Contest.sol\":18449:18579  function _checkOwner() internal view virtual {... */\n    tag_150:\n        /* \"Contest.sol\":18523:18535  _msgSender() */\n      tag_236\n        /* \"Contest.sol\":18523:18533  _msgSender */\n      tag_118\n        /* \"Contest.sol\":18523:18535  _msgSender() */\n      jump\t// in\n    tag_236:\n        /* \"Contest.sol\":18512:18535  owner() == _msgSender() */\n      0xffffffffffffffffffffffffffffffffffffffff\n      and\n        /* \"Contest.sol\":18512:18519  owner() */\n      tag_237\n        /* \"Contest.sol\":18512:18517  owner */\n      tag_64\n        /* \"Contest.sol\":18512:18519  owner() */\n      jump\t// in\n    tag_237:\n        /* \"Contest.sol\":18512:18535  owner() == _msgSender() */\n      0xffffffffffffffffffffffffffffffffffffffff\n      and\n      eq\n        /* \"Contest.sol\":18504:18572  require(owner() == _msgSender(), \"Ownable: caller is not the owner\") */\n      tag_238\n      jumpi\n      mload(0x40)\n      0x08c379a000000000000000000000000000000000000000000000000000000000\n      dup2\n      mstore\n      0x04\n      add\n      tag_239\n      swap1\n      tag_240\n      jump\t// in\n    tag_239:\n      mload(0x40)\n      dup1\n      swap2\n      sub\n      swap1\n      revert\n    tag_238:\n        /* \"Contest.sol\":18449:18579  function _checkOwner() internal view virtual {... */\n      jump\t// out\n        /* \"Contest.sol\":19523:19710  function _transferOwnership(address newOwner) internal virtual {... */\n    tag_153:\n        /* \"Contest.sol\":19596:19612  address oldOwner */\n      0x00\n        /* \"Contest.sol\":19615:19621  _owner */\n      0x07\n      0x00\n      swap1\n      sload\n      swap1\n      0x0100\n      exp\n      swap1\n      div\n      0xffffffffffffffffffffffffffffffffffffffff\n      and\n        /* \"Contest.sol\":19596:19621  address oldOwner = _owner */\n      swap1\n      pop\n        /* \"Contest.sol\":19640:19648  newOwner */\n      dup2\n        /* \"Contest.sol\":19631:19637  _owner */\n      0x07\n      0x00\n        /* \"Contest.sol\":19631:19648  _owner = newOwner */\n      0x0100\n      exp\n      dup2\n      sload\n      dup2\n      0xffffffffffffffffffffffffffffffffffffffff\n      mul\n      not\n      and\n      swap1\n      dup4\n      0xffffffffffffffffffffffffffffffffffffffff\n      and\n      mul\n      or\n      swap1\n      sstore\n      pop\n        /* \"Contest.sol\":19694:19702  newOwner */\n      dup2\n        /* \"Contest.sol\":19663:19703  OwnershipTransferred(oldOwner, newOwner) */\n      0xffffffffffffffffffffffffffffffffffffffff\n      and\n        /* \"Contest.sol\":19684:19692  oldOwner */\n      dup2\n        /* \"Contest.sol\":19663:19703  OwnershipTransferred(oldOwner, newOwner) */\n      0xffffffffffffffffffffffffffffffffffffffff\n      and\n      0x8be0079c531659141344cd1fd0a4f28419497f9722a3daafe3b4186f6b6457e0\n      mload(0x40)\n      mload(0x40)\n      dup1\n      swap2\n      sub\n      swap1\n      log3\n        /* \"Contest.sol\":19586:19710  {... */\n      pop\n        /* \"Contest.sol\":19523:19710  function _transferOwnership(address newOwner) internal virtual {... */\n      pop\n      jump\t// out\n        /* \"Contest.sol\":50407:50714  function _setApprovalForAll(... */\n    tag_164:\n        /* \"Contest.sol\":50557:50565  operator */\n      dup2\n        /* \"Contest.sol\":50548:50565  owner != operator */\n      0xffffffffffffffffffffffffffffffffffffffff\n      and\n        /* \"Contest.sol\":50548:50553  owner */\n      dup4\n        /* \"Contest.sol\":50548:50565  owner != operator */\n      0xffffffffffffffffffffffffffffffffffffffff\n      and\n      eq\n      iszero\n        /* \"Contest.sol\":50540:50595  require(owner != operator, \"ERC721: approve to caller\") */\n      tag_243\n      jumpi\n      mload(0x40)\n      0x08c379a000000000000000000000000000000000000000000000000000000000\n      dup2\n      mstore\n      0x04\n      add\n      tag_244\n      swap1\n      tag_245\n      jump\t// in\n    tag_244:\n      mload(0x40)\n      dup1\n      swap2\n      sub\n      swap1\n      revert\n    tag_243:\n        /* \"Contest.sol\":50643:50651  approved */\n      dup1\n        /* \"Contest.sol\":50605:50623  _operatorApprovals */\n      0x05\n        /* \"Contest.sol\":50605:50630  _operatorApprovals[owner] */\n      0x00\n        /* \"Contest.sol\":50624:50629  owner */\n      dup6\n        /* \"Contest.sol\":50605:50630  _operatorApprovals[owner] */\n      0xffffffffffffffffffffffffffffffffffffffff\n      and\n      0xffffffffffffffffffffffffffffffffffffffff\n      and\n      dup2\n      mstore\n      0x20\n      add\n      swap1\n      dup2\n      mstore\n      0x20\n      add\n      0x00\n      keccak256\n        /* \"Contest.sol\":50605:50640  _operatorApprovals[owner][operator] */\n      0x00\n        /* \"Contest.sol\":50631:50639  operator */\n      dup5\n        /* \"Contest.sol\":50605:50640  _operatorApprovals[owner][operator] */\n      0xffffffffffffffffffffffffffffffffffffffff\n      and\n      0xffffffffffffffffffffffffffffffffffffffff\n      and\n      dup2\n      mstore\n      0x20\n      add\n      swap1\n      dup2\n      mstore\n      0x20\n      add\n      0x00\n      keccak256\n      0x00\n        /* \"Contest.sol\":50605:50651  _operatorApprovals[owner][operator] = approved */\n      0x0100\n      exp\n      dup2\n      sload\n      dup2\n      0xff\n      mul\n      not\n      and\n      swap1\n      dup4\n      iszero\n      iszero\n      mul\n      or\n      swap1\n      sstore\n      pop\n        /* \"Contest.sol\":50688:50696  operator */\n      dup2\n        /* \"Contest.sol\":50666:50707  ApprovalForAll(owner, operator, approved) */\n      0xffffffffffffffffffffffffffffffffffffffff\n      and\n        /* \"Contest.sol\":50681:50686  owner */\n      dup4\n        /* \"Contest.sol\":50666:50707  ApprovalForAll(owner, operator, approved) */\n      0xffffffffffffffffffffffffffffffffffffffff\n      and\n      0x17307eab39ab6107e8899845ad3d59bd9653f200f220920489ca2b5937696c31\n        /* \"Contest.sol\":50698:50706  approved */\n      dup4\n        /* \"Contest.sol\":50666:50707  ApprovalForAll(owner, operator, approved) */\n      mload(0x40)\n      tag_246\n      swap2\n      swap1\n      tag_29\n      jump\t// in\n    tag_246:\n      mload(0x40)\n      dup1\n      swap2\n      sub\n      swap1\n      log3\n        /* \"Contest.sol\":50407:50714  function _setApprovalForAll(... */\n      pop\n      pop\n      pop\n      jump\t// out\n        /* \"Contest.sol\":43756:44061  function _safeTransfer(... */\n    tag_171:\n        /* \"Contest.sol\":43906:43934  _transfer(from, to, tokenId) */\n      tag_248\n        /* \"Contest.sol\":43916:43920  from */\n      dup5\n        /* \"Contest.sol\":43922:43924  to */\n      dup5\n        /* \"Contest.sol\":43926:43933  tokenId */\n      dup5\n        /* \"Contest.sol\":43906:43915  _transfer */\n      tag_135\n        /* \"Contest.sol\":43906:43934  _transfer(from, to, tokenId) */\n      jump\t// in\n    tag_248:\n        /* \"Contest.sol\":43952:43999  _checkOnERC721Received(from, to, tokenId, data) */\n      tag_249\n        /* \"Contest.sol\":43975:43979  from */\n      dup5\n        /* \"Contest.sol\":43981:43983  to */\n      dup5\n        /* \"Contest.sol\":43985:43992  tokenId */\n      dup5\n        /* \"Contest.sol\":43994:43998  data */\n      dup5\n        /* \"Contest.sol\":43952:43974  _checkOnERC721Received */\n      tag_250\n        /* \"Contest.sol\":43952:43999  _checkOnERC721Received(from, to, tokenId, data) */\n      jump\t// in\n    tag_249:\n        /* \"Contest.sol\":43944:44054  require(_checkOnERC721Received(from, to, tokenId, data), \"ERC721: transfer to non ERC721Receiver implementer\") */\n      tag_251\n      jumpi\n      mload(0x40)\n      0x08c379a000000000000000000000000000000000000000000000000000000000\n      dup2\n      mstore\n      0x04\n      add\n      tag_252\n      swap1\n      tag_253\n      jump\t// in\n    tag_252:\n      mload(0x40)\n      dup1\n      swap2\n      sub\n      swap1\n      revert\n    tag_251:\n        /* \"Contest.sol\":43756:44061  function _safeTransfer(... */\n      pop\n      pop\n      pop\n      pop\n      jump\t// out\n        /* \"Contest.sol\":40651:40743  function _baseURI() internal view virtual returns (string memory) {... */\n    tag_180:\n        /* \"Contest.sol\":40702:40715  string memory */\n      0x60\n        /* \"Contest.sol\":40727:40736  return \"\" */\n      mload(0x40)\n      dup1\n      0x20\n      add\n      0x40\n      mstore\n      dup1\n      0x00\n      dup2\n      mstore\n      pop\n      swap1\n      pop\n        /* \"Contest.sol\":40651:40743  function _baseURI() internal view virtual returns (string memory) {... */\n      swap1\n      jump\t// out\n        /* \"Contest.sol\":40133:40409  function tokenURI(uint256 tokenId) public view virtual override returns (string memory) {... */\n    tag_186:\n        /* \"Contest.sol\":40206:40219  string memory */\n      0x60\n        /* \"Contest.sol\":40231:40254  _requireMinted(tokenId) */\n      tag_256\n        /* \"Contest.sol\":40246:40253  tokenId */\n      dup3\n        /* \"Contest.sol\":40231:40245  _requireMinted */\n      tag_111\n        /* \"Contest.sol\":40231:40254  _requireMinted(tokenId) */\n      jump\t// in\n    tag_256:\n        /* \"Contest.sol\":40265:40286  string memory baseURI */\n      0x00\n        /* \"Contest.sol\":40289:40299  _baseURI() */\n      tag_257\n        /* \"Contest.sol\":40289:40297  _baseURI */\n      tag_180\n        /* \"Contest.sol\":40289:40299  _baseURI() */\n      jump\t// in\n    tag_257:\n        /* \"Contest.sol\":40265:40299  string memory baseURI = _baseURI() */\n      swap1\n      pop\n        /* \"Contest.sol\":40340:40341  0 */\n      0x00\n        /* \"Contest.sol\":40322:40329  baseURI */\n      dup2\n        /* \"Contest.sol\":40316:40337  bytes(baseURI).length */\n      mload\n        /* \"Contest.sol\":40316:40341  bytes(baseURI).length > 0 */\n      gt\n        /* \"Contest.sol\":40316:40402  bytes(baseURI).length > 0 ? string(abi.encodePacked(baseURI, tokenId.toString())) : \"\" */\n      tag_258\n      jumpi\n      mload(0x40)\n      dup1\n      0x20\n      add\n      0x40\n      mstore\n      dup1\n      0x00\n      dup2\n      mstore\n      pop\n      jump(tag_259)\n    tag_258:\n        /* \"Contest.sol\":40368:40375  baseURI */\n      dup1\n        /* \"Contest.sol\":40377:40395  tokenId.toString() */\n      tag_260\n        /* \"Contest.sol\":40377:40384  tokenId */\n      dup5\n        /* \"Contest.sol\":40377:40393  tokenId.toString */\n      tag_261\n        /* \"Contest.sol\":40377:40395  tokenId.toString() */\n      jump\t// in\n    tag_260:\n        /* \"Contest.sol\":40351:40396  abi.encodePacked(baseURI, tokenId.toString()) */\n      add(0x20, mload(0x40))\n      tag_262\n      swap3\n      swap2\n      swap1\n      tag_184\n      jump\t// in\n    tag_262:\n      mload(0x40)\n      0x20\n      dup2\n      dup4\n      sub\n      sub\n      dup2\n      mstore\n      swap1\n      0x40\n      mstore\n        /* \"Contest.sol\":40316:40402  bytes(baseURI).length > 0 ? string(abi.encodePacked(baseURI, tokenId.toString())) : \"\" */\n    tag_259:\n        /* \"Contest.sol\":40309:40402  return bytes(baseURI).length > 0 ? string(abi.encodePacked(baseURI, tokenId.toString())) : \"\" */\n      swap2\n      pop\n      pop\n        /* \"Contest.sol\":40133:40409  function tokenURI(uint256 tokenId) public view virtual override returns (string memory) {... */\n      swap2\n      swap1\n      pop\n      jump\t// out\n        /* \"Contest.sol\":1002:1125  function increment(Counter storage counter) internal {... */\n    tag_190:\n        /* \"Contest.sol\":1107:1108  1 */\n      0x01\n        /* \"Contest.sol\":1089:1096  counter */\n      dup2\n        /* \"Contest.sol\":1089:1103  counter._value */\n      0x00\n      add\n      0x00\n        /* \"Contest.sol\":1089:1108  counter._value += 1 */\n      dup3\n      dup3\n      sload\n      add\n      swap3\n      pop\n      pop\n      dup2\n      swap1\n      sstore\n      pop\n        /* \"Contest.sol\":1002:1125  function increment(Counter storage counter) internal {... */\n      pop\n      jump\t// out\n        /* \"Contest.sol\":884:996  function current(Counter storage counter) internal view returns (uint256) {... */\n    tag_192:\n        /* \"Contest.sol\":949:956  uint256 */\n      0x00\n        /* \"Contest.sol\":975:982  counter */\n      dup2\n        /* \"Contest.sol\":975:989  counter._value */\n      0x00\n      add\n      sload\n        /* \"Contest.sol\":968:989  return counter._value */\n      swap1\n      pop\n        /* \"Contest.sol\":884:996  function current(Counter storage counter) internal view returns (uint256) {... */\n      swap2\n      swap1\n      pop\n      jump\t// out\n        /* \"Contest.sol\":46423:47343  function _mint(address to, uint256 tokenId) internal virtual {... */\n    tag_194:\n        /* \"Contest.sol\":46516:46517  0 */\n      0x00\n        /* \"Contest.sol\":46502:46518  to != address(0) */\n      0xffffffffffffffffffffffffffffffffffffffff\n      and\n        /* \"Contest.sol\":46502:46504  to */\n      dup3\n        /* \"Contest.sol\":46502:46518  to != address(0) */\n      0xffffffffffffffffffffffffffffffffffffffff\n      and\n      eq\n      iszero\n        /* \"Contest.sol\":46494:46555  require(to != address(0), \"ERC721: mint to the zero address\") */\n      tag_266\n      jumpi\n      mload(0x40)\n      0x08c379a000000000000000000000000000000000000000000000000000000000\n      dup2\n      mstore\n      0x04\n      add\n      tag_267\n      swap1\n      tag_268\n      jump\t// in\n    tag_267:\n      mload(0x40)\n      dup1\n      swap2\n      sub\n      swap1\n      revert\n    tag_266:\n        /* \"Contest.sol\":46574:46590  _exists(tokenId) */\n      tag_269\n        /* \"Contest.sol\":46582:46589  tokenId */\n      dup2\n        /* \"Contest.sol\":46574:46581  _exists */\n      tag_207\n        /* \"Contest.sol\":46574:46590  _exists(tokenId) */\n      jump\t// in\n    tag_269:\n        /* \"Contest.sol\":46573:46590  !_exists(tokenId) */\n      iszero\n        /* \"Contest.sol\":46565:46623  require(!_exists(tokenId), \"ERC721: token already minted\") */\n      tag_270\n      jumpi\n      mload(0x40)\n      0x08c379a000000000000000000000000000000000000000000000000000000000\n      dup2\n      mstore\n      0x04\n      add\n      tag_271\n      swap1\n      tag_272\n      jump\t// in\n    tag_271:\n      mload(0x40)\n      dup1\n      swap2\n      sub\n      swap1\n      revert\n    tag_270:\n        /* \"Contest.sol\":46634:46682  _beforeTokenTransfer(address(0), to, tokenId, 1) */\n      tag_273\n        /* \"Contest.sol\":46663:46664  0 */\n      0x00\n        /* \"Contest.sol\":46667:46669  to */\n      dup4\n        /* \"Contest.sol\":46671:46678  tokenId */\n      dup4\n        /* \"Contest.sol\":46680:46681  1 */\n      0x01\n        /* \"Contest.sol\":46634:46654  _beforeTokenTransfer */\n      tag_228\n        /* \"Contest.sol\":46634:46682  _beforeTokenTransfer(address(0), to, tokenId, 1) */\n      jump\t// in\n    tag_273:\n        /* \"Contest.sol\":46778:46794  _exists(tokenId) */\n      tag_274\n        /* \"Contest.sol\":46786:46793  tokenId */\n      dup2\n        /* \"Contest.sol\":46778:46785  _exists */\n      tag_207\n        /* \"Contest.sol\":46778:46794  _exists(tokenId) */\n      jump\t// in\n    tag_274:\n        /* \"Contest.sol\":46777:46794  !_exists(tokenId) */\n      iszero\n        /* \"Contest.sol\":46769:46827  require(!_exists(tokenId), \"ERC721: token already minted\") */\n      tag_275\n      jumpi\n      mload(0x40)\n      0x08c379a000000000000000000000000000000000000000000000000000000000\n      dup2\n      mstore\n      0x04\n      add\n      tag_276\n      swap1\n      tag_272\n      jump\t// in\n    tag_276:\n      mload(0x40)\n      dup1\n      swap2\n      sub\n      swap1\n      revert\n    tag_275:\n        /* \"Contest.sol\":47186:47187  1 */\n      0x01\n        /* \"Contest.sol\":47169:47178  _balances */\n      0x03\n        /* \"Contest.sol\":47169:47182  _balances[to] */\n      0x00\n        /* \"Contest.sol\":47179:47181  to */\n      dup5\n        /* \"Contest.sol\":47169:47182  _balances[to] */\n      0xffffffffffffffffffffffffffffffffffffffff\n      and\n      0xffffffffffffffffffffffffffffffffffffffff\n      and\n      dup2\n      mstore\n      0x20\n      add\n      swap1\n      dup2\n      mstore\n      0x20\n      add\n      0x00\n      keccak256\n      0x00\n        /* \"Contest.sol\":47169:47187  _balances[to] += 1 */\n      dup3\n      dup3\n      sload\n      add\n      swap3\n      pop\n      pop\n      dup2\n      swap1\n      sstore\n      pop\n        /* \"Contest.sol\":47227:47229  to */\n      dup2\n        /* \"Contest.sol\":47208:47215  _owners */\n      0x02\n        /* \"Contest.sol\":47208:47224  _owners[tokenId] */\n      0x00\n        /* \"Contest.sol\":47216:47223  tokenId */\n      dup4\n        /* \"Contest.sol\":47208:47224  _owners[tokenId] */\n      dup2\n      mstore\n      0x20\n      add\n      swap1\n      dup2\n      mstore\n      0x20\n      add\n      0x00\n      keccak256\n      0x00\n        /* \"Contest.sol\":47208:47229  _owners[tokenId] = to */\n      0x0100\n      exp\n      dup2\n      sload\n      dup2\n      0xffffffffffffffffffffffffffffffffffffffff\n      mul\n      not\n      and\n      swap1\n      dup4\n      0xffffffffffffffffffffffffffffffffffffffff\n      and\n      mul\n      or\n      swap1\n      sstore\n      pop\n        /* \"Contest.sol\":47270:47277  tokenId */\n      dup1\n        /* \"Contest.sol\":47266:47268  to */\n      dup3\n        /* \"Contest.sol\":47245:47278  Transfer(address(0), to, tokenId) */\n      0xffffffffffffffffffffffffffffffffffffffff\n      and\n        /* \"Contest.sol\":47262:47263  0 */\n      0x00\n        /* \"Contest.sol\":47245:47278  Transfer(address(0), to, tokenId) */\n      0xffffffffffffffffffffffffffffffffffffffff\n      and\n      0xddf252ad1be2c89b69c2b068fc378daa952ba7f163c4a11628f55a4df523b3ef\n      mload(0x40)\n      mload(0x40)\n      dup1\n      swap2\n      sub\n      swap1\n      log4\n        /* \"Contest.sol\":47289:47336  _afterTokenTransfer(address(0), to, tokenId, 1) */\n      tag_277\n        /* \"Contest.sol\":47317:47318  0 */\n      0x00\n        /* \"Contest.sol\":47321:47323  to */\n      dup4\n        /* \"Contest.sol\":47325:47332  tokenId */\n      dup4\n        /* \"Contest.sol\":47334:47335  1 */\n      0x01\n        /* \"Contest.sol\":47289:47308  _afterTokenTransfer */\n      tag_233\n        /* \"Contest.sol\":47289:47336  _afterTokenTransfer(address(0), to, tokenId, 1) */\n      jump\t// in\n    tag_277:\n        /* \"Contest.sol\":46423:47343  function _mint(address to, uint256 tokenId) internal virtual {... */\n      pop\n      pop\n      jump\t// out\n        /* \"Contest.sol\":55550:55764  function _setTokenURI(uint256 tokenId, string memory _tokenURI) internal virtual {... */\n    tag_196:\n        /* \"Contest.sol\":55649:55665  _exists(tokenId) */\n      tag_279\n        /* \"Contest.sol\":55657:55664  tokenId */\n      dup3\n        /* \"Contest.sol\":55649:55656  _exists */\n      tag_207\n        /* \"Contest.sol\":55649:55665  _exists(tokenId) */\n      jump\t// in\n    tag_279:\n        /* \"Contest.sol\":55641:55716  require(_exists(tokenId), \"ERC721URIStorage: URI set of nonexistent token\") */\n      tag_280\n      jumpi\n      mload(0x40)\n      0x08c379a000000000000000000000000000000000000000000000000000000000\n      dup2\n      mstore\n      0x04\n      add\n      tag_281\n      swap1\n      tag_282\n      jump\t// in\n    tag_281:\n      mload(0x40)\n      dup1\n      swap2\n      sub\n      swap1\n      revert\n    tag_280:\n        /* \"Contest.sol\":55748:55757  _tokenURI */\n      dup1\n        /* \"Contest.sol\":55726:55736  _tokenURIs */\n      0x06\n        /* \"Contest.sol\":55726:55745  _tokenURIs[tokenId] */\n      0x00\n        /* \"Contest.sol\":55737:55744  tokenId */\n      dup5\n        /* \"Contest.sol\":55726:55745  _tokenURIs[tokenId] */\n      dup2\n      mstore\n      0x20\n      add\n      swap1\n      dup2\n      mstore\n      0x20\n      add\n      0x00\n      keccak256\n        /* \"Contest.sol\":55726:55757  _tokenURIs[tokenId] = _tokenURI */\n      swap1\n      dup1\n      mload\n      swap1\n      0x20\n      add\n      swap1\n      tag_283\n      swap3\n      swap2\n      swap1\n      tag_284\n      jump\t// in\n    tag_283:\n      pop\n        /* \"Contest.sol\":55550:55764  function _setTokenURI(uint256 tokenId, string memory _tokenURI) internal virtual {... */\n      pop\n      pop\n      jump\t// out\n        /* \"Contest.sol\":44588:44714  function _exists(uint256 tokenId) internal view virtual returns (bool) {... */\n    tag_207:\n        /* \"Contest.sol\":44653:44657  bool */\n      0x00\n        /* \"Contest.sol\":44705:44706  0 */\n      dup1\n        /* \"Contest.sol\":44676:44707  _ownerOf(tokenId) != address(0) */\n      0xffffffffffffffffffffffffffffffffffffffff\n      and\n        /* \"Contest.sol\":44676:44693  _ownerOf(tokenId) */\n      tag_286\n        /* \"Contest.sol\":44685:44692  tokenId */\n      dup4\n        /* \"Contest.sol\":44676:44684  _ownerOf */\n      tag_140\n        /* \"Contest.sol\":44676:44693  _ownerOf(tokenId) */\n      jump\t// in\n    tag_286:\n        /* \"Contest.sol\":44676:44707  _ownerOf(tokenId) != address(0) */\n      0xffffffffffffffffffffffffffffffffffffffff\n      and\n      eq\n      iszero\n        /* \"Contest.sol\":44669:44707  return _ownerOf(tokenId) != address(0) */\n      swap1\n      pop\n        /* \"Contest.sol\":44588:44714  function _exists(uint256 tokenId) internal view virtual returns (bool) {... */\n      swap2\n      swap1\n      pop\n      jump\t// out\n        /* \"Contest.sol\":53030:53426  function _beforeTokenTransfer(... */\n    tag_228:\n        /* \"Contest.sol\":53214:53215  1 */\n      0x01\n        /* \"Contest.sol\":53202:53211  batchSize */\n      dup2\n        /* \"Contest.sol\":53202:53215  batchSize > 1 */\n      gt\n        /* \"Contest.sol\":53198:53420  if (batchSize > 1) {... */\n      iszero\n      tag_288\n      jumpi\n        /* \"Contest.sol\":53251:53252  0 */\n      0x00\n        /* \"Contest.sol\":53235:53253  from != address(0) */\n      0xffffffffffffffffffffffffffffffffffffffff\n      and\n        /* \"Contest.sol\":53235:53239  from */\n      dup5\n        /* \"Contest.sol\":53235:53253  from != address(0) */\n      0xffffffffffffffffffffffffffffffffffffffff\n      and\n      eq\n        /* \"Contest.sol\":53231:53316  if (from != address(0)) {... */\n      tag_289\n      jumpi\n        /* \"Contest.sol\":53292:53301  batchSize */\n      dup1\n        /* \"Contest.sol\":53273:53282  _balances */\n      0x03\n        /* \"Contest.sol\":53273:53288  _balances[from] */\n      0x00\n        /* \"Contest.sol\":53283:53287  from */\n      dup7\n        /* \"Contest.sol\":53273:53288  _balances[from] */\n      0xffffffffffffffffffffffffffffffffffffffff\n      and\n      0xffffffffffffffffffffffffffffffffffffffff\n      and\n      dup2\n      mstore\n      0x20\n      add\n      swap1\n      dup2\n      mstore\n      0x20\n      add\n      0x00\n      keccak256\n      0x00\n        /* \"Contest.sol\":53273:53301  _balances[from] -= batchSize */\n      dup3\n      dup3\n      sload\n      tag_290\n      swap2\n      swap1\n      tag_291\n      jump\t// in\n    tag_290:\n      swap3\n      pop\n      pop\n      dup2\n      swap1\n      sstore\n      pop\n        /* \"Contest.sol\":53231:53316  if (from != address(0)) {... */\n    tag_289:\n        /* \"Contest.sol\":53347:53348  0 */\n      0x00\n        /* \"Contest.sol\":53333:53349  to != address(0) */\n      0xffffffffffffffffffffffffffffffffffffffff\n      and\n        /* \"Contest.sol\":53333:53335  to */\n      dup4\n        /* \"Contest.sol\":53333:53349  to != address(0) */\n      0xffffffffffffffffffffffffffffffffffffffff\n      and\n      eq\n        /* \"Contest.sol\":53329:53410  if (to != address(0)) {... */\n      tag_292\n      jumpi\n        /* \"Contest.sol\":53386:53395  batchSize */\n      dup1\n        /* \"Contest.sol\":53369:53378  _balances */\n      0x03\n        /* \"Contest.sol\":53369:53382  _balances[to] */\n      0x00\n        /* \"Contest.sol\":53379:53381  to */\n      dup6\n        /* \"Contest.sol\":53369:53382  _balances[to] */\n      0xffffffffffffffffffffffffffffffffffffffff\n      and\n      0xffffffffffffffffffffffffffffffffffffffff\n      and\n      dup2\n      mstore\n      0x20\n      add\n      swap1\n      dup2\n      mstore\n      0x20\n      add\n      0x00\n      keccak256\n      0x00\n        /* \"Contest.sol\":53369:53395  _balances[to] += batchSize */\n      dup3\n      dup3\n      sload\n      tag_293\n      swap2\n      swap1\n      tag_294\n      jump\t// in\n    tag_293:\n      swap3\n      pop\n      pop\n      dup2\n      swap1\n      sstore\n      pop\n        /* \"Contest.sol\":53329:53410  if (to != address(0)) {... */\n    tag_292:\n        /* \"Contest.sol\":53198:53420  if (batchSize > 1) {... */\n    tag_288:\n        /* \"Contest.sol\":53030:53426  function _beforeTokenTransfer(... */\n      pop\n      pop\n      pop\n      pop\n      jump\t// out\n        /* \"Contest.sol\":54132:54285  function _afterTokenTransfer(... */\n    tag_233:\n      pop\n      pop\n      pop\n      pop\n      jump\t// out\n        /* \"Contest.sol\":51483:52314  function _checkOnERC721Received(... */\n    tag_250:\n        /* \"Contest.sol\":51632:51636  bool */\n      0x00\n        /* \"Contest.sol\":51652:51667  to.isContract() */\n      tag_297\n        /* \"Contest.sol\":51652:51654  to */\n      dup5\n        /* \"Contest.sol\":51652:51665  to.isContract */\n      0xffffffffffffffffffffffffffffffffffffffff\n      and\n      tag_298\n        /* \"Contest.sol\":51652:51667  to.isContract() */\n      jump\t// in\n    tag_297:\n        /* \"Contest.sol\":51648:52308  if (to.isContract()) {... */\n      iszero\n      tag_299\n      jumpi\n        /* \"Contest.sol\":51703:51705  to */\n      dup4\n        /* \"Contest.sol\":51687:51723  IERC721Receiver(to).onERC721Received */\n      0xffffffffffffffffffffffffffffffffffffffff\n      and\n      0x150b7a02\n        /* \"Contest.sol\":51724:51736  _msgSender() */\n      tag_300\n        /* \"Contest.sol\":51724:51734  _msgSender */\n      tag_118\n        /* \"Contest.sol\":51724:51736  _msgSender() */\n      jump\t// in\n    tag_300:\n        /* \"Contest.sol\":51738:51742  from */\n      dup8\n        /* \"Contest.sol\":51744:51751  tokenId */\n      dup7\n        /* \"Contest.sol\":51753:51757  data */\n      dup7\n        /* \"Contest.sol\":51687:51758  IERC721Receiver(to).onERC721Received(_msgSender(), from, tokenId, data) */\n      mload(0x40)\n      dup6\n      0xffffffff\n      and\n      0xe0\n      shl\n      dup2\n      mstore\n      0x04\n      add\n      tag_301\n      swap5\n      swap4\n      swap3\n      swap2\n      swap1\n      tag_302\n      jump\t// in\n    tag_301:\n      0x20\n      mload(0x40)\n      dup1\n      dup4\n      sub\n      dup2\n      0x00\n      dup8\n      dup1\n      extcodesize\n      iszero\n      dup1\n      iszero\n      tag_303\n      jumpi\n      0x00\n      dup1\n      revert\n    tag_303:\n      pop\n      gas\n      call\n      swap3\n      pop\n      pop\n      pop\n      dup1\n      iszero\n      tag_304\n      jumpi\n      pop\n      mload(0x40)\n      returndatasize\n      not(0x1f)\n      0x1f\n      dup3\n      add\n      and\n      dup3\n      add\n      dup1\n      0x40\n      mstore\n      pop\n      dup2\n      add\n      swap1\n      tag_305\n      swap2\n      swap1\n      tag_306\n      jump\t// in\n    tag_305:\n      0x01\n    tag_304:\n        /* \"Contest.sol\":51683:52256  try IERC721Receiver(to).onERC721Received(_msgSender(), from, tokenId, data) returns (bytes4 retval) {... */\n      tag_307\n      jumpi\n      returndatasize\n      dup1\n      0x00\n      dup2\n      eq\n      tag_312\n      jumpi\n      mload(0x40)\n      swap2\n      pop\n      and(add(returndatasize, 0x3f), not(0x1f))\n      dup3\n      add\n      0x40\n      mstore\n      returndatasize\n      dup3\n      mstore\n      returndatasize\n      0x00\n      0x20\n      dup5\n      add\n      returndatacopy\n      jump(tag_311)\n    tag_312:\n      0x60\n      swap2\n      pop\n    tag_311:\n      pop\n        /* \"Contest.sol\":51942:51943  0 */\n      0x00\n        /* \"Contest.sol\":51925:51931  reason */\n      dup2\n        /* \"Contest.sol\":51925:51938  reason.length */\n      mload\n        /* \"Contest.sol\":51925:51943  reason.length == 0 */\n      eq\n        /* \"Contest.sol\":51921:52242  if (reason.length == 0) {... */\n      iszero\n      tag_313\n      jumpi\n        /* \"Contest.sol\":51967:52027  revert(\"ERC721: transfer to non ERC721Receiver implementer\") */\n      mload(0x40)\n      0x08c379a000000000000000000000000000000000000000000000000000000000\n      dup2\n      mstore\n      0x04\n      add\n      tag_314\n      swap1\n      tag_253\n      jump\t// in\n    tag_314:\n      mload(0x40)\n      dup1\n      swap2\n      sub\n      swap1\n      revert\n        /* \"Contest.sol\":51921:52242  if (reason.length == 0) {... */\n    tag_313:\n        /* \"Contest.sol\":52194:52200  reason */\n      dup1\n        /* \"Contest.sol\":52188:52201  mload(reason) */\n      mload\n        /* \"Contest.sol\":52179:52185  reason */\n      dup2\n        /* \"Contest.sol\":52175:52177  32 */\n      0x20\n        /* \"Contest.sol\":52171:52186  add(32, reason) */\n      add\n        /* \"Contest.sol\":52164:52202  revert(add(32, reason), mload(reason)) */\n      revert\n        /* \"Contest.sol\":51683:52256  try IERC721Receiver(to).onERC721Received(_msgSender(), from, tokenId, data) returns (bytes4 retval) {... */\n    tag_307:\n        /* \"Contest.sol\":51818:51859  IERC721Receiver.onERC721Received.selector */\n      shl(0xe0, 0x150b7a02)\n        /* \"Contest.sol\":51808:51859  retval == IERC721Receiver.onERC721Received.selector */\n      not(0xffffffffffffffffffffffffffffffffffffffffffffffffffffffff)\n      and\n        /* \"Contest.sol\":51808:51814  retval */\n      dup2\n        /* \"Contest.sol\":51808:51859  retval == IERC721Receiver.onERC721Received.selector */\n      not(0xffffffffffffffffffffffffffffffffffffffffffffffffffffffff)\n      and\n      eq\n        /* \"Contest.sol\":51801:51859  return retval == IERC721Receiver.onERC721Received.selector */\n      swap2\n      pop\n      pop\n      jump(tag_296)\n        /* \"Contest.sol\":51648:52308  if (to.isContract()) {... */\n    tag_299:\n        /* \"Contest.sol\":52293:52297  true */\n      0x01\n        /* \"Contest.sol\":52286:52297  return true */\n      swap1\n      pop\n        /* \"Contest.sol\":51483:52314  function _checkOnERC721Received(... */\n    tag_296:\n      swap5\n      swap4\n      pop\n      pop\n      pop\n      pop\n      jump\t// out\n        /* \"Contest.sol\":14393:15089  function toString(uint256 value) internal pure returns (string memory) {... */\n    tag_261:\n        /* \"Contest.sol\":14449:14462  string memory */\n      0x60\n        /* \"Contest.sol\":14498:14512  uint256 length */\n      0x00\n        /* \"Contest.sol\":14535:14536  1 */\n      0x01\n        /* \"Contest.sol\":14515:14532  Math.log10(value) */\n      tag_319\n        /* \"Contest.sol\":14526:14531  value */\n      dup5\n        /* \"Contest.sol\":14515:14525  Math.log10 */\n      tag_320\n        /* \"Contest.sol\":14515:14532  Math.log10(value) */\n      jump\t// in\n    tag_319:\n        /* \"Contest.sol\":14515:14536  Math.log10(value) + 1 */\n      add\n        /* \"Contest.sol\":14498:14536  uint256 length = Math.log10(value) + 1 */\n      swap1\n      pop\n        /* \"Contest.sol\":14550:14570  string memory buffer */\n      0x00\n        /* \"Contest.sol\":14584:14590  length */\n      dup2\n        /* \"Contest.sol\":14573:14591  new string(length) */\n      0xffffffffffffffff\n      dup2\n      gt\n      iszero\n      tag_321\n      jumpi\n      tag_322\n      tag_323\n      jump\t// in\n    tag_322:\n    tag_321:\n      mload(0x40)\n      swap1\n      dup1\n      dup3\n      mstore\n      dup1\n      0x1f\n      add\n      not(0x1f)\n      and\n      0x20\n      add\n      dup3\n      add\n      0x40\n      mstore\n      dup1\n      iszero\n      tag_324\n      jumpi\n      dup2\n      0x20\n      add\n      0x01\n      dup3\n      mul\n      dup1\n      calldatasize\n      dup4\n      calldatacopy\n      dup1\n      dup3\n      add\n      swap2\n      pop\n      pop\n      swap1\n      pop\n    tag_324:\n      pop\n        /* \"Contest.sol\":14550:14591  string memory buffer = new string(length) */\n      swap1\n      pop\n        /* \"Contest.sol\":14605:14616  uint256 ptr */\n      0x00\n        /* \"Contest.sol\":14731:14737  length */\n      dup3\n        /* \"Contest.sol\":14727:14729  32 */\n      0x20\n        /* \"Contest.sol\":14723:14738  add(32, length) */\n      add\n        /* \"Contest.sol\":14715:14721  buffer */\n      dup3\n        /* \"Contest.sol\":14711:14739  add(buffer, add(32, length)) */\n      add\n        /* \"Contest.sol\":14704:14739  ptr := add(buffer, add(32, length)) */\n      swap1\n      pop\n        /* \"Contest.sol\":14766:15046  while (true) {... */\n    tag_325:\n        /* \"Contest.sol\":14773:14777  true */\n      0x01\n        /* \"Contest.sol\":14766:15046  while (true) {... */\n      iszero\n      tag_326\n      jumpi\n        /* \"Contest.sol\":14797:14802  ptr-- */\n      dup1\n      dup1\n      0x01\n      swap1\n      sub\n      swap2\n      pop\n      pop\n        /* \"Contest.sol\":14936:14944  _SYMBOLS */\n      0x3031323334353637383961626364656600000000000000000000000000000000\n        /* \"Contest.sol\":14931:14933  10 */\n      0x0a\n        /* \"Contest.sol\":14924:14929  value */\n      dup7\n        /* \"Contest.sol\":14920:14934  mod(value, 10) */\n      mod\n        /* \"Contest.sol\":14915:14945  byte(mod(value, 10), _SYMBOLS) */\n      byte\n        /* \"Contest.sol\":14910:14913  ptr */\n      dup2\n        /* \"Contest.sol\":14902:14946  mstore8(ptr, byte(mod(value, 10), _SYMBOLS)) */\n      mstore8\n        /* \"Contest.sol\":14990:14992  10 */\n      0x0a\n        /* \"Contest.sol\":14981:14992  value /= 10 */\n      dup6\n      dup2\n      tag_327\n      jumpi\n      tag_328\n      tag_329\n      jump\t// in\n    tag_328:\n    tag_327:\n      div\n      swap5\n      pop\n        /* \"Contest.sol\":15023:15024  0 */\n      0x00\n        /* \"Contest.sol\":15014:15019  value */\n      dup6\n        /* \"Contest.sol\":15014:15024  value == 0 */\n      eq\n        /* \"Contest.sol\":15010:15031  if (value == 0) break */\n      iszero\n      tag_330\n      jumpi\n        /* \"Contest.sol\":15026:15031  break */\n      jump(tag_326)\n        /* \"Contest.sol\":15010:15031  if (value == 0) break */\n    tag_330:\n        /* \"Contest.sol\":14766:15046  while (true) {... */\n      jump(tag_325)\n    tag_326:\n        /* \"Contest.sol\":15066:15072  buffer */\n      dup2\n        /* \"Contest.sol\":15059:15072  return buffer */\n      swap4\n      pop\n      pop\n      pop\n      pop\n        /* \"Contest.sol\":14393:15089  function toString(uint256 value) internal pure returns (string memory) {... */\n      swap2\n      swap1\n      pop\n      jump\t// out\n        /* \"Contest.sol\":20910:21230  function isContract(address account) internal view returns (bool) {... */\n    tag_298:\n        /* \"Contest.sol\":20970:20974  bool */\n      0x00\n        /* \"Contest.sol\":21222:21223  0 */\n      dup1\n        /* \"Contest.sol\":21200:21207  account */\n      dup3\n        /* \"Contest.sol\":21200:21219  account.code.length */\n      0xffffffffffffffffffffffffffffffffffffffff\n      and\n      extcodesize\n        /* \"Contest.sol\":21200:21223  account.code.length > 0 */\n      gt\n        /* \"Contest.sol\":21193:21223  return account.code.length > 0 */\n      swap1\n      pop\n        /* \"Contest.sol\":20910:21230  function isContract(address account) internal view returns (bool) {... */\n      swap2\n      swap1\n      pop\n      jump\t// out\n        /* \"Contest.sol\":11366:12256  function log10(uint256 value) internal pure returns (uint256) {... */\n    tag_320:\n        /* \"Contest.sol\":11419:11426  uint256 */\n      0x00\n        /* \"Contest.sol\":11438:11452  uint256 result */\n      dup1\n        /* \"Contest.sol\":11455:11456  0 */\n      0x00\n        /* \"Contest.sol\":11438:11456  uint256 result = 0 */\n      swap1\n      pop\n        /* \"Contest.sol\":11503:11509  10**64 */\n      0x184f03e93ff9f4daa797ed6e38ed64bf6a1f010000000000000000\n        /* \"Contest.sol\":11494:11499  value */\n      dup4\n        /* \"Contest.sol\":11494:11509  value >= 10**64 */\n      lt\n        /* \"Contest.sol\":11490:11589  if (value >= 10**64) {... */\n      tag_333\n      jumpi\n        /* \"Contest.sol\":11538:11544  10**64 */\n      0x184f03e93ff9f4daa797ed6e38ed64bf6a1f010000000000000000\n        /* \"Contest.sol\":11529:11544  value /= 10**64 */\n      dup4\n      dup2\n      tag_334\n      jumpi\n      tag_335\n      tag_329\n      jump\t// in\n    tag_335:\n    tag_334:\n      div\n      swap3\n      pop\n        /* \"Contest.sol\":11572:11574  64 */\n      0x40\n        /* \"Contest.sol\":11562:11574  result += 64 */\n      dup2\n      add\n      swap1\n      pop\n        /* \"Contest.sol\":11490:11589  if (value >= 10**64) {... */\n    tag_333:\n        /* \"Contest.sol\":11615:11621  10**32 */\n      0x04ee2d6d415b85acef8100000000\n        /* \"Contest.sol\":11606:11611  value */\n      dup4\n        /* \"Contest.sol\":11606:11621  value >= 10**32 */\n      lt\n        /* \"Contest.sol\":11602:11701  if (value >= 10**32) {... */\n      tag_336\n      jumpi\n        /* \"Contest.sol\":11650:11656  10**32 */\n      0x04ee2d6d415b85acef8100000000\n        /* \"Contest.sol\":11641:11656  value /= 10**32 */\n      dup4\n      dup2\n      tag_337\n      jumpi\n      tag_338\n      tag_329\n      jump\t// in\n    tag_338:\n    tag_337:\n      div\n      swap3\n      pop\n        /* \"Contest.sol\":11684:11686  32 */\n      0x20\n        /* \"Contest.sol\":11674:11686  result += 32 */\n      dup2\n      add\n      swap1\n      pop\n        /* \"Contest.sol\":11602:11701  if (value >= 10**32) {... */\n    tag_336:\n        /* \"Contest.sol\":11727:11733  10**16 */\n      0x2386f26fc10000\n        /* \"Contest.sol\":11718:11723  value */\n      dup4\n        /* \"Contest.sol\":11718:11733  value >= 10**16 */\n      lt\n        /* \"Contest.sol\":11714:11813  if (value >= 10**16) {... */\n      tag_339\n      jumpi\n        /* \"Contest.sol\":11762:11768  10**16 */\n      0x2386f26fc10000\n        /* \"Contest.sol\":11753:11768  value /= 10**16 */\n      dup4\n      dup2\n      tag_340\n      jumpi\n      tag_341\n      tag_329\n      jump\t// in\n    tag_341:\n    tag_340:\n      div\n      swap3\n      pop\n        /* \"Contest.sol\":11796:11798  16 */\n      0x10\n        /* \"Contest.sol\":11786:11798  result += 16 */\n      dup2\n      add\n      swap1\n      pop\n        /* \"Contest.sol\":11714:11813  if (value >= 10**16) {... */\n    tag_339:\n        /* \"Contest.sol\":11839:11844  10**8 */\n      0x05f5e100\n        /* \"Contest.sol\":11830:11835  value */\n      dup4\n        /* \"Contest.sol\":11830:11844  value >= 10**8 */\n      lt\n        /* \"Contest.sol\":11826:11922  if (value >= 10**8) {... */\n      tag_342\n      jumpi\n        /* \"Contest.sol\":11873:11878  10**8 */\n      0x05f5e100\n        /* \"Contest.sol\":11864:11878  value /= 10**8 */\n      dup4\n      dup2\n      tag_343\n      jumpi\n      tag_344\n      tag_329\n      jump\t// in\n    tag_344:\n    tag_343:\n      div\n      swap3\n      pop\n        /* \"Contest.sol\":11906:11907  8 */\n      0x08\n        /* \"Contest.sol\":11896:11907  result += 8 */\n      dup2\n      add\n      swap1\n      pop\n        /* \"Contest.sol\":11826:11922  if (value >= 10**8) {... */\n    tag_342:\n        /* \"Contest.sol\":11948:11953  10**4 */\n      0x2710\n        /* \"Contest.sol\":11939:11944  value */\n      dup4\n        /* \"Contest.sol\":11939:11953  value >= 10**4 */\n      lt\n        /* \"Contest.sol\":11935:12031  if (value >= 10**4) {... */\n      tag_345\n      jumpi\n        /* \"Contest.sol\":11982:11987  10**4 */\n      0x2710\n        /* \"Contest.sol\":11973:11987  value /= 10**4 */\n      dup4\n      dup2\n      tag_346\n      jumpi\n      tag_347\n      tag_329\n      jump\t// in\n    tag_347:\n    tag_346:\n      div\n      swap3\n      pop\n        /* \"Contest.sol\":12015:12016  4 */\n      0x04\n        /* \"Contest.sol\":12005:12016  result += 4 */\n      dup2\n      add\n      swap1\n      pop\n        /* \"Contest.sol\":11935:12031  if (value >= 10**4) {... */\n    tag_345:\n        /* \"Contest.sol\":12057:12062  10**2 */\n      0x64\n        /* \"Contest.sol\":12048:12053  value */\n      dup4\n        /* \"Contest.sol\":12048:12062  value >= 10**2 */\n      lt\n        /* \"Contest.sol\":12044:12140  if (value >= 10**2) {... */\n      tag_348\n      jumpi\n        /* \"Contest.sol\":12091:12096  10**2 */\n      0x64\n        /* \"Contest.sol\":12082:12096  value /= 10**2 */\n      dup4\n      dup2\n      tag_349\n      jumpi\n      tag_350\n      tag_329\n      jump\t// in\n    tag_350:\n    tag_349:\n      div\n      swap3\n      pop\n        /* \"Contest.sol\":12124:12125  2 */\n      0x02\n        /* \"Contest.sol\":12114:12125  result += 2 */\n      dup2\n      add\n      swap1\n      pop\n        /* \"Contest.sol\":12044:12140  if (value >= 10**2) {... */\n    tag_348:\n        /* \"Contest.sol\":12166:12171  10**1 */\n      0x0a\n        /* \"Contest.sol\":12157:12162  value */\n      dup4\n        /* \"Contest.sol\":12157:12171  value >= 10**1 */\n      lt\n        /* \"Contest.sol\":12153:12217  if (value >= 10**1) {... */\n      tag_351\n      jumpi\n        /* \"Contest.sol\":12201:12202  1 */\n      0x01\n        /* \"Contest.sol\":12191:12202  result += 1 */\n      dup2\n      add\n      swap1\n      pop\n        /* \"Contest.sol\":12153:12217  if (value >= 10**1) {... */\n    tag_351:\n        /* \"Contest.sol\":12243:12249  result */\n      dup1\n        /* \"Contest.sol\":12236:12249  return result */\n      swap2\n      pop\n      pop\n        /* \"Contest.sol\":11366:12256  function log10(uint256 value) internal pure returns (uint256) {... */\n      swap2\n      swap1\n      pop\n      jump\t// out\n    tag_284:\n      dup3\n      dup1\n      sload\n      tag_352\n      swap1\n      tag_104\n      jump\t// in\n    tag_352:\n      swap1\n      0x00\n      mstore\n      keccak256(0x00, 0x20)\n      swap1\n      0x1f\n      add\n      0x20\n      swap1\n      div\n      dup2\n      add\n      swap3\n      dup3\n      tag_354\n      jumpi\n      0x00\n      dup6\n      sstore\n      jump(tag_353)\n    tag_354:\n      dup3\n      0x1f\n      lt\n      tag_355\n      jumpi\n      dup1\n      mload\n      not(0xff)\n      and\n      dup4\n      dup1\n      add\n      or\n      dup6\n      sstore\n      jump(tag_353)\n    tag_355:\n      dup3\n      dup1\n      add\n      0x01\n      add\n      dup6\n      sstore\n      dup3\n      iszero\n      tag_353\n      jumpi\n      swap2\n      dup3\n      add\n    tag_356:\n      dup3\n      dup2\n      gt\n      iszero\n      tag_357\n      jumpi\n      dup3\n      mload\n      dup3\n      sstore\n      swap2\n      0x20\n      add\n      swap2\n      swap1\n      0x01\n      add\n      swap1\n      jump(tag_356)\n    tag_357:\n    tag_353:\n      pop\n      swap1\n      pop\n      tag_358\n      swap2\n      swap1\n      tag_359\n      jump\t// in\n    tag_358:\n      pop\n      swap1\n      jump\t// out\n    tag_359:\n    tag_360:\n      dup1\n      dup3\n      gt\n      iszero\n      tag_361\n      jumpi\n      0x00\n      dup2\n      0x00\n      swap1\n      sstore\n      pop\n      0x01\n      add\n      jump(tag_360)\n    tag_361:\n      pop\n      swap1\n      jump\t// out\n        /* \"#utility.yul\":7:82   */\n    tag_362:\n        /* \"#utility.yul\":40:46   */\n      0x00\n        /* \"#utility.yul\":73:75   */\n      0x40\n        /* \"#utility.yul\":67:76   */\n      mload\n        /* \"#utility.yul\":57:76   */\n      swap1\n      pop\n        /* \"#utility.yul\":7:82   */\n      swap1\n      jump\t// out\n        /* \"#utility.yul\":88:205   */\n    tag_363:\n        /* \"#utility.yul\":197:198   */\n      0x00\n        /* \"#utility.yul\":194:195   */\n      dup1\n        /* \"#utility.yul\":187:199   */\n      revert\n        /* \"#utility.yul\":211:328   */\n    tag_364:\n        /* \"#utility.yul\":320:321   */\n      0x00\n        /* \"#utility.yul\":317:318   */\n      dup1\n        /* \"#utility.yul\":310:322   */\n      revert\n        /* \"#utility.yul\":334:483   */\n    tag_365:\n        /* \"#utility.yul\":370:377   */\n      0x00\n        /* \"#utility.yul\":410:476   */\n      0xffffffff00000000000000000000000000000000000000000000000000000000\n        /* \"#utility.yul\":403:408   */\n      dup3\n        /* \"#utility.yul\":399:477   */\n      and\n        /* \"#utility.yul\":388:477   */\n      swap1\n      pop\n        /* \"#utility.yul\":334:483   */\n      swap2\n      swap1\n      pop\n      jump\t// out\n        /* \"#utility.yul\":489:609   */\n    tag_366:\n        /* \"#utility.yul\":561:584   */\n      tag_439\n        /* \"#utility.yul\":578:583   */\n      dup2\n        /* \"#utility.yul\":561:584   */\n      tag_365\n      jump\t// in\n    tag_439:\n        /* \"#utility.yul\":554:559   */\n      dup2\n        /* \"#utility.yul\":551:585   */\n      eq\n        /* \"#utility.yul\":541:603   */\n      tag_440\n      jumpi\n        /* \"#utility.yul\":599:600   */\n      0x00\n        /* \"#utility.yul\":596:597   */\n      dup1\n        /* \"#utility.yul\":589:601   */\n      revert\n        /* \"#utility.yul\":541:603   */\n    tag_440:\n        /* \"#utility.yul\":489:609   */\n      pop\n      jump\t// out\n        /* \"#utility.yul\":615:752   */\n    tag_367:\n        /* \"#utility.yul\":660:665   */\n      0x00\n        /* \"#utility.yul\":698:704   */\n      dup2\n        /* \"#utility.yul\":685:705   */\n      calldataload\n        /* \"#utility.yul\":676:705   */\n      swap1\n      pop\n        /* \"#utility.yul\":714:746   */\n      tag_442\n        /* \"#utility.yul\":740:745   */\n      dup2\n        /* \"#utility.yul\":714:746   */\n      tag_366\n      jump\t// in\n    tag_442:\n        /* \"#utility.yul\":615:752   */\n      swap3\n      swap2\n      pop\n      pop\n      jump\t// out\n        /* \"#utility.yul\":758:1085   */\n    tag_26:\n        /* \"#utility.yul\":816:822   */\n      0x00\n        /* \"#utility.yul\":865:867   */\n      0x20\n        /* \"#utility.yul\":853:862   */\n      dup3\n        /* \"#utility.yul\":844:851   */\n      dup5\n        /* \"#utility.yul\":840:863   */\n      sub\n        /* \"#utility.yul\":836:868   */\n      slt\n        /* \"#utility.yul\":833:952   */\n      iszero\n      tag_444\n      jumpi\n        /* \"#utility.yul\":871:950   */\n      tag_445\n      tag_363\n      jump\t// in\n    tag_445:\n        /* \"#utility.yul\":833:952   */\n    tag_444:\n        /* \"#utility.yul\":991:992   */\n      0x00\n        /* \"#utility.yul\":1016:1068   */\n      tag_446\n        /* \"#utility.yul\":1060:1067   */\n      dup5\n        /* \"#utility.yul\":1051:1057   */\n      dup3\n        /* \"#utility.yul\":1040:1049   */\n      dup6\n        /* \"#utility.yul\":1036:1058   */\n      add\n        /* \"#utility.yul\":1016:1068   */\n      tag_367\n      jump\t// in\n    tag_446:\n        /* \"#utility.yul\":1006:1068   */\n      swap2\n      pop\n        /* \"#utility.yul\":962:1078   */\n      pop\n        /* \"#utility.yul\":758:1085   */\n      swap3\n      swap2\n      pop\n      pop\n      jump\t// out\n        /* \"#utility.yul\":1091:1181   */\n    tag_368:\n        /* \"#utility.yul\":1125:1132   */\n      0x00\n        /* \"#utility.yul\":1168:1173   */\n      dup2\n        /* \"#utility.yul\":1161:1174   */\n      iszero\n        /* \"#utility.yul\":1154:1175   */\n      iszero\n        /* \"#utility.yul\":1143:1175   */\n      swap1\n      pop\n        /* \"#utility.yul\":1091:1181   */\n      swap2\n      swap1\n      pop\n      jump\t// out\n        /* \"#utility.yul\":1187:1296   */\n    tag_369:\n        /* \"#utility.yul\":1268:1289   */\n      tag_449\n        /* \"#utility.yul\":1283:1288   */\n      dup2\n        /* \"#utility.yul\":1268:1289   */\n      tag_368\n      jump\t// in\n    tag_449:\n        /* \"#utility.yul\":1263:1266   */\n      dup3\n        /* \"#utility.yul\":1256:1290   */\n      mstore\n        /* \"#utility.yul\":1187:1296   */\n      pop\n      pop\n      jump\t// out\n        /* \"#utility.yul\":1302:1512   */\n    tag_29:\n        /* \"#utility.yul\":1389:1393   */\n      0x00\n        /* \"#utility.yul\":1427:1429   */\n      0x20\n        /* \"#utility.yul\":1416:1425   */\n      dup3\n        /* \"#utility.yul\":1412:1430   */\n      add\n        /* \"#utility.yul\":1404:1430   */\n      swap1\n      pop\n        /* \"#utility.yul\":1440:1505   */\n      tag_451\n        /* \"#utility.yul\":1502:1503   */\n      0x00\n        /* \"#utility.yul\":1491:1500   */\n      dup4\n        /* \"#utility.yul\":1487:1504   */\n      add\n        /* \"#utility.yul\":1478:1484   */\n      dup5\n        /* \"#utility.yul\":1440:1505   */\n      tag_369\n      jump\t// in\n    tag_451:\n        /* \"#utility.yul\":1302:1512   */\n      swap3\n      swap2\n      pop\n      pop\n      jump\t// out\n        /* \"#utility.yul\":1518:1617   */\n    tag_370:\n        /* \"#utility.yul\":1570:1576   */\n      0x00\n        /* \"#utility.yul\":1604:1609   */\n      dup2\n        /* \"#utility.yul\":1598:1610   */\n      mload\n        /* \"#utility.yul\":1588:1610   */\n      swap1\n      pop\n        /* \"#utility.yul\":1518:1617   */\n      swap2\n      swap1\n      pop\n      jump\t// out\n        /* \"#utility.yul\":1623:1792   */\n    tag_371:\n        /* \"#utility.yul\":1707:1718   */\n      0x00\n        /* \"#utility.yul\":1741:1747   */\n      dup3\n        /* \"#utility.yul\":1736:1739   */\n      dup3\n        /* \"#utility.yul\":1729:1748   */\n      mstore\n        /* \"#utility.yul\":1781:1785   */\n      0x20\n        /* \"#utility.yul\":1776:1779   */\n      dup3\n        /* \"#utility.yul\":1772:1786   */\n      add\n        /* \"#utility.yul\":1757:1786   */\n      swap1\n      pop\n        /* \"#utility.yul\":1623:1792   */\n      swap3\n      swap2\n      pop\n      pop\n      jump\t// out\n        /* \"#utility.yul\":1798:2105   */\n    tag_372:\n        /* \"#utility.yul\":1866:1867   */\n      0x00\n        /* \"#utility.yul\":1876:1989   */\n    tag_455:\n        /* \"#utility.yul\":1890:1896   */\n      dup4\n        /* \"#utility.yul\":1887:1888   */\n      dup2\n        /* \"#utility.yul\":1884:1897   */\n      lt\n        /* \"#utility.yul\":1876:1989   */\n      iszero\n      tag_457\n      jumpi\n        /* \"#utility.yul\":1975:1976   */\n      dup1\n        /* \"#utility.yul\":1970:1973   */\n      dup3\n        /* \"#utility.yul\":1966:1977   */\n      add\n        /* \"#utility.yul\":1960:1978   */\n      mload\n        /* \"#utility.yul\":1956:1957   */\n      dup2\n        /* \"#utility.yul\":1951:1954   */\n      dup5\n        /* \"#utility.yul\":1947:1958   */\n      add\n        /* \"#utility.yul\":1940:1979   */\n      mstore\n        /* \"#utility.yul\":1912:1914   */\n      0x20\n        /* \"#utility.yul\":1909:1910   */\n      dup2\n        /* \"#utility.yul\":1905:1915   */\n      add\n        /* \"#utility.yul\":1900:1915   */\n      swap1\n      pop\n        /* \"#utility.yul\":1876:1989   */\n      jump(tag_455)\n    tag_457:\n        /* \"#utility.yul\":2007:2013   */\n      dup4\n        /* \"#utility.yul\":2004:2005   */\n      dup2\n        /* \"#utility.yul\":2001:2014   */\n      gt\n        /* \"#utility.yul\":1998:2099   */\n      iszero\n      tag_458\n      jumpi\n        /* \"#utility.yul\":2087:2088   */\n      0x00\n        /* \"#utility.yul\":2078:2084   */\n      dup5\n        /* \"#utility.yul\":2073:2076   */\n      dup5\n        /* \"#utility.yul\":2069:2085   */\n      add\n        /* \"#utility.yul\":2062:2089   */\n      mstore\n        /* \"#utility.yul\":1998:2099   */\n    tag_458:\n        /* \"#utility.yul\":1847:2105   */\n      pop\n        /* \"#utility.yul\":1798:2105   */\n      pop\n      pop\n      pop\n      jump\t// out\n        /* \"#utility.yul\":2111:2213   */\n    tag_373:\n        /* \"#utility.yul\":2152:2158   */\n      0x00\n        /* \"#utility.yul\":2203:2205   */\n      0x1f\n        /* \"#utility.yul\":2199:2206   */\n      not\n        /* \"#utility.yul\":2194:2196   */\n      0x1f\n        /* \"#utility.yul\":2187:2192   */\n      dup4\n        /* \"#utility.yul\":2183:2197   */\n      add\n        /* \"#utility.yul\":2179:2207   */\n      and\n        /* \"#utility.yul\":2169:2207   */\n      swap1\n      pop\n        /* \"#utility.yul\":2111:2213   */\n      swap2\n      swap1\n      pop\n      jump\t// out\n        /* \"#utility.yul\":2219:2583   */\n    tag_374:\n        /* \"#utility.yul\":2307:2310   */\n      0x00\n        /* \"#utility.yul\":2335:2374   */\n      tag_461\n        /* \"#utility.yul\":2368:2373   */\n      dup3\n        /* \"#utility.yul\":2335:2374   */\n      tag_370\n      jump\t// in\n    tag_461:\n        /* \"#utility.yul\":2390:2461   */\n      tag_462\n        /* \"#utility.yul\":2454:2460   */\n      dup2\n        /* \"#utility.yul\":2449:2452   */\n      dup6\n        /* \"#utility.yul\":2390:2461   */\n      tag_371\n      jump\t// in\n    tag_462:\n        /* \"#utility.yul\":2383:2461   */\n      swap4\n      pop\n        /* \"#utility.yul\":2470:2522   */\n      tag_463\n        /* \"#utility.yul\":2515:2521   */\n      dup2\n        /* \"#utility.yul\":2510:2513   */\n      dup6\n        /* \"#utility.yul\":2503:2507   */\n      0x20\n        /* \"#utility.yul\":2496:2501   */\n      dup7\n        /* \"#utility.yul\":2492:2508   */\n      add\n        /* \"#utility.yul\":2470:2522   */\n      tag_372\n      jump\t// in\n    tag_463:\n        /* \"#utility.yul\":2547:2576   */\n      tag_464\n        /* \"#utility.yul\":2569:2575   */\n      dup2\n        /* \"#utility.yul\":2547:2576   */\n      tag_373\n      jump\t// in\n    tag_464:\n        /* \"#utility.yul\":2542:2545   */\n      dup5\n        /* \"#utility.yul\":2538:2577   */\n      add\n        /* \"#utility.yul\":2531:2577   */\n      swap2\n      pop\n        /* \"#utility.yul\":2311:2583   */\n      pop\n        /* \"#utility.yul\":2219:2583   */\n      swap3\n      swap2\n      pop\n      pop\n      jump\t// out\n        /* \"#utility.yul\":2589:2902   */\n    tag_33:\n        /* \"#utility.yul\":2702:2706   */\n      0x00\n        /* \"#utility.yul\":2740:2742   */\n      0x20\n        /* \"#utility.yul\":2729:2738   */\n      dup3\n        /* \"#utility.yul\":2725:2743   */\n      add\n        /* \"#utility.yul\":2717:2743   */\n      swap1\n      pop\n        /* \"#utility.yul\":2789:2798   */\n      dup2\n        /* \"#utility.yul\":2783:2787   */\n      dup2\n        /* \"#utility.yul\":2779:2799   */\n      sub\n        /* \"#utility.yul\":2775:2776   */\n      0x00\n        /* \"#utility.yul\":2764:2773   */\n      dup4\n        /* \"#utility.yul\":2760:2777   */\n      add\n        /* \"#utility.yul\":2753:2800   */\n      mstore\n        /* \"#utility.yul\":2817:2895   */\n      tag_466\n        /* \"#utility.yul\":2890:2894   */\n      dup2\n        /* \"#utility.yul\":2881:2887   */\n      dup5\n        /* \"#utility.yul\":2817:2895   */\n      tag_374\n      jump\t// in\n    tag_466:\n        /* \"#utility.yul\":2809:2895   */\n      swap1\n      pop\n        /* \"#utility.yul\":2589:2902   */\n      swap3\n      swap2\n      pop\n      pop\n      jump\t// out\n        /* \"#utility.yul\":2908:2985   */\n    tag_375:\n        /* \"#utility.yul\":2945:2952   */\n      0x00\n        /* \"#utility.yul\":2974:2979   */\n      dup2\n        /* \"#utility.yul\":2963:2979   */\n      swap1\n      pop\n        /* \"#utility.yul\":2908:2985   */\n      swap2\n      swap1\n      pop\n      jump\t// out\n        /* \"#utility.yul\":2991:3113   */\n    tag_376:\n        /* \"#utility.yul\":3064:3088   */\n      tag_469\n        /* \"#utility.yul\":3082:3087   */\n      dup2\n        /* \"#utility.yul\":3064:3088   */\n      tag_375\n      jump\t// in\n    tag_469:\n        /* \"#utility.yul\":3057:3062   */\n      dup2\n        /* \"#utility.yul\":3054:3089   */\n      eq\n        /* \"#utility.yul\":3044:3107   */\n      tag_470\n      jumpi\n        /* \"#utility.yul\":3103:3104   */\n      0x00\n        /* \"#utility.yul\":3100:3101   */\n      dup1\n        /* \"#utility.yul\":3093:3105   */\n      revert\n        /* \"#utility.yul\":3044:3107   */\n    tag_470:\n        /* \"#utility.yul\":2991:3113   */\n      pop\n      jump\t// out\n        /* \"#utility.yul\":3119:3258   */\n    tag_377:\n        /* \"#utility.yul\":3165:3170   */\n      0x00\n        /* \"#utility.yul\":3203:3209   */\n      dup2\n        /* \"#utility.yul\":3190:3210   */\n      calldataload\n        /* \"#utility.yul\":3181:3210   */\n      swap1\n      pop\n        /* \"#utility.yul\":3219:3252   */\n      tag_472\n        /* \"#utility.yul\":3246:3251   */\n      dup2\n        /* \"#utility.yul\":3219:3252   */\n      tag_376\n      jump\t// in\n    tag_472:\n        /* \"#utility.yul\":3119:3258   */\n      swap3\n      swap2\n      pop\n      pop\n      jump\t// out\n        /* \"#utility.yul\":3264:3593   */\n    tag_36:\n        /* \"#utility.yul\":3323:3329   */\n      0x00\n        /* \"#utility.yul\":3372:3374   */\n      0x20\n        /* \"#utility.yul\":3360:3369   */\n      dup3\n        /* \"#utility.yul\":3351:3358   */\n      dup5\n        /* \"#utility.yul\":3347:3370   */\n      sub\n        /* \"#utility.yul\":3343:3375   */\n      slt\n        /* \"#utility.yul\":3340:3459   */\n      iszero\n      tag_474\n      jumpi\n        /* \"#utility.yul\":3378:3457   */\n      tag_475\n      tag_363\n      jump\t// in\n    tag_475:\n        /* \"#utility.yul\":3340:3459   */\n    tag_474:\n        /* \"#utility.yul\":3498:3499   */\n      0x00\n        /* \"#utility.yul\":3523:3576   */\n      tag_476\n        /* \"#utility.yul\":3568:3575   */\n      dup5\n        /* \"#utility.yul\":3559:3565   */\n      dup3\n        /* \"#utility.yul\":3548:3557   */\n      dup6\n        /* \"#utility.yul\":3544:3566   */\n      add\n        /* \"#utility.yul\":3523:3576   */\n      tag_377\n      jump\t// in\n    tag_476:\n        /* \"#utility.yul\":3513:3576   */\n      swap2\n      pop\n        /* \"#utility.yul\":3469:3586   */\n      pop\n        /* \"#utility.yul\":3264:3593   */\n      swap3\n      swap2\n      pop\n      pop\n      jump\t// out\n        /* \"#utility.yul\":3599:3725   */\n    tag_378:\n        /* \"#utility.yul\":3636:3643   */\n      0x00\n        /* \"#utility.yul\":3676:3718   */\n      0xffffffffffffffffffffffffffffffffffffffff\n        /* \"#utility.yul\":3669:3674   */\n      dup3\n        /* \"#utility.yul\":3665:3719   */\n      and\n        /* \"#utility.yul\":3654:3719   */\n      swap1\n      pop\n        /* \"#utility.yul\":3599:3725   */\n      swap2\n      swap1\n      pop\n      jump\t// out\n        /* \"#utility.yul\":3731:3827   */\n    tag_379:\n        /* \"#utility.yul\":3768:3775   */\n      0x00\n        /* \"#utility.yul\":3797:3821   */\n      tag_479\n        /* \"#utility.yul\":3815:3820   */\n      dup3\n        /* \"#utility.yul\":3797:3821   */\n      tag_378\n      jump\t// in\n    tag_479:\n        /* \"#utility.yul\":3786:3821   */\n      swap1\n      pop\n        /* \"#utility.yul\":3731:3827   */\n      swap2\n      swap1\n      pop\n      jump\t// out\n        /* \"#utility.yul\":3833:3951   */\n    tag_380:\n        /* \"#utility.yul\":3920:3944   */\n      tag_481\n        /* \"#utility.yul\":3938:3943   */\n      dup2\n        /* \"#utility.yul\":3920:3944   */\n      tag_379\n      jump\t// in\n    tag_481:\n        /* \"#utility.yul\":3915:3918   */\n      dup3\n        /* \"#utility.yul\":3908:3945   */\n      mstore\n        /* \"#utility.yul\":3833:3951   */\n      pop\n      pop\n      jump\t// out\n        /* \"#utility.yul\":3957:4179   */\n    tag_39:\n        /* \"#utility.yul\":4050:4054   */\n      0x00\n        /* \"#utility.yul\":4088:4090   */\n      0x20\n        /* \"#utility.yul\":4077:4086   */\n      dup3\n        /* \"#utility.yul\":4073:4091   */\n      add\n        /* \"#utility.yul\":4065:4091   */\n      swap1\n      pop\n        /* \"#utility.yul\":4101:4172   */\n      tag_483\n        /* \"#utility.yul\":4169:4170   */\n      0x00\n        /* \"#utility.yul\":4158:4167   */\n      dup4\n        /* \"#utility.yul\":4154:4171   */\n      add\n        /* \"#utility.yul\":4145:4151   */\n      dup5\n        /* \"#utility.yul\":4101:4172   */\n      tag_380\n      jump\t// in\n    tag_483:\n        /* \"#utility.yul\":3957:4179   */\n      swap3\n      swap2\n      pop\n      pop\n      jump\t// out\n        /* \"#utility.yul\":4185:4307   */\n    tag_381:\n        /* \"#utility.yul\":4258:4282   */\n      tag_485\n        /* \"#utility.yul\":4276:4281   */\n      dup2\n        /* \"#utility.yul\":4258:4282   */\n      tag_379\n      jump\t// in\n    tag_485:\n        /* \"#utility.yul\":4251:4256   */\n      dup2\n        /* \"#utility.yul\":4248:4283   */\n      eq\n        /* \"#utility.yul\":4238:4301   */\n      tag_486\n      jumpi\n        /* \"#utility.yul\":4297:4298   */\n      0x00\n        /* \"#utility.yul\":4294:4295   */\n      dup1\n        /* \"#utility.yul\":4287:4299   */\n      revert\n        /* \"#utility.yul\":4238:4301   */\n    tag_486:\n        /* \"#utility.yul\":4185:4307   */\n      pop\n      jump\t// out\n        /* \"#utility.yul\":4313:4452   */\n    tag_382:\n        /* \"#utility.yul\":4359:4364   */\n      0x00\n        /* \"#utility.yul\":4397:4403   */\n      dup2\n        /* \"#utility.yul\":4384:4404   */\n      calldataload\n        /* \"#utility.yul\":4375:4404   */\n      swap1\n      pop\n        /* \"#utility.yul\":4413:4446   */\n      tag_488\n        /* \"#utility.yul\":4440:4445   */\n      dup2\n        /* \"#utility.yul\":4413:4446   */\n      tag_381\n      jump\t// in\n    tag_488:\n        /* \"#utility.yul\":4313:4452   */\n      swap3\n      swap2\n      pop\n      pop\n      jump\t// out\n        /* \"#utility.yul\":4458:4932   */\n    tag_42:\n        /* \"#utility.yul\":4526:4532   */\n      0x00\n        /* \"#utility.yul\":4534:4540   */\n      dup1\n        /* \"#utility.yul\":4583:4585   */\n      0x40\n        /* \"#utility.yul\":4571:4580   */\n      dup4\n        /* \"#utility.yul\":4562:4569   */\n      dup6\n        /* \"#utility.yul\":4558:4581   */\n      sub\n        /* \"#utility.yul\":4554:4586   */\n      slt\n        /* \"#utility.yul\":4551:4670   */\n      iszero\n      tag_490\n      jumpi\n        /* \"#utility.yul\":4589:4668   */\n      tag_491\n      tag_363\n      jump\t// in\n    tag_491:\n        /* \"#utility.yul\":4551:4670   */\n    tag_490:\n        /* \"#utility.yul\":4709:4710   */\n      0x00\n        /* \"#utility.yul\":4734:4787   */\n      tag_492\n        /* \"#utility.yul\":4779:4786   */\n      dup6\n        /* \"#utility.yul\":4770:4776   */\n      dup3\n        /* \"#utility.yul\":4759:4768   */\n      dup7\n        /* \"#utility.yul\":4755:4777   */\n      add\n        /* \"#utility.yul\":4734:4787   */\n      tag_382\n      jump\t// in\n    tag_492:\n        /* \"#utility.yul\":4724:4787   */\n      swap3\n      pop\n        /* \"#utility.yul\":4680:4797   */\n      pop\n        /* \"#utility.yul\":4836:4838   */\n      0x20\n        /* \"#utility.yul\":4862:4915   */\n      tag_493\n        /* \"#utility.yul\":4907:4914   */\n      dup6\n        /* \"#utility.yul\":4898:4904   */\n      dup3\n        /* \"#utility.yul\":4887:4896   */\n      dup7\n        /* \"#utility.yul\":4883:4905   */\n      add\n        /* \"#utility.yul\":4862:4915   */\n      tag_377\n      jump\t// in\n    tag_493:\n        /* \"#utility.yul\":4852:4915   */\n      swap2\n      pop\n        /* \"#utility.yul\":4807:4925   */\n      pop\n        /* \"#utility.yul\":4458:4932   */\n      swap3\n      pop\n      swap3\n      swap1\n      pop\n      jump\t// out\n        /* \"#utility.yul\":4938:5557   */\n    tag_46:\n        /* \"#utility.yul\":5015:5021   */\n      0x00\n        /* \"#utility.yul\":5023:5029   */\n      dup1\n        /* \"#utility.yul\":5031:5037   */\n      0x00\n        /* \"#utility.yul\":5080:5082   */\n      0x60\n        /* \"#utility.yul\":5068:5077   */\n      dup5\n        /* \"#utility.yul\":5059:5066   */\n      dup7\n        /* \"#utility.yul\":5055:5078   */\n      sub\n        /* \"#utility.yul\":5051:5083   */\n      slt\n        /* \"#utility.yul\":5048:5167   */\n      iszero\n      tag_495\n      jumpi\n        /* \"#utility.yul\":5086:5165   */\n      tag_496\n      tag_363\n      jump\t// in\n    tag_496:\n        /* \"#utility.yul\":5048:5167   */\n    tag_495:\n        /* \"#utility.yul\":5206:5207   */\n      0x00\n        /* \"#utility.yul\":5231:5284   */\n      tag_497\n        /* \"#utility.yul\":5276:5283   */\n      dup7\n        /* \"#utility.yul\":5267:5273   */\n      dup3\n        /* \"#utility.yul\":5256:5265   */\n      dup8\n        /* \"#utility.yul\":5252:5274   */\n      add\n        /* \"#utility.yul\":5231:5284   */\n      tag_382\n      jump\t// in\n    tag_497:\n        /* \"#utility.yul\":5221:5284   */\n      swap4\n      pop\n        /* \"#utility.yul\":5177:5294   */\n      pop\n        /* \"#utility.yul\":5333:5335   */\n      0x20\n        /* \"#utility.yul\":5359:5412   */\n      tag_498\n        /* \"#utility.yul\":5404:5411   */\n      dup7\n        /* \"#utility.yul\":5395:5401   */\n      dup3\n        /* \"#utility.yul\":5384:5393   */\n      dup8\n        /* \"#utility.yul\":5380:5402   */\n      add\n        /* \"#utility.yul\":5359:5412   */\n      tag_382\n      jump\t// in\n    tag_498:\n        /* \"#utility.yul\":5349:5412   */\n      swap3\n      pop\n        /* \"#utility.yul\":5304:5422   */\n      pop\n        /* \"#utility.yul\":5461:5463   */\n      0x40\n        /* \"#utility.yul\":5487:5540   */\n      tag_499\n        /* \"#utility.yul\":5532:5539   */\n      dup7\n        /* \"#utility.yul\":5523:5529   */\n      dup3\n        /* \"#utility.yul\":5512:5521   */\n      dup8\n        /* \"#utility.yul\":5508:5530   */\n      add\n        /* \"#utility.yul\":5487:5540   */\n      tag_377\n      jump\t// in\n    tag_499:\n        /* \"#utility.yul\":5477:5540   */\n      swap2\n      pop\n        /* \"#utility.yul\":5432:5550   */\n      pop\n        /* \"#utility.yul\":4938:5557   */\n      swap3\n      pop\n      swap3\n      pop\n      swap3\n      jump\t// out\n        /* \"#utility.yul\":5563:5892   */\n    tag_57:\n        /* \"#utility.yul\":5622:5628   */\n      0x00\n        /* \"#utility.yul\":5671:5673   */\n      0x20\n        /* \"#utility.yul\":5659:5668   */\n      dup3\n        /* \"#utility.yul\":5650:5657   */\n      dup5\n        /* \"#utility.yul\":5646:5669   */\n      sub\n        /* \"#utility.yul\":5642:5674   */\n      slt\n        /* \"#utility.yul\":5639:5758   */\n      iszero\n      tag_501\n      jumpi\n        /* \"#utility.yul\":5677:5756   */\n      tag_502\n      tag_363\n      jump\t// in\n    tag_502:\n        /* \"#utility.yul\":5639:5758   */\n    tag_501:\n        /* \"#utility.yul\":5797:5798   */\n      0x00\n        /* \"#utility.yul\":5822:5875   */\n      tag_503\n        /* \"#utility.yul\":5867:5874   */\n      dup5\n        /* \"#utility.yul\":5858:5864   */\n      dup3\n        /* \"#utility.yul\":5847:5856   */\n      dup6\n        /* \"#utility.yul\":5843:5865   */\n      add\n        /* \"#utility.yul\":5822:5875   */\n      tag_382\n      jump\t// in\n    tag_503:\n        /* \"#utility.yul\":5812:5875   */\n      swap2\n      pop\n        /* \"#utility.yul\":5768:5885   */\n      pop\n        /* \"#utility.yul\":5563:5892   */\n      swap3\n      swap2\n      pop\n      pop\n      jump\t// out\n        /* \"#utility.yul\":5898:6016   */\n    tag_383:\n        /* \"#utility.yul\":5985:6009   */\n      tag_505\n        /* \"#utility.yul\":6003:6008   */\n      dup2\n        /* \"#utility.yul\":5985:6009   */\n      tag_375\n      jump\t// in\n    tag_505:\n        /* \"#utility.yul\":5980:5983   */\n      dup3\n        /* \"#utility.yul\":5973:6010   */\n      mstore\n        /* \"#utility.yul\":5898:6016   */\n      pop\n      pop\n      jump\t// out\n        /* \"#utility.yul\":6022:6244   */\n    tag_60:\n        /* \"#utility.yul\":6115:6119   */\n      0x00\n        /* \"#utility.yul\":6153:6155   */\n      0x20\n        /* \"#utility.yul\":6142:6151   */\n      dup3\n        /* \"#utility.yul\":6138:6156   */\n      add\n        /* \"#utility.yul\":6130:6156   */\n      swap1\n      pop\n        /* \"#utility.yul\":6166:6237   */\n      tag_507\n        /* \"#utility.yul\":6234:6235   */\n      0x00\n        /* \"#utility.yul\":6223:6232   */\n      dup4\n        /* \"#utility.yul\":6219:6236   */\n      add\n        /* \"#utility.yul\":6210:6216   */\n      dup5\n        /* \"#utility.yul\":6166:6237   */\n      tag_383\n      jump\t// in\n    tag_507:\n        /* \"#utility.yul\":6022:6244   */\n      swap3\n      swap2\n      pop\n      pop\n      jump\t// out\n        /* \"#utility.yul\":6250:6366   */\n    tag_384:\n        /* \"#utility.yul\":6320:6341   */\n      tag_509\n        /* \"#utility.yul\":6335:6340   */\n      dup2\n        /* \"#utility.yul\":6320:6341   */\n      tag_368\n      jump\t// in\n    tag_509:\n        /* \"#utility.yul\":6313:6318   */\n      dup2\n        /* \"#utility.yul\":6310:6342   */\n      eq\n        /* \"#utility.yul\":6300:6360   */\n      tag_510\n      jumpi\n        /* \"#utility.yul\":6356:6357   */\n      0x00\n        /* \"#utility.yul\":6353:6354   */\n      dup1\n        /* \"#utility.yul\":6346:6358   */\n      revert\n        /* \"#utility.yul\":6300:6360   */\n    tag_510:\n        /* \"#utility.yul\":6250:6366   */\n      pop\n      jump\t// out\n        /* \"#utility.yul\":6372:6505   */\n    tag_385:\n        /* \"#utility.yul\":6415:6420   */\n      0x00\n        /* \"#utility.yul\":6453:6459   */\n      dup2\n        /* \"#utility.yul\":6440:6460   */\n      calldataload\n        /* \"#utility.yul\":6431:6460   */\n      swap1\n      pop\n        /* \"#utility.yul\":6469:6499   */\n      tag_512\n        /* \"#utility.yul\":6493:6498   */\n      dup2\n        /* \"#utility.yul\":6469:6499   */\n      tag_384\n      jump\t// in\n    tag_512:\n        /* \"#utility.yul\":6372:6505   */\n      swap3\n      swap2\n      pop\n      pop\n      jump\t// out\n        /* \"#utility.yul\":6511:6979   */\n    tag_71:\n        /* \"#utility.yul\":6576:6582   */\n      0x00\n        /* \"#utility.yul\":6584:6590   */\n      dup1\n        /* \"#utility.yul\":6633:6635   */\n      0x40\n        /* \"#utility.yul\":6621:6630   */\n      dup4\n        /* \"#utility.yul\":6612:6619   */\n      dup6\n        /* \"#utility.yul\":6608:6631   */\n      sub\n        /* \"#utility.yul\":6604:6636   */\n      slt\n        /* \"#utility.yul\":6601:6720   */\n      iszero\n      tag_514\n      jumpi\n        /* \"#utility.yul\":6639:6718   */\n      tag_515\n      tag_363\n      jump\t// in\n    tag_515:\n        /* \"#utility.yul\":6601:6720   */\n    tag_514:\n        /* \"#utility.yul\":6759:6760   */\n      0x00\n        /* \"#utility.yul\":6784:6837   */\n      tag_516\n        /* \"#utility.yul\":6829:6836   */\n      dup6\n        /* \"#utility.yul\":6820:6826   */\n      dup3\n        /* \"#utility.yul\":6809:6818   */\n      dup7\n        /* \"#utility.yul\":6805:6827   */\n      add\n        /* \"#utility.yul\":6784:6837   */\n      tag_382\n      jump\t// in\n    tag_516:\n        /* \"#utility.yul\":6774:6837   */\n      swap3\n      pop\n        /* \"#utility.yul\":6730:6847   */\n      pop\n        /* \"#utility.yul\":6886:6888   */\n      0x20\n        /* \"#utility.yul\":6912:6962   */\n      tag_517\n        /* \"#utility.yul\":6954:6961   */\n      dup6\n        /* \"#utility.yul\":6945:6951   */\n      dup3\n        /* \"#utility.yul\":6934:6943   */\n      dup7\n        /* \"#utility.yul\":6930:6952   */\n      add\n        /* \"#utility.yul\":6912:6962   */\n      tag_385\n      jump\t// in\n    tag_517:\n        /* \"#utility.yul\":6902:6962   */\n      swap2\n      pop\n        /* \"#utility.yul\":6857:6972   */\n      pop\n        /* \"#utility.yul\":6511:6979   */\n      swap3\n      pop\n      swap3\n      swap1\n      pop\n      jump\t// out\n        /* \"#utility.yul\":6985:7102   */\n    tag_386:\n        /* \"#utility.yul\":7094:7095   */\n      0x00\n        /* \"#utility.yul\":7091:7092   */\n      dup1\n        /* \"#utility.yul\":7084:7096   */\n      revert\n        /* \"#utility.yul\":7108:7225   */\n    tag_387:\n        /* \"#utility.yul\":7217:7218   */\n      0x00\n        /* \"#utility.yul\":7214:7215   */\n      dup1\n        /* \"#utility.yul\":7207:7219   */\n      revert\n        /* \"#utility.yul\":7231:7411   */\n    tag_323:\n        /* \"#utility.yul\":7279:7356   */\n      0x4e487b7100000000000000000000000000000000000000000000000000000000\n        /* \"#utility.yul\":7276:7277   */\n      0x00\n        /* \"#utility.yul\":7269:7357   */\n      mstore\n        /* \"#utility.yul\":7376:7380   */\n      0x41\n        /* \"#utility.yul\":7373:7374   */\n      0x04\n        /* \"#utility.yul\":7366:7381   */\n      mstore\n        /* \"#utility.yul\":7400:7404   */\n      0x24\n        /* \"#utility.yul\":7397:7398   */\n      0x00\n        /* \"#utility.yul\":7390:7405   */\n      revert\n        /* \"#utility.yul\":7417:7698   */\n    tag_388:\n        /* \"#utility.yul\":7500:7527   */\n      tag_522\n        /* \"#utility.yul\":7522:7526   */\n      dup3\n        /* \"#utility.yul\":7500:7527   */\n      tag_373\n      jump\t// in\n    tag_522:\n        /* \"#utility.yul\":7492:7498   */\n      dup2\n        /* \"#utility.yul\":7488:7528   */\n      add\n        /* \"#utility.yul\":7630:7636   */\n      dup2\n        /* \"#utility.yul\":7618:7628   */\n      dup2\n        /* \"#utility.yul\":7615:7637   */\n      lt\n        /* \"#utility.yul\":7594:7612   */\n      0xffffffffffffffff\n        /* \"#utility.yul\":7582:7592   */\n      dup3\n        /* \"#utility.yul\":7579:7613   */\n      gt\n        /* \"#utility.yul\":7576:7638   */\n      or\n        /* \"#utility.yul\":7573:7661   */\n      iszero\n      tag_523\n      jumpi\n        /* \"#utility.yul\":7641:7659   */\n      tag_524\n      tag_323\n      jump\t// in\n    tag_524:\n        /* \"#utility.yul\":7573:7661   */\n    tag_523:\n        /* \"#utility.yul\":7681:7691   */\n      dup1\n        /* \"#utility.yul\":7677:7679   */\n      0x40\n        /* \"#utility.yul\":7670:7692   */\n      mstore\n        /* \"#utility.yul\":7460:7698   */\n      pop\n        /* \"#utility.yul\":7417:7698   */\n      pop\n      pop\n      jump\t// out\n        /* \"#utility.yul\":7704:7833   */\n    tag_389:\n        /* \"#utility.yul\":7738:7744   */\n      0x00\n        /* \"#utility.yul\":7765:7785   */\n      tag_526\n      tag_362\n      jump\t// in\n    tag_526:\n        /* \"#utility.yul\":7755:7785   */\n      swap1\n      pop\n        /* \"#utility.yul\":7794:7827   */\n      tag_527\n        /* \"#utility.yul\":7822:7826   */\n      dup3\n        /* \"#utility.yul\":7814:7820   */\n      dup3\n        /* \"#utility.yul\":7794:7827   */\n      tag_388\n      jump\t// in\n    tag_527:\n        /* \"#utility.yul\":7704:7833   */\n      swap2\n      swap1\n      pop\n      jump\t// out\n        /* \"#utility.yul\":7839:8146   */\n    tag_390:\n        /* \"#utility.yul\":7900:7904   */\n      0x00\n        /* \"#utility.yul\":7990:8008   */\n      0xffffffffffffffff\n        /* \"#utility.yul\":7982:7988   */\n      dup3\n        /* \"#utility.yul\":7979:8009   */\n      gt\n        /* \"#utility.yul\":7976:8032   */\n      iszero\n      tag_529\n      jumpi\n        /* \"#utility.yul\":8012:8030   */\n      tag_530\n      tag_323\n      jump\t// in\n    tag_530:\n        /* \"#utility.yul\":7976:8032   */\n    tag_529:\n        /* \"#utility.yul\":8050:8079   */\n      tag_531\n        /* \"#utility.yul\":8072:8078   */\n      dup3\n        /* \"#utility.yul\":8050:8079   */\n      tag_373\n      jump\t// in\n    tag_531:\n        /* \"#utility.yul\":8042:8079   */\n      swap1\n      pop\n        /* \"#utility.yul\":8134:8138   */\n      0x20\n        /* \"#utility.yul\":8128:8132   */\n      dup2\n        /* \"#utility.yul\":8124:8139   */\n      add\n        /* \"#utility.yul\":8116:8139   */\n      swap1\n      pop\n        /* \"#utility.yul\":7839:8146   */\n      swap2\n      swap1\n      pop\n      jump\t// out\n        /* \"#utility.yul\":8152:8306   */\n    tag_391:\n        /* \"#utility.yul\":8236:8242   */\n      dup3\n        /* \"#utility.yul\":8231:8234   */\n      dup2\n        /* \"#utility.yul\":8226:8229   */\n      dup4\n        /* \"#utility.yul\":8213:8243   */\n      calldatacopy\n        /* \"#utility.yul\":8298:8299   */\n      0x00\n        /* \"#utility.yul\":8289:8295   */\n      dup4\n        /* \"#utility.yul\":8284:8287   */\n      dup4\n        /* \"#utility.yul\":8280:8296   */\n      add\n        /* \"#utility.yul\":8273:8300   */\n      mstore\n        /* \"#utility.yul\":8152:8306   */\n      pop\n      pop\n      pop\n      jump\t// out\n        /* \"#utility.yul\":8312:8722   */\n    tag_392:\n        /* \"#utility.yul\":8389:8394   */\n      0x00\n        /* \"#utility.yul\":8414:8479   */\n      tag_534\n        /* \"#utility.yul\":8430:8478   */\n      tag_535\n        /* \"#utility.yul\":8471:8477   */\n      dup5\n        /* \"#utility.yul\":8430:8478   */\n      tag_390\n      jump\t// in\n    tag_535:\n        /* \"#utility.yul\":8414:8479   */\n      tag_389\n      jump\t// in\n    tag_534:\n        /* \"#utility.yul\":8405:8479   */\n      swap1\n      pop\n        /* \"#utility.yul\":8502:8508   */\n      dup3\n        /* \"#utility.yul\":8495:8500   */\n      dup2\n        /* \"#utility.yul\":8488:8509   */\n      mstore\n        /* \"#utility.yul\":8540:8544   */\n      0x20\n        /* \"#utility.yul\":8533:8538   */\n      dup2\n        /* \"#utility.yul\":8529:8545   */\n      add\n        /* \"#utility.yul\":8578:8581   */\n      dup5\n        /* \"#utility.yul\":8569:8575   */\n      dup5\n        /* \"#utility.yul\":8564:8567   */\n      dup5\n        /* \"#utility.yul\":8560:8576   */\n      add\n        /* \"#utility.yul\":8557:8582   */\n      gt\n        /* \"#utility.yul\":8554:8666   */\n      iszero\n      tag_536\n      jumpi\n        /* \"#utility.yul\":8585:8664   */\n      tag_537\n      tag_387\n      jump\t// in\n    tag_537:\n        /* \"#utility.yul\":8554:8666   */\n    tag_536:\n        /* \"#utility.yul\":8675:8716   */\n      tag_538\n        /* \"#utility.yul\":8709:8715   */\n      dup5\n        /* \"#utility.yul\":8704:8707   */\n      dup3\n        /* \"#utility.yul\":8699:8702   */\n      dup6\n        /* \"#utility.yul\":8675:8716   */\n      tag_391\n      jump\t// in\n    tag_538:\n        /* \"#utility.yul\":8395:8722   */\n      pop\n        /* \"#utility.yul\":8312:8722   */\n      swap4\n      swap3\n      pop\n      pop\n      pop\n      jump\t// out\n        /* \"#utility.yul\":8741:9079   */\n    tag_393:\n        /* \"#utility.yul\":8796:8801   */\n      0x00\n        /* \"#utility.yul\":8845:8848   */\n      dup3\n        /* \"#utility.yul\":8838:8842   */\n      0x1f\n        /* \"#utility.yul\":8830:8836   */\n      dup4\n        /* \"#utility.yul\":8826:8843   */\n      add\n        /* \"#utility.yul\":8822:8849   */\n      slt\n        /* \"#utility.yul\":8812:8934   */\n      tag_540\n      jumpi\n        /* \"#utility.yul\":8853:8932   */\n      tag_541\n      tag_386\n      jump\t// in\n    tag_541:\n        /* \"#utility.yul\":8812:8934   */\n    tag_540:\n        /* \"#utility.yul\":8970:8976   */\n      dup2\n        /* \"#utility.yul\":8957:8977   */\n      calldataload\n        /* \"#utility.yul\":8995:9073   */\n      tag_542\n        /* \"#utility.yul\":9069:9072   */\n      dup5\n        /* \"#utility.yul\":9061:9067   */\n      dup3\n        /* \"#utility.yul\":9054:9058   */\n      0x20\n        /* \"#utility.yul\":9046:9052   */\n      dup7\n        /* \"#utility.yul\":9042:9059   */\n      add\n        /* \"#utility.yul\":8995:9073   */\n      tag_392\n      jump\t// in\n    tag_542:\n        /* \"#utility.yul\":8986:9073   */\n      swap2\n      pop\n        /* \"#utility.yul\":8802:9079   */\n      pop\n        /* \"#utility.yul\":8741:9079   */\n      swap3\n      swap2\n      pop\n      pop\n      jump\t// out\n        /* \"#utility.yul\":9085:10028   */\n    tag_78:\n        /* \"#utility.yul\":9180:9186   */\n      0x00\n        /* \"#utility.yul\":9188:9194   */\n      dup1\n        /* \"#utility.yul\":9196:9202   */\n      0x00\n        /* \"#utility.yul\":9204:9210   */\n      dup1\n        /* \"#utility.yul\":9253:9256   */\n      0x80\n        /* \"#utility.yul\":9241:9250   */\n      dup6\n        /* \"#utility.yul\":9232:9239   */\n      dup8\n        /* \"#utility.yul\":9228:9251   */\n      sub\n        /* \"#utility.yul\":9224:9257   */\n      slt\n        /* \"#utility.yul\":9221:9341   */\n      iszero\n      tag_544\n      jumpi\n        /* \"#utility.yul\":9260:9339   */\n      tag_545\n      tag_363\n      jump\t// in\n    tag_545:\n        /* \"#utility.yul\":9221:9341   */\n    tag_544:\n        /* \"#utility.yul\":9380:9381   */\n      0x00\n        /* \"#utility.yul\":9405:9458   */\n      tag_546\n        /* \"#utility.yul\":9450:9457   */\n      dup8\n        /* \"#utility.yul\":9441:9447   */\n      dup3\n        /* \"#utility.yul\":9430:9439   */\n      dup9\n        /* \"#utility.yul\":9426:9448   */\n      add\n        /* \"#utility.yul\":9405:9458   */\n      tag_382\n      jump\t// in\n    tag_546:\n        /* \"#utility.yul\":9395:9458   */\n      swap5\n      pop\n        /* \"#utility.yul\":9351:9468   */\n      pop\n        /* \"#utility.yul\":9507:9509   */\n      0x20\n        /* \"#utility.yul\":9533:9586   */\n      tag_547\n        /* \"#utility.yul\":9578:9585   */\n      dup8\n        /* \"#utility.yul\":9569:9575   */\n      dup3\n        /* \"#utility.yul\":9558:9567   */\n      dup9\n        /* \"#utility.yul\":9554:9576   */\n      add\n        /* \"#utility.yul\":9533:9586   */\n      tag_382\n      jump\t// in\n    tag_547:\n        /* \"#utility.yul\":9523:9586   */\n      swap4\n      pop\n        /* \"#utility.yul\":9478:9596   */\n      pop\n        /* \"#utility.yul\":9635:9637   */\n      0x40\n        /* \"#utility.yul\":9661:9714   */\n      tag_548\n        /* \"#utility.yul\":9706:9713   */\n      dup8\n        /* \"#utility.yul\":9697:9703   */\n      dup3\n        /* \"#utility.yul\":9686:9695   */\n      dup9\n        /* \"#utility.yul\":9682:9704   */\n      add\n        /* \"#utility.yul\":9661:9714   */\n      tag_377\n      jump\t// in\n    tag_548:\n        /* \"#utility.yul\":9651:9714   */\n      swap3\n      pop\n        /* \"#utility.yul\":9606:9724   */\n      pop\n        /* \"#utility.yul\":9791:9793   */\n      0x60\n        /* \"#utility.yul\":9780:9789   */\n      dup6\n        /* \"#utility.yul\":9776:9794   */\n      add\n        /* \"#utility.yul\":9763:9795   */\n      calldataload\n        /* \"#utility.yul\":9822:9840   */\n      0xffffffffffffffff\n        /* \"#utility.yul\":9814:9820   */\n      dup2\n        /* \"#utility.yul\":9811:9841   */\n      gt\n        /* \"#utility.yul\":9808:9925   */\n      iszero\n      tag_549\n      jumpi\n        /* \"#utility.yul\":9844:9923   */\n      tag_550\n      tag_364\n      jump\t// in\n    tag_550:\n        /* \"#utility.yul\":9808:9925   */\n    tag_549:\n        /* \"#utility.yul\":9949:10011   */\n      tag_551\n        /* \"#utility.yul\":10003:10010   */\n      dup8\n        /* \"#utility.yul\":9994:10000   */\n      dup3\n        /* \"#utility.yul\":9983:9992   */\n      dup9\n        /* \"#utility.yul\":9979:10001   */\n      add\n        /* \"#utility.yul\":9949:10011   */\n      tag_393\n      jump\t// in\n    tag_551:\n        /* \"#utility.yul\":9939:10011   */\n      swap2\n      pop\n        /* \"#utility.yul\":9734:10021   */\n      pop\n        /* \"#utility.yul\":9085:10028   */\n      swap3\n      swap6\n      swap2\n      swap5\n      pop\n      swap3\n      pop\n      jump\t// out\n        /* \"#utility.yul\":10034:10508   */\n    tag_86:\n        /* \"#utility.yul\":10102:10108   */\n      0x00\n        /* \"#utility.yul\":10110:10116   */\n      dup1\n        /* \"#utility.yul\":10159:10161   */\n      0x40\n        /* \"#utility.yul\":10147:10156   */\n      dup4\n        /* \"#utility.yul\":10138:10145   */\n      dup6\n        /* \"#utility.yul\":10134:10157   */\n      sub\n        /* \"#utility.yul\":10130:10162   */\n      slt\n        /* \"#utility.yul\":10127:10246   */\n      iszero\n      tag_553\n      jumpi\n        /* \"#utility.yul\":10165:10244   */\n      tag_554\n      tag_363\n      jump\t// in\n    tag_554:\n        /* \"#utility.yul\":10127:10246   */\n    tag_553:\n        /* \"#utility.yul\":10285:10286   */\n      0x00\n        /* \"#utility.yul\":10310:10363   */\n      tag_555\n        /* \"#utility.yul\":10355:10362   */\n      dup6\n        /* \"#utility.yul\":10346:10352   */\n      dup3\n        /* \"#utility.yul\":10335:10344   */\n      dup7\n        /* \"#utility.yul\":10331:10353   */\n      add\n        /* \"#utility.yul\":10310:10363   */\n      tag_382\n      jump\t// in\n    tag_555:\n        /* \"#utility.yul\":10300:10363   */\n      swap3\n      pop\n        /* \"#utility.yul\":10256:10373   */\n      pop\n        /* \"#utility.yul\":10412:10414   */\n      0x20\n        /* \"#utility.yul\":10438:10491   */\n      tag_556\n        /* \"#utility.yul\":10483:10490   */\n      dup6\n        /* \"#utility.yul\":10474:10480   */\n      dup3\n        /* \"#utility.yul\":10463:10472   */\n      dup7\n        /* \"#utility.yul\":10459:10481   */\n      add\n        /* \"#utility.yul\":10438:10491   */\n      tag_382\n      jump\t// in\n    tag_556:\n        /* \"#utility.yul\":10428:10491   */\n      swap2\n      pop\n        /* \"#utility.yul\":10383:10501   */\n      pop\n        /* \"#utility.yul\":10034:10508   */\n      swap3\n      pop\n      swap3\n      swap1\n      pop\n      jump\t// out\n        /* \"#utility.yul\":10514:10822   */\n    tag_394:\n        /* \"#utility.yul\":10576:10580   */\n      0x00\n        /* \"#utility.yul\":10666:10684   */\n      0xffffffffffffffff\n        /* \"#utility.yul\":10658:10664   */\n      dup3\n        /* \"#utility.yul\":10655:10685   */\n      gt\n        /* \"#utility.yul\":10652:10708   */\n      iszero\n      tag_558\n      jumpi\n        /* \"#utility.yul\":10688:10706   */\n      tag_559\n      tag_323\n      jump\t// in\n    tag_559:\n        /* \"#utility.yul\":10652:10708   */\n    tag_558:\n        /* \"#utility.yul\":10726:10755   */\n      tag_560\n        /* \"#utility.yul\":10748:10754   */\n      dup3\n        /* \"#utility.yul\":10726:10755   */\n      tag_373\n      jump\t// in\n    tag_560:\n        /* \"#utility.yul\":10718:10755   */\n      swap1\n      pop\n        /* \"#utility.yul\":10810:10814   */\n      0x20\n        /* \"#utility.yul\":10804:10808   */\n      dup2\n        /* \"#utility.yul\":10800:10815   */\n      add\n        /* \"#utility.yul\":10792:10815   */\n      swap1\n      pop\n        /* \"#utility.yul\":10514:10822   */\n      swap2\n      swap1\n      pop\n      jump\t// out\n        /* \"#utility.yul\":10828:11240   */\n    tag_395:\n        /* \"#utility.yul\":10906:10911   */\n      0x00\n        /* \"#utility.yul\":10931:10997   */\n      tag_562\n        /* \"#utility.yul\":10947:10996   */\n      tag_563\n        /* \"#utility.yul\":10989:10995   */\n      dup5\n        /* \"#utility.yul\":10947:10996   */\n      tag_394\n      jump\t// in\n    tag_563:\n        /* \"#utility.yul\":10931:10997   */\n      tag_389\n      jump\t// in\n    tag_562:\n        /* \"#utility.yul\":10922:10997   */\n      swap1\n      pop\n        /* \"#utility.yul\":11020:11026   */\n      dup3\n        /* \"#utility.yul\":11013:11018   */\n      dup2\n        /* \"#utility.yul\":11006:11027   */\n      mstore\n        /* \"#utility.yul\":11058:11062   */\n      0x20\n        /* \"#utility.yul\":11051:11056   */\n      dup2\n        /* \"#utility.yul\":11047:11063   */\n      add\n        /* \"#utility.yul\":11096:11099   */\n      dup5\n        /* \"#utility.yul\":11087:11093   */\n      dup5\n        /* \"#utility.yul\":11082:11085   */\n      dup5\n        /* \"#utility.yul\":11078:11094   */\n      add\n        /* \"#utility.yul\":11075:11100   */\n      gt\n        /* \"#utility.yul\":11072:11184   */\n      iszero\n      tag_564\n      jumpi\n        /* \"#utility.yul\":11103:11182   */\n      tag_565\n      tag_387\n      jump\t// in\n    tag_565:\n        /* \"#utility.yul\":11072:11184   */\n    tag_564:\n        /* \"#utility.yul\":11193:11234   */\n      tag_566\n        /* \"#utility.yul\":11227:11233   */\n      dup5\n        /* \"#utility.yul\":11222:11225   */\n      dup3\n        /* \"#utility.yul\":11217:11220   */\n      dup6\n        /* \"#utility.yul\":11193:11234   */\n      tag_391\n      jump\t// in\n    tag_566:\n        /* \"#utility.yul\":10912:11240   */\n      pop\n        /* \"#utility.yul\":10828:11240   */\n      swap4\n      swap3\n      pop\n      pop\n      pop\n      jump\t// out\n        /* \"#utility.yul\":11260:11600   */\n    tag_396:\n        /* \"#utility.yul\":11316:11321   */\n      0x00\n        /* \"#utility.yul\":11365:11368   */\n      dup3\n        /* \"#utility.yul\":11358:11362   */\n      0x1f\n        /* \"#utility.yul\":11350:11356   */\n      dup4\n        /* \"#utility.yul\":11346:11363   */\n      add\n        /* \"#utility.yul\":11342:11369   */\n      slt\n        /* \"#utility.yul\":11332:11454   */\n      tag_568\n      jumpi\n        /* \"#utility.yul\":11373:11452   */\n      tag_569\n      tag_386\n      jump\t// in\n    tag_569:\n        /* \"#utility.yul\":11332:11454   */\n    tag_568:\n        /* \"#utility.yul\":11490:11496   */\n      dup2\n        /* \"#utility.yul\":11477:11497   */\n      calldataload\n        /* \"#utility.yul\":11515:11594   */\n      tag_570\n        /* \"#utility.yul\":11590:11593   */\n      dup5\n        /* \"#utility.yul\":11582:11588   */\n      dup3\n        /* \"#utility.yul\":11575:11579   */\n      0x20\n        /* \"#utility.yul\":11567:11573   */\n      dup7\n        /* \"#utility.yul\":11563:11580   */\n      add\n        /* \"#utility.yul\":11515:11594   */\n      tag_395\n      jump\t// in\n    tag_570:\n        /* \"#utility.yul\":11506:11594   */\n      swap2\n      pop\n        /* \"#utility.yul\":11322:11600   */\n      pop\n        /* \"#utility.yul\":11260:11600   */\n      swap3\n      swap2\n      pop\n      pop\n      jump\t// out\n        /* \"#utility.yul\":11606:12260   */\n    tag_91:\n        /* \"#utility.yul\":11684:11690   */\n      0x00\n        /* \"#utility.yul\":11692:11698   */\n      dup1\n        /* \"#utility.yul\":11741:11743   */\n      0x40\n        /* \"#utility.yul\":11729:11738   */\n      dup4\n        /* \"#utility.yul\":11720:11727   */\n      dup6\n        /* \"#utility.yul\":11716:11739   */\n      sub\n        /* \"#utility.yul\":11712:11744   */\n      slt\n        /* \"#utility.yul\":11709:11828   */\n      iszero\n      tag_572\n      jumpi\n        /* \"#utility.yul\":11747:11826   */\n      tag_573\n      tag_363\n      jump\t// in\n    tag_573:\n        /* \"#utility.yul\":11709:11828   */\n    tag_572:\n        /* \"#utility.yul\":11867:11868   */\n      0x00\n        /* \"#utility.yul\":11892:11945   */\n      tag_574\n        /* \"#utility.yul\":11937:11944   */\n      dup6\n        /* \"#utility.yul\":11928:11934   */\n      dup3\n        /* \"#utility.yul\":11917:11926   */\n      dup7\n        /* \"#utility.yul\":11913:11935   */\n      add\n        /* \"#utility.yul\":11892:11945   */\n      tag_382\n      jump\t// in\n    tag_574:\n        /* \"#utility.yul\":11882:11945   */\n      swap3\n      pop\n        /* \"#utility.yul\":11838:11955   */\n      pop\n        /* \"#utility.yul\":12022:12024   */\n      0x20\n        /* \"#utility.yul\":12011:12020   */\n      dup4\n        /* \"#utility.yul\":12007:12025   */\n      add\n        /* \"#utility.yul\":11994:12026   */\n      calldataload\n        /* \"#utility.yul\":12053:12071   */\n      0xffffffffffffffff\n        /* \"#utility.yul\":12045:12051   */\n      dup2\n        /* \"#utility.yul\":12042:12072   */\n      gt\n        /* \"#utility.yul\":12039:12156   */\n      iszero\n      tag_575\n      jumpi\n        /* \"#utility.yul\":12075:12154   */\n      tag_576\n      tag_364\n      jump\t// in\n    tag_576:\n        /* \"#utility.yul\":12039:12156   */\n    tag_575:\n        /* \"#utility.yul\":12180:12243   */\n      tag_577\n        /* \"#utility.yul\":12235:12242   */\n      dup6\n        /* \"#utility.yul\":12226:12232   */\n      dup3\n        /* \"#utility.yul\":12215:12224   */\n      dup7\n        /* \"#utility.yul\":12211:12233   */\n      add\n        /* \"#utility.yul\":12180:12243   */\n      tag_396\n      jump\t// in\n    tag_577:\n        /* \"#utility.yul\":12170:12243   */\n      swap2\n      pop\n        /* \"#utility.yul\":11965:12253   */\n      pop\n        /* \"#utility.yul\":11606:12260   */\n      swap3\n      pop\n      swap3\n      swap1\n      pop\n      jump\t// out\n        /* \"#utility.yul\":12266:12446   */\n    tag_397:\n        /* \"#utility.yul\":12314:12391   */\n      0x4e487b7100000000000000000000000000000000000000000000000000000000\n        /* \"#utility.yul\":12311:12312   */\n      0x00\n        /* \"#utility.yul\":12304:12392   */\n      mstore\n        /* \"#utility.yul\":12411:12415   */\n      0x22\n        /* \"#utility.yul\":12408:12409   */\n      0x04\n        /* \"#utility.yul\":12401:12416   */\n      mstore\n        /* \"#utility.yul\":12435:12439   */\n      0x24\n        /* \"#utility.yul\":12432:12433   */\n      0x00\n        /* \"#utility.yul\":12425:12440   */\n      revert\n        /* \"#utility.yul\":12452:12772   */\n    tag_104:\n        /* \"#utility.yul\":12496:12502   */\n      0x00\n        /* \"#utility.yul\":12533:12534   */\n      0x02\n        /* \"#utility.yul\":12527:12531   */\n      dup3\n        /* \"#utility.yul\":12523:12535   */\n      div\n        /* \"#utility.yul\":12513:12535   */\n      swap1\n      pop\n        /* \"#utility.yul\":12580:12581   */\n      0x01\n        /* \"#utility.yul\":12574:12578   */\n      dup3\n        /* \"#utility.yul\":12570:12582   */\n      and\n        /* \"#utility.yul\":12601:12619   */\n      dup1\n        /* \"#utility.yul\":12591:12672   */\n      tag_580\n      jumpi\n        /* \"#utility.yul\":12657:12661   */\n      0x7f\n        /* \"#utility.yul\":12649:12655   */\n      dup3\n        /* \"#utility.yul\":12645:12662   */\n      and\n        /* \"#utility.yul\":12635:12662   */\n      swap2\n      pop\n        /* \"#utility.yul\":12591:12672   */\n    tag_580:\n        /* \"#utility.yul\":12719:12721   */\n      0x20\n        /* \"#utility.yul\":12711:12717   */\n      dup3\n        /* \"#utility.yul\":12708:12722   */\n      lt\n        /* \"#utility.yul\":12688:12706   */\n      dup2\n        /* \"#utility.yul\":12685:12723   */\n      eq\n        /* \"#utility.yul\":12682:12766   */\n      iszero\n      tag_581\n      jumpi\n        /* \"#utility.yul\":12738:12756   */\n      tag_582\n      tag_397\n      jump\t// in\n    tag_582:\n        /* \"#utility.yul\":12682:12766   */\n    tag_581:\n        /* \"#utility.yul\":12503:12772   */\n      pop\n        /* \"#utility.yul\":12452:12772   */\n      swap2\n      swap1\n      pop\n      jump\t// out\n        /* \"#utility.yul\":12778:12998   */\n    tag_398:\n        /* \"#utility.yul\":12918:12952   */\n      0x4552433732313a20617070726f76616c20746f2063757272656e74206f776e65\n        /* \"#utility.yul\":12914:12915   */\n      0x00\n        /* \"#utility.yul\":12906:12912   */\n      dup3\n        /* \"#utility.yul\":12902:12916   */\n      add\n        /* \"#utility.yul\":12895:12953   */\n      mstore\n        /* \"#utility.yul\":12987:12990   */\n      0x7200000000000000000000000000000000000000000000000000000000000000\n        /* \"#utility.yul\":12982:12984   */\n      0x20\n        /* \"#utility.yul\":12974:12980   */\n      dup3\n        /* \"#utility.yul\":12970:12985   */\n      add\n        /* \"#utility.yul\":12963:12991   */\n      mstore\n        /* \"#utility.yul\":12778:12998   */\n      pop\n      jump\t// out\n        /* \"#utility.yul\":13004:13370   */\n    tag_399:\n        /* \"#utility.yul\":13146:13149   */\n      0x00\n        /* \"#utility.yul\":13167:13234   */\n      tag_585\n        /* \"#utility.yul\":13231:13233   */\n      0x21\n        /* \"#utility.yul\":13226:13229   */\n      dup4\n        /* \"#utility.yul\":13167:13234   */\n      tag_371\n      jump\t// in\n    tag_585:\n        /* \"#utility.yul\":13160:13234   */\n      swap2\n      pop\n        /* \"#utility.yul\":13243:13336   */\n      tag_586\n        /* \"#utility.yul\":13332:13335   */\n      dup3\n        /* \"#utility.yul\":13243:13336   */\n      tag_398\n      jump\t// in\n    tag_586:\n        /* \"#utility.yul\":13361:13363   */\n      0x40\n        /* \"#utility.yul\":13356:13359   */\n      dup3\n        /* \"#utility.yul\":13352:13364   */\n      add\n        /* \"#utility.yul\":13345:13364   */\n      swap1\n      pop\n        /* \"#utility.yul\":13004:13370   */\n      swap2\n      swap1\n      pop\n      jump\t// out\n        /* \"#utility.yul\":13376:13795   */\n    tag_116:\n        /* \"#utility.yul\":13542:13546   */\n      0x00\n        /* \"#utility.yul\":13580:13582   */\n      0x20\n        /* \"#utility.yul\":13569:13578   */\n      dup3\n        /* \"#utility.yul\":13565:13583   */\n      add\n        /* \"#utility.yul\":13557:13583   */\n      swap1\n      pop\n        /* \"#utility.yul\":13629:13638   */\n      dup2\n        /* \"#utility.yul\":13623:13627   */\n      dup2\n        /* \"#utility.yul\":13619:13639   */\n      sub\n        /* \"#utility.yul\":13615:13616   */\n      0x00\n        /* \"#utility.yul\":13604:13613   */\n      dup4\n        /* \"#utility.yul\":13600:13617   */\n      add\n        /* \"#utility.yul\":13593:13640   */\n      mstore\n        /* \"#utility.yul\":13657:13788   */\n      tag_588\n        /* \"#utility.yul\":13783:13787   */\n      dup2\n        /* \"#utility.yul\":13657:13788   */\n      tag_399\n      jump\t// in\n    tag_588:\n        /* \"#utility.yul\":13649:13788   */\n      swap1\n      pop\n        /* \"#utility.yul\":13376:13795   */\n      swap2\n      swap1\n      pop\n      jump\t// out\n        /* \"#utility.yul\":13801:14049   */\n    tag_400:\n        /* \"#utility.yul\":13941:13975   */\n      0x4552433732313a20617070726f76652063616c6c6572206973206e6f7420746f\n        /* \"#utility.yul\":13937:13938   */\n      0x00\n        /* \"#utility.yul\":13929:13935   */\n      dup3\n        /* \"#utility.yul\":13925:13939   */\n      add\n        /* \"#utility.yul\":13918:13976   */\n      mstore\n        /* \"#utility.yul\":14010:14041   */\n      0x6b656e206f776e6572206f7220617070726f76656420666f7220616c6c000000\n        /* \"#utility.yul\":14005:14007   */\n      0x20\n        /* \"#utility.yul\":13997:14003   */\n      dup3\n        /* \"#utility.yul\":13993:14008   */\n      add\n        /* \"#utility.yul\":13986:14042   */\n      mstore\n        /* \"#utility.yul\":13801:14049   */\n      pop\n      jump\t// out\n        /* \"#utility.yul\":14055:14421   */\n    tag_401:\n        /* \"#utility.yul\":14197:14200   */\n      0x00\n        /* \"#utility.yul\":14218:14285   */\n      tag_591\n        /* \"#utility.yul\":14282:14284   */\n      0x3d\n        /* \"#utility.yul\":14277:14280   */\n      dup4\n        /* \"#utility.yul\":14218:14285   */\n      tag_371\n      jump\t// in\n    tag_591:\n        /* \"#utility.yul\":14211:14285   */\n      swap2\n      pop\n        /* \"#utility.yul\":14294:14387   */\n      tag_592\n        /* \"#utility.yul\":14383:14386   */\n      dup3\n        /* \"#utility.yul\":14294:14387   */\n      tag_400\n      jump\t// in\n    tag_592:\n        /* \"#utility.yul\":14412:14414   */\n      0x40\n        /* \"#utility.yul\":14407:14410   */\n      dup3\n        /* \"#utility.yul\":14403:14415   */\n      add\n        /* \"#utility.yul\":14396:14415   */\n      swap1\n      pop\n        /* \"#utility.yul\":14055:14421   */\n      swap2\n      swap1\n      pop\n      jump\t// out\n        /* \"#utility.yul\":14427:14846   */\n    tag_124:\n        /* \"#utility.yul\":14593:14597   */\n      0x00\n        /* \"#utility.yul\":14631:14633   */\n      0x20\n        /* \"#utility.yul\":14620:14629   */\n      dup3\n        /* \"#utility.yul\":14616:14634   */\n      add\n        /* \"#utility.yul\":14608:14634   */\n      swap1\n      pop\n        /* \"#utility.yul\":14680:14689   */\n      dup2\n        /* \"#utility.yul\":14674:14678   */\n      dup2\n        /* \"#utility.yul\":14670:14690   */\n      sub\n        /* \"#utility.yul\":14666:14667   */\n      0x00\n        /* \"#utility.yul\":14655:14664   */\n      dup4\n        /* \"#utility.yul\":14651:14668   */\n      add\n        /* \"#utility.yul\":14644:14691   */\n      mstore\n        /* \"#utility.yul\":14708:14839   */\n      tag_594\n        /* \"#utility.yul\":14834:14838   */\n      dup2\n        /* \"#utility.yul\":14708:14839   */\n      tag_401\n      jump\t// in\n    tag_594:\n        /* \"#utility.yul\":14700:14839   */\n      swap1\n      pop\n        /* \"#utility.yul\":14427:14846   */\n      swap2\n      swap1\n      pop\n      jump\t// out\n        /* \"#utility.yul\":14852:15084   */\n    tag_402:\n        /* \"#utility.yul\":14992:15026   */\n      0x4552433732313a2063616c6c6572206973206e6f7420746f6b656e206f776e65\n        /* \"#utility.yul\":14988:14989   */\n      0x00\n        /* \"#utility.yul\":14980:14986   */\n      dup3\n        /* \"#utility.yul\":14976:14990   */\n      add\n        /* \"#utility.yul\":14969:15027   */\n      mstore\n        /* \"#utility.yul\":15061:15076   */\n      0x72206f7220617070726f76656400000000000000000000000000000000000000\n        /* \"#utility.yul\":15056:15058   */\n      0x20\n        /* \"#utility.yul\":15048:15054   */\n      dup3\n        /* \"#utility.yul\":15044:15059   */\n      add\n        /* \"#utility.yul\":15037:15077   */\n      mstore\n        /* \"#utility.yul\":14852:15084   */\n      pop\n      jump\t// out\n        /* \"#utility.yul\":15090:15456   */\n    tag_403:\n        /* \"#utility.yul\":15232:15235   */\n      0x00\n        /* \"#utility.yul\":15253:15320   */\n      tag_597\n        /* \"#utility.yul\":15317:15319   */\n      0x2d\n        /* \"#utility.yul\":15312:15315   */\n      dup4\n        /* \"#utility.yul\":15253:15320   */\n      tag_371\n      jump\t// in\n    tag_597:\n        /* \"#utility.yul\":15246:15320   */\n      swap2\n      pop\n        /* \"#utility.yul\":15329:15422   */\n      tag_598\n        /* \"#utility.yul\":15418:15421   */\n      dup3\n        /* \"#utility.yul\":15329:15422   */\n      tag_402\n      jump\t// in\n    tag_598:\n        /* \"#utility.yul\":15447:15449   */\n      0x40\n        /* \"#utility.yul\":15442:15445   */\n      dup3\n        /* \"#utility.yul\":15438:15450   */\n      add\n        /* \"#utility.yul\":15431:15450   */\n      swap1\n      pop\n        /* \"#utility.yul\":15090:15456   */\n      swap2\n      swap1\n      pop\n      jump\t// out\n        /* \"#utility.yul\":15462:15881   */\n    tag_133:\n        /* \"#utility.yul\":15628:15632   */\n      0x00\n        /* \"#utility.yul\":15666:15668   */\n      0x20\n        /* \"#utility.yul\":15655:15664   */\n      dup3\n        /* \"#utility.yul\":15651:15669   */\n      add\n        /* \"#utility.yul\":15643:15669   */\n      swap1\n      pop\n        /* \"#utility.yul\":15715:15724   */\n      dup2\n        /* \"#utility.yul\":15709:15713   */\n      dup2\n        /* \"#utility.yul\":15705:15725   */\n      sub\n        /* \"#utility.yul\":15701:15702   */\n      0x00\n        /* \"#utility.yul\":15690:15699   */\n      dup4\n        /* \"#utility.yul\":15686:15703   */\n      add\n        /* \"#utility.yul\":15679:15726   */\n      mstore\n        /* \"#utility.yul\":15743:15874   */\n      tag_600\n        /* \"#utility.yul\":15869:15873   */\n      dup2\n        /* \"#utility.yul\":15743:15874   */\n      tag_403\n      jump\t// in\n    tag_600:\n        /* \"#utility.yul\":15735:15874   */\n      swap1\n      pop\n        /* \"#utility.yul\":15462:15881   */\n      swap2\n      swap1\n      pop\n      jump\t// out\n        /* \"#utility.yul\":15887:16061   */\n    tag_404:\n        /* \"#utility.yul\":16027:16053   */\n      0x4552433732313a20696e76616c696420746f6b656e2049440000000000000000\n        /* \"#utility.yul\":16023:16024   */\n      0x00\n        /* \"#utility.yul\":16015:16021   */\n      dup3\n        /* \"#utility.yul\":16011:16025   */\n      add\n        /* \"#utility.yul\":16004:16054   */\n      mstore\n        /* \"#utility.yul\":15887:16061   */\n      pop\n      jump\t// out\n        /* \"#utility.yul\":16067:16433   */\n    tag_405:\n        /* \"#utility.yul\":16209:16212   */\n      0x00\n        /* \"#utility.yul\":16230:16297   */\n      tag_603\n        /* \"#utility.yul\":16294:16296   */\n      0x18\n        /* \"#utility.yul\":16289:16292   */\n      dup4\n        /* \"#utility.yul\":16230:16297   */\n      tag_371\n      jump\t// in\n    tag_603:\n        /* \"#utility.yul\":16223:16297   */\n      swap2\n      pop\n        /* \"#utility.yul\":16306:16399   */\n      tag_604\n        /* \"#utility.yul\":16395:16398   */\n      dup3\n        /* \"#utility.yul\":16306:16399   */\n      tag_404\n      jump\t// in\n    tag_604:\n        /* \"#utility.yul\":16424:16426   */\n      0x20\n        /* \"#utility.yul\":16419:16422   */\n      dup3\n        /* \"#utility.yul\":16415:16427   */\n      add\n        /* \"#utility.yul\":16408:16427   */\n      swap1\n      pop\n        /* \"#utility.yul\":16067:16433   */\n      swap2\n      swap1\n      pop\n      jump\t// out\n        /* \"#utility.yul\":16439:16858   */\n    tag_143:\n        /* \"#utility.yul\":16605:16609   */\n      0x00\n        /* \"#utility.yul\":16643:16645   */\n      0x20\n        /* \"#utility.yul\":16632:16641   */\n      dup3\n        /* \"#utility.yul\":16628:16646   */\n      add\n        /* \"#utility.yul\":16620:16646   */\n      swap1\n      pop\n        /* \"#utility.yul\":16692:16701   */\n      dup2\n        /* \"#utility.yul\":16686:16690   */\n      dup2\n        /* \"#utility.yul\":16682:16702   */\n      sub\n        /* \"#utility.yul\":16678:16679   */\n      0x00\n        /* \"#utility.yul\":16667:16676   */\n      dup4\n        /* \"#utility.yul\":16663:16680   */\n      add\n        /* \"#utility.yul\":16656:16703   */\n      mstore\n        /* \"#utility.yul\":16720:16851   */\n      tag_606\n        /* \"#utility.yul\":16846:16850   */\n      dup2\n        /* \"#utility.yul\":16720:16851   */\n      tag_405\n      jump\t// in\n    tag_606:\n        /* \"#utility.yul\":16712:16851   */\n      swap1\n      pop\n        /* \"#utility.yul\":16439:16858   */\n      swap2\n      swap1\n      pop\n      jump\t// out\n        /* \"#utility.yul\":16864:17092   */\n    tag_406:\n        /* \"#utility.yul\":17004:17038   */\n      0x4552433732313a2061646472657373207a65726f206973206e6f742061207661\n        /* \"#utility.yul\":17000:17001   */\n      0x00\n        /* \"#utility.yul\":16992:16998   */\n      dup3\n        /* \"#utility.yul\":16988:17002   */\n      add\n        /* \"#utility.yul\":16981:17039   */\n      mstore\n        /* \"#utility.yul\":17073:17084   */\n      0x6c6964206f776e65720000000000000000000000000000000000000000000000\n        /* \"#utility.yul\":17068:17070   */\n      0x20\n        /* \"#utility.yul\":17060:17066   */\n      dup3\n        /* \"#utility.yul\":17056:17071   */\n      add\n        /* \"#utility.yul\":17049:17085   */\n      mstore\n        /* \"#utility.yul\":16864:17092   */\n      pop\n      jump\t// out\n        /* \"#utility.yul\":17098:17464   */\n    tag_407:\n        /* \"#utility.yul\":17240:17243   */\n      0x00\n        /* \"#utility.yul\":17261:17328   */\n      tag_609\n        /* \"#utility.yul\":17325:17327   */\n      0x29\n        /* \"#utility.yul\":17320:17323   */\n      dup4\n        /* \"#utility.yul\":17261:17328   */\n      tag_371\n      jump\t// in\n    tag_609:\n        /* \"#utility.yul\":17254:17328   */\n      swap2\n      pop\n        /* \"#utility.yul\":17337:17430   */\n      tag_610\n        /* \"#utility.yul\":17426:17429   */\n      dup3\n        /* \"#utility.yul\":17337:17430   */\n      tag_406\n      jump\t// in\n    tag_610:\n        /* \"#utility.yul\":17455:17457   */\n      0x40\n        /* \"#utility.yul\":17450:17453   */\n      dup3\n        /* \"#utility.yul\":17446:17458   */\n      add\n        /* \"#utility.yul\":17439:17458   */\n      swap1\n      pop\n        /* \"#utility.yul\":17098:17464   */\n      swap2\n      swap1\n      pop\n      jump\t// out\n        /* \"#utility.yul\":17470:17889   */\n    tag_147:\n        /* \"#utility.yul\":17636:17640   */\n      0x00\n        /* \"#utility.yul\":17674:17676   */\n      0x20\n        /* \"#utility.yul\":17663:17672   */\n      dup3\n        /* \"#utility.yul\":17659:17677   */\n      add\n        /* \"#utility.yul\":17651:17677   */\n      swap1\n      pop\n        /* \"#utility.yul\":17723:17732   */\n      dup2\n        /* \"#utility.yul\":17717:17721   */\n      dup2\n        /* \"#utility.yul\":17713:17733   */\n      sub\n        /* \"#utility.yul\":17709:17710   */\n      0x00\n        /* \"#utility.yul\":17698:17707   */\n      dup4\n        /* \"#utility.yul\":17694:17711   */\n      add\n        /* \"#utility.yul\":17687:17734   */\n      mstore\n        /* \"#utility.yul\":17751:17882   */\n      tag_612\n        /* \"#utility.yul\":17877:17881   */\n      dup2\n        /* \"#utility.yul\":17751:17882   */\n      tag_407\n      jump\t// in\n    tag_612:\n        /* \"#utility.yul\":17743:17882   */\n      swap1\n      pop\n        /* \"#utility.yul\":17470:17889   */\n      swap2\n      swap1\n      pop\n      jump\t// out\n        /* \"#utility.yul\":17895:18043   */\n    tag_408:\n        /* \"#utility.yul\":17997:18008   */\n      0x00\n        /* \"#utility.yul\":18034:18037   */\n      dup2\n        /* \"#utility.yul\":18019:18037   */\n      swap1\n      pop\n        /* \"#utility.yul\":17895:18043   */\n      swap3\n      swap2\n      pop\n      pop\n      jump\t// out\n        /* \"#utility.yul\":18049:18426   */\n    tag_409:\n        /* \"#utility.yul\":18155:18158   */\n      0x00\n        /* \"#utility.yul\":18183:18222   */\n      tag_615\n        /* \"#utility.yul\":18216:18221   */\n      dup3\n        /* \"#utility.yul\":18183:18222   */\n      tag_370\n      jump\t// in\n    tag_615:\n        /* \"#utility.yul\":18238:18327   */\n      tag_616\n        /* \"#utility.yul\":18320:18326   */\n      dup2\n        /* \"#utility.yul\":18315:18318   */\n      dup6\n        /* \"#utility.yul\":18238:18327   */\n      tag_408\n      jump\t// in\n    tag_616:\n        /* \"#utility.yul\":18231:18327   */\n      swap4\n      pop\n        /* \"#utility.yul\":18336:18388   */\n      tag_617\n        /* \"#utility.yul\":18381:18387   */\n      dup2\n        /* \"#utility.yul\":18376:18379   */\n      dup6\n        /* \"#utility.yul\":18369:18373   */\n      0x20\n        /* \"#utility.yul\":18362:18367   */\n      dup7\n        /* \"#utility.yul\":18358:18374   */\n      add\n        /* \"#utility.yul\":18336:18388   */\n      tag_372\n      jump\t// in\n    tag_617:\n        /* \"#utility.yul\":18413:18419   */\n      dup1\n        /* \"#utility.yul\":18408:18411   */\n      dup5\n        /* \"#utility.yul\":18404:18420   */\n      add\n        /* \"#utility.yul\":18397:18420   */\n      swap2\n      pop\n        /* \"#utility.yul\":18159:18426   */\n      pop\n        /* \"#utility.yul\":18049:18426   */\n      swap3\n      swap2\n      pop\n      pop\n      jump\t// out\n        /* \"#utility.yul\":18432:18867   */\n    tag_184:\n        /* \"#utility.yul\":18612:18615   */\n      0x00\n        /* \"#utility.yul\":18634:18729   */\n      tag_619\n        /* \"#utility.yul\":18725:18728   */\n      dup3\n        /* \"#utility.yul\":18716:18722   */\n      dup6\n        /* \"#utility.yul\":18634:18729   */\n      tag_409\n      jump\t// in\n    tag_619:\n        /* \"#utility.yul\":18627:18729   */\n      swap2\n      pop\n        /* \"#utility.yul\":18746:18841   */\n      tag_620\n        /* \"#utility.yul\":18837:18840   */\n      dup3\n        /* \"#utility.yul\":18828:18834   */\n      dup5\n        /* \"#utility.yul\":18746:18841   */\n      tag_409\n      jump\t// in\n    tag_620:\n        /* \"#utility.yul\":18739:18841   */\n      swap2\n      pop\n        /* \"#utility.yul\":18858:18861   */\n      dup2\n        /* \"#utility.yul\":18851:18861   */\n      swap1\n      pop\n        /* \"#utility.yul\":18432:18867   */\n      swap4\n      swap3\n      pop\n      pop\n      pop\n      jump\t// out\n        /* \"#utility.yul\":18873:19098   */\n    tag_410:\n        /* \"#utility.yul\":19013:19047   */\n      0x4f776e61626c653a206e6577206f776e657220697320746865207a65726f2061\n        /* \"#utility.yul\":19009:19010   */\n      0x00\n        /* \"#utility.yul\":19001:19007   */\n      dup3\n        /* \"#utility.yul\":18997:19011   */\n      add\n        /* \"#utility.yul\":18990:19048   */\n      mstore\n        /* \"#utility.yul\":19082:19090   */\n      0x6464726573730000000000000000000000000000000000000000000000000000\n        /* \"#utility.yul\":19077:19079   */\n      0x20\n        /* \"#utility.yul\":19069:19075   */\n      dup3\n        /* \"#utility.yul\":19065:19080   */\n      add\n        /* \"#utility.yul\":19058:19091   */\n      mstore\n        /* \"#utility.yul\":18873:19098   */\n      pop\n      jump\t// out\n        /* \"#utility.yul\":19104:19470   */\n    tag_411:\n        /* \"#utility.yul\":19246:19249   */\n      0x00\n        /* \"#utility.yul\":19267:19334   */\n      tag_623\n        /* \"#utility.yul\":19331:19333   */\n      0x26\n        /* \"#utility.yul\":19326:19329   */\n      dup4\n        /* \"#utility.yul\":19267:19334   */\n      tag_371\n      jump\t// in\n    tag_623:\n        /* \"#utility.yul\":19260:19334   */\n      swap2\n      pop\n        /* \"#utility.yul\":19343:19436   */\n      tag_624\n        /* \"#utility.yul\":19432:19435   */\n      dup3\n        /* \"#utility.yul\":19343:19436   */\n      tag_410\n      jump\t// in\n    tag_624:\n        /* \"#utility.yul\":19461:19463   */\n      0x40\n        /* \"#utility.yul\":19456:19459   */\n      dup3\n        /* \"#utility.yul\":19452:19464   */\n      add\n        /* \"#utility.yul\":19445:19464   */\n      swap1\n      pop\n        /* \"#utility.yul\":19104:19470   */\n      swap2\n      swap1\n      pop\n      jump\t// out\n        /* \"#utility.yul\":19476:19895   */\n    tag_202:\n        /* \"#utility.yul\":19642:19646   */\n      0x00\n        /* \"#utility.yul\":19680:19682   */\n      0x20\n        /* \"#utility.yul\":19669:19678   */\n      dup3\n        /* \"#utility.yul\":19665:19683   */\n      add\n        /* \"#utility.yul\":19657:19683   */\n      swap1\n      pop\n        /* \"#utility.yul\":19729:19738   */\n      dup2\n        /* \"#utility.yul\":19723:19727   */\n      dup2\n        /* \"#utility.yul\":19719:19739   */\n      sub\n        /* \"#utility.yul\":19715:19716   */\n      0x00\n        /* \"#utility.yul\":19704:19713   */\n      dup4\n        /* \"#utility.yul\":19700:19717   */\n      add\n        /* \"#utility.yul\":19693:19740   */\n      mstore\n        /* \"#utility.yul\":19757:19888   */\n      tag_626\n        /* \"#utility.yul\":19883:19887   */\n      dup2\n        /* \"#utility.yul\":19757:19888   */\n      tag_411\n      jump\t// in\n    tag_626:\n        /* \"#utility.yul\":19749:19888   */\n      swap1\n      pop\n        /* \"#utility.yul\":19476:19895   */\n      swap2\n      swap1\n      pop\n      jump\t// out\n        /* \"#utility.yul\":19901:20125   */\n    tag_412:\n        /* \"#utility.yul\":20041:20075   */\n      0x4552433732313a207472616e736665722066726f6d20696e636f727265637420\n        /* \"#utility.yul\":20037:20038   */\n      0x00\n        /* \"#utility.yul\":20029:20035   */\n      dup3\n        /* \"#utility.yul\":20025:20039   */\n      add\n        /* \"#utility.yul\":20018:20076   */\n      mstore\n        /* \"#utility.yul\":20110:20117   */\n      0x6f776e6572000000000000000000000000000000000000000000000000000000\n        /* \"#utility.yul\":20105:20107   */\n      0x20\n        /* \"#utility.yul\":20097:20103   */\n      dup3\n        /* \"#utility.yul\":20093:20108   */\n      add\n        /* \"#utility.yul\":20086:20118   */\n      mstore\n        /* \"#utility.yul\":19901:20125   */\n      pop\n      jump\t// out\n        /* \"#utility.yul\":20131:20497   */\n    tag_413:\n        /* \"#utility.yul\":20273:20276   */\n      0x00\n        /* \"#utility.yul\":20294:20361   */\n      tag_629\n        /* \"#utility.yul\":20358:20360   */\n      0x25\n        /* \"#utility.yul\":20353:20356   */\n      dup4\n        /* \"#utility.yul\":20294:20361   */\n      tag_371\n      jump\t// in\n    tag_629:\n        /* \"#utility.yul\":20287:20361   */\n      swap2\n      pop\n        /* \"#utility.yul\":20370:20463   */\n      tag_630\n        /* \"#utility.yul\":20459:20462   */\n      dup3\n        /* \"#utility.yul\":20370:20463   */\n      tag_412\n      jump\t// in\n    tag_630:\n        /* \"#utility.yul\":20488:20490   */\n      0x40\n        /* \"#utility.yul\":20483:20486   */\n      dup3\n        /* \"#utility.yul\":20479:20491   */\n      add\n        /* \"#utility.yul\":20472:20491   */\n      swap1\n      pop\n        /* \"#utility.yul\":20131:20497   */\n      swap2\n      swap1\n      pop\n      jump\t// out\n        /* \"#utility.yul\":20503:20922   */\n    tag_223:\n        /* \"#utility.yul\":20669:20673   */\n      0x00\n        /* \"#utility.yul\":20707:20709   */\n      0x20\n        /* \"#utility.yul\":20696:20705   */\n      dup3\n        /* \"#utility.yul\":20692:20710   */\n      add\n        /* \"#utility.yul\":20684:20710   */\n      swap1\n      pop\n        /* \"#utility.yul\":20756:20765   */\n      dup2\n        /* \"#utility.yul\":20750:20754   */\n      dup2\n        /* \"#utility.yul\":20746:20766   */\n      sub\n        /* \"#utility.yul\":20742:20743   */\n      0x00\n        /* \"#utility.yul\":20731:20740   */\n      dup4\n        /* \"#utility.yul\":20727:20744   */\n      add\n        /* \"#utility.yul\":20720:20767   */\n      mstore\n        /* \"#utility.yul\":20784:20915   */\n      tag_632\n        /* \"#utility.yul\":20910:20914   */\n      dup2\n        /* \"#utility.yul\":20784:20915   */\n      tag_413\n      jump\t// in\n    tag_632:\n        /* \"#utility.yul\":20776:20915   */\n      swap1\n      pop\n        /* \"#utility.yul\":20503:20922   */\n      swap2\n      swap1\n      pop\n      jump\t// out\n        /* \"#utility.yul\":20928:21151   */\n    tag_414:\n        /* \"#utility.yul\":21068:21102   */\n      0x4552433732313a207472616e7366657220746f20746865207a65726f20616464\n        /* \"#utility.yul\":21064:21065   */\n      0x00\n        /* \"#utility.yul\":21056:21062   */\n      dup3\n        /* \"#utility.yul\":21052:21066   */\n      add\n        /* \"#utility.yul\":21045:21103   */\n      mstore\n        /* \"#utility.yul\":21137:21143   */\n      0x7265737300000000000000000000000000000000000000000000000000000000\n        /* \"#utility.yul\":21132:21134   */\n      0x20\n        /* \"#utility.yul\":21124:21130   */\n      dup3\n        /* \"#utility.yul\":21120:21135   */\n      add\n        /* \"#utility.yul\":21113:21144   */\n      mstore\n        /* \"#utility.yul\":20928:21151   */\n      pop\n      jump\t// out\n        /* \"#utility.yul\":21157:21523   */\n    tag_415:\n        /* \"#utility.yul\":21299:21302   */\n      0x00\n        /* \"#utility.yul\":21320:21387   */\n      tag_635\n        /* \"#utility.yul\":21384:21386   */\n      0x24\n        /* \"#utility.yul\":21379:21382   */\n      dup4\n        /* \"#utility.yul\":21320:21387   */\n      tag_371\n      jump\t// in\n    tag_635:\n        /* \"#utility.yul\":21313:21387   */\n      swap2\n      pop\n        /* \"#utility.yul\":21396:21489   */\n      tag_636\n        /* \"#utility.yul\":21485:21488   */\n      dup3\n        /* \"#utility.yul\":21396:21489   */\n      tag_414\n      jump\t// in\n    tag_636:\n        /* \"#utility.yul\":21514:21516   */\n      0x40\n        /* \"#utility.yul\":21509:21512   */\n      dup3\n        /* \"#utility.yul\":21505:21517   */\n      add\n        /* \"#utility.yul\":21498:21517   */\n      swap1\n      pop\n        /* \"#utility.yul\":21157:21523   */\n      swap2\n      swap1\n      pop\n      jump\t// out\n        /* \"#utility.yul\":21529:21948   */\n    tag_226:\n        /* \"#utility.yul\":21695:21699   */\n      0x00\n        /* \"#utility.yul\":21733:21735   */\n      0x20\n        /* \"#utility.yul\":21722:21731   */\n      dup3\n        /* \"#utility.yul\":21718:21736   */\n      add\n        /* \"#utility.yul\":21710:21736   */\n      swap1\n      pop\n        /* \"#utility.yul\":21782:21791   */\n      dup2\n        /* \"#utility.yul\":21776:21780   */\n      dup2\n        /* \"#utility.yul\":21772:21792   */\n      sub\n        /* \"#utility.yul\":21768:21769   */\n      0x00\n        /* \"#utility.yul\":21757:21766   */\n      dup4\n        /* \"#utility.yul\":21753:21770   */\n      add\n        /* \"#utility.yul\":21746:21793   */\n      mstore\n        /* \"#utility.yul\":21810:21941   */\n      tag_638\n        /* \"#utility.yul\":21936:21940   */\n      dup2\n        /* \"#utility.yul\":21810:21941   */\n      tag_415\n      jump\t// in\n    tag_638:\n        /* \"#utility.yul\":21802:21941   */\n      swap1\n      pop\n        /* \"#utility.yul\":21529:21948   */\n      swap2\n      swap1\n      pop\n      jump\t// out\n        /* \"#utility.yul\":21954:22136   */\n    tag_416:\n        /* \"#utility.yul\":22094:22128   */\n      0x4f776e61626c653a2063616c6c6572206973206e6f7420746865206f776e6572\n        /* \"#utility.yul\":22090:22091   */\n      0x00\n        /* \"#utility.yul\":22082:22088   */\n      dup3\n        /* \"#utility.yul\":22078:22092   */\n      add\n        /* \"#utility.yul\":22071:22129   */\n      mstore\n        /* \"#utility.yul\":21954:22136   */\n      pop\n      jump\t// out\n        /* \"#utility.yul\":22142:22508   */\n    tag_417:\n        /* \"#utility.yul\":22284:22287   */\n      0x00\n        /* \"#utility.yul\":22305:22372   */\n      tag_641\n        /* \"#utility.yul\":22369:22371   */\n      0x20\n        /* \"#utility.yul\":22364:22367   */\n      dup4\n        /* \"#utility.yul\":22305:22372   */\n      tag_371\n      jump\t// in\n    tag_641:\n        /* \"#utility.yul\":22298:22372   */\n      swap2\n      pop\n        /* \"#utility.yul\":22381:22474   */\n      tag_642\n        /* \"#utility.yul\":22470:22473   */\n      dup3\n        /* \"#utility.yul\":22381:22474   */\n      tag_416\n      jump\t// in\n    tag_642:\n        /* \"#utility.yul\":22499:22501   */\n      0x20\n        /* \"#utility.yul\":22494:22497   */\n      dup3\n        /* \"#utility.yul\":22490:22502   */\n      add\n        /* \"#utility.yul\":22483:22502   */\n      swap1\n      pop\n        /* \"#utility.yul\":22142:22508   */\n      swap2\n      swap1\n      pop\n      jump\t// out\n        /* \"#utility.yul\":22514:22933   */\n    tag_240:\n        /* \"#utility.yul\":22680:22684   */\n      0x00\n        /* \"#utility.yul\":22718:22720   */\n      0x20\n        /* \"#utility.yul\":22707:22716   */\n      dup3\n        /* \"#utility.yul\":22703:22721   */\n      add\n        /* \"#utility.yul\":22695:22721   */\n      swap1\n      pop\n        /* \"#utility.yul\":22767:22776   */\n      dup2\n        /* \"#utility.yul\":22761:22765   */\n      dup2\n        /* \"#utility.yul\":22757:22777   */\n      sub\n        /* \"#utility.yul\":22753:22754   */\n      0x00\n        /* \"#utility.yul\":22742:22751   */\n      dup4\n        /* \"#utility.yul\":22738:22755   */\n      add\n        /* \"#utility.yul\":22731:22778   */\n      mstore\n        /* \"#utility.yul\":22795:22926   */\n      tag_644\n        /* \"#utility.yul\":22921:22925   */\n      dup2\n        /* \"#utility.yul\":22795:22926   */\n      tag_417\n      jump\t// in\n    tag_644:\n        /* \"#utility.yul\":22787:22926   */\n      swap1\n      pop\n        /* \"#utility.yul\":22514:22933   */\n      swap2\n      swap1\n      pop\n      jump\t// out\n        /* \"#utility.yul\":22939:23114   */\n    tag_418:\n        /* \"#utility.yul\":23079:23106   */\n      0x4552433732313a20617070726f766520746f2063616c6c657200000000000000\n        /* \"#utility.yul\":23075:23076   */\n      0x00\n        /* \"#utility.yul\":23067:23073   */\n      dup3\n        /* \"#utility.yul\":23063:23077   */\n      add\n        /* \"#utility.yul\":23056:23107   */\n      mstore\n        /* \"#utility.yul\":22939:23114   */\n      pop\n      jump\t// out\n        /* \"#utility.yul\":23120:23486   */\n    tag_419:\n        /* \"#utility.yul\":23262:23265   */\n      0x00\n        /* \"#utility.yul\":23283:23350   */\n      tag_647\n        /* \"#utility.yul\":23347:23349   */\n      0x19\n        /* \"#utility.yul\":23342:23345   */\n      dup4\n        /* \"#utility.yul\":23283:23350   */\n      tag_371\n      jump\t// in\n    tag_647:\n        /* \"#utility.yul\":23276:23350   */\n      swap2\n      pop\n        /* \"#utility.yul\":23359:23452   */\n      tag_648\n        /* \"#utility.yul\":23448:23451   */\n      dup3\n        /* \"#utility.yul\":23359:23452   */\n      tag_418\n      jump\t// in\n    tag_648:\n        /* \"#utility.yul\":23477:23479   */\n      0x20\n        /* \"#utility.yul\":23472:23475   */\n      dup3\n        /* \"#utility.yul\":23468:23480   */\n      add\n        /* \"#utility.yul\":23461:23480   */\n      swap1\n      pop\n        /* \"#utility.yul\":23120:23486   */\n      swap2\n      swap1\n      pop\n      jump\t// out\n        /* \"#utility.yul\":23492:23911   */\n    tag_245:\n        /* \"#utility.yul\":23658:23662   */\n      0x00\n        /* \"#utility.yul\":23696:23698   */\n      0x20\n        /* \"#utility.yul\":23685:23694   */\n      dup3\n        /* \"#utility.yul\":23681:23699   */\n      add\n        /* \"#utility.yul\":23673:23699   */\n      swap1\n      pop\n        /* \"#utility.yul\":23745:23754   */\n      dup2\n        /* \"#utility.yul\":23739:23743   */\n      dup2\n        /* \"#utility.yul\":23735:23755   */\n      sub\n        /* \"#utility.yul\":23731:23732   */\n      0x00\n        /* \"#utility.yul\":23720:23729   */\n      dup4\n        /* \"#utility.yul\":23716:23733   */\n      add\n        /* \"#utility.yul\":23709:23756   */\n      mstore\n        /* \"#utility.yul\":23773:23904   */\n      tag_650\n        /* \"#utility.yul\":23899:23903   */\n      dup2\n        /* \"#utility.yul\":23773:23904   */\n      tag_419\n      jump\t// in\n    tag_650:\n        /* \"#utility.yul\":23765:23904   */\n      swap1\n      pop\n        /* \"#utility.yul\":23492:23911   */\n      swap2\n      swap1\n      pop\n      jump\t// out\n        /* \"#utility.yul\":23917:24154   */\n    tag_420:\n        /* \"#utility.yul\":24057:24091   */\n      0x4552433732313a207472616e7366657220746f206e6f6e204552433732315265\n        /* \"#utility.yul\":24053:24054   */\n      0x00\n        /* \"#utility.yul\":24045:24051   */\n      dup3\n        /* \"#utility.yul\":24041:24055   */\n      add\n        /* \"#utility.yul\":24034:24092   */\n      mstore\n        /* \"#utility.yul\":24126:24146   */\n      0x63656976657220696d706c656d656e7465720000000000000000000000000000\n        /* \"#utility.yul\":24121:24123   */\n      0x20\n        /* \"#utility.yul\":24113:24119   */\n      dup3\n        /* \"#utility.yul\":24109:24124   */\n      add\n        /* \"#utility.yul\":24102:24147   */\n      mstore\n        /* \"#utility.yul\":23917:24154   */\n      pop\n      jump\t// out\n        /* \"#utility.yul\":24160:24526   */\n    tag_421:\n        /* \"#utility.yul\":24302:24305   */\n      0x00\n        /* \"#utility.yul\":24323:24390   */\n      tag_653\n        /* \"#utility.yul\":24387:24389   */\n      0x32\n        /* \"#utility.yul\":24382:24385   */\n      dup4\n        /* \"#utility.yul\":24323:24390   */\n      tag_371\n      jump\t// in\n    tag_653:\n        /* \"#utility.yul\":24316:24390   */\n      swap2\n      pop\n        /* \"#utility.yul\":24399:24492   */\n      tag_654\n        /* \"#utility.yul\":24488:24491   */\n      dup3\n        /* \"#utility.yul\":24399:24492   */\n      tag_420\n      jump\t// in\n    tag_654:\n        /* \"#utility.yul\":24517:24519   */\n      0x40\n        /* \"#utility.yul\":24512:24515   */\n      dup3\n        /* \"#utility.yul\":24508:24520   */\n      add\n        /* \"#utility.yul\":24501:24520   */\n      swap1\n      pop\n        /* \"#utility.yul\":24160:24526   */\n      swap2\n      swap1\n      pop\n      jump\t// out\n        /* \"#utility.yul\":24532:24951   */\n    tag_253:\n        /* \"#utility.yul\":24698:24702   */\n      0x00\n        /* \"#utility.yul\":24736:24738   */\n      0x20\n        /* \"#utility.yul\":24725:24734   */\n      dup3\n        /* \"#utility.yul\":24721:24739   */\n      add\n        /* \"#utility.yul\":24713:24739   */\n      swap1\n      pop\n        /* \"#utility.yul\":24785:24794   */\n      dup2\n        /* \"#utility.yul\":24779:24783   */\n      dup2\n        /* \"#utility.yul\":24775:24795   */\n      sub\n        /* \"#utility.yul\":24771:24772   */\n      0x00\n        /* \"#utility.yul\":24760:24769   */\n      dup4\n        /* \"#utility.yul\":24756:24773   */\n      add\n        /* \"#utility.yul\":24749:24796   */\n      mstore\n        /* \"#utility.yul\":24813:24944   */\n      tag_656\n        /* \"#utility.yul\":24939:24943   */\n      dup2\n        /* \"#utility.yul\":24813:24944   */\n      tag_421\n      jump\t// in\n    tag_656:\n        /* \"#utility.yul\":24805:24944   */\n      swap1\n      pop\n        /* \"#utility.yul\":24532:24951   */\n      swap2\n      swap1\n      pop\n      jump\t// out\n        /* \"#utility.yul\":24957:25139   */\n    tag_422:\n        /* \"#utility.yul\":25097:25131   */\n      0x4552433732313a206d696e7420746f20746865207a65726f2061646472657373\n        /* \"#utility.yul\":25093:25094   */\n      0x00\n        /* \"#utility.yul\":25085:25091   */\n      dup3\n        /* \"#utility.yul\":25081:25095   */\n      add\n        /* \"#utility.yul\":25074:25132   */\n      mstore\n        /* \"#utility.yul\":24957:25139   */\n      pop\n      jump\t// out\n        /* \"#utility.yul\":25145:25511   */\n    tag_423:\n        /* \"#utility.yul\":25287:25290   */\n      0x00\n        /* \"#utility.yul\":25308:25375   */\n      tag_659\n        /* \"#utility.yul\":25372:25374   */\n      0x20\n        /* \"#utility.yul\":25367:25370   */\n      dup4\n        /* \"#utility.yul\":25308:25375   */\n      tag_371\n      jump\t// in\n    tag_659:\n        /* \"#utility.yul\":25301:25375   */\n      swap2\n      pop\n        /* \"#utility.yul\":25384:25477   */\n      tag_660\n        /* \"#utility.yul\":25473:25476   */\n      dup3\n        /* \"#utility.yul\":25384:25477   */\n      tag_422\n      jump\t// in\n    tag_660:\n        /* \"#utility.yul\":25502:25504   */\n      0x20\n        /* \"#utility.yul\":25497:25500   */\n      dup3\n        /* \"#utility.yul\":25493:25505   */\n      add\n        /* \"#utility.yul\":25486:25505   */\n      swap1\n      pop\n        /* \"#utility.yul\":25145:25511   */\n      swap2\n      swap1\n      pop\n      jump\t// out\n        /* \"#utility.yul\":25517:25936   */\n    tag_268:\n        /* \"#utility.yul\":25683:25687   */\n      0x00\n        /* \"#utility.yul\":25721:25723   */\n      0x20\n        /* \"#utility.yul\":25710:25719   */\n      dup3\n        /* \"#utility.yul\":25706:25724   */\n      add\n        /* \"#utility.yul\":25698:25724   */\n      swap1\n      pop\n        /* \"#utility.yul\":25770:25779   */\n      dup2\n        /* \"#utility.yul\":25764:25768   */\n      dup2\n        /* \"#utility.yul\":25760:25780   */\n      sub\n        /* \"#utility.yul\":25756:25757   */\n      0x00\n        /* \"#utility.yul\":25745:25754   */\n      dup4\n        /* \"#utility.yul\":25741:25758   */\n      add\n        /* \"#utility.yul\":25734:25781   */\n      mstore\n        /* \"#utility.yul\":25798:25929   */\n      tag_662\n        /* \"#utility.yul\":25924:25928   */\n      dup2\n        /* \"#utility.yul\":25798:25929   */\n      tag_423\n      jump\t// in\n    tag_662:\n        /* \"#utility.yul\":25790:25929   */\n      swap1\n      pop\n        /* \"#utility.yul\":25517:25936   */\n      swap2\n      swap1\n      pop\n      jump\t// out\n        /* \"#utility.yul\":25942:26120   */\n    tag_424:\n        /* \"#utility.yul\":26082:26112   */\n      0x4552433732313a20746f6b656e20616c7265616479206d696e74656400000000\n        /* \"#utility.yul\":26078:26079   */\n      0x00\n        /* \"#utility.yul\":26070:26076   */\n      dup3\n        /* \"#utility.yul\":26066:26080   */\n      add\n        /* \"#utility.yul\":26059:26113   */\n      mstore\n        /* \"#utility.yul\":25942:26120   */\n      pop\n      jump\t// out\n        /* \"#utility.yul\":26126:26492   */\n    tag_425:\n        /* \"#utility.yul\":26268:26271   */\n      0x00\n        /* \"#utility.yul\":26289:26356   */\n      tag_665\n        /* \"#utility.yul\":26353:26355   */\n      0x1c\n        /* \"#utility.yul\":26348:26351   */\n      dup4\n        /* \"#utility.yul\":26289:26356   */\n      tag_371\n      jump\t// in\n    tag_665:\n        /* \"#utility.yul\":26282:26356   */\n      swap2\n      pop\n        /* \"#utility.yul\":26365:26458   */\n      tag_666\n        /* \"#utility.yul\":26454:26457   */\n      dup3\n        /* \"#utility.yul\":26365:26458   */\n      tag_424\n      jump\t// in\n    tag_666:\n        /* \"#utility.yul\":26483:26485   */\n      0x20\n        /* \"#utility.yul\":26478:26481   */\n      dup3\n        /* \"#utility.yul\":26474:26486   */\n      add\n        /* \"#utility.yul\":26467:26486   */\n      swap1\n      pop\n        /* \"#utility.yul\":26126:26492   */\n      swap2\n      swap1\n      pop\n      jump\t// out\n        /* \"#utility.yul\":26498:26917   */\n    tag_272:\n        /* \"#utility.yul\":26664:26668   */\n      0x00\n        /* \"#utility.yul\":26702:26704   */\n      0x20\n        /* \"#utility.yul\":26691:26700   */\n      dup3\n        /* \"#utility.yul\":26687:26705   */\n      add\n        /* \"#utility.yul\":26679:26705   */\n      swap1\n      pop\n        /* \"#utility.yul\":26751:26760   */\n      dup2\n        /* \"#utility.yul\":26745:26749   */\n      dup2\n        /* \"#utility.yul\":26741:26761   */\n      sub\n        /* \"#utility.yul\":26737:26738   */\n      0x00\n        /* \"#utility.yul\":26726:26735   */\n      dup4\n        /* \"#utility.yul\":26722:26739   */\n      add\n        /* \"#utility.yul\":26715:26762   */\n      mstore\n        /* \"#utility.yul\":26779:26910   */\n      tag_668\n        /* \"#utility.yul\":26905:26909   */\n      dup2\n        /* \"#utility.yul\":26779:26910   */\n      tag_425\n      jump\t// in\n    tag_668:\n        /* \"#utility.yul\":26771:26910   */\n      swap1\n      pop\n        /* \"#utility.yul\":26498:26917   */\n      swap2\n      swap1\n      pop\n      jump\t// out\n        /* \"#utility.yul\":26923:27156   */\n    tag_426:\n        /* \"#utility.yul\":27063:27097   */\n      0x45524337323155524953746f726167653a2055524920736574206f66206e6f6e\n        /* \"#utility.yul\":27059:27060   */\n      0x00\n        /* \"#utility.yul\":27051:27057   */\n      dup3\n        /* \"#utility.yul\":27047:27061   */\n      add\n        /* \"#utility.yul\":27040:27098   */\n      mstore\n        /* \"#utility.yul\":27132:27148   */\n      0x6578697374656e7420746f6b656e000000000000000000000000000000000000\n        /* \"#utility.yul\":27127:27129   */\n      0x20\n        /* \"#utility.yul\":27119:27125   */\n      dup3\n        /* \"#utility.yul\":27115:27130   */\n      add\n        /* \"#utility.yul\":27108:27149   */\n      mstore\n        /* \"#utility.yul\":26923:27156   */\n      pop\n      jump\t// out\n        /* \"#utility.yul\":27162:27528   */\n    tag_427:\n        /* \"#utility.yul\":27304:27307   */\n      0x00\n        /* \"#utility.yul\":27325:27392   */\n      tag_671\n        /* \"#utility.yul\":27389:27391   */\n      0x2e\n        /* \"#utility.yul\":27384:27387   */\n      dup4\n        /* \"#utility.yul\":27325:27392   */\n      tag_371\n      jump\t// in\n    tag_671:\n        /* \"#utility.yul\":27318:27392   */\n      swap2\n      pop\n        /* \"#utility.yul\":27401:27494   */\n      tag_672\n        /* \"#utility.yul\":27490:27493   */\n      dup3\n        /* \"#utility.yul\":27401:27494   */\n      tag_426\n      jump\t// in\n    tag_672:\n        /* \"#utility.yul\":27519:27521   */\n      0x40\n        /* \"#utility.yul\":27514:27517   */\n      dup3\n        /* \"#utility.yul\":27510:27522   */\n      add\n        /* \"#utility.yul\":27503:27522   */\n      swap1\n      pop\n        /* \"#utility.yul\":27162:27528   */\n      swap2\n      swap1\n      pop\n      jump\t// out\n        /* \"#utility.yul\":27534:27953   */\n    tag_282:\n        /* \"#utility.yul\":27700:27704   */\n      0x00\n        /* \"#utility.yul\":27738:27740   */\n      0x20\n        /* \"#utility.yul\":27727:27736   */\n      dup3\n        /* \"#utility.yul\":27723:27741   */\n      add\n        /* \"#utility.yul\":27715:27741   */\n      swap1\n      pop\n        /* \"#utility.yul\":27787:27796   */\n      dup2\n        /* \"#utility.yul\":27781:27785   */\n      dup2\n        /* \"#utility.yul\":27777:27797   */\n      sub\n        /* \"#utility.yul\":27773:27774   */\n      0x00\n        /* \"#utility.yul\":27762:27771   */\n      dup4\n        /* \"#utility.yul\":27758:27775   */\n      add\n        /* \"#utility.yul\":27751:27798   */\n      mstore\n        /* \"#utility.yul\":27815:27946   */\n      tag_674\n        /* \"#utility.yul\":27941:27945   */\n      dup2\n        /* \"#utility.yul\":27815:27946   */\n      tag_427\n      jump\t// in\n    tag_674:\n        /* \"#utility.yul\":27807:27946   */\n      swap1\n      pop\n        /* \"#utility.yul\":27534:27953   */\n      swap2\n      swap1\n      pop\n      jump\t// out\n        /* \"#utility.yul\":27959:28139   */\n    tag_428:\n        /* \"#utility.yul\":28007:28084   */\n      0x4e487b7100000000000000000000000000000000000000000000000000000000\n        /* \"#utility.yul\":28004:28005   */\n      0x00\n        /* \"#utility.yul\":27997:28085   */\n      mstore\n        /* \"#utility.yul\":28104:28108   */\n      0x11\n        /* \"#utility.yul\":28101:28102   */\n      0x04\n        /* \"#utility.yul\":28094:28109   */\n      mstore\n        /* \"#utility.yul\":28128:28132   */\n      0x24\n        /* \"#utility.yul\":28125:28126   */\n      0x00\n        /* \"#utility.yul\":28118:28133   */\n      revert\n        /* \"#utility.yul\":28145:28336   */\n    tag_291:\n        /* \"#utility.yul\":28185:28189   */\n      0x00\n        /* \"#utility.yul\":28205:28225   */\n      tag_677\n        /* \"#utility.yul\":28223:28224   */\n      dup3\n        /* \"#utility.yul\":28205:28225   */\n      tag_375\n      jump\t// in\n    tag_677:\n        /* \"#utility.yul\":28200:28225   */\n      swap2\n      pop\n        /* \"#utility.yul\":28239:28259   */\n      tag_678\n        /* \"#utility.yul\":28257:28258   */\n      dup4\n        /* \"#utility.yul\":28239:28259   */\n      tag_375\n      jump\t// in\n    tag_678:\n        /* \"#utility.yul\":28234:28259   */\n      swap3\n      pop\n        /* \"#utility.yul\":28278:28279   */\n      dup3\n        /* \"#utility.yul\":28275:28276   */\n      dup3\n        /* \"#utility.yul\":28272:28280   */\n      lt\n        /* \"#utility.yul\":28269:28303   */\n      iszero\n      tag_679\n      jumpi\n        /* \"#utility.yul\":28283:28301   */\n      tag_680\n      tag_428\n      jump\t// in\n    tag_680:\n        /* \"#utility.yul\":28269:28303   */\n    tag_679:\n        /* \"#utility.yul\":28328:28329   */\n      dup3\n        /* \"#utility.yul\":28325:28326   */\n      dup3\n        /* \"#utility.yul\":28321:28330   */\n      sub\n        /* \"#utility.yul\":28313:28330   */\n      swap1\n      pop\n        /* \"#utility.yul\":28145:28336   */\n      swap3\n      swap2\n      pop\n      pop\n      jump\t// out\n        /* \"#utility.yul\":28342:28647   */\n    tag_294:\n        /* \"#utility.yul\":28382:28385   */\n      0x00\n        /* \"#utility.yul\":28401:28421   */\n      tag_682\n        /* \"#utility.yul\":28419:28420   */\n      dup3\n        /* \"#utility.yul\":28401:28421   */\n      tag_375\n      jump\t// in\n    tag_682:\n        /* \"#utility.yul\":28396:28421   */\n      swap2\n      pop\n        /* \"#utility.yul\":28435:28455   */\n      tag_683\n        /* \"#utility.yul\":28453:28454   */\n      dup4\n        /* \"#utility.yul\":28435:28455   */\n      tag_375\n      jump\t// in\n    tag_683:\n        /* \"#utility.yul\":28430:28455   */\n      swap3\n      pop\n        /* \"#utility.yul\":28589:28590   */\n      dup3\n        /* \"#utility.yul\":28521:28587   */\n      0xffffffffffffffffffffffffffffffffffffffffffffffffffffffffffffffff\n        /* \"#utility.yul\":28517:28591   */\n      sub\n        /* \"#utility.yul\":28514:28515   */\n      dup3\n        /* \"#utility.yul\":28511:28592   */\n      gt\n        /* \"#utility.yul\":28508:28615   */\n      iszero\n      tag_684\n      jumpi\n        /* \"#utility.yul\":28595:28613   */\n      tag_685\n      tag_428\n      jump\t// in\n    tag_685:\n        /* \"#utility.yul\":28508:28615   */\n    tag_684:\n        /* \"#utility.yul\":28639:28640   */\n      dup3\n        /* \"#utility.yul\":28636:28637   */\n      dup3\n        /* \"#utility.yul\":28632:28641   */\n      add\n        /* \"#utility.yul\":28625:28641   */\n      swap1\n      pop\n        /* \"#utility.yul\":28342:28647   */\n      swap3\n      swap2\n      pop\n      pop\n      jump\t// out\n        /* \"#utility.yul\":28653:28751   */\n    tag_429:\n        /* \"#utility.yul\":28704:28710   */\n      0x00\n        /* \"#utility.yul\":28738:28743   */\n      dup2\n        /* \"#utility.yul\":28732:28744   */\n      mload\n        /* \"#utility.yul\":28722:28744   */\n      swap1\n      pop\n        /* \"#utility.yul\":28653:28751   */\n      swap2\n      swap1\n      pop\n      jump\t// out\n        /* \"#utility.yul\":28757:28925   */\n    tag_430:\n        /* \"#utility.yul\":28840:28851   */\n      0x00\n        /* \"#utility.yul\":28874:28880   */\n      dup3\n        /* \"#utility.yul\":28869:28872   */\n      dup3\n        /* \"#utility.yul\":28862:28881   */\n      mstore\n        /* \"#utility.yul\":28914:28918   */\n      0x20\n        /* \"#utility.yul\":28909:28912   */\n      dup3\n        /* \"#utility.yul\":28905:28919   */\n      add\n        /* \"#utility.yul\":28890:28919   */\n      swap1\n      pop\n        /* \"#utility.yul\":28757:28925   */\n      swap3\n      swap2\n      pop\n      pop\n      jump\t// out\n        /* \"#utility.yul\":28931:29291   */\n    tag_431:\n        /* \"#utility.yul\":29017:29020   */\n      0x00\n        /* \"#utility.yul\":29045:29083   */\n      tag_689\n        /* \"#utility.yul\":29077:29082   */\n      dup3\n        /* \"#utility.yul\":29045:29083   */\n      tag_429\n      jump\t// in\n    tag_689:\n        /* \"#utility.yul\":29099:29169   */\n      tag_690\n        /* \"#utility.yul\":29162:29168   */\n      dup2\n        /* \"#utility.yul\":29157:29160   */\n      dup6\n        /* \"#utility.yul\":29099:29169   */\n      tag_430\n      jump\t// in\n    tag_690:\n        /* \"#utility.yul\":29092:29169   */\n      swap4\n      pop\n        /* \"#utility.yul\":29178:29230   */\n      tag_691\n        /* \"#utility.yul\":29223:29229   */\n      dup2\n        /* \"#utility.yul\":29218:29221   */\n      dup6\n        /* \"#utility.yul\":29211:29215   */\n      0x20\n        /* \"#utility.yul\":29204:29209   */\n      dup7\n        /* \"#utility.yul\":29200:29216   */\n      add\n        /* \"#utility.yul\":29178:29230   */\n      tag_372\n      jump\t// in\n    tag_691:\n        /* \"#utility.yul\":29255:29284   */\n      tag_692\n        /* \"#utility.yul\":29277:29283   */\n      dup2\n        /* \"#utility.yul\":29255:29284   */\n      tag_373\n      jump\t// in\n    tag_692:\n        /* \"#utility.yul\":29250:29253   */\n      dup5\n        /* \"#utility.yul\":29246:29285   */\n      add\n        /* \"#utility.yul\":29239:29285   */\n      swap2\n      pop\n        /* \"#utility.yul\":29021:29291   */\n      pop\n        /* \"#utility.yul\":28931:29291   */\n      swap3\n      swap2\n      pop\n      pop\n      jump\t// out\n        /* \"#utility.yul\":29297:29937   */\n    tag_302:\n        /* \"#utility.yul\":29492:29496   */\n      0x00\n        /* \"#utility.yul\":29530:29533   */\n      0x80\n        /* \"#utility.yul\":29519:29528   */\n      dup3\n        /* \"#utility.yul\":29515:29534   */\n      add\n        /* \"#utility.yul\":29507:29534   */\n      swap1\n      pop\n        /* \"#utility.yul\":29544:29615   */\n      tag_694\n        /* \"#utility.yul\":29612:29613   */\n      0x00\n        /* \"#utility.yul\":29601:29610   */\n      dup4\n        /* \"#utility.yul\":29597:29614   */\n      add\n        /* \"#utility.yul\":29588:29594   */\n      dup8\n        /* \"#utility.yul\":29544:29615   */\n      tag_380\n      jump\t// in\n    tag_694:\n        /* \"#utility.yul\":29625:29697   */\n      tag_695\n        /* \"#utility.yul\":29693:29695   */\n      0x20\n        /* \"#utility.yul\":29682:29691   */\n      dup4\n        /* \"#utility.yul\":29678:29696   */\n      add\n        /* \"#utility.yul\":29669:29675   */\n      dup7\n        /* \"#utility.yul\":29625:29697   */\n      tag_380\n      jump\t// in\n    tag_695:\n        /* \"#utility.yul\":29707:29779   */\n      tag_696\n        /* \"#utility.yul\":29775:29777   */\n      0x40\n        /* \"#utility.yul\":29764:29773   */\n      dup4\n        /* \"#utility.yul\":29760:29778   */\n      add\n        /* \"#utility.yul\":29751:29757   */\n      dup6\n        /* \"#utility.yul\":29707:29779   */\n      tag_383\n      jump\t// in\n    tag_696:\n        /* \"#utility.yul\":29826:29835   */\n      dup2\n        /* \"#utility.yul\":29820:29824   */\n      dup2\n        /* \"#utility.yul\":29816:29836   */\n      sub\n        /* \"#utility.yul\":29811:29813   */\n      0x60\n        /* \"#utility.yul\":29800:29809   */\n      dup4\n        /* \"#utility.yul\":29796:29814   */\n      add\n        /* \"#utility.yul\":29789:29837   */\n      mstore\n        /* \"#utility.yul\":29854:29930   */\n      tag_697\n        /* \"#utility.yul\":29925:29929   */\n      dup2\n        /* \"#utility.yul\":29916:29922   */\n      dup5\n        /* \"#utility.yul\":29854:29930   */\n      tag_431\n      jump\t// in\n    tag_697:\n        /* \"#utility.yul\":29846:29930   */\n      swap1\n      pop\n        /* \"#utility.yul\":29297:29937   */\n      swap6\n      swap5\n      pop\n      pop\n      pop\n      pop\n      pop\n      jump\t// out\n        /* \"#utility.yul\":29943:30084   */\n    tag_432:\n        /* \"#utility.yul\":29999:30004   */\n      0x00\n        /* \"#utility.yul\":30030:30036   */\n      dup2\n        /* \"#utility.yul\":30024:30037   */\n      mload\n        /* \"#utility.yul\":30015:30037   */\n      swap1\n      pop\n        /* \"#utility.yul\":30046:30078   */\n      tag_699\n        /* \"#utility.yul\":30072:30077   */\n      dup2\n        /* \"#utility.yul\":30046:30078   */\n      tag_366\n      jump\t// in\n    tag_699:\n        /* \"#utility.yul\":29943:30084   */\n      swap3\n      swap2\n      pop\n      pop\n      jump\t// out\n        /* \"#utility.yul\":30090:30439   */\n    tag_306:\n        /* \"#utility.yul\":30159:30165   */\n      0x00\n        /* \"#utility.yul\":30208:30210   */\n      0x20\n        /* \"#utility.yul\":30196:30205   */\n      dup3\n        /* \"#utility.yul\":30187:30194   */\n      dup5\n        /* \"#utility.yul\":30183:30206   */\n      sub\n        /* \"#utility.yul\":30179:30211   */\n      slt\n        /* \"#utility.yul\":30176:30295   */\n      iszero\n      tag_701\n      jumpi\n        /* \"#utility.yul\":30214:30293   */\n      tag_702\n      tag_363\n      jump\t// in\n    tag_702:\n        /* \"#utility.yul\":30176:30295   */\n    tag_701:\n        /* \"#utility.yul\":30334:30335   */\n      0x00\n        /* \"#utility.yul\":30359:30422   */\n      tag_703\n        /* \"#utility.yul\":30414:30421   */\n      dup5\n        /* \"#utility.yul\":30405:30411   */\n      dup3\n        /* \"#utility.yul\":30394:30403   */\n      dup6\n        /* \"#utility.yul\":30390:30412   */\n      add\n        /* \"#utility.yul\":30359:30422   */\n      tag_432\n      jump\t// in\n    tag_703:\n        /* \"#utility.yul\":30349:30422   */\n      swap2\n      pop\n        /* \"#utility.yul\":30305:30432   */\n      pop\n        /* \"#utility.yul\":30090:30439   */\n      swap3\n      swap2\n      pop\n      pop\n      jump\t// out\n        /* \"#utility.yul\":30445:30625   */\n    tag_329:\n        /* \"#utility.yul\":30493:30570   */\n      0x4e487b7100000000000000000000000000000000000000000000000000000000\n        /* \"#utility.yul\":30490:30491   */\n      0x00\n        /* \"#utility.yul\":30483:30571   */\n      mstore\n        /* \"#utility.yul\":30590:30594   */\n      0x12\n        /* \"#utility.yul\":30587:30588   */\n      0x04\n        /* \"#utility.yul\":30580:30595   */\n      mstore\n        /* \"#utility.yul\":30614:30618   */\n      0x24\n        /* \"#utility.yul\":30611:30612   */\n      0x00\n        /* \"#utility.yul\":30604:30619   */\n      revert\n\n    auxdata: 0xa2646970667358221220efbc210efcb642cec4498bafe2314453048ed116f1abaff4e7908e5dbdaefbf664736f6c63430008090033\n}\n","bytecode":{"linkReferences":{},"object":"60806040523480156200001157600080fd5b50604051620032c0380380620032c08339818101604052810190620000379190620003b0565b818181600090805190602001906200005192919062000163565b5080600190805190602001906200006a92919062000163565b5050506200008d620000816200009560201b60201c565b6200009d60201b60201c565b50506200049a565b600033905090565b6000600760009054906101000a900473ffffffffffffffffffffffffffffffffffffffff16905081600760006101000a81548173ffffffffffffffffffffffffffffffffffffffff021916908373ffffffffffffffffffffffffffffffffffffffff1602179055508173ffffffffffffffffffffffffffffffffffffffff168173ffffffffffffffffffffffffffffffffffffffff167f8be0079c531659141344cd1fd0a4f28419497f9722a3daafe3b4186f6b6457e060405160405180910390a35050565b828054620001719062000464565b90600052602060002090601f016020900481019282620001955760008555620001e1565b82601f10620001b057805160ff1916838001178555620001e1565b82800160010185558215620001e1579182015b82811115620001e0578251825591602001919060010190620001c3565b5b509050620001f09190620001f4565b5090565b5b808211156200020f576000816000905550600101620001f5565b5090565b6000604051905090565b600080fd5b600080fd5b600080fd5b600080fd5b6000601f19601f8301169050919050565b7f4e487b7100000000000000000000000000000000000000000000000000000000600052604160045260246000fd5b6200027c8262000231565b810181811067ffffffffffffffff821117156200029e576200029d62000242565b5b80604052505050565b6000620002b362000213565b9050620002c1828262000271565b919050565b600067ffffffffffffffff821115620002e457620002e362000242565b5b620002ef8262000231565b9050602081019050919050565b60005b838110156200031c578082015181840152602081019050620002ff565b838111156200032c576000848401525b50505050565b6000620003496200034384620002c6565b620002a7565b9050828152602081018484840111156200036857620003676200022c565b5b62000375848285620002fc565b509392505050565b600082601f83011262000395576200039462000227565b5b8151620003a784826020860162000332565b91505092915050565b60008060408385031215620003ca57620003c96200021d565b5b600083015167ffffffffffffffff811115620003eb57620003ea62000222565b5b620003f9858286016200037d565b925050602083015167ffffffffffffffff8111156200041d576200041c62000222565b5b6200042b858286016200037d565b9150509250929050565b7f4e487b7100000000000000000000000000000000000000000000000000000000600052602260045260246000fd5b600060028204905060018216806200047d57607f821691505b6020821081141562000494576200049362000435565b5b50919050565b612e1680620004aa6000396000f3fe608060405234801561001057600080fd5b50600436106101165760003560e01c80638da5cb5b116100a2578063b88d4fde11610071578063b88d4fde146102cd578063c87b56dd146102e9578063e985e9c514610319578063eacabe1414610349578063f2fde38b1461037957610116565b80638da5cb5b1461025757806395d89b4114610275578063a22cb46514610293578063aa46a400146102af57610116565b806323b872dd116100e957806323b872dd146101b557806342842e0e146101d15780636352211e146101ed57806370a082311461021d578063715018a61461024d57610116565b806301ffc9a71461011b57806306fdde031461014b578063081812fc14610169578063095ea7b314610199575b600080fd5b61013560048036038101906101309190611dc2565b610395565b6040516101429190611e0a565b60405180910390f35b610153610477565b6040516101609190611ebe565b60405180910390f35b610183600480360381019061017e9190611f16565b610509565b6040516101909190611f84565b60405180910390f35b6101b360048036038101906101ae9190611fcb565b61054f565b005b6101cf60048036038101906101ca919061200b565b610667565b005b6101eb60048036038101906101e6919061200b565b6106c7565b005b61020760048036038101906102029190611f16565b6106e7565b6040516102149190611f84565b60405180910390f35b6102376004803603810190610232919061205e565b61076e565b604051610244919061209a565b60405180910390f35b610255610826565b005b61025f61083a565b60405161026c9190611f84565b60405180910390f35b61027d610864565b60405161028a9190611ebe565b60405180910390f35b6102ad60048036038101906102a891906120e1565b6108f6565b005b6102b761090c565b6040516102c4919061209a565b60405180910390f35b6102e760048036038101906102e29190612256565b610918565b005b61030360048036038101906102fe9190611f16565b61097a565b6040516103109190611ebe565b60405180910390f35b610333600480360381019061032e91906122d9565b610a8d565b6040516103409190611e0a565b60405180910390f35b610363600480360381019061035e91906123ba565b610b21565b604051610370919061209a565b60405180910390f35b610393600480360381019061038e919061205e565b610b59565b005b60007f80ac58cd000000000000000000000000000000000000000000000000000000007bffffffffffffffffffffffffffffffffffffffffffffffffffffffff1916827bffffffffffffffffffffffffffffffffffffffffffffffffffffffff1916148061046057507f5b5e139f000000000000000000000000000000000000000000000000000000007bffffffffffffffffffffffffffffffffffffffffffffffffffffffff1916827bffffffffffffffffffffffffffffffffffffffffffffffffffffffff1916145b80610470575061046f82610bdd565b5b9050919050565b60606000805461048690612445565b80601f01602080910402602001604051908101604052809291908181526020018280546104b290612445565b80156104ff5780601f106104d4576101008083540402835291602001916104ff565b820191906000526020600020905b8154815290600101906020018083116104e257829003601f168201915b5050505050905090565b600061051482610c47565b6004600083815260200190815260200160002060009054906101000a900473ffffffffffffffffffffffffffffffffffffffff169050919050565b600061055a826106e7565b90508073ffffffffffffffffffffffffffffffffffffffff168373ffffffffffffffffffffffffffffffffffffffff1614156105cb576040517f08c379a00000000000000000000000000000000000000000000000000000000081526004016105c2906124e9565b60405180910390fd5b8073ffffffffffffffffffffffffffffffffffffffff166105ea610c92565b73ffffffffffffffffffffffffffffffffffffffff161480610619575061061881610613610c92565b610a8d565b5b610658576040517f08c379a000000000000000000000000000000000000000000000000000000000815260040161064f9061257b565b60405180910390fd5b6106628383610c9a565b505050565b610678610672610c92565b82610d53565b6106b7576040517f08c379a00000000000000000000000000000000000000000000000000000000081526004016106ae9061260d565b60405180910390fd5b6106c2838383610de8565b505050565b6106e283838360405180602001604052806000815250610918565b505050565b6000806106f3836110e2565b9050600073ffffffffffffffffffffffffffffffffffffffff168173ffffffffffffffffffffffffffffffffffffffff161415610765576040517f08c379a000000000000000000000000000000000000000000000000000000000815260040161075c90612679565b60405180910390fd5b80915050919050565b60008073ffffffffffffffffffffffffffffffffffffffff168273ffffffffffffffffffffffffffffffffffffffff1614156107df576040517f08c379a00000000000000000000000000000000000000000000000000000000081526004016107d69061270b565b60405180910390fd5b600360008373ffffffffffffffffffffffffffffffffffffffff1673ffffffffffffffffffffffffffffffffffffffff168152602001908152602001600020549050919050565b61082e61111f565b610838600061119d565b565b6000600760009054906101000a900473ffffffffffffffffffffffffffffffffffffffff16905090565b60606001805461087390612445565b80601f016020809104026020016040519081016040528092919081815260200182805461089f90612445565b80156108ec5780601f106108c1576101008083540402835291602001916108ec565b820191906000526020600020905b8154815290600101906020018083116108cf57829003601f168201915b5050505050905090565b610908610901610c92565b8383611263565b5050565b60088060000154905081565b610929610923610c92565b83610d53565b610968576040517f08c379a000000000000000000000000000000000000000000000000000000000815260040161095f9061260d565b60405180910390fd5b610974848484846113d0565b50505050565b606061098582610c47565b60006006600084815260200190815260200160002080546109a590612445565b80601f01602080910402602001604051908101604052809291908181526020018280546109d190612445565b8015610a1e5780601f106109f357610100808354040283529160200191610a1e565b820191906000526020600020905b815481529060010190602001808311610a0157829003601f168201915b505050505090506000610a2f61142c565b9050600081511415610a45578192505050610a88565b600082511115610a7a578082604051602001610a62929190612767565b60405160208183030381529060405292505050610a88565b610a8384611443565b925050505b919050565b6000600560008473ffffffffffffffffffffffffffffffffffffffff1673ffffffffffffffffffffffffffffffffffffffff16815260200190815260200160002060008373ffffffffffffffffffffffffffffffffffffffff1673ffffffffffffffffffffffffffffffffffffffff16815260200190815260200160002060009054906101000a900460ff16905092915050565b6000610b2d60086114ab565b6000610b3960086114c1565b9050610b4584826114cf565b610b4f81846116ed565b8091505092915050565b610b6161111f565b600073ffffffffffffffffffffffffffffffffffffffff168173ffffffffffffffffffffffffffffffffffffffff161415610bd1576040517f08c379a0000000000000000000000000000000000000000000000000000000008152600401610bc8906127fd565b60405180910390fd5b610bda8161119d565b50565b60007f01ffc9a7000000000000000000000000000000000000000000000000000000007bffffffffffffffffffffffffffffffffffffffffffffffffffffffff1916827bffffffffffffffffffffffffffffffffffffffffffffffffffffffff1916149050919050565b610c5081611761565b610c8f576040517f08c379a0000000000000000000000000000000000000000000000000000000008152600401610c8690612679565b60405180910390fd5b50565b600033905090565b816004600083815260200190815260200160002060006101000a81548173ffffffffffffffffffffffffffffffffffffffff021916908373ffffffffffffffffffffffffffffffffffffffff160217905550808273ffffffffffffffffffffffffffffffffffffffff16610d0d836106e7565b73ffffffffffffffffffffffffffffffffffffffff167f8c5be1e5ebec7d5bd14f71427d1e84f3dd0314c0f7b2291e5b200ac8c7c3b92560405160405180910390a45050565b600080610d5f836106e7565b90508073ffffffffffffffffffffffffffffffffffffffff168473ffffffffffffffffffffffffffffffffffffffff161480610da15750610da08185610a8d565b5b80610ddf57508373ffffffffffffffffffffffffffffffffffffffff16610dc784610509565b73ffffffffffffffffffffffffffffffffffffffff16145b91505092915050565b8273ffffffffffffffffffffffffffffffffffffffff16610e08826106e7565b73ffffffffffffffffffffffffffffffffffffffff1614610e5e576040517f08c379a0000000000000000000000000000000000000000000000000000000008152600401610e559061288f565b60405180910390fd5b600073ffffffffffffffffffffffffffffffffffffffff168273ffffffffffffffffffffffffffffffffffffffff161415610ece576040517f08c379a0000000000000000000000000000000000000000000000000000000008152600401610ec590612921565b60405180910390fd5b610edb83838360016117a2565b8273ffffffffffffffffffffffffffffffffffffffff16610efb826106e7565b73ffffffffffffffffffffffffffffffffffffffff1614610f51576040517f08c379a0000000000000000000000000000000000000000000000000000000008152600401610f489061288f565b60405180910390fd5b6004600082815260200190815260200160002060006101000a81549073ffffffffffffffffffffffffffffffffffffffff02191690556001600360008573ffffffffffffffffffffffffffffffffffffffff1673ffffffffffffffffffffffffffffffffffffffff168152602001908152602001600020600082825403925050819055506001600360008473ffffffffffffffffffffffffffffffffffffffff1673ffffffffffffffffffffffffffffffffffffffff16815260200190815260200160002060008282540192505081905550816002600083815260200190815260200160002060006101000a81548173ffffffffffffffffffffffffffffffffffffffff021916908373ffffffffffffffffffffffffffffffffffffffff160217905550808273ffffffffffffffffffffffffffffffffffffffff168473ffffffffffffffffffffffffffffffffffffffff167fddf252ad1be2c89b69c2b068fc378daa952ba7f163c4a11628f55a4df523b3ef60405160405180910390a46110dd83838360016118c8565b505050565b60006002600083815260200190815260200160002060009054906101000a900473ffffffffffffffffffffffffffffffffffffffff169050919050565b611127610c92565b73ffffffffffffffffffffffffffffffffffffffff1661114561083a565b73ffffffffffffffffffffffffffffffffffffffff161461119b576040517f08c379a00000000000000000000000000000000000000000000000000000000081526004016111929061298d565b60405180910390fd5b565b6000600760009054906101000a900473ffffffffffffffffffffffffffffffffffffffff16905081600760006101000a81548173ffffffffffffffffffffffffffffffffffffffff021916908373ffffffffffffffffffffffffffffffffffffffff1602179055508173ffffffffffffffffffffffffffffffffffffffff168173ffffffffffffffffffffffffffffffffffffffff167f8be0079c531659141344cd1fd0a4f28419497f9722a3daafe3b4186f6b6457e060405160405180910390a35050565b8173ffffffffffffffffffffffffffffffffffffffff168373ffffffffffffffffffffffffffffffffffffffff1614156112d2576040517f08c379a00000000000000000000000000000000000000000000000000000000081526004016112c9906129f9565b60405180910390fd5b80600560008573ffffffffffffffffffffffffffffffffffffffff1673ffffffffffffffffffffffffffffffffffffffff16815260200190815260200160002060008473ffffffffffffffffffffffffffffffffffffffff1673ffffffffffffffffffffffffffffffffffffffff16815260200190815260200160002060006101000a81548160ff0219169083151502179055508173ffffffffffffffffffffffffffffffffffffffff168373ffffffffffffffffffffffffffffffffffffffff167f17307eab39ab6107e8899845ad3d59bd9653f200f220920489ca2b5937696c31836040516113c39190611e0a565b60405180910390a3505050565b6113db848484610de8565b6113e7848484846118ce565b611426576040517f08c379a000000000000000000000000000000000000000000000000000000000815260040161141d90612a8b565b60405180910390fd5b50505050565b606060405180602001604052806000815250905090565b606061144e82610c47565b600061145861142c565b9050600081511161147857604051806020016040528060008152506114a3565b8061148284611a65565b604051602001611493929190612767565b6040516020818303038152906040525b915050919050565b6001816000016000828254019250508190555050565b600081600001549050919050565b600073ffffffffffffffffffffffffffffffffffffffff168273ffffffffffffffffffffffffffffffffffffffff16141561153f576040517f08c379a000000000000000000000000000000000000000000000000000000000815260040161153690612af7565b60405180910390fd5b61154881611761565b15611588576040517f08c379a000000000000000000000000000000000000000000000000000000000815260040161157f90612b63565b60405180910390fd5b6115966000838360016117a2565b61159f81611761565b156115df576040517f08c379a00000000000000000000000000000000000000000000000000000000081526004016115d690612b63565b60405180910390fd5b6001600360008473ffffffffffffffffffffffffffffffffffffffff1673ffffffffffffffffffffffffffffffffffffffff16815260200190815260200160002060008282540192505081905550816002600083815260200190815260200160002060006101000a81548173ffffffffffffffffffffffffffffffffffffffff021916908373ffffffffffffffffffffffffffffffffffffffff160217905550808273ffffffffffffffffffffffffffffffffffffffff16600073ffffffffffffffffffffffffffffffffffffffff167fddf252ad1be2c89b69c2b068fc378daa952ba7f163c4a11628f55a4df523b3ef60405160405180910390a46116e96000838360016118c8565b5050565b6116f682611761565b611735576040517f08c379a000000000000000000000000000000000000000000000000000000000815260040161172c90612bf5565b60405180910390fd5b8060066000848152602001908152602001600020908051906020019061175c929190611cb3565b505050565b60008073ffffffffffffffffffffffffffffffffffffffff16611783836110e2565b73ffffffffffffffffffffffffffffffffffffffff1614159050919050565b60018111156118c257600073ffffffffffffffffffffffffffffffffffffffff168473ffffffffffffffffffffffffffffffffffffffff16146118365780600360008673ffffffffffffffffffffffffffffffffffffffff1673ffffffffffffffffffffffffffffffffffffffff168152602001908152602001600020600082825461182e9190612c44565b925050819055505b600073ffffffffffffffffffffffffffffffffffffffff168373ffffffffffffffffffffffffffffffffffffffff16146118c15780600360008573ffffffffffffffffffffffffffffffffffffffff1673ffffffffffffffffffffffffffffffffffffffff16815260200190815260200160002060008282546118b99190612c78565b925050819055505b5b50505050565b50505050565b60006118ef8473ffffffffffffffffffffffffffffffffffffffff16611b3d565b15611a58578373ffffffffffffffffffffffffffffffffffffffff1663150b7a02611918610c92565b8786866040518563ffffffff1660e01b815260040161193a9493929190612d23565b602060405180830381600087803b15801561195457600080fd5b505af192505050801561198557506040513d601f19601f820116820180604052508101906119829190612d84565b60015b611a08573d80600081146119b5576040519150601f19603f3d011682016040523d82523d6000602084013e6119ba565b606091505b50600081511415611a00576040517f08c379a00000000000000000000000000000000000000000000000000000000081526004016119f790612a8b565b60405180910390fd5b805181602001fd5b63150b7a0260e01b7bffffffffffffffffffffffffffffffffffffffffffffffffffffffff1916817bffffffffffffffffffffffffffffffffffffffffffffffffffffffff191614915050611a5d565b600190505b949350505050565b606060006001611a7484611b60565b01905060008167ffffffffffffffff811115611a9357611a9261212b565b5b6040519080825280601f01601f191660200182016040528015611ac55781602001600182028036833780820191505090505b509050600082602001820190505b600115611b32578080600190039150507f3031323334353637383961626364656600000000000000000000000000000000600a86061a8153600a8581611b1c57611b1b612db1565b5b0494506000851415611b2d57611b32565b611ad3565b819350505050919050565b6000808273ffffffffffffffffffffffffffffffffffffffff163b119050919050565b600080600090507a184f03e93ff9f4daa797ed6e38ed64bf6a1f0100000000000000008310611bbe577a184f03e93ff9f4daa797ed6e38ed64bf6a1f0100000000000000008381611bb457611bb3612db1565b5b0492506040810190505b6d04ee2d6d415b85acef81000000008310611bfb576d04ee2d6d415b85acef81000000008381611bf157611bf0612db1565b5b0492506020810190505b662386f26fc100008310611c2a57662386f26fc100008381611c2057611c1f612db1565b5b0492506010810190505b6305f5e1008310611c53576305f5e1008381611c4957611c48612db1565b5b0492506008810190505b6127108310611c78576127108381611c6e57611c6d612db1565b5b0492506004810190505b60648310611c9b5760648381611c9157611c90612db1565b5b0492506002810190505b600a8310611caa576001810190505b80915050919050565b828054611cbf90612445565b90600052602060002090601f016020900481019282611ce15760008555611d28565b82601f10611cfa57805160ff1916838001178555611d28565b82800160010185558215611d28579182015b82811115611d27578251825591602001919060010190611d0c565b5b509050611d359190611d39565b5090565b5b80821115611d52576000816000905550600101611d3a565b5090565b6000604051905090565b600080fd5b600080fd5b60007fffffffff0000000000000000000000000000000000000000000000000000000082169050919050565b611d9f81611d6a565b8114611daa57600080fd5b50565b600081359050611dbc81611d96565b92915050565b600060208284031215611dd857611dd7611d60565b5b6000611de684828501611dad565b91505092915050565b60008115159050919050565b611e0481611def565b82525050565b6000602082019050611e1f6000830184611dfb565b92915050565b600081519050919050565b600082825260208201905092915050565b60005b83811015611e5f578082015181840152602081019050611e44565b83811115611e6e576000848401525b50505050565b6000601f19601f8301169050919050565b6000611e9082611e25565b611e9a8185611e30565b9350611eaa818560208601611e41565b611eb381611e74565b840191505092915050565b60006020820190508181036000830152611ed88184611e85565b905092915050565b6000819050919050565b611ef381611ee0565b8114611efe57600080fd5b50565b600081359050611f1081611eea565b92915050565b600060208284031215611f2c57611f2b611d60565b5b6000611f3a84828501611f01565b91505092915050565b600073ffffffffffffffffffffffffffffffffffffffff82169050919050565b6000611f6e82611f43565b9050919050565b611f7e81611f63565b82525050565b6000602082019050611f996000830184611f75565b92915050565b611fa881611f63565b8114611fb357600080fd5b50565b600081359050611fc581611f9f565b92915050565b60008060408385031215611fe257611fe1611d60565b5b6000611ff085828601611fb6565b925050602061200185828601611f01565b9150509250929050565b60008060006060848603121561202457612023611d60565b5b600061203286828701611fb6565b935050602061204386828701611fb6565b925050604061205486828701611f01565b9150509250925092565b60006020828403121561207457612073611d60565b5b600061208284828501611fb6565b91505092915050565b61209481611ee0565b82525050565b60006020820190506120af600083018461208b565b92915050565b6120be81611def565b81146120c957600080fd5b50565b6000813590506120db816120b5565b92915050565b600080604083850312156120f8576120f7611d60565b5b600061210685828601611fb6565b9250506020612117858286016120cc565b9150509250929050565b600080fd5b600080fd5b7f4e487b7100000000000000000000000000000000000000000000000000000000600052604160045260246000fd5b61216382611e74565b810181811067ffffffffffffffff821117156121825761218161212b565b5b80604052505050565b6000612195611d56565b90506121a1828261215a565b919050565b600067ffffffffffffffff8211156121c1576121c061212b565b5b6121ca82611e74565b9050602081019050919050565b82818337600083830152505050565b60006121f96121f4846121a6565b61218b565b90508281526020810184848401111561221557612214612126565b5b6122208482856121d7565b509392505050565b600082601f83011261223d5761223c612121565b5b813561224d8482602086016121e6565b91505092915050565b600080600080608085870312156122705761226f611d60565b5b600061227e87828801611fb6565b945050602061228f87828801611fb6565b93505060406122a087828801611f01565b925050606085013567ffffffffffffffff8111156122c1576122c0611d65565b5b6122cd87828801612228565b91505092959194509250565b600080604083850312156122f0576122ef611d60565b5b60006122fe85828601611fb6565b925050602061230f85828601611fb6565b9150509250929050565b600067ffffffffffffffff8211156123345761233361212b565b5b61233d82611e74565b9050602081019050919050565b600061235d61235884612319565b61218b565b90508281526020810184848401111561237957612378612126565b5b6123848482856121d7565b509392505050565b600082601f8301126123a1576123a0612121565b5b81356123b184826020860161234a565b91505092915050565b600080604083850312156123d1576123d0611d60565b5b60006123df85828601611fb6565b925050602083013567ffffffffffffffff811115612400576123ff611d65565b5b61240c8582860161238c565b9150509250929050565b7f4e487b7100000000000000000000000000000000000000000000000000000000600052602260045260246000fd5b6000600282049050600182168061245d57607f821691505b6020821081141561247157612470612416565b5b50919050565b7f4552433732313a20617070726f76616c20746f2063757272656e74206f776e6560008201527f7200000000000000000000000000000000000000000000000000000000000000602082015250565b60006124d3602183611e30565b91506124de82612477565b604082019050919050565b60006020820190508181036000830152612502816124c6565b9050919050565b7f4552433732313a20617070726f76652063616c6c6572206973206e6f7420746f60008201527f6b656e206f776e6572206f7220617070726f76656420666f7220616c6c000000602082015250565b6000612565603d83611e30565b915061257082612509565b604082019050919050565b6000602082019050818103600083015261259481612558565b9050919050565b7f4552433732313a2063616c6c6572206973206e6f7420746f6b656e206f776e6560008201527f72206f7220617070726f76656400000000000000000000000000000000000000602082015250565b60006125f7602d83611e30565b91506126028261259b565b604082019050919050565b60006020820190508181036000830152612626816125ea565b9050919050565b7f4552433732313a20696e76616c696420746f6b656e2049440000000000000000600082015250565b6000612663601883611e30565b915061266e8261262d565b602082019050919050565b6000602082019050818103600083015261269281612656565b9050919050565b7f4552433732313a2061646472657373207a65726f206973206e6f74206120766160008201527f6c6964206f776e65720000000000000000000000000000000000000000000000602082015250565b60006126f5602983611e30565b915061270082612699565b604082019050919050565b60006020820190508181036000830152612724816126e8565b9050919050565b600081905092915050565b600061274182611e25565b61274b818561272b565b935061275b818560208601611e41565b80840191505092915050565b60006127738285612736565b915061277f8284612736565b91508190509392505050565b7f4f776e61626c653a206e6577206f776e657220697320746865207a65726f206160008201527f6464726573730000000000000000000000000000000000000000000000000000602082015250565b60006127e7602683611e30565b91506127f28261278b565b604082019050919050565b60006020820190508181036000830152612816816127da565b9050919050565b7f4552433732313a207472616e736665722066726f6d20696e636f72726563742060008201527f6f776e6572000000000000000000000000000000000000000000000000000000602082015250565b6000612879602583611e30565b91506128848261281d565b604082019050919050565b600060208201905081810360008301526128a88161286c565b9050919050565b7f4552433732313a207472616e7366657220746f20746865207a65726f2061646460008201527f7265737300000000000000000000000000000000000000000000000000000000602082015250565b600061290b602483611e30565b9150612916826128af565b604082019050919050565b6000602082019050818103600083015261293a816128fe565b9050919050565b7f4f776e61626c653a2063616c6c6572206973206e6f7420746865206f776e6572600082015250565b6000612977602083611e30565b915061298282612941565b602082019050919050565b600060208201905081810360008301526129a68161296a565b9050919050565b7f4552433732313a20617070726f766520746f2063616c6c657200000000000000600082015250565b60006129e3601983611e30565b91506129ee826129ad565b602082019050919050565b60006020820190508181036000830152612a12816129d6565b9050919050565b7f4552433732313a207472616e7366657220746f206e6f6e20455243373231526560008201527f63656976657220696d706c656d656e7465720000000000000000000000000000602082015250565b6000612a75603283611e30565b9150612a8082612a19565b604082019050919050565b60006020820190508181036000830152612aa481612a68565b9050919050565b7f4552433732313a206d696e7420746f20746865207a65726f2061646472657373600082015250565b6000612ae1602083611e30565b9150612aec82612aab565b602082019050919050565b60006020820190508181036000830152612b1081612ad4565b9050919050565b7f4552433732313a20746f6b656e20616c7265616479206d696e74656400000000600082015250565b6000612b4d601c83611e30565b9150612b5882612b17565b602082019050919050565b60006020820190508181036000830152612b7c81612b40565b9050919050565b7f45524337323155524953746f726167653a2055524920736574206f66206e6f6e60008201527f6578697374656e7420746f6b656e000000000000000000000000000000000000602082015250565b6000612bdf602e83611e30565b9150612bea82612b83565b604082019050919050565b60006020820190508181036000830152612c0e81612bd2565b9050919050565b7f4e487b7100000000000000000000000000000000000000000000000000000000600052601160045260246000fd5b6000612c4f82611ee0565b9150612c5a83611ee0565b925082821015612c6d57612c6c612c15565b5b828203905092915050565b6000612c8382611ee0565b9150612c8e83611ee0565b9250827fffffffffffffffffffffffffffffffffffffffffffffffffffffffffffffffff03821115612cc357612cc2612c15565b5b828201905092915050565b600081519050919050565b600082825260208201905092915050565b6000612cf582612cce565b612cff8185612cd9565b9350612d0f818560208601611e41565b612d1881611e74565b840191505092915050565b6000608082019050612d386000830187611f75565b612d456020830186611f75565b612d52604083018561208b565b8181036060830152612d648184612cea565b905095945050505050565b600081519050612d7e81611d96565b92915050565b600060208284031215612d9a57612d99611d60565b5b6000612da884828501612d6f565b91505092915050565b7f4e487b7100000000000000000000000000000000000000000000000000000000600052601260045260246000fdfea2646970667358221220efbc210efcb642cec4498bafe2314453048ed116f1abaff4e7908e5dbdaefbf664736f6c63430008090033","opcodes":"PUSH1 0x80 PUSH1 0x40 MSTORE CALLVALUE DUP1 ISZERO PUSH3 0x11 JUMPI PUSH1 0x0 DUP1 REVERT JUMPDEST POP PUSH1 0x40 MLOAD PUSH3 0x32C0 CODESIZE SUB DUP1 PUSH3 0x32C0 DUP4 CODECOPY DUP2 DUP2 ADD PUSH1 0x40 MSTORE DUP2 ADD SWAP1 PUSH3 0x37 SWAP2 SWAP1 PUSH3 0x3B0 JUMP JUMPDEST DUP2 DUP2 DUP2 PUSH1 0x0 SWAP1 DUP1 MLOAD SWAP1 PUSH1 0x20 ADD SWAP1 PUSH3 0x51 SWAP3 SWAP2 SWAP1 PUSH3 0x163 JUMP JUMPDEST POP DUP1 PUSH1 0x1 SWAP1 DUP1 MLOAD SWAP1 PUSH1 0x20 ADD SWAP1 PUSH3 0x6A SWAP3 SWAP2 SWAP1 PUSH3 0x163 JUMP JUMPDEST POP POP POP PUSH3 0x8D PUSH3 0x81 PUSH3 0x95 PUSH1 0x20 SHL PUSH1 0x20 SHR JUMP JUMPDEST PUSH3 0x9D PUSH1 0x20 SHL PUSH1 0x20 SHR JUMP JUMPDEST POP POP PUSH3 0x49A JUMP JUMPDEST PUSH1 0x0 CALLER SWAP1 POP SWAP1 JUMP JUMPDEST PUSH1 0x0 PUSH1 0x7 PUSH1 0x0 SWAP1 SLOAD SWAP1 PUSH2 0x100 EXP SWAP1 DIV PUSH20 0xFFFFFFFFFFFFFFFFFFFFFFFFFFFFFFFFFFFFFFFF AND SWAP1 POP DUP2 PUSH1 0x7 PUSH1 0x0 PUSH2 0x100 EXP DUP2 SLOAD DUP2 PUSH20 0xFFFFFFFFFFFFFFFFFFFFFFFFFFFFFFFFFFFFFFFF MUL NOT AND SWAP1 DUP4 PUSH20 0xFFFFFFFFFFFFFFFFFFFFFFFFFFFFFFFFFFFFFFFF AND MUL OR SWAP1 SSTORE POP DUP2 PUSH20 0xFFFFFFFFFFFFFFFFFFFFFFFFFFFFFFFFFFFFFFFF AND DUP2 PUSH20 0xFFFFFFFFFFFFFFFFFFFFFFFFFFFFFFFFFFFFFFFF AND PUSH32 0x8BE0079C531659141344CD1FD0A4F28419497F9722A3DAAFE3B4186F6B6457E0 PUSH1 0x40 MLOAD PUSH1 0x40 MLOAD DUP1 SWAP2 SUB SWAP1 LOG3 POP POP JUMP JUMPDEST DUP3 DUP1 SLOAD PUSH3 0x171 SWAP1 PUSH3 0x464 JUMP JUMPDEST SWAP1 PUSH1 0x0 MSTORE PUSH1 0x20 PUSH1 0x0 KECCAK256 SWAP1 PUSH1 0x1F ADD PUSH1 0x20 SWAP1 DIV DUP2 ADD SWAP3 DUP3 PUSH3 0x195 JUMPI PUSH1 0x0 DUP6 SSTORE PUSH3 0x1E1 JUMP JUMPDEST DUP3 PUSH1 0x1F LT PUSH3 0x1B0 JUMPI DUP1 MLOAD PUSH1 0xFF NOT AND DUP4 DUP1 ADD OR DUP6 SSTORE PUSH3 0x1E1 JUMP JUMPDEST DUP3 DUP1 ADD PUSH1 0x1 ADD DUP6 SSTORE DUP3 ISZERO PUSH3 0x1E1 JUMPI SWAP2 DUP3 ADD JUMPDEST DUP3 DUP2 GT ISZERO PUSH3 0x1E0 JUMPI DUP3 MLOAD DUP3 SSTORE SWAP2 PUSH1 0x20 ADD SWAP2 SWAP1 PUSH1 0x1 ADD SWAP1 PUSH3 0x1C3 JUMP JUMPDEST JUMPDEST POP SWAP1 POP PUSH3 0x1F0 SWAP2 SWAP1 PUSH3 0x1F4 JUMP JUMPDEST POP SWAP1 JUMP JUMPDEST JUMPDEST DUP1 DUP3 GT ISZERO PUSH3 0x20F JUMPI PUSH1 0x0 DUP2 PUSH1 0x0 SWAP1 SSTORE POP PUSH1 0x1 ADD PUSH3 0x1F5 JUMP JUMPDEST POP SWAP1 JUMP JUMPDEST PUSH1 0x0 PUSH1 0x40 MLOAD SWAP1 POP SWAP1 JUMP JUMPDEST PUSH1 0x0 DUP1 REVERT JUMPDEST PUSH1 0x0 DUP1 REVERT JUMPDEST PUSH1 0x0 DUP1 REVERT JUMPDEST PUSH1 0x0 DUP1 REVERT JUMPDEST PUSH1 0x0 PUSH1 0x1F NOT PUSH1 0x1F DUP4 ADD AND SWAP1 POP SWAP2 SWAP1 POP JUMP JUMPDEST PUSH32 0x4E487B7100000000000000000000000000000000000000000000000000000000 PUSH1 0x0 MSTORE PUSH1 0x41 PUSH1 0x4 MSTORE PUSH1 0x24 PUSH1 0x0 REVERT JUMPDEST PUSH3 0x27C DUP3 PUSH3 0x231 JUMP JUMPDEST DUP2 ADD DUP2 DUP2 LT PUSH8 0xFFFFFFFFFFFFFFFF DUP3 GT OR ISZERO PUSH3 0x29E JUMPI PUSH3 0x29D PUSH3 0x242 JUMP JUMPDEST JUMPDEST DUP1 PUSH1 0x40 MSTORE POP POP POP JUMP JUMPDEST PUSH1 0x0 PUSH3 0x2B3 PUSH3 0x213 JUMP JUMPDEST SWAP1 POP PUSH3 0x2C1 DUP3 DUP3 PUSH3 0x271 JUMP JUMPDEST SWAP2 SWAP1 POP JUMP JUMPDEST PUSH1 0x0 PUSH8 0xFFFFFFFFFFFFFFFF DUP3 GT ISZERO PUSH3 0x2E4 JUMPI PUSH3 0x2E3 PUSH3 0x242 JUMP JUMPDEST JUMPDEST PUSH3 0x2EF DUP3 PUSH3 0x231 JUMP JUMPDEST SWAP1 POP PUSH1 0x20 DUP2 ADD SWAP1 POP SWAP2 SWAP1 POP JUMP JUMPDEST PUSH1 0x0 JUMPDEST DUP4 DUP2 LT ISZERO PUSH3 0x31C JUMPI DUP1 DUP3 ADD MLOAD DUP2 DUP5 ADD MSTORE PUSH1 0x20 DUP2 ADD SWAP1 POP PUSH3 0x2FF JUMP JUMPDEST DUP4 DUP2 GT ISZERO PUSH3 0x32C JUMPI PUSH1 0x0 DUP5 DUP5 ADD MSTORE JUMPDEST POP POP POP POP JUMP JUMPDEST PUSH1 0x0 PUSH3 0x349 PUSH3 0x343 DUP5 PUSH3 0x2C6 JUMP JUMPDEST PUSH3 0x2A7 JUMP JUMPDEST SWAP1 POP DUP3 DUP2 MSTORE PUSH1 0x20 DUP2 ADD DUP5 DUP5 DUP5 ADD GT ISZERO PUSH3 0x368 JUMPI PUSH3 0x367 PUSH3 0x22C JUMP JUMPDEST JUMPDEST PUSH3 0x375 DUP5 DUP3 DUP6 PUSH3 0x2FC JUMP JUMPDEST POP SWAP4 SWAP3 POP POP POP JUMP JUMPDEST PUSH1 0x0 DUP3 PUSH1 0x1F DUP4 ADD SLT PUSH3 0x395 JUMPI PUSH3 0x394 PUSH3 0x227 JUMP JUMPDEST JUMPDEST DUP2 MLOAD PUSH3 0x3A7 DUP5 DUP3 PUSH1 0x20 DUP7 ADD PUSH3 0x332 JUMP JUMPDEST SWAP2 POP POP SWAP3 SWAP2 POP POP JUMP JUMPDEST PUSH1 0x0 DUP1 PUSH1 0x40 DUP4 DUP6 SUB SLT ISZERO PUSH3 0x3CA JUMPI PUSH3 0x3C9 PUSH3 0x21D JUMP JUMPDEST JUMPDEST PUSH1 0x0 DUP4 ADD MLOAD PUSH8 0xFFFFFFFFFFFFFFFF DUP2 GT ISZERO PUSH3 0x3EB JUMPI PUSH3 0x3EA PUSH3 0x222 JUMP JUMPDEST JUMPDEST PUSH3 0x3F9 DUP6 DUP3 DUP7 ADD PUSH3 0x37D JUMP JUMPDEST SWAP3 POP POP PUSH1 0x20 DUP4 ADD MLOAD PUSH8 0xFFFFFFFFFFFFFFFF DUP2 GT ISZERO PUSH3 0x41D JUMPI PUSH3 0x41C PUSH3 0x222 JUMP JUMPDEST JUMPDEST PUSH3 0x42B DUP6 DUP3 DUP7 ADD PUSH3 0x37D JUMP JUMPDEST SWAP2 POP POP SWAP3 POP SWAP3 SWAP1 POP JUMP JUMPDEST PUSH32 0x4E487B7100000000000000000000000000000000000000000000000000000000 PUSH1 0x0 MSTORE PUSH1 0x22 PUSH1 0x4 MSTORE PUSH1 0x24 PUSH1 0x0 REVERT JUMPDEST PUSH1 0x0 PUSH1 0x2 DUP3 DIV SWAP1 POP PUSH1 0x1 DUP3 AND DUP1 PUSH3 0x47D JUMPI PUSH1 0x7F DUP3 AND SWAP2 POP JUMPDEST PUSH1 0x20 DUP3 LT DUP2 EQ ISZERO PUSH3 0x494 JUMPI PUSH3 0x493 PUSH3 0x435 JUMP JUMPDEST JUMPDEST POP SWAP2 SWAP1 POP JUMP JUMPDEST PUSH2 0x2E16 DUP1 PUSH3 0x4AA PUSH1 0x0 CODECOPY PUSH1 0x0 RETURN INVALID PUSH1 0x80 PUSH1 0x40 MSTORE CALLVALUE DUP1 ISZERO PUSH2 0x10 JUMPI PUSH1 0x0 DUP1 REVERT JUMPDEST POP PUSH1 0x4 CALLDATASIZE LT PUSH2 0x116 JUMPI PUSH1 0x0 CALLDATALOAD PUSH1 0xE0 SHR DUP1 PUSH4 0x8DA5CB5B GT PUSH2 0xA2 JUMPI DUP1 PUSH4 0xB88D4FDE GT PUSH2 0x71 JUMPI DUP1 PUSH4 0xB88D4FDE EQ PUSH2 0x2CD JUMPI DUP1 PUSH4 0xC87B56DD EQ PUSH2 0x2E9 JUMPI DUP1 PUSH4 0xE985E9C5 EQ PUSH2 0x319 JUMPI DUP1 PUSH4 0xEACABE14 EQ PUSH2 0x349 JUMPI DUP1 PUSH4 0xF2FDE38B EQ PUSH2 0x379 JUMPI PUSH2 0x116 JUMP JUMPDEST DUP1 PUSH4 0x8DA5CB5B EQ PUSH2 0x257 JUMPI DUP1 PUSH4 0x95D89B41 EQ PUSH2 0x275 JUMPI DUP1 PUSH4 0xA22CB465 EQ PUSH2 0x293 JUMPI DUP1 PUSH4 0xAA46A400 EQ PUSH2 0x2AF JUMPI PUSH2 0x116 JUMP JUMPDEST DUP1 PUSH4 0x23B872DD GT PUSH2 0xE9 JUMPI DUP1 PUSH4 0x23B872DD EQ PUSH2 0x1B5 JUMPI DUP1 PUSH4 0x42842E0E EQ PUSH2 0x1D1 JUMPI DUP1 PUSH4 0x6352211E EQ PUSH2 0x1ED JUMPI DUP1 PUSH4 0x70A08231 EQ PUSH2 0x21D JUMPI DUP1 PUSH4 0x715018A6 EQ PUSH2 0x24D JUMPI PUSH2 0x116 JUMP JUMPDEST DUP1 PUSH4 0x1FFC9A7 EQ PUSH2 0x11B JUMPI DUP1 PUSH4 0x6FDDE03 EQ PUSH2 0x14B JUMPI DUP1 PUSH4 0x81812FC EQ PUSH2 0x169 JUMPI DUP1 PUSH4 0x95EA7B3 EQ PUSH2 0x199 JUMPI JUMPDEST PUSH1 0x0 DUP1 REVERT JUMPDEST PUSH2 0x135 PUSH1 0x4 DUP1 CALLDATASIZE SUB DUP2 ADD SWAP1 PUSH2 0x130 SWAP2 SWAP1 PUSH2 0x1DC2 JUMP JUMPDEST PUSH2 0x395 JUMP JUMPDEST PUSH1 0x40 MLOAD PUSH2 0x142 SWAP2 SWAP1 PUSH2 0x1E0A JUMP JUMPDEST PUSH1 0x40 MLOAD DUP1 SWAP2 SUB SWAP1 RETURN JUMPDEST PUSH2 0x153 PUSH2 0x477 JUMP JUMPDEST PUSH1 0x40 MLOAD PUSH2 0x160 SWAP2 SWAP1 PUSH2 0x1EBE JUMP JUMPDEST PUSH1 0x40 MLOAD DUP1 SWAP2 SUB SWAP1 RETURN JUMPDEST PUSH2 0x183 PUSH1 0x4 DUP1 CALLDATASIZE SUB DUP2 ADD SWAP1 PUSH2 0x17E SWAP2 SWAP1 PUSH2 0x1F16 JUMP JUMPDEST PUSH2 0x509 JUMP JUMPDEST PUSH1 0x40 MLOAD PUSH2 0x190 SWAP2 SWAP1 PUSH2 0x1F84 JUMP JUMPDEST PUSH1 0x40 MLOAD DUP1 SWAP2 SUB SWAP1 RETURN JUMPDEST PUSH2 0x1B3 PUSH1 0x4 DUP1 CALLDATASIZE SUB DUP2 ADD SWAP1 PUSH2 0x1AE SWAP2 SWAP1 PUSH2 0x1FCB JUMP JUMPDEST PUSH2 0x54F JUMP JUMPDEST STOP JUMPDEST PUSH2 0x1CF PUSH1 0x4 DUP1 CALLDATASIZE SUB DUP2 ADD SWAP1 PUSH2 0x1CA SWAP2 SWAP1 PUSH2 0x200B JUMP JUMPDEST PUSH2 0x667 JUMP JUMPDEST STOP JUMPDEST PUSH2 0x1EB PUSH1 0x4 DUP1 CALLDATASIZE SUB DUP2 ADD SWAP1 PUSH2 0x1E6 SWAP2 SWAP1 PUSH2 0x200B JUMP JUMPDEST PUSH2 0x6C7 JUMP JUMPDEST STOP JUMPDEST PUSH2 0x207 PUSH1 0x4 DUP1 CALLDATASIZE SUB DUP2 ADD SWAP1 PUSH2 0x202 SWAP2 SWAP1 PUSH2 0x1F16 JUMP JUMPDEST PUSH2 0x6E7 JUMP JUMPDEST PUSH1 0x40 MLOAD PUSH2 0x214 SWAP2 SWAP1 PUSH2 0x1F84 JUMP JUMPDEST PUSH1 0x40 MLOAD DUP1 SWAP2 SUB SWAP1 RETURN JUMPDEST PUSH2 0x237 PUSH1 0x4 DUP1 CALLDATASIZE SUB DUP2 ADD SWAP1 PUSH2 0x232 SWAP2 SWAP1 PUSH2 0x205E JUMP JUMPDEST PUSH2 0x76E JUMP JUMPDEST PUSH1 0x40 MLOAD PUSH2 0x244 SWAP2 SWAP1 PUSH2 0x209A JUMP JUMPDEST PUSH1 0x40 MLOAD DUP1 SWAP2 SUB SWAP1 RETURN JUMPDEST PUSH2 0x255 PUSH2 0x826 JUMP JUMPDEST STOP JUMPDEST PUSH2 0x25F PUSH2 0x83A JUMP JUMPDEST PUSH1 0x40 MLOAD PUSH2 0x26C SWAP2 SWAP1 PUSH2 0x1F84 JUMP JUMPDEST PUSH1 0x40 MLOAD DUP1 SWAP2 SUB SWAP1 RETURN JUMPDEST PUSH2 0x27D PUSH2 0x864 JUMP JUMPDEST PUSH1 0x40 MLOAD PUSH2 0x28A SWAP2 SWAP1 PUSH2 0x1EBE JUMP JUMPDEST PUSH1 0x40 MLOAD DUP1 SWAP2 SUB SWAP1 RETURN JUMPDEST PUSH2 0x2AD PUSH1 0x4 DUP1 CALLDATASIZE SUB DUP2 ADD SWAP1 PUSH2 0x2A8 SWAP2 SWAP1 PUSH2 0x20E1 JUMP JUMPDEST PUSH2 0x8F6 JUMP JUMPDEST STOP JUMPDEST PUSH2 0x2B7 PUSH2 0x90C JUMP JUMPDEST PUSH1 0x40 MLOAD PUSH2 0x2C4 SWAP2 SWAP1 PUSH2 0x209A JUMP JUMPDEST PUSH1 0x40 MLOAD DUP1 SWAP2 SUB SWAP1 RETURN JUMPDEST PUSH2 0x2E7 PUSH1 0x4 DUP1 CALLDATASIZE SUB DUP2 ADD SWAP1 PUSH2 0x2E2 SWAP2 SWAP1 PUSH2 0x2256 JUMP JUMPDEST PUSH2 0x918 JUMP JUMPDEST STOP JUMPDEST PUSH2 0x303 PUSH1 0x4 DUP1 CALLDATASIZE SUB DUP2 ADD SWAP1 PUSH2 0x2FE SWAP2 SWAP1 PUSH2 0x1F16 JUMP JUMPDEST PUSH2 0x97A JUMP JUMPDEST PUSH1 0x40 MLOAD PUSH2 0x310 SWAP2 SWAP1 PUSH2 0x1EBE JUMP JUMPDEST PUSH1 0x40 MLOAD DUP1 SWAP2 SUB SWAP1 RETURN JUMPDEST PUSH2 0x333 PUSH1 0x4 DUP1 CALLDATASIZE SUB DUP2 ADD SWAP1 PUSH2 0x32E SWAP2 SWAP1 PUSH2 0x22D9 JUMP JUMPDEST PUSH2 0xA8D JUMP JUMPDEST PUSH1 0x40 MLOAD PUSH2 0x340 SWAP2 SWAP1 PUSH2 0x1E0A JUMP JUMPDEST PUSH1 0x40 MLOAD DUP1 SWAP2 SUB SWAP1 RETURN JUMPDEST PUSH2 0x363 PUSH1 0x4 DUP1 CALLDATASIZE SUB DUP2 ADD SWAP1 PUSH2 0x35E SWAP2 SWAP1 PUSH2 0x23BA JUMP JUMPDEST PUSH2 0xB21 JUMP JUMPDEST PUSH1 0x40 MLOAD PUSH2 0x370 SWAP2 SWAP1 PUSH2 0x209A JUMP JUMPDEST PUSH1 0x40 MLOAD DUP1 SWAP2 SUB SWAP1 RETURN JUMPDEST PUSH2 0x393 PUSH1 0x4 DUP1 CALLDATASIZE SUB DUP2 ADD SWAP1 PUSH2 0x38E SWAP2 SWAP1 PUSH2 0x205E JUMP JUMPDEST PUSH2 0xB59 JUMP JUMPDEST STOP JUMPDEST PUSH1 0x0 PUSH32 0x80AC58CD00000000000000000000000000000000000000000000000000000000 PUSH28 0xFFFFFFFFFFFFFFFFFFFFFFFFFFFFFFFFFFFFFFFFFFFFFFFFFFFFFFFF NOT AND DUP3 PUSH28 0xFFFFFFFFFFFFFFFFFFFFFFFFFFFFFFFFFFFFFFFFFFFFFFFFFFFFFFFF NOT AND EQ DUP1 PUSH2 0x460 JUMPI POP PUSH32 0x5B5E139F00000000000000000000000000000000000000000000000000000000 PUSH28 0xFFFFFFFFFFFFFFFFFFFFFFFFFFFFFFFFFFFFFFFFFFFFFFFFFFFFFFFF NOT AND DUP3 PUSH28 0xFFFFFFFFFFFFFFFFFFFFFFFFFFFFFFFFFFFFFFFFFFFFFFFFFFFFFFFF NOT AND EQ JUMPDEST DUP1 PUSH2 0x470 JUMPI POP PUSH2 0x46F DUP3 PUSH2 0xBDD JUMP JUMPDEST JUMPDEST SWAP1 POP SWAP2 SWAP1 POP JUMP JUMPDEST PUSH1 0x60 PUSH1 0x0 DUP1 SLOAD PUSH2 0x486 SWAP1 PUSH2 0x2445 JUMP JUMPDEST DUP1 PUSH1 0x1F ADD PUSH1 0x20 DUP1 SWAP2 DIV MUL PUSH1 0x20 ADD PUSH1 0x40 MLOAD SWAP1 DUP2 ADD PUSH1 0x40 MSTORE DUP1 SWAP3 SWAP2 SWAP1 DUP2 DUP2 MSTORE PUSH1 0x20 ADD DUP3 DUP1 SLOAD PUSH2 0x4B2 SWAP1 PUSH2 0x2445 JUMP JUMPDEST DUP1 ISZERO PUSH2 0x4FF JUMPI DUP1 PUSH1 0x1F LT PUSH2 0x4D4 JUMPI PUSH2 0x100 DUP1 DUP4 SLOAD DIV MUL DUP4 MSTORE SWAP2 PUSH1 0x20 ADD SWAP2 PUSH2 0x4FF JUMP JUMPDEST DUP3 ADD SWAP2 SWAP1 PUSH1 0x0 MSTORE PUSH1 0x20 PUSH1 0x0 KECCAK256 SWAP1 JUMPDEST DUP2 SLOAD DUP2 MSTORE SWAP1 PUSH1 0x1 ADD SWAP1 PUSH1 0x20 ADD DUP1 DUP4 GT PUSH2 0x4E2 JUMPI DUP3 SWAP1 SUB PUSH1 0x1F AND DUP3 ADD SWAP2 JUMPDEST POP POP POP POP POP SWAP1 POP SWAP1 JUMP JUMPDEST PUSH1 0x0 PUSH2 0x514 DUP3 PUSH2 0xC47 JUMP JUMPDEST PUSH1 0x4 PUSH1 0x0 DUP4 DUP2 MSTORE PUSH1 0x20 ADD SWAP1 DUP2 MSTORE PUSH1 0x20 ADD PUSH1 0x0 KECCAK256 PUSH1 0x0 SWAP1 SLOAD SWAP1 PUSH2 0x100 EXP SWAP1 DIV PUSH20 0xFFFFFFFFFFFFFFFFFFFFFFFFFFFFFFFFFFFFFFFF AND SWAP1 POP SWAP2 SWAP1 POP JUMP JUMPDEST PUSH1 0x0 PUSH2 0x55A DUP3 PUSH2 0x6E7 JUMP JUMPDEST SWAP1 POP DUP1 PUSH20 0xFFFFFFFFFFFFFFFFFFFFFFFFFFFFFFFFFFFFFFFF AND DUP4 PUSH20 0xFFFFFFFFFFFFFFFFFFFFFFFFFFFFFFFFFFFFFFFF AND EQ ISZERO PUSH2 0x5CB JUMPI PUSH1 0x40 MLOAD PUSH32 0x8C379A000000000000000000000000000000000000000000000000000000000 DUP2 MSTORE PUSH1 0x4 ADD PUSH2 0x5C2 SWAP1 PUSH2 0x24E9 JUMP JUMPDEST PUSH1 0x40 MLOAD DUP1 SWAP2 SUB SWAP1 REVERT JUMPDEST DUP1 PUSH20 0xFFFFFFFFFFFFFFFFFFFFFFFFFFFFFFFFFFFFFFFF AND PUSH2 0x5EA PUSH2 0xC92 JUMP JUMPDEST PUSH20 0xFFFFFFFFFFFFFFFFFFFFFFFFFFFFFFFFFFFFFFFF AND EQ DUP1 PUSH2 0x619 JUMPI POP PUSH2 0x618 DUP2 PUSH2 0x613 PUSH2 0xC92 JUMP JUMPDEST PUSH2 0xA8D JUMP JUMPDEST JUMPDEST PUSH2 0x658 JUMPI PUSH1 0x40 MLOAD PUSH32 0x8C379A000000000000000000000000000000000000000000000000000000000 DUP2 MSTORE PUSH1 0x4 ADD PUSH2 0x64F SWAP1 PUSH2 0x257B JUMP JUMPDEST PUSH1 0x40 MLOAD DUP1 SWAP2 SUB SWAP1 REVERT JUMPDEST PUSH2 0x662 DUP4 DUP4 PUSH2 0xC9A JUMP JUMPDEST POP POP POP JUMP JUMPDEST PUSH2 0x678 PUSH2 0x672 PUSH2 0xC92 JUMP JUMPDEST DUP3 PUSH2 0xD53 JUMP JUMPDEST PUSH2 0x6B7 JUMPI PUSH1 0x40 MLOAD PUSH32 0x8C379A000000000000000000000000000000000000000000000000000000000 DUP2 MSTORE PUSH1 0x4 ADD PUSH2 0x6AE SWAP1 PUSH2 0x260D JUMP JUMPDEST PUSH1 0x40 MLOAD DUP1 SWAP2 SUB SWAP1 REVERT JUMPDEST PUSH2 0x6C2 DUP4 DUP4 DUP4 PUSH2 0xDE8 JUMP JUMPDEST POP POP POP JUMP JUMPDEST PUSH2 0x6E2 DUP4 DUP4 DUP4 PUSH1 0x40 MLOAD DUP1 PUSH1 0x20 ADD PUSH1 0x40 MSTORE DUP1 PUSH1 0x0 DUP2 MSTORE POP PUSH2 0x918 JUMP JUMPDEST POP POP POP JUMP JUMPDEST PUSH1 0x0 DUP1 PUSH2 0x6F3 DUP4 PUSH2 0x10E2 JUMP JUMPDEST SWAP1 POP PUSH1 0x0 PUSH20 0xFFFFFFFFFFFFFFFFFFFFFFFFFFFFFFFFFFFFFFFF AND DUP2 PUSH20 0xFFFFFFFFFFFFFFFFFFFFFFFFFFFFFFFFFFFFFFFF AND EQ ISZERO PUSH2 0x765 JUMPI PUSH1 0x40 MLOAD PUSH32 0x8C379A000000000000000000000000000000000000000000000000000000000 DUP2 MSTORE PUSH1 0x4 ADD PUSH2 0x75C SWAP1 PUSH2 0x2679 JUMP JUMPDEST PUSH1 0x40 MLOAD DUP1 SWAP2 SUB SWAP1 REVERT JUMPDEST DUP1 SWAP2 POP POP SWAP2 SWAP1 POP JUMP JUMPDEST PUSH1 0x0 DUP1 PUSH20 0xFFFFFFFFFFFFFFFFFFFFFFFFFFFFFFFFFFFFFFFF AND DUP3 PUSH20 0xFFFFFFFFFFFFFFFFFFFFFFFFFFFFFFFFFFFFFFFF AND EQ ISZERO PUSH2 0x7DF JUMPI PUSH1 0x40 MLOAD PUSH32 0x8C379A000000000000000000000000000000000000000000000000000000000 DUP2 MSTORE PUSH1 0x4 ADD PUSH2 0x7D6 SWAP1 PUSH2 0x270B JUMP JUMPDEST PUSH1 0x40 MLOAD DUP1 SWAP2 SUB SWAP1 REVERT JUMPDEST PUSH1 0x3 PUSH1 0x0 DUP4 PUSH20 0xFFFFFFFFFFFFFFFFFFFFFFFFFFFFFFFFFFFFFFFF AND PUSH20 0xFFFFFFFFFFFFFFFFFFFFFFFFFFFFFFFFFFFFFFFF AND DUP2 MSTORE PUSH1 0x20 ADD SWAP1 DUP2 MSTORE PUSH1 0x20 ADD PUSH1 0x0 KECCAK256 SLOAD SWAP1 POP SWAP2 SWAP1 POP JUMP JUMPDEST PUSH2 0x82E PUSH2 0x111F JUMP JUMPDEST PUSH2 0x838 PUSH1 0x0 PUSH2 0x119D JUMP JUMPDEST JUMP JUMPDEST PUSH1 0x0 PUSH1 0x7 PUSH1 0x0 SWAP1 SLOAD SWAP1 PUSH2 0x100 EXP SWAP1 DIV PUSH20 0xFFFFFFFFFFFFFFFFFFFFFFFFFFFFFFFFFFFFFFFF AND SWAP1 POP SWAP1 JUMP JUMPDEST PUSH1 0x60 PUSH1 0x1 DUP1 SLOAD PUSH2 0x873 SWAP1 PUSH2 0x2445 JUMP JUMPDEST DUP1 PUSH1 0x1F ADD PUSH1 0x20 DUP1 SWAP2 DIV MUL PUSH1 0x20 ADD PUSH1 0x40 MLOAD SWAP1 DUP2 ADD PUSH1 0x40 MSTORE DUP1 SWAP3 SWAP2 SWAP1 DUP2 DUP2 MSTORE PUSH1 0x20 ADD DUP3 DUP1 SLOAD PUSH2 0x89F SWAP1 PUSH2 0x2445 JUMP JUMPDEST DUP1 ISZERO PUSH2 0x8EC JUMPI DUP1 PUSH1 0x1F LT PUSH2 0x8C1 JUMPI PUSH2 0x100 DUP1 DUP4 SLOAD DIV MUL DUP4 MSTORE SWAP2 PUSH1 0x20 ADD SWAP2 PUSH2 0x8EC JUMP JUMPDEST DUP3 ADD SWAP2 SWAP1 PUSH1 0x0 MSTORE PUSH1 0x20 PUSH1 0x0 KECCAK256 SWAP1 JUMPDEST DUP2 SLOAD DUP2 MSTORE SWAP1 PUSH1 0x1 ADD SWAP1 PUSH1 0x20 ADD DUP1 DUP4 GT PUSH2 0x8CF JUMPI DUP3 SWAP1 SUB PUSH1 0x1F AND DUP3 ADD SWAP2 JUMPDEST POP POP POP POP POP SWAP1 POP SWAP1 JUMP JUMPDEST PUSH2 0x908 PUSH2 0x901 PUSH2 0xC92 JUMP JUMPDEST DUP4 DUP4 PUSH2 0x1263 JUMP JUMPDEST POP POP JUMP JUMPDEST PUSH1 0x8 DUP1 PUSH1 0x0 ADD SLOAD SWAP1 POP DUP2 JUMP JUMPDEST PUSH2 0x929 PUSH2 0x923 PUSH2 0xC92 JUMP JUMPDEST DUP4 PUSH2 0xD53 JUMP JUMPDEST PUSH2 0x968 JUMPI PUSH1 0x40 MLOAD PUSH32 0x8C379A000000000000000000000000000000000000000000000000000000000 DUP2 MSTORE PUSH1 0x4 ADD PUSH2 0x95F SWAP1 PUSH2 0x260D JUMP JUMPDEST PUSH1 0x40 MLOAD DUP1 SWAP2 SUB SWAP1 REVERT JUMPDEST PUSH2 0x974 DUP5 DUP5 DUP5 DUP5 PUSH2 0x13D0 JUMP JUMPDEST POP POP POP POP JUMP JUMPDEST PUSH1 0x60 PUSH2 0x985 DUP3 PUSH2 0xC47 JUMP JUMPDEST PUSH1 0x0 PUSH1 0x6 PUSH1 0x0 DUP5 DUP2 MSTORE PUSH1 0x20 ADD SWAP1 DUP2 MSTORE PUSH1 0x20 ADD PUSH1 0x0 KECCAK256 DUP1 SLOAD PUSH2 0x9A5 SWAP1 PUSH2 0x2445 JUMP JUMPDEST DUP1 PUSH1 0x1F ADD PUSH1 0x20 DUP1 SWAP2 DIV MUL PUSH1 0x20 ADD PUSH1 0x40 MLOAD SWAP1 DUP2 ADD PUSH1 0x40 MSTORE DUP1 SWAP3 SWAP2 SWAP1 DUP2 DUP2 MSTORE PUSH1 0x20 ADD DUP3 DUP1 SLOAD PUSH2 0x9D1 SWAP1 PUSH2 0x2445 JUMP JUMPDEST DUP1 ISZERO PUSH2 0xA1E JUMPI DUP1 PUSH1 0x1F LT PUSH2 0x9F3 JUMPI PUSH2 0x100 DUP1 DUP4 SLOAD DIV MUL DUP4 MSTORE SWAP2 PUSH1 0x20 ADD SWAP2 PUSH2 0xA1E JUMP JUMPDEST DUP3 ADD SWAP2 SWAP1 PUSH1 0x0 MSTORE PUSH1 0x20 PUSH1 0x0 KECCAK256 SWAP1 JUMPDEST DUP2 SLOAD DUP2 MSTORE SWAP1 PUSH1 0x1 ADD SWAP1 PUSH1 0x20 ADD DUP1 DUP4 GT PUSH2 0xA01 JUMPI DUP3 SWAP1 SUB PUSH1 0x1F AND DUP3 ADD SWAP2 JUMPDEST POP POP POP POP POP SWAP1 POP PUSH1 0x0 PUSH2 0xA2F PUSH2 0x142C JUMP JUMPDEST SWAP1 POP PUSH1 0x0 DUP2 MLOAD EQ ISZERO PUSH2 0xA45 JUMPI DUP2 SWAP3 POP POP POP PUSH2 0xA88 JUMP JUMPDEST PUSH1 0x0 DUP3 MLOAD GT ISZERO PUSH2 0xA7A JUMPI DUP1 DUP3 PUSH1 0x40 MLOAD PUSH1 0x20 ADD PUSH2 0xA62 SWAP3 SWAP2 SWAP1 PUSH2 0x2767 JUMP JUMPDEST PUSH1 0x40 MLOAD PUSH1 0x20 DUP2 DUP4 SUB SUB DUP2 MSTORE SWAP1 PUSH1 0x40 MSTORE SWAP3 POP POP POP PUSH2 0xA88 JUMP JUMPDEST PUSH2 0xA83 DUP5 PUSH2 0x1443 JUMP JUMPDEST SWAP3 POP POP POP JUMPDEST SWAP2 SWAP1 POP JUMP JUMPDEST PUSH1 0x0 PUSH1 0x5 PUSH1 0x0 DUP5 PUSH20 0xFFFFFFFFFFFFFFFFFFFFFFFFFFFFFFFFFFFFFFFF AND PUSH20 0xFFFFFFFFFFFFFFFFFFFFFFFFFFFFFFFFFFFFFFFF AND DUP2 MSTORE PUSH1 0x20 ADD SWAP1 DUP2 MSTORE PUSH1 0x20 ADD PUSH1 0x0 KECCAK256 PUSH1 0x0 DUP4 PUSH20 0xFFFFFFFFFFFFFFFFFFFFFFFFFFFFFFFFFFFFFFFF AND PUSH20 0xFFFFFFFFFFFFFFFFFFFFFFFFFFFFFFFFFFFFFFFF AND DUP2 MSTORE PUSH1 0x20 ADD SWAP1 DUP2 MSTORE PUSH1 0x20 ADD PUSH1 0x0 KECCAK256 PUSH1 0x0 SWAP1 SLOAD SWAP1 PUSH2 0x100 EXP SWAP1 DIV PUSH1 0xFF AND SWAP1 POP SWAP3 SWAP2 POP POP JUMP JUMPDEST PUSH1 0x0 PUSH2 0xB2D PUSH1 0x8 PUSH2 0x14AB JUMP JUMPDEST PUSH1 0x0 PUSH2 0xB39 PUSH1 0x8 PUSH2 0x14C1 JUMP JUMPDEST SWAP1 POP PUSH2 0xB45 DUP5 DUP3 PUSH2 0x14CF JUMP JUMPDEST PUSH2 0xB4F DUP2 DUP5 PUSH2 0x16ED JUMP JUMPDEST DUP1 SWAP2 POP POP SWAP3 SWAP2 POP POP JUMP JUMPDEST PUSH2 0xB61 PUSH2 0x111F JUMP JUMPDEST PUSH1 0x0 PUSH20 0xFFFFFFFFFFFFFFFFFFFFFFFFFFFFFFFFFFFFFFFF AND DUP2 PUSH20 0xFFFFFFFFFFFFFFFFFFFFFFFFFFFFFFFFFFFFFFFF AND EQ ISZERO PUSH2 0xBD1 JUMPI PUSH1 0x40 MLOAD PUSH32 0x8C379A000000000000000000000000000000000000000000000000000000000 DUP2 MSTORE PUSH1 0x4 ADD PUSH2 0xBC8 SWAP1 PUSH2 0x27FD JUMP JUMPDEST PUSH1 0x40 MLOAD DUP1 SWAP2 SUB SWAP1 REVERT JUMPDEST PUSH2 0xBDA DUP2 PUSH2 0x119D JUMP JUMPDEST POP JUMP JUMPDEST PUSH1 0x0 PUSH32 0x1FFC9A700000000000000000000000000000000000000000000000000000000 PUSH28 0xFFFFFFFFFFFFFFFFFFFFFFFFFFFFFFFFFFFFFFFFFFFFFFFFFFFFFFFF NOT AND DUP3 PUSH28 0xFFFFFFFFFFFFFFFFFFFFFFFFFFFFFFFFFFFFFFFFFFFFFFFFFFFFFFFF NOT AND EQ SWAP1 POP SWAP2 SWAP1 POP JUMP JUMPDEST PUSH2 0xC50 DUP2 PUSH2 0x1761 JUMP JUMPDEST PUSH2 0xC8F JUMPI PUSH1 0x40 MLOAD PUSH32 0x8C379A000000000000000000000000000000000000000000000000000000000 DUP2 MSTORE PUSH1 0x4 ADD PUSH2 0xC86 SWAP1 PUSH2 0x2679 JUMP JUMPDEST PUSH1 0x40 MLOAD DUP1 SWAP2 SUB SWAP1 REVERT JUMPDEST POP JUMP JUMPDEST PUSH1 0x0 CALLER SWAP1 POP SWAP1 JUMP JUMPDEST DUP2 PUSH1 0x4 PUSH1 0x0 DUP4 DUP2 MSTORE PUSH1 0x20 ADD SWAP1 DUP2 MSTORE PUSH1 0x20 ADD PUSH1 0x0 KECCAK256 PUSH1 0x0 PUSH2 0x100 EXP DUP2 SLOAD DUP2 PUSH20 0xFFFFFFFFFFFFFFFFFFFFFFFFFFFFFFFFFFFFFFFF MUL NOT AND SWAP1 DUP4 PUSH20 0xFFFFFFFFFFFFFFFFFFFFFFFFFFFFFFFFFFFFFFFF AND MUL OR SWAP1 SSTORE POP DUP1 DUP3 PUSH20 0xFFFFFFFFFFFFFFFFFFFFFFFFFFFFFFFFFFFFFFFF AND PUSH2 0xD0D DUP4 PUSH2 0x6E7 JUMP JUMPDEST PUSH20 0xFFFFFFFFFFFFFFFFFFFFFFFFFFFFFFFFFFFFFFFF AND PUSH32 0x8C5BE1E5EBEC7D5BD14F71427D1E84F3DD0314C0F7B2291E5B200AC8C7C3B925 PUSH1 0x40 MLOAD PUSH1 0x40 MLOAD DUP1 SWAP2 SUB SWAP1 LOG4 POP POP JUMP JUMPDEST PUSH1 0x0 DUP1 PUSH2 0xD5F DUP4 PUSH2 0x6E7 JUMP JUMPDEST SWAP1 POP DUP1 PUSH20 0xFFFFFFFFFFFFFFFFFFFFFFFFFFFFFFFFFFFFFFFF AND DUP5 PUSH20 0xFFFFFFFFFFFFFFFFFFFFFFFFFFFFFFFFFFFFFFFF AND EQ DUP1 PUSH2 0xDA1 JUMPI POP PUSH2 0xDA0 DUP2 DUP6 PUSH2 0xA8D JUMP JUMPDEST JUMPDEST DUP1 PUSH2 0xDDF JUMPI POP DUP4 PUSH20 0xFFFFFFFFFFFFFFFFFFFFFFFFFFFFFFFFFFFFFFFF AND PUSH2 0xDC7 DUP5 PUSH2 0x509 JUMP JUMPDEST PUSH20 0xFFFFFFFFFFFFFFFFFFFFFFFFFFFFFFFFFFFFFFFF AND EQ JUMPDEST SWAP2 POP POP SWAP3 SWAP2 POP POP JUMP JUMPDEST DUP3 PUSH20 0xFFFFFFFFFFFFFFFFFFFFFFFFFFFFFFFFFFFFFFFF AND PUSH2 0xE08 DUP3 PUSH2 0x6E7 JUMP JUMPDEST PUSH20 0xFFFFFFFFFFFFFFFFFFFFFFFFFFFFFFFFFFFFFFFF AND EQ PUSH2 0xE5E JUMPI PUSH1 0x40 MLOAD PUSH32 0x8C379A000000000000000000000000000000000000000000000000000000000 DUP2 MSTORE PUSH1 0x4 ADD PUSH2 0xE55 SWAP1 PUSH2 0x288F JUMP JUMPDEST PUSH1 0x40 MLOAD DUP1 SWAP2 SUB SWAP1 REVERT JUMPDEST PUSH1 0x0 PUSH20 0xFFFFFFFFFFFFFFFFFFFFFFFFFFFFFFFFFFFFFFFF AND DUP3 PUSH20 0xFFFFFFFFFFFFFFFFFFFFFFFFFFFFFFFFFFFFFFFF AND EQ ISZERO PUSH2 0xECE JUMPI PUSH1 0x40 MLOAD PUSH32 0x8C379A000000000000000000000000000000000000000000000000000000000 DUP2 MSTORE PUSH1 0x4 ADD PUSH2 0xEC5 SWAP1 PUSH2 0x2921 JUMP JUMPDEST PUSH1 0x40 MLOAD DUP1 SWAP2 SUB SWAP1 REVERT JUMPDEST PUSH2 0xEDB DUP4 DUP4 DUP4 PUSH1 0x1 PUSH2 0x17A2 JUMP JUMPDEST DUP3 PUSH20 0xFFFFFFFFFFFFFFFFFFFFFFFFFFFFFFFFFFFFFFFF AND PUSH2 0xEFB DUP3 PUSH2 0x6E7 JUMP JUMPDEST PUSH20 0xFFFFFFFFFFFFFFFFFFFFFFFFFFFFFFFFFFFFFFFF AND EQ PUSH2 0xF51 JUMPI PUSH1 0x40 MLOAD PUSH32 0x8C379A000000000000000000000000000000000000000000000000000000000 DUP2 MSTORE PUSH1 0x4 ADD PUSH2 0xF48 SWAP1 PUSH2 0x288F JUMP JUMPDEST PUSH1 0x40 MLOAD DUP1 SWAP2 SUB SWAP1 REVERT JUMPDEST PUSH1 0x4 PUSH1 0x0 DUP3 DUP2 MSTORE PUSH1 0x20 ADD SWAP1 DUP2 MSTORE PUSH1 0x20 ADD PUSH1 0x0 KECCAK256 PUSH1 0x0 PUSH2 0x100 EXP DUP2 SLOAD SWAP1 PUSH20 0xFFFFFFFFFFFFFFFFFFFFFFFFFFFFFFFFFFFFFFFF MUL NOT AND SWAP1 SSTORE PUSH1 0x1 PUSH1 0x3 PUSH1 0x0 DUP6 PUSH20 0xFFFFFFFFFFFFFFFFFFFFFFFFFFFFFFFFFFFFFFFF AND PUSH20 0xFFFFFFFFFFFFFFFFFFFFFFFFFFFFFFFFFFFFFFFF AND DUP2 MSTORE PUSH1 0x20 ADD SWAP1 DUP2 MSTORE PUSH1 0x20 ADD PUSH1 0x0 KECCAK256 PUSH1 0x0 DUP3 DUP3 SLOAD SUB SWAP3 POP POP DUP2 SWAP1 SSTORE POP PUSH1 0x1 PUSH1 0x3 PUSH1 0x0 DUP5 PUSH20 0xFFFFFFFFFFFFFFFFFFFFFFFFFFFFFFFFFFFFFFFF AND PUSH20 0xFFFFFFFFFFFFFFFFFFFFFFFFFFFFFFFFFFFFFFFF AND DUP2 MSTORE PUSH1 0x20 ADD SWAP1 DUP2 MSTORE PUSH1 0x20 ADD PUSH1 0x0 KECCAK256 PUSH1 0x0 DUP3 DUP3 SLOAD ADD SWAP3 POP POP DUP2 SWAP1 SSTORE POP DUP2 PUSH1 0x2 PUSH1 0x0 DUP4 DUP2 MSTORE PUSH1 0x20 ADD SWAP1 DUP2 MSTORE PUSH1 0x20 ADD PUSH1 0x0 KECCAK256 PUSH1 0x0 PUSH2 0x100 EXP DUP2 SLOAD DUP2 PUSH20 0xFFFFFFFFFFFFFFFFFFFFFFFFFFFFFFFFFFFFFFFF MUL NOT AND SWAP1 DUP4 PUSH20 0xFFFFFFFFFFFFFFFFFFFFFFFFFFFFFFFFFFFFFFFF AND MUL OR SWAP1 SSTORE POP DUP1 DUP3 PUSH20 0xFFFFFFFFFFFFFFFFFFFFFFFFFFFFFFFFFFFFFFFF AND DUP5 PUSH20 0xFFFFFFFFFFFFFFFFFFFFFFFFFFFFFFFFFFFFFFFF AND PUSH32 0xDDF252AD1BE2C89B69C2B068FC378DAA952BA7F163C4A11628F55A4DF523B3EF PUSH1 0x40 MLOAD PUSH1 0x40 MLOAD DUP1 SWAP2 SUB SWAP1 LOG4 PUSH2 0x10DD DUP4 DUP4 DUP4 PUSH1 0x1 PUSH2 0x18C8 JUMP JUMPDEST POP POP POP JUMP JUMPDEST PUSH1 0x0 PUSH1 0x2 PUSH1 0x0 DUP4 DUP2 MSTORE PUSH1 0x20 ADD SWAP1 DUP2 MSTORE PUSH1 0x20 ADD PUSH1 0x0 KECCAK256 PUSH1 0x0 SWAP1 SLOAD SWAP1 PUSH2 0x100 EXP SWAP1 DIV PUSH20 0xFFFFFFFFFFFFFFFFFFFFFFFFFFFFFFFFFFFFFFFF AND SWAP1 POP SWAP2 SWAP1 POP JUMP JUMPDEST PUSH2 0x1127 PUSH2 0xC92 JUMP JUMPDEST PUSH20 0xFFFFFFFFFFFFFFFFFFFFFFFFFFFFFFFFFFFFFFFF AND PUSH2 0x1145 PUSH2 0x83A JUMP JUMPDEST PUSH20 0xFFFFFFFFFFFFFFFFFFFFFFFFFFFFFFFFFFFFFFFF AND EQ PUSH2 0x119B JUMPI PUSH1 0x40 MLOAD PUSH32 0x8C379A000000000000000000000000000000000000000000000000000000000 DUP2 MSTORE PUSH1 0x4 ADD PUSH2 0x1192 SWAP1 PUSH2 0x298D JUMP JUMPDEST PUSH1 0x40 MLOAD DUP1 SWAP2 SUB SWAP1 REVERT JUMPDEST JUMP JUMPDEST PUSH1 0x0 PUSH1 0x7 PUSH1 0x0 SWAP1 SLOAD SWAP1 PUSH2 0x100 EXP SWAP1 DIV PUSH20 0xFFFFFFFFFFFFFFFFFFFFFFFFFFFFFFFFFFFFFFFF AND SWAP1 POP DUP2 PUSH1 0x7 PUSH1 0x0 PUSH2 0x100 EXP DUP2 SLOAD DUP2 PUSH20 0xFFFFFFFFFFFFFFFFFFFFFFFFFFFFFFFFFFFFFFFF MUL NOT AND SWAP1 DUP4 PUSH20 0xFFFFFFFFFFFFFFFFFFFFFFFFFFFFFFFFFFFFFFFF AND MUL OR SWAP1 SSTORE POP DUP2 PUSH20 0xFFFFFFFFFFFFFFFFFFFFFFFFFFFFFFFFFFFFFFFF AND DUP2 PUSH20 0xFFFFFFFFFFFFFFFFFFFFFFFFFFFFFFFFFFFFFFFF AND PUSH32 0x8BE0079C531659141344CD1FD0A4F28419497F9722A3DAAFE3B4186F6B6457E0 PUSH1 0x40 MLOAD PUSH1 0x40 MLOAD DUP1 SWAP2 SUB SWAP1 LOG3 POP POP JUMP JUMPDEST DUP2 PUSH20 0xFFFFFFFFFFFFFFFFFFFFFFFFFFFFFFFFFFFFFFFF AND DUP4 PUSH20 0xFFFFFFFFFFFFFFFFFFFFFFFFFFFFFFFFFFFFFFFF AND EQ ISZERO PUSH2 0x12D2 JUMPI PUSH1 0x40 MLOAD PUSH32 0x8C379A000000000000000000000000000000000000000000000000000000000 DUP2 MSTORE PUSH1 0x4 ADD PUSH2 0x12C9 SWAP1 PUSH2 0x29F9 JUMP JUMPDEST PUSH1 0x40 MLOAD DUP1 SWAP2 SUB SWAP1 REVERT JUMPDEST DUP1 PUSH1 0x5 PUSH1 0x0 DUP6 PUSH20 0xFFFFFFFFFFFFFFFFFFFFFFFFFFFFFFFFFFFFFFFF AND PUSH20 0xFFFFFFFFFFFFFFFFFFFFFFFFFFFFFFFFFFFFFFFF AND DUP2 MSTORE PUSH1 0x20 ADD SWAP1 DUP2 MSTORE PUSH1 0x20 ADD PUSH1 0x0 KECCAK256 PUSH1 0x0 DUP5 PUSH20 0xFFFFFFFFFFFFFFFFFFFFFFFFFFFFFFFFFFFFFFFF AND PUSH20 0xFFFFFFFFFFFFFFFFFFFFFFFFFFFFFFFFFFFFFFFF AND DUP2 MSTORE PUSH1 0x20 ADD SWAP1 DUP2 MSTORE PUSH1 0x20 ADD PUSH1 0x0 KECCAK256 PUSH1 0x0 PUSH2 0x100 EXP DUP2 SLOAD DUP2 PUSH1 0xFF MUL NOT AND SWAP1 DUP4 ISZERO ISZERO MUL OR SWAP1 SSTORE POP DUP2 PUSH20 0xFFFFFFFFFFFFFFFFFFFFFFFFFFFFFFFFFFFFFFFF AND DUP4 PUSH20 0xFFFFFFFFFFFFFFFFFFFFFFFFFFFFFFFFFFFFFFFF AND PUSH32 0x17307EAB39AB6107E8899845AD3D59BD9653F200F220920489CA2B5937696C31 DUP4 PUSH1 0x40 MLOAD PUSH2 0x13C3 SWAP2 SWAP1 PUSH2 0x1E0A JUMP JUMPDEST PUSH1 0x40 MLOAD DUP1 SWAP2 SUB SWAP1 LOG3 POP POP POP JUMP JUMPDEST PUSH2 0x13DB DUP5 DUP5 DUP5 PUSH2 0xDE8 JUMP JUMPDEST PUSH2 0x13E7 DUP5 DUP5 DUP5 DUP5 PUSH2 0x18CE JUMP JUMPDEST PUSH2 0x1426 JUMPI PUSH1 0x40 MLOAD PUSH32 0x8C379A000000000000000000000000000000000000000000000000000000000 DUP2 MSTORE PUSH1 0x4 ADD PUSH2 0x141D SWAP1 PUSH2 0x2A8B JUMP JUMPDEST PUSH1 0x40 MLOAD DUP1 SWAP2 SUB SWAP1 REVERT JUMPDEST POP POP POP POP JUMP JUMPDEST PUSH1 0x60 PUSH1 0x40 MLOAD DUP1 PUSH1 0x20 ADD PUSH1 0x40 MSTORE DUP1 PUSH1 0x0 DUP2 MSTORE POP SWAP1 POP SWAP1 JUMP JUMPDEST PUSH1 0x60 PUSH2 0x144E DUP3 PUSH2 0xC47 JUMP JUMPDEST PUSH1 0x0 PUSH2 0x1458 PUSH2 0x142C JUMP JUMPDEST SWAP1 POP PUSH1 0x0 DUP2 MLOAD GT PUSH2 0x1478 JUMPI PUSH1 0x40 MLOAD DUP1 PUSH1 0x20 ADD PUSH1 0x40 MSTORE DUP1 PUSH1 0x0 DUP2 MSTORE POP PUSH2 0x14A3 JUMP JUMPDEST DUP1 PUSH2 0x1482 DUP5 PUSH2 0x1A65 JUMP JUMPDEST PUSH1 0x40 MLOAD PUSH1 0x20 ADD PUSH2 0x1493 SWAP3 SWAP2 SWAP1 PUSH2 0x2767 JUMP JUMPDEST PUSH1 0x40 MLOAD PUSH1 0x20 DUP2 DUP4 SUB SUB DUP2 MSTORE SWAP1 PUSH1 0x40 MSTORE JUMPDEST SWAP2 POP POP SWAP2 SWAP1 POP JUMP JUMPDEST PUSH1 0x1 DUP2 PUSH1 0x0 ADD PUSH1 0x0 DUP3 DUP3 SLOAD ADD SWAP3 POP POP DUP2 SWAP1 SSTORE POP POP JUMP JUMPDEST PUSH1 0x0 DUP2 PUSH1 0x0 ADD SLOAD SWAP1 POP SWAP2 SWAP1 POP JUMP JUMPDEST PUSH1 0x0 PUSH20 0xFFFFFFFFFFFFFFFFFFFFFFFFFFFFFFFFFFFFFFFF AND DUP3 PUSH20 0xFFFFFFFFFFFFFFFFFFFFFFFFFFFFFFFFFFFFFFFF AND EQ ISZERO PUSH2 0x153F JUMPI PUSH1 0x40 MLOAD PUSH32 0x8C379A000000000000000000000000000000000000000000000000000000000 DUP2 MSTORE PUSH1 0x4 ADD PUSH2 0x1536 SWAP1 PUSH2 0x2AF7 JUMP JUMPDEST PUSH1 0x40 MLOAD DUP1 SWAP2 SUB SWAP1 REVERT JUMPDEST PUSH2 0x1548 DUP2 PUSH2 0x1761 JUMP JUMPDEST ISZERO PUSH2 0x1588 JUMPI PUSH1 0x40 MLOAD PUSH32 0x8C379A000000000000000000000000000000000000000000000000000000000 DUP2 MSTORE PUSH1 0x4 ADD PUSH2 0x157F SWAP1 PUSH2 0x2B63 JUMP JUMPDEST PUSH1 0x40 MLOAD DUP1 SWAP2 SUB SWAP1 REVERT JUMPDEST PUSH2 0x1596 PUSH1 0x0 DUP4 DUP4 PUSH1 0x1 PUSH2 0x17A2 JUMP JUMPDEST PUSH2 0x159F DUP2 PUSH2 0x1761 JUMP JUMPDEST ISZERO PUSH2 0x15DF JUMPI PUSH1 0x40 MLOAD PUSH32 0x8C379A000000000000000000000000000000000000000000000000000000000 DUP2 MSTORE PUSH1 0x4 ADD PUSH2 0x15D6 SWAP1 PUSH2 0x2B63 JUMP JUMPDEST PUSH1 0x40 MLOAD DUP1 SWAP2 SUB SWAP1 REVERT JUMPDEST PUSH1 0x1 PUSH1 0x3 PUSH1 0x0 DUP5 PUSH20 0xFFFFFFFFFFFFFFFFFFFFFFFFFFFFFFFFFFFFFFFF AND PUSH20 0xFFFFFFFFFFFFFFFFFFFFFFFFFFFFFFFFFFFFFFFF AND DUP2 MSTORE PUSH1 0x20 ADD SWAP1 DUP2 MSTORE PUSH1 0x20 ADD PUSH1 0x0 KECCAK256 PUSH1 0x0 DUP3 DUP3 SLOAD ADD SWAP3 POP POP DUP2 SWAP1 SSTORE POP DUP2 PUSH1 0x2 PUSH1 0x0 DUP4 DUP2 MSTORE PUSH1 0x20 ADD SWAP1 DUP2 MSTORE PUSH1 0x20 ADD PUSH1 0x0 KECCAK256 PUSH1 0x0 PUSH2 0x100 EXP DUP2 SLOAD DUP2 PUSH20 0xFFFFFFFFFFFFFFFFFFFFFFFFFFFFFFFFFFFFFFFF MUL NOT AND SWAP1 DUP4 PUSH20 0xFFFFFFFFFFFFFFFFFFFFFFFFFFFFFFFFFFFFFFFF AND MUL OR SWAP1 SSTORE POP DUP1 DUP3 PUSH20 0xFFFFFFFFFFFFFFFFFFFFFFFFFFFFFFFFFFFFFFFF AND PUSH1 0x0 PUSH20 0xFFFFFFFFFFFFFFFFFFFFFFFFFFFFFFFFFFFFFFFF AND PUSH32 0xDDF252AD1BE2C89B69C2B068FC378DAA952BA7F163C4A11628F55A4DF523B3EF PUSH1 0x40 MLOAD PUSH1 0x40 MLOAD DUP1 SWAP2 SUB SWAP1 LOG4 PUSH2 0x16E9 PUSH1 0x0 DUP4 DUP4 PUSH1 0x1 PUSH2 0x18C8 JUMP JUMPDEST POP POP JUMP JUMPDEST PUSH2 0x16F6 DUP3 PUSH2 0x1761 JUMP JUMPDEST PUSH2 0x1735 JUMPI PUSH1 0x40 MLOAD PUSH32 0x8C379A000000000000000000000000000000000000000000000000000000000 DUP2 MSTORE PUSH1 0x4 ADD PUSH2 0x172C SWAP1 PUSH2 0x2BF5 JUMP JUMPDEST PUSH1 0x40 MLOAD DUP1 SWAP2 SUB SWAP1 REVERT JUMPDEST DUP1 PUSH1 0x6 PUSH1 0x0 DUP5 DUP2 MSTORE PUSH1 0x20 ADD SWAP1 DUP2 MSTORE PUSH1 0x20 ADD PUSH1 0x0 KECCAK256 SWAP1 DUP1 MLOAD SWAP1 PUSH1 0x20 ADD SWAP1 PUSH2 0x175C SWAP3 SWAP2 SWAP1 PUSH2 0x1CB3 JUMP JUMPDEST POP POP POP JUMP JUMPDEST PUSH1 0x0 DUP1 PUSH20 0xFFFFFFFFFFFFFFFFFFFFFFFFFFFFFFFFFFFFFFFF AND PUSH2 0x1783 DUP4 PUSH2 0x10E2 JUMP JUMPDEST PUSH20 0xFFFFFFFFFFFFFFFFFFFFFFFFFFFFFFFFFFFFFFFF AND EQ ISZERO SWAP1 POP SWAP2 SWAP1 POP JUMP JUMPDEST PUSH1 0x1 DUP2 GT ISZERO PUSH2 0x18C2 JUMPI PUSH1 0x0 PUSH20 0xFFFFFFFFFFFFFFFFFFFFFFFFFFFFFFFFFFFFFFFF AND DUP5 PUSH20 0xFFFFFFFFFFFFFFFFFFFFFFFFFFFFFFFFFFFFFFFF AND EQ PUSH2 0x1836 JUMPI DUP1 PUSH1 0x3 PUSH1 0x0 DUP7 PUSH20 0xFFFFFFFFFFFFFFFFFFFFFFFFFFFFFFFFFFFFFFFF AND PUSH20 0xFFFFFFFFFFFFFFFFFFFFFFFFFFFFFFFFFFFFFFFF AND DUP2 MSTORE PUSH1 0x20 ADD SWAP1 DUP2 MSTORE PUSH1 0x20 ADD PUSH1 0x0 KECCAK256 PUSH1 0x0 DUP3 DUP3 SLOAD PUSH2 0x182E SWAP2 SWAP1 PUSH2 0x2C44 JUMP JUMPDEST SWAP3 POP POP DUP2 SWAP1 SSTORE POP JUMPDEST PUSH1 0x0 PUSH20 0xFFFFFFFFFFFFFFFFFFFFFFFFFFFFFFFFFFFFFFFF AND DUP4 PUSH20 0xFFFFFFFFFFFFFFFFFFFFFFFFFFFFFFFFFFFFFFFF AND EQ PUSH2 0x18C1 JUMPI DUP1 PUSH1 0x3 PUSH1 0x0 DUP6 PUSH20 0xFFFFFFFFFFFFFFFFFFFFFFFFFFFFFFFFFFFFFFFF AND PUSH20 0xFFFFFFFFFFFFFFFFFFFFFFFFFFFFFFFFFFFFFFFF AND DUP2 MSTORE PUSH1 0x20 ADD SWAP1 DUP2 MSTORE PUSH1 0x20 ADD PUSH1 0x0 KECCAK256 PUSH1 0x0 DUP3 DUP3 SLOAD PUSH2 0x18B9 SWAP2 SWAP1 PUSH2 0x2C78 JUMP JUMPDEST SWAP3 POP POP DUP2 SWAP1 SSTORE POP JUMPDEST JUMPDEST POP POP POP POP JUMP JUMPDEST POP POP POP POP JUMP JUMPDEST PUSH1 0x0 PUSH2 0x18EF DUP5 PUSH20 0xFFFFFFFFFFFFFFFFFFFFFFFFFFFFFFFFFFFFFFFF AND PUSH2 0x1B3D JUMP JUMPDEST ISZERO PUSH2 0x1A58 JUMPI DUP4 PUSH20 0xFFFFFFFFFFFFFFFFFFFFFFFFFFFFFFFFFFFFFFFF AND PUSH4 0x150B7A02 PUSH2 0x1918 PUSH2 0xC92 JUMP JUMPDEST DUP8 DUP7 DUP7 PUSH1 0x40 MLOAD DUP6 PUSH4 0xFFFFFFFF AND PUSH1 0xE0 SHL DUP2 MSTORE PUSH1 0x4 ADD PUSH2 0x193A SWAP5 SWAP4 SWAP3 SWAP2 SWAP1 PUSH2 0x2D23 JUMP JUMPDEST PUSH1 0x20 PUSH1 0x40 MLOAD DUP1 DUP4 SUB DUP2 PUSH1 0x0 DUP8 DUP1 EXTCODESIZE ISZERO DUP1 ISZERO PUSH2 0x1954 JUMPI PUSH1 0x0 DUP1 REVERT JUMPDEST POP GAS CALL SWAP3 POP POP POP DUP1 ISZERO PUSH2 0x1985 JUMPI POP PUSH1 0x40 MLOAD RETURNDATASIZE PUSH1 0x1F NOT PUSH1 0x1F DUP3 ADD AND DUP3 ADD DUP1 PUSH1 0x40 MSTORE POP DUP2 ADD SWAP1 PUSH2 0x1982 SWAP2 SWAP1 PUSH2 0x2D84 JUMP JUMPDEST PUSH1 0x1 JUMPDEST PUSH2 0x1A08 JUMPI RETURNDATASIZE DUP1 PUSH1 0x0 DUP2 EQ PUSH2 0x19B5 JUMPI PUSH1 0x40 MLOAD SWAP2 POP PUSH1 0x1F NOT PUSH1 0x3F RETURNDATASIZE ADD AND DUP3 ADD PUSH1 0x40 MSTORE RETURNDATASIZE DUP3 MSTORE RETURNDATASIZE PUSH1 0x0 PUSH1 0x20 DUP5 ADD RETURNDATACOPY PUSH2 0x19BA JUMP JUMPDEST PUSH1 0x60 SWAP2 POP JUMPDEST POP PUSH1 0x0 DUP2 MLOAD EQ ISZERO PUSH2 0x1A00 JUMPI PUSH1 0x40 MLOAD PUSH32 0x8C379A000000000000000000000000000000000000000000000000000000000 DUP2 MSTORE PUSH1 0x4 ADD PUSH2 0x19F7 SWAP1 PUSH2 0x2A8B JUMP JUMPDEST PUSH1 0x40 MLOAD DUP1 SWAP2 SUB SWAP1 REVERT JUMPDEST DUP1 MLOAD DUP2 PUSH1 0x20 ADD REVERT JUMPDEST PUSH4 0x150B7A02 PUSH1 0xE0 SHL PUSH28 0xFFFFFFFFFFFFFFFFFFFFFFFFFFFFFFFFFFFFFFFFFFFFFFFFFFFFFFFF NOT AND DUP2 PUSH28 0xFFFFFFFFFFFFFFFFFFFFFFFFFFFFFFFFFFFFFFFFFFFFFFFFFFFFFFFF NOT AND EQ SWAP2 POP POP PUSH2 0x1A5D JUMP JUMPDEST PUSH1 0x1 SWAP1 POP JUMPDEST SWAP5 SWAP4 POP POP POP POP JUMP JUMPDEST PUSH1 0x60 PUSH1 0x0 PUSH1 0x1 PUSH2 0x1A74 DUP5 PUSH2 0x1B60 JUMP JUMPDEST ADD SWAP1 POP PUSH1 0x0 DUP2 PUSH8 0xFFFFFFFFFFFFFFFF DUP2 GT ISZERO PUSH2 0x1A93 JUMPI PUSH2 0x1A92 PUSH2 0x212B JUMP JUMPDEST JUMPDEST PUSH1 0x40 MLOAD SWAP1 DUP1 DUP3 MSTORE DUP1 PUSH1 0x1F ADD PUSH1 0x1F NOT AND PUSH1 0x20 ADD DUP3 ADD PUSH1 0x40 MSTORE DUP1 ISZERO PUSH2 0x1AC5 JUMPI DUP2 PUSH1 0x20 ADD PUSH1 0x1 DUP3 MUL DUP1 CALLDATASIZE DUP4 CALLDATACOPY DUP1 DUP3 ADD SWAP2 POP POP SWAP1 POP JUMPDEST POP SWAP1 POP PUSH1 0x0 DUP3 PUSH1 0x20 ADD DUP3 ADD SWAP1 POP JUMPDEST PUSH1 0x1 ISZERO PUSH2 0x1B32 JUMPI DUP1 DUP1 PUSH1 0x1 SWAP1 SUB SWAP2 POP POP PUSH32 0x3031323334353637383961626364656600000000000000000000000000000000 PUSH1 0xA DUP7 MOD BYTE DUP2 MSTORE8 PUSH1 0xA DUP6 DUP2 PUSH2 0x1B1C JUMPI PUSH2 0x1B1B PUSH2 0x2DB1 JUMP JUMPDEST JUMPDEST DIV SWAP5 POP PUSH1 0x0 DUP6 EQ ISZERO PUSH2 0x1B2D JUMPI PUSH2 0x1B32 JUMP JUMPDEST PUSH2 0x1AD3 JUMP JUMPDEST DUP2 SWAP4 POP POP POP POP SWAP2 SWAP1 POP JUMP JUMPDEST PUSH1 0x0 DUP1 DUP3 PUSH20 0xFFFFFFFFFFFFFFFFFFFFFFFFFFFFFFFFFFFFFFFF AND EXTCODESIZE GT SWAP1 POP SWAP2 SWAP1 POP JUMP JUMPDEST PUSH1 0x0 DUP1 PUSH1 0x0 SWAP1 POP PUSH27 0x184F03E93FF9F4DAA797ED6E38ED64BF6A1F010000000000000000 DUP4 LT PUSH2 0x1BBE JUMPI PUSH27 0x184F03E93FF9F4DAA797ED6E38ED64BF6A1F010000000000000000 DUP4 DUP2 PUSH2 0x1BB4 JUMPI PUSH2 0x1BB3 PUSH2 0x2DB1 JUMP JUMPDEST JUMPDEST DIV SWAP3 POP PUSH1 0x40 DUP2 ADD SWAP1 POP JUMPDEST PUSH14 0x4EE2D6D415B85ACEF8100000000 DUP4 LT PUSH2 0x1BFB JUMPI PUSH14 0x4EE2D6D415B85ACEF8100000000 DUP4 DUP2 PUSH2 0x1BF1 JUMPI PUSH2 0x1BF0 PUSH2 0x2DB1 JUMP JUMPDEST JUMPDEST DIV SWAP3 POP PUSH1 0x20 DUP2 ADD SWAP1 POP JUMPDEST PUSH7 0x2386F26FC10000 DUP4 LT PUSH2 0x1C2A JUMPI PUSH7 0x2386F26FC10000 DUP4 DUP2 PUSH2 0x1C20 JUMPI PUSH2 0x1C1F PUSH2 0x2DB1 JUMP JUMPDEST JUMPDEST DIV SWAP3 POP PUSH1 0x10 DUP2 ADD SWAP1 POP JUMPDEST PUSH4 0x5F5E100 DUP4 LT PUSH2 0x1C53 JUMPI PUSH4 0x5F5E100 DUP4 DUP2 PUSH2 0x1C49 JUMPI PUSH2 0x1C48 PUSH2 0x2DB1 JUMP JUMPDEST JUMPDEST DIV SWAP3 POP PUSH1 0x8 DUP2 ADD SWAP1 POP JUMPDEST PUSH2 0x2710 DUP4 LT PUSH2 0x1C78 JUMPI PUSH2 0x2710 DUP4 DUP2 PUSH2 0x1C6E JUMPI PUSH2 0x1C6D PUSH2 0x2DB1 JUMP JUMPDEST JUMPDEST DIV SWAP3 POP PUSH1 0x4 DUP2 ADD SWAP1 POP JUMPDEST PUSH1 0x64 DUP4 LT PUSH2 0x1C9B JUMPI PUSH1 0x64 DUP4 DUP2 PUSH2 0x1C91 JUMPI PUSH2 0x1C90 PUSH2 0x2DB1 JUMP JUMPDEST JUMPDEST DIV SWAP3 POP PUSH1 0x2 DUP2 ADD SWAP1 POP JUMPDEST PUSH1 0xA DUP4 LT PUSH2 0x1CAA JUMPI PUSH1 0x1 DUP2 ADD SWAP1 POP JUMPDEST DUP1 SWAP2 POP POP SWAP2 SWAP1 POP JUMP JUMPDEST DUP3 DUP1 SLOAD PUSH2 0x1CBF SWAP1 PUSH2 0x2445 JUMP JUMPDEST SWAP1 PUSH1 0x0 MSTORE PUSH1 0x20 PUSH1 0x0 KECCAK256 SWAP1 PUSH1 0x1F ADD PUSH1 0x20 SWAP1 DIV DUP2 ADD SWAP3 DUP3 PUSH2 0x1CE1 JUMPI PUSH1 0x0 DUP6 SSTORE PUSH2 0x1D28 JUMP JUMPDEST DUP3 PUSH1 0x1F LT PUSH2 0x1CFA JUMPI DUP1 MLOAD PUSH1 0xFF NOT AND DUP4 DUP1 ADD OR DUP6 SSTORE PUSH2 0x1D28 JUMP JUMPDEST DUP3 DUP1 ADD PUSH1 0x1 ADD DUP6 SSTORE DUP3 ISZERO PUSH2 0x1D28 JUMPI SWAP2 DUP3 ADD JUMPDEST DUP3 DUP2 GT ISZERO PUSH2 0x1D27 JUMPI DUP3 MLOAD DUP3 SSTORE SWAP2 PUSH1 0x20 ADD SWAP2 SWAP1 PUSH1 0x1 ADD SWAP1 PUSH2 0x1D0C JUMP JUMPDEST JUMPDEST POP SWAP1 POP PUSH2 0x1D35 SWAP2 SWAP1 PUSH2 0x1D39 JUMP JUMPDEST POP SWAP1 JUMP JUMPDEST JUMPDEST DUP1 DUP3 GT ISZERO PUSH2 0x1D52 JUMPI PUSH1 0x0 DUP2 PUSH1 0x0 SWAP1 SSTORE POP PUSH1 0x1 ADD PUSH2 0x1D3A JUMP JUMPDEST POP SWAP1 JUMP JUMPDEST PUSH1 0x0 PUSH1 0x40 MLOAD SWAP1 POP SWAP1 JUMP JUMPDEST PUSH1 0x0 DUP1 REVERT JUMPDEST PUSH1 0x0 DUP1 REVERT JUMPDEST PUSH1 0x0 PUSH32 0xFFFFFFFF00000000000000000000000000000000000000000000000000000000 DUP3 AND SWAP1 POP SWAP2 SWAP1 POP JUMP JUMPDEST PUSH2 0x1D9F DUP2 PUSH2 0x1D6A JUMP JUMPDEST DUP2 EQ PUSH2 0x1DAA JUMPI PUSH1 0x0 DUP1 REVERT JUMPDEST POP JUMP JUMPDEST PUSH1 0x0 DUP2 CALLDATALOAD SWAP1 POP PUSH2 0x1DBC DUP2 PUSH2 0x1D96 JUMP JUMPDEST SWAP3 SWAP2 POP POP JUMP JUMPDEST PUSH1 0x0 PUSH1 0x20 DUP3 DUP5 SUB SLT ISZERO PUSH2 0x1DD8 JUMPI PUSH2 0x1DD7 PUSH2 0x1D60 JUMP JUMPDEST JUMPDEST PUSH1 0x0 PUSH2 0x1DE6 DUP5 DUP3 DUP6 ADD PUSH2 0x1DAD JUMP JUMPDEST SWAP2 POP POP SWAP3 SWAP2 POP POP JUMP JUMPDEST PUSH1 0x0 DUP2 ISZERO ISZERO SWAP1 POP SWAP2 SWAP1 POP JUMP JUMPDEST PUSH2 0x1E04 DUP2 PUSH2 0x1DEF JUMP JUMPDEST DUP3 MSTORE POP POP JUMP JUMPDEST PUSH1 0x0 PUSH1 0x20 DUP3 ADD SWAP1 POP PUSH2 0x1E1F PUSH1 0x0 DUP4 ADD DUP5 PUSH2 0x1DFB JUMP JUMPDEST SWAP3 SWAP2 POP POP JUMP JUMPDEST PUSH1 0x0 DUP2 MLOAD SWAP1 POP SWAP2 SWAP1 POP JUMP JUMPDEST PUSH1 0x0 DUP3 DUP3 MSTORE PUSH1 0x20 DUP3 ADD SWAP1 POP SWAP3 SWAP2 POP POP JUMP JUMPDEST PUSH1 0x0 JUMPDEST DUP4 DUP2 LT ISZERO PUSH2 0x1E5F JUMPI DUP1 DUP3 ADD MLOAD DUP2 DUP5 ADD MSTORE PUSH1 0x20 DUP2 ADD SWAP1 POP PUSH2 0x1E44 JUMP JUMPDEST DUP4 DUP2 GT ISZERO PUSH2 0x1E6E JUMPI PUSH1 0x0 DUP5 DUP5 ADD MSTORE JUMPDEST POP POP POP POP JUMP JUMPDEST PUSH1 0x0 PUSH1 0x1F NOT PUSH1 0x1F DUP4 ADD AND SWAP1 POP SWAP2 SWAP1 POP JUMP JUMPDEST PUSH1 0x0 PUSH2 0x1E90 DUP3 PUSH2 0x1E25 JUMP JUMPDEST PUSH2 0x1E9A DUP2 DUP6 PUSH2 0x1E30 JUMP JUMPDEST SWAP4 POP PUSH2 0x1EAA DUP2 DUP6 PUSH1 0x20 DUP7 ADD PUSH2 0x1E41 JUMP JUMPDEST PUSH2 0x1EB3 DUP2 PUSH2 0x1E74 JUMP JUMPDEST DUP5 ADD SWAP2 POP POP SWAP3 SWAP2 POP POP JUMP JUMPDEST PUSH1 0x0 PUSH1 0x20 DUP3 ADD SWAP1 POP DUP2 DUP2 SUB PUSH1 0x0 DUP4 ADD MSTORE PUSH2 0x1ED8 DUP2 DUP5 PUSH2 0x1E85 JUMP JUMPDEST SWAP1 POP SWAP3 SWAP2 POP POP JUMP JUMPDEST PUSH1 0x0 DUP2 SWAP1 POP SWAP2 SWAP1 POP JUMP JUMPDEST PUSH2 0x1EF3 DUP2 PUSH2 0x1EE0 JUMP JUMPDEST DUP2 EQ PUSH2 0x1EFE JUMPI PUSH1 0x0 DUP1 REVERT JUMPDEST POP JUMP JUMPDEST PUSH1 0x0 DUP2 CALLDATALOAD SWAP1 POP PUSH2 0x1F10 DUP2 PUSH2 0x1EEA JUMP JUMPDEST SWAP3 SWAP2 POP POP JUMP JUMPDEST PUSH1 0x0 PUSH1 0x20 DUP3 DUP5 SUB SLT ISZERO PUSH2 0x1F2C JUMPI PUSH2 0x1F2B PUSH2 0x1D60 JUMP JUMPDEST JUMPDEST PUSH1 0x0 PUSH2 0x1F3A DUP5 DUP3 DUP6 ADD PUSH2 0x1F01 JUMP JUMPDEST SWAP2 POP POP SWAP3 SWAP2 POP POP JUMP JUMPDEST PUSH1 0x0 PUSH20 0xFFFFFFFFFFFFFFFFFFFFFFFFFFFFFFFFFFFFFFFF DUP3 AND SWAP1 POP SWAP2 SWAP1 POP JUMP JUMPDEST PUSH1 0x0 PUSH2 0x1F6E DUP3 PUSH2 0x1F43 JUMP JUMPDEST SWAP1 POP SWAP2 SWAP1 POP JUMP JUMPDEST PUSH2 0x1F7E DUP2 PUSH2 0x1F63 JUMP JUMPDEST DUP3 MSTORE POP POP JUMP JUMPDEST PUSH1 0x0 PUSH1 0x20 DUP3 ADD SWAP1 POP PUSH2 0x1F99 PUSH1 0x0 DUP4 ADD DUP5 PUSH2 0x1F75 JUMP JUMPDEST SWAP3 SWAP2 POP POP JUMP JUMPDEST PUSH2 0x1FA8 DUP2 PUSH2 0x1F63 JUMP JUMPDEST DUP2 EQ PUSH2 0x1FB3 JUMPI PUSH1 0x0 DUP1 REVERT JUMPDEST POP JUMP JUMPDEST PUSH1 0x0 DUP2 CALLDATALOAD SWAP1 POP PUSH2 0x1FC5 DUP2 PUSH2 0x1F9F JUMP JUMPDEST SWAP3 SWAP2 POP POP JUMP JUMPDEST PUSH1 0x0 DUP1 PUSH1 0x40 DUP4 DUP6 SUB SLT ISZERO PUSH2 0x1FE2 JUMPI PUSH2 0x1FE1 PUSH2 0x1D60 JUMP JUMPDEST JUMPDEST PUSH1 0x0 PUSH2 0x1FF0 DUP6 DUP3 DUP7 ADD PUSH2 0x1FB6 JUMP JUMPDEST SWAP3 POP POP PUSH1 0x20 PUSH2 0x2001 DUP6 DUP3 DUP7 ADD PUSH2 0x1F01 JUMP JUMPDEST SWAP2 POP POP SWAP3 POP SWAP3 SWAP1 POP JUMP JUMPDEST PUSH1 0x0 DUP1 PUSH1 0x0 PUSH1 0x60 DUP5 DUP7 SUB SLT ISZERO PUSH2 0x2024 JUMPI PUSH2 0x2023 PUSH2 0x1D60 JUMP JUMPDEST JUMPDEST PUSH1 0x0 PUSH2 0x2032 DUP7 DUP3 DUP8 ADD PUSH2 0x1FB6 JUMP JUMPDEST SWAP4 POP POP PUSH1 0x20 PUSH2 0x2043 DUP7 DUP3 DUP8 ADD PUSH2 0x1FB6 JUMP JUMPDEST SWAP3 POP POP PUSH1 0x40 PUSH2 0x2054 DUP7 DUP3 DUP8 ADD PUSH2 0x1F01 JUMP JUMPDEST SWAP2 POP POP SWAP3 POP SWAP3 POP SWAP3 JUMP JUMPDEST PUSH1 0x0 PUSH1 0x20 DUP3 DUP5 SUB SLT ISZERO PUSH2 0x2074 JUMPI PUSH2 0x2073 PUSH2 0x1D60 JUMP JUMPDEST JUMPDEST PUSH1 0x0 PUSH2 0x2082 DUP5 DUP3 DUP6 ADD PUSH2 0x1FB6 JUMP JUMPDEST SWAP2 POP POP SWAP3 SWAP2 POP POP JUMP JUMPDEST PUSH2 0x2094 DUP2 PUSH2 0x1EE0 JUMP JUMPDEST DUP3 MSTORE POP POP JUMP JUMPDEST PUSH1 0x0 PUSH1 0x20 DUP3 ADD SWAP1 POP PUSH2 0x20AF PUSH1 0x0 DUP4 ADD DUP5 PUSH2 0x208B JUMP JUMPDEST SWAP3 SWAP2 POP POP JUMP JUMPDEST PUSH2 0x20BE DUP2 PUSH2 0x1DEF JUMP JUMPDEST DUP2 EQ PUSH2 0x20C9 JUMPI PUSH1 0x0 DUP1 REVERT JUMPDEST POP JUMP JUMPDEST PUSH1 0x0 DUP2 CALLDATALOAD SWAP1 POP PUSH2 0x20DB DUP2 PUSH2 0x20B5 JUMP JUMPDEST SWAP3 SWAP2 POP POP JUMP JUMPDEST PUSH1 0x0 DUP1 PUSH1 0x40 DUP4 DUP6 SUB SLT ISZERO PUSH2 0x20F8 JUMPI PUSH2 0x20F7 PUSH2 0x1D60 JUMP JUMPDEST JUMPDEST PUSH1 0x0 PUSH2 0x2106 DUP6 DUP3 DUP7 ADD PUSH2 0x1FB6 JUMP JUMPDEST SWAP3 POP POP PUSH1 0x20 PUSH2 0x2117 DUP6 DUP3 DUP7 ADD PUSH2 0x20CC JUMP JUMPDEST SWAP2 POP POP SWAP3 POP SWAP3 SWAP1 POP JUMP JUMPDEST PUSH1 0x0 DUP1 REVERT JUMPDEST PUSH1 0x0 DUP1 REVERT JUMPDEST PUSH32 0x4E487B7100000000000000000000000000000000000000000000000000000000 PUSH1 0x0 MSTORE PUSH1 0x41 PUSH1 0x4 MSTORE PUSH1 0x24 PUSH1 0x0 REVERT JUMPDEST PUSH2 0x2163 DUP3 PUSH2 0x1E74 JUMP JUMPDEST DUP2 ADD DUP2 DUP2 LT PUSH8 0xFFFFFFFFFFFFFFFF DUP3 GT OR ISZERO PUSH2 0x2182 JUMPI PUSH2 0x2181 PUSH2 0x212B JUMP JUMPDEST JUMPDEST DUP1 PUSH1 0x40 MSTORE POP POP POP JUMP JUMPDEST PUSH1 0x0 PUSH2 0x2195 PUSH2 0x1D56 JUMP JUMPDEST SWAP1 POP PUSH2 0x21A1 DUP3 DUP3 PUSH2 0x215A JUMP JUMPDEST SWAP2 SWAP1 POP JUMP JUMPDEST PUSH1 0x0 PUSH8 0xFFFFFFFFFFFFFFFF DUP3 GT ISZERO PUSH2 0x21C1 JUMPI PUSH2 0x21C0 PUSH2 0x212B JUMP JUMPDEST JUMPDEST PUSH2 0x21CA DUP3 PUSH2 0x1E74 JUMP JUMPDEST SWAP1 POP PUSH1 0x20 DUP2 ADD SWAP1 POP SWAP2 SWAP1 POP JUMP JUMPDEST DUP3 DUP2 DUP4 CALLDATACOPY PUSH1 0x0 DUP4 DUP4 ADD MSTORE POP POP POP JUMP JUMPDEST PUSH1 0x0 PUSH2 0x21F9 PUSH2 0x21F4 DUP5 PUSH2 0x21A6 JUMP JUMPDEST PUSH2 0x218B JUMP JUMPDEST SWAP1 POP DUP3 DUP2 MSTORE PUSH1 0x20 DUP2 ADD DUP5 DUP5 DUP5 ADD GT ISZERO PUSH2 0x2215 JUMPI PUSH2 0x2214 PUSH2 0x2126 JUMP JUMPDEST JUMPDEST PUSH2 0x2220 DUP5 DUP3 DUP6 PUSH2 0x21D7 JUMP JUMPDEST POP SWAP4 SWAP3 POP POP POP JUMP JUMPDEST PUSH1 0x0 DUP3 PUSH1 0x1F DUP4 ADD SLT PUSH2 0x223D JUMPI PUSH2 0x223C PUSH2 0x2121 JUMP JUMPDEST JUMPDEST DUP2 CALLDATALOAD PUSH2 0x224D DUP5 DUP3 PUSH1 0x20 DUP7 ADD PUSH2 0x21E6 JUMP JUMPDEST SWAP2 POP POP SWAP3 SWAP2 POP POP JUMP JUMPDEST PUSH1 0x0 DUP1 PUSH1 0x0 DUP1 PUSH1 0x80 DUP6 DUP8 SUB SLT ISZERO PUSH2 0x2270 JUMPI PUSH2 0x226F PUSH2 0x1D60 JUMP JUMPDEST JUMPDEST PUSH1 0x0 PUSH2 0x227E DUP8 DUP3 DUP9 ADD PUSH2 0x1FB6 JUMP JUMPDEST SWAP5 POP POP PUSH1 0x20 PUSH2 0x228F DUP8 DUP3 DUP9 ADD PUSH2 0x1FB6 JUMP JUMPDEST SWAP4 POP POP PUSH1 0x40 PUSH2 0x22A0 DUP8 DUP3 DUP9 ADD PUSH2 0x1F01 JUMP JUMPDEST SWAP3 POP POP PUSH1 0x60 DUP6 ADD CALLDATALOAD PUSH8 0xFFFFFFFFFFFFFFFF DUP2 GT ISZERO PUSH2 0x22C1 JUMPI PUSH2 0x22C0 PUSH2 0x1D65 JUMP JUMPDEST JUMPDEST PUSH2 0x22CD DUP8 DUP3 DUP9 ADD PUSH2 0x2228 JUMP JUMPDEST SWAP2 POP POP SWAP3 SWAP6 SWAP2 SWAP5 POP SWAP3 POP JUMP JUMPDEST PUSH1 0x0 DUP1 PUSH1 0x40 DUP4 DUP6 SUB SLT ISZERO PUSH2 0x22F0 JUMPI PUSH2 0x22EF PUSH2 0x1D60 JUMP JUMPDEST JUMPDEST PUSH1 0x0 PUSH2 0x22FE DUP6 DUP3 DUP7 ADD PUSH2 0x1FB6 JUMP JUMPDEST SWAP3 POP POP PUSH1 0x20 PUSH2 0x230F DUP6 DUP3 DUP7 ADD PUSH2 0x1FB6 JUMP JUMPDEST SWAP2 POP POP SWAP3 POP SWAP3 SWAP1 POP JUMP JUMPDEST PUSH1 0x0 PUSH8 0xFFFFFFFFFFFFFFFF DUP3 GT ISZERO PUSH2 0x2334 JUMPI PUSH2 0x2333 PUSH2 0x212B JUMP JUMPDEST JUMPDEST PUSH2 0x233D DUP3 PUSH2 0x1E74 JUMP JUMPDEST SWAP1 POP PUSH1 0x20 DUP2 ADD SWAP1 POP SWAP2 SWAP1 POP JUMP JUMPDEST PUSH1 0x0 PUSH2 0x235D PUSH2 0x2358 DUP5 PUSH2 0x2319 JUMP JUMPDEST PUSH2 0x218B JUMP JUMPDEST SWAP1 POP DUP3 DUP2 MSTORE PUSH1 0x20 DUP2 ADD DUP5 DUP5 DUP5 ADD GT ISZERO PUSH2 0x2379 JUMPI PUSH2 0x2378 PUSH2 0x2126 JUMP JUMPDEST JUMPDEST PUSH2 0x2384 DUP5 DUP3 DUP6 PUSH2 0x21D7 JUMP JUMPDEST POP SWAP4 SWAP3 POP POP POP JUMP JUMPDEST PUSH1 0x0 DUP3 PUSH1 0x1F DUP4 ADD SLT PUSH2 0x23A1 JUMPI PUSH2 0x23A0 PUSH2 0x2121 JUMP JUMPDEST JUMPDEST DUP2 CALLDATALOAD PUSH2 0x23B1 DUP5 DUP3 PUSH1 0x20 DUP7 ADD PUSH2 0x234A JUMP JUMPDEST SWAP2 POP POP SWAP3 SWAP2 POP POP JUMP JUMPDEST PUSH1 0x0 DUP1 PUSH1 0x40 DUP4 DUP6 SUB SLT ISZERO PUSH2 0x23D1 JUMPI PUSH2 0x23D0 PUSH2 0x1D60 JUMP JUMPDEST JUMPDEST PUSH1 0x0 PUSH2 0x23DF DUP6 DUP3 DUP7 ADD PUSH2 0x1FB6 JUMP JUMPDEST SWAP3 POP POP PUSH1 0x20 DUP4 ADD CALLDATALOAD PUSH8 0xFFFFFFFFFFFFFFFF DUP2 GT ISZERO PUSH2 0x2400 JUMPI PUSH2 0x23FF PUSH2 0x1D65 JUMP JUMPDEST JUMPDEST PUSH2 0x240C DUP6 DUP3 DUP7 ADD PUSH2 0x238C JUMP JUMPDEST SWAP2 POP POP SWAP3 POP SWAP3 SWAP1 POP JUMP JUMPDEST PUSH32 0x4E487B7100000000000000000000000000000000000000000000000000000000 PUSH1 0x0 MSTORE PUSH1 0x22 PUSH1 0x4 MSTORE PUSH1 0x24 PUSH1 0x0 REVERT JUMPDEST PUSH1 0x0 PUSH1 0x2 DUP3 DIV SWAP1 POP PUSH1 0x1 DUP3 AND DUP1 PUSH2 0x245D JUMPI PUSH1 0x7F DUP3 AND SWAP2 POP JUMPDEST PUSH1 0x20 DUP3 LT DUP2 EQ ISZERO PUSH2 0x2471 JUMPI PUSH2 0x2470 PUSH2 0x2416 JUMP JUMPDEST JUMPDEST POP SWAP2 SWAP1 POP JUMP JUMPDEST PUSH32 0x4552433732313A20617070726F76616C20746F2063757272656E74206F776E65 PUSH1 0x0 DUP3 ADD MSTORE PUSH32 0x7200000000000000000000000000000000000000000000000000000000000000 PUSH1 0x20 DUP3 ADD MSTORE POP JUMP JUMPDEST PUSH1 0x0 PUSH2 0x24D3 PUSH1 0x21 DUP4 PUSH2 0x1E30 JUMP JUMPDEST SWAP2 POP PUSH2 0x24DE DUP3 PUSH2 0x2477 JUMP JUMPDEST PUSH1 0x40 DUP3 ADD SWAP1 POP SWAP2 SWAP1 POP JUMP JUMPDEST PUSH1 0x0 PUSH1 0x20 DUP3 ADD SWAP1 POP DUP2 DUP2 SUB PUSH1 0x0 DUP4 ADD MSTORE PUSH2 0x2502 DUP2 PUSH2 0x24C6 JUMP JUMPDEST SWAP1 POP SWAP2 SWAP1 POP JUMP JUMPDEST PUSH32 0x4552433732313A20617070726F76652063616C6C6572206973206E6F7420746F PUSH1 0x0 DUP3 ADD MSTORE PUSH32 0x6B656E206F776E6572206F7220617070726F76656420666F7220616C6C000000 PUSH1 0x20 DUP3 ADD MSTORE POP JUMP JUMPDEST PUSH1 0x0 PUSH2 0x2565 PUSH1 0x3D DUP4 PUSH2 0x1E30 JUMP JUMPDEST SWAP2 POP PUSH2 0x2570 DUP3 PUSH2 0x2509 JUMP JUMPDEST PUSH1 0x40 DUP3 ADD SWAP1 POP SWAP2 SWAP1 POP JUMP JUMPDEST PUSH1 0x0 PUSH1 0x20 DUP3 ADD SWAP1 POP DUP2 DUP2 SUB PUSH1 0x0 DUP4 ADD MSTORE PUSH2 0x2594 DUP2 PUSH2 0x2558 JUMP JUMPDEST SWAP1 POP SWAP2 SWAP1 POP JUMP JUMPDEST PUSH32 0x4552433732313A2063616C6C6572206973206E6F7420746F6B656E206F776E65 PUSH1 0x0 DUP3 ADD MSTORE PUSH32 0x72206F7220617070726F76656400000000000000000000000000000000000000 PUSH1 0x20 DUP3 ADD MSTORE POP JUMP JUMPDEST PUSH1 0x0 PUSH2 0x25F7 PUSH1 0x2D DUP4 PUSH2 0x1E30 JUMP JUMPDEST SWAP2 POP PUSH2 0x2602 DUP3 PUSH2 0x259B JUMP JUMPDEST PUSH1 0x40 DUP3 ADD SWAP1 POP SWAP2 SWAP1 POP JUMP JUMPDEST PUSH1 0x0 PUSH1 0x20 DUP3 ADD SWAP1 POP DUP2 DUP2 SUB PUSH1 0x0 DUP4 ADD MSTORE PUSH2 0x2626 DUP2 PUSH2 0x25EA JUMP JUMPDEST SWAP1 POP SWAP2 SWAP1 POP JUMP JUMPDEST PUSH32 0x4552433732313A20696E76616C696420746F6B656E2049440000000000000000 PUSH1 0x0 DUP3 ADD MSTORE POP JUMP JUMPDEST PUSH1 0x0 PUSH2 0x2663 PUSH1 0x18 DUP4 PUSH2 0x1E30 JUMP JUMPDEST SWAP2 POP PUSH2 0x266E DUP3 PUSH2 0x262D JUMP JUMPDEST PUSH1 0x20 DUP3 ADD SWAP1 POP SWAP2 SWAP1 POP JUMP JUMPDEST PUSH1 0x0 PUSH1 0x20 DUP3 ADD SWAP1 POP DUP2 DUP2 SUB PUSH1 0x0 DUP4 ADD MSTORE PUSH2 0x2692 DUP2 PUSH2 0x2656 JUMP JUMPDEST SWAP1 POP SWAP2 SWAP1 POP JUMP JUMPDEST PUSH32 0x4552433732313A2061646472657373207A65726F206973206E6F742061207661 PUSH1 0x0 DUP3 ADD MSTORE PUSH32 0x6C6964206F776E65720000000000000000000000000000000000000000000000 PUSH1 0x20 DUP3 ADD MSTORE POP JUMP JUMPDEST PUSH1 0x0 PUSH2 0x26F5 PUSH1 0x29 DUP4 PUSH2 0x1E30 JUMP JUMPDEST SWAP2 POP PUSH2 0x2700 DUP3 PUSH2 0x2699 JUMP JUMPDEST PUSH1 0x40 DUP3 ADD SWAP1 POP SWAP2 SWAP1 POP JUMP JUMPDEST PUSH1 0x0 PUSH1 0x20 DUP3 ADD SWAP1 POP DUP2 DUP2 SUB PUSH1 0x0 DUP4 ADD MSTORE PUSH2 0x2724 DUP2 PUSH2 0x26E8 JUMP JUMPDEST SWAP1 POP SWAP2 SWAP1 POP JUMP JUMPDEST PUSH1 0x0 DUP2 SWAP1 POP SWAP3 SWAP2 POP POP JUMP JUMPDEST PUSH1 0x0 PUSH2 0x2741 DUP3 PUSH2 0x1E25 JUMP JUMPDEST PUSH2 0x274B DUP2 DUP6 PUSH2 0x272B JUMP JUMPDEST SWAP4 POP PUSH2 0x275B DUP2 DUP6 PUSH1 0x20 DUP7 ADD PUSH2 0x1E41 JUMP JUMPDEST DUP1 DUP5 ADD SWAP2 POP POP SWAP3 SWAP2 POP POP JUMP JUMPDEST PUSH1 0x0 PUSH2 0x2773 DUP3 DUP6 PUSH2 0x2736 JUMP JUMPDEST SWAP2 POP PUSH2 0x277F DUP3 DUP5 PUSH2 0x2736 JUMP JUMPDEST SWAP2 POP DUP2 SWAP1 POP SWAP4 SWAP3 POP POP POP JUMP JUMPDEST PUSH32 0x4F776E61626C653A206E6577206F776E657220697320746865207A65726F2061 PUSH1 0x0 DUP3 ADD MSTORE PUSH32 0x6464726573730000000000000000000000000000000000000000000000000000 PUSH1 0x20 DUP3 ADD MSTORE POP JUMP JUMPDEST PUSH1 0x0 PUSH2 0x27E7 PUSH1 0x26 DUP4 PUSH2 0x1E30 JUMP JUMPDEST SWAP2 POP PUSH2 0x27F2 DUP3 PUSH2 0x278B JUMP JUMPDEST PUSH1 0x40 DUP3 ADD SWAP1 POP SWAP2 SWAP1 POP JUMP JUMPDEST PUSH1 0x0 PUSH1 0x20 DUP3 ADD SWAP1 POP DUP2 DUP2 SUB PUSH1 0x0 DUP4 ADD MSTORE PUSH2 0x2816 DUP2 PUSH2 0x27DA JUMP JUMPDEST SWAP1 POP SWAP2 SWAP1 POP JUMP JUMPDEST PUSH32 0x4552433732313A207472616E736665722066726F6D20696E636F727265637420 PUSH1 0x0 DUP3 ADD MSTORE PUSH32 0x6F776E6572000000000000000000000000000000000000000000000000000000 PUSH1 0x20 DUP3 ADD MSTORE POP JUMP JUMPDEST PUSH1 0x0 PUSH2 0x2879 PUSH1 0x25 DUP4 PUSH2 0x1E30 JUMP JUMPDEST SWAP2 POP PUSH2 0x2884 DUP3 PUSH2 0x281D JUMP JUMPDEST PUSH1 0x40 DUP3 ADD SWAP1 POP SWAP2 SWAP1 POP JUMP JUMPDEST PUSH1 0x0 PUSH1 0x20 DUP3 ADD SWAP1 POP DUP2 DUP2 SUB PUSH1 0x0 DUP4 ADD MSTORE PUSH2 0x28A8 DUP2 PUSH2 0x286C JUMP JUMPDEST SWAP1 POP SWAP2 SWAP1 POP JUMP JUMPDEST PUSH32 0x4552433732313A207472616E7366657220746F20746865207A65726F20616464 PUSH1 0x0 DUP3 ADD MSTORE PUSH32 0x7265737300000000000000000000000000000000000000000000000000000000 PUSH1 0x20 DUP3 ADD MSTORE POP JUMP JUMPDEST PUSH1 0x0 PUSH2 0x290B PUSH1 0x24 DUP4 PUSH2 0x1E30 JUMP JUMPDEST SWAP2 POP PUSH2 0x2916 DUP3 PUSH2 0x28AF JUMP JUMPDEST PUSH1 0x40 DUP3 ADD SWAP1 POP SWAP2 SWAP1 POP JUMP JUMPDEST PUSH1 0x0 PUSH1 0x20 DUP3 ADD SWAP1 POP DUP2 DUP2 SUB PUSH1 0x0 DUP4 ADD MSTORE PUSH2 0x293A DUP2 PUSH2 0x28FE JUMP JUMPDEST SWAP1 POP SWAP2 SWAP1 POP JUMP JUMPDEST PUSH32 0x4F776E61626C653A2063616C6C6572206973206E6F7420746865206F776E6572 PUSH1 0x0 DUP3 ADD MSTORE POP JUMP JUMPDEST PUSH1 0x0 PUSH2 0x2977 PUSH1 0x20 DUP4 PUSH2 0x1E30 JUMP JUMPDEST SWAP2 POP PUSH2 0x2982 DUP3 PUSH2 0x2941 JUMP JUMPDEST PUSH1 0x20 DUP3 ADD SWAP1 POP SWAP2 SWAP1 POP JUMP JUMPDEST PUSH1 0x0 PUSH1 0x20 DUP3 ADD SWAP1 POP DUP2 DUP2 SUB PUSH1 0x0 DUP4 ADD MSTORE PUSH2 0x29A6 DUP2 PUSH2 0x296A JUMP JUMPDEST SWAP1 POP SWAP2 SWAP1 POP JUMP JUMPDEST PUSH32 0x4552433732313A20617070726F766520746F2063616C6C657200000000000000 PUSH1 0x0 DUP3 ADD MSTORE POP JUMP JUMPDEST PUSH1 0x0 PUSH2 0x29E3 PUSH1 0x19 DUP4 PUSH2 0x1E30 JUMP JUMPDEST SWAP2 POP PUSH2 0x29EE DUP3 PUSH2 0x29AD JUMP JUMPDEST PUSH1 0x20 DUP3 ADD SWAP1 POP SWAP2 SWAP1 POP JUMP JUMPDEST PUSH1 0x0 PUSH1 0x20 DUP3 ADD SWAP1 POP DUP2 DUP2 SUB PUSH1 0x0 DUP4 ADD MSTORE PUSH2 0x2A12 DUP2 PUSH2 0x29D6 JUMP JUMPDEST SWAP1 POP SWAP2 SWAP1 POP JUMP JUMPDEST PUSH32 0x4552433732313A207472616E7366657220746F206E6F6E204552433732315265 PUSH1 0x0 DUP3 ADD MSTORE PUSH32 0x63656976657220696D706C656D656E7465720000000000000000000000000000 PUSH1 0x20 DUP3 ADD MSTORE POP JUMP JUMPDEST PUSH1 0x0 PUSH2 0x2A75 PUSH1 0x32 DUP4 PUSH2 0x1E30 JUMP JUMPDEST SWAP2 POP PUSH2 0x2A80 DUP3 PUSH2 0x2A19 JUMP JUMPDEST PUSH1 0x40 DUP3 ADD SWAP1 POP SWAP2 SWAP1 POP JUMP JUMPDEST PUSH1 0x0 PUSH1 0x20 DUP3 ADD SWAP1 POP DUP2 DUP2 SUB PUSH1 0x0 DUP4 ADD MSTORE PUSH2 0x2AA4 DUP2 PUSH2 0x2A68 JUMP JUMPDEST SWAP1 POP SWAP2 SWAP1 POP JUMP JUMPDEST PUSH32 0x4552433732313A206D696E7420746F20746865207A65726F2061646472657373 PUSH1 0x0 DUP3 ADD MSTORE POP JUMP JUMPDEST PUSH1 0x0 PUSH2 0x2AE1 PUSH1 0x20 DUP4 PUSH2 0x1E30 JUMP JUMPDEST SWAP2 POP PUSH2 0x2AEC DUP3 PUSH2 0x2AAB JUMP JUMPDEST PUSH1 0x20 DUP3 ADD SWAP1 POP SWAP2 SWAP1 POP JUMP JUMPDEST PUSH1 0x0 PUSH1 0x20 DUP3 ADD SWAP1 POP DUP2 DUP2 SUB PUSH1 0x0 DUP4 ADD MSTORE PUSH2 0x2B10 DUP2 PUSH2 0x2AD4 JUMP JUMPDEST SWAP1 POP SWAP2 SWAP1 POP JUMP JUMPDEST PUSH32 0x4552433732313A20746F6B656E20616C7265616479206D696E74656400000000 PUSH1 0x0 DUP3 ADD MSTORE POP JUMP JUMPDEST PUSH1 0x0 PUSH2 0x2B4D PUSH1 0x1C DUP4 PUSH2 0x1E30 JUMP JUMPDEST SWAP2 POP PUSH2 0x2B58 DUP3 PUSH2 0x2B17 JUMP JUMPDEST PUSH1 0x20 DUP3 ADD SWAP1 POP SWAP2 SWAP1 POP JUMP JUMPDEST PUSH1 0x0 PUSH1 0x20 DUP3 ADD SWAP1 POP DUP2 DUP2 SUB PUSH1 0x0 DUP4 ADD MSTORE PUSH2 0x2B7C DUP2 PUSH2 0x2B40 JUMP JUMPDEST SWAP1 POP SWAP2 SWAP1 POP JUMP JUMPDEST PUSH32 0x45524337323155524953746F726167653A2055524920736574206F66206E6F6E PUSH1 0x0 DUP3 ADD MSTORE PUSH32 0x6578697374656E7420746F6B656E000000000000000000000000000000000000 PUSH1 0x20 DUP3 ADD MSTORE POP JUMP JUMPDEST PUSH1 0x0 PUSH2 0x2BDF PUSH1 0x2E DUP4 PUSH2 0x1E30 JUMP JUMPDEST SWAP2 POP PUSH2 0x2BEA DUP3 PUSH2 0x2B83 JUMP JUMPDEST PUSH1 0x40 DUP3 ADD SWAP1 POP SWAP2 SWAP1 POP JUMP JUMPDEST PUSH1 0x0 PUSH1 0x20 DUP3 ADD SWAP1 POP DUP2 DUP2 SUB PUSH1 0x0 DUP4 ADD MSTORE PUSH2 0x2C0E DUP2 PUSH2 0x2BD2 JUMP JUMPDEST SWAP1 POP SWAP2 SWAP1 POP JUMP JUMPDEST PUSH32 0x4E487B7100000000000000000000000000000000000000000000000000000000 PUSH1 0x0 MSTORE PUSH1 0x11 PUSH1 0x4 MSTORE PUSH1 0x24 PUSH1 0x0 REVERT JUMPDEST PUSH1 0x0 PUSH2 0x2C4F DUP3 PUSH2 0x1EE0 JUMP JUMPDEST SWAP2 POP PUSH2 0x2C5A DUP4 PUSH2 0x1EE0 JUMP JUMPDEST SWAP3 POP DUP3 DUP3 LT ISZERO PUSH2 0x2C6D JUMPI PUSH2 0x2C6C PUSH2 0x2C15 JUMP JUMPDEST JUMPDEST DUP3 DUP3 SUB SWAP1 POP SWAP3 SWAP2 POP POP JUMP JUMPDEST PUSH1 0x0 PUSH2 0x2C83 DUP3 PUSH2 0x1EE0 JUMP JUMPDEST SWAP2 POP PUSH2 0x2C8E DUP4 PUSH2 0x1EE0 JUMP JUMPDEST SWAP3 POP DUP3 PUSH32 0xFFFFFFFFFFFFFFFFFFFFFFFFFFFFFFFFFFFFFFFFFFFFFFFFFFFFFFFFFFFFFFFF SUB DUP3 GT ISZERO PUSH2 0x2CC3 JUMPI PUSH2 0x2CC2 PUSH2 0x2C15 JUMP JUMPDEST JUMPDEST DUP3 DUP3 ADD SWAP1 POP SWAP3 SWAP2 POP POP JUMP JUMPDEST PUSH1 0x0 DUP2 MLOAD SWAP1 POP SWAP2 SWAP1 POP JUMP JUMPDEST PUSH1 0x0 DUP3 DUP3 MSTORE PUSH1 0x20 DUP3 ADD SWAP1 POP SWAP3 SWAP2 POP POP JUMP JUMPDEST PUSH1 0x0 PUSH2 0x2CF5 DUP3 PUSH2 0x2CCE JUMP JUMPDEST PUSH2 0x2CFF DUP2 DUP6 PUSH2 0x2CD9 JUMP JUMPDEST SWAP4 POP PUSH2 0x2D0F DUP2 DUP6 PUSH1 0x20 DUP7 ADD PUSH2 0x1E41 JUMP JUMPDEST PUSH2 0x2D18 DUP2 PUSH2 0x1E74 JUMP JUMPDEST DUP5 ADD SWAP2 POP POP SWAP3 SWAP2 POP POP JUMP JUMPDEST PUSH1 0x0 PUSH1 0x80 DUP3 ADD SWAP1 POP PUSH2 0x2D38 PUSH1 0x0 DUP4 ADD DUP8 PUSH2 0x1F75 JUMP JUMPDEST PUSH2 0x2D45 PUSH1 0x20 DUP4 ADD DUP7 PUSH2 0x1F75 JUMP JUMPDEST PUSH2 0x2D52 PUSH1 0x40 DUP4 ADD DUP6 PUSH2 0x208B JUMP JUMPDEST DUP2 DUP2 SUB PUSH1 0x60 DUP4 ADD MSTORE PUSH2 0x2D64 DUP2 DUP5 PUSH2 0x2CEA JUMP JUMPDEST SWAP1 POP SWAP6 SWAP5 POP POP POP POP POP JUMP JUMPDEST PUSH1 0x0 DUP2 MLOAD SWAP1 POP PUSH2 0x2D7E DUP2 PUSH2 0x1D96 JUMP JUMPDEST SWAP3 SWAP2 POP POP JUMP JUMPDEST PUSH1 0x0 PUSH1 0x20 DUP3 DUP5 SUB SLT ISZERO PUSH2 0x2D9A JUMPI PUSH2 0x2D99 PUSH2 0x1D60 JUMP JUMPDEST JUMPDEST PUSH1 0x0 PUSH2 0x2DA8 DUP5 DUP3 DUP6 ADD PUSH2 0x2D6F JUMP JUMPDEST SWAP2 POP POP SWAP3 SWAP2 POP POP JUMP JUMPDEST PUSH32 0x4E487B7100000000000000000000000000000000000000000000000000000000 PUSH1 0x0 MSTORE PUSH1 0x12 PUSH1 0x4 MSTORE PUSH1 0x24 PUSH1 0x0 REVERT INVALID LOG2 PUSH5 0x6970667358 0x22 SLT KECCAK256 0xEF 0xBC 0x21 0xE 0xFC 0xB6 TIMESTAMP 0xCE 0xC4 0x49 DUP12 0xAF 0xE2 BALANCE DIFFICULTY MSTORE8 DIV DUP15 0xD1 AND CALL 0xAB 0xAF DELEGATECALL 0xE7 SWAP1 DUP15 0x5D 0xBD 0xAE 0xFB 0xF6 PUSH5 0x736F6C6343 STOP ADDMOD MULMOD STOP CALLER "},"gasEstimates":{"creation":{"codeDepositCost":"2359600","executionCost":"infinite","totalCost":"infinite"},"external":{"_tokenIds()":"2532","approve(address,uint256)":"infinite","balanceOf(address)":"2968","getApproved(uint256)":"5300","isApprovedForAll(address,address)":"infinite","mintNFT(address,string)":"infinite","name()":"infinite","owner()":"2545","ownerOf(uint256)":"3069","renounceOwnership()":"30509","safeTransferFrom(address,address,uint256)":"infinite","safeTransferFrom(address,address,uint256,bytes)":"infinite","setApprovalForAll(address,bool)":"infinite","supportsInterface(bytes4)":"797","symbol()":"infinite","tokenURI(uint256)":"infinite","transferFrom(address,address,uint256)":"infinite","transferOwnership(address)":"30857"}},"methodIdentifiers":{"_tokenIds()":"aa46a400","approve(address,uint256)":"095ea7b3","balanceOf(address)":"70a08231","getApproved(uint256)":"081812fc","isApprovedForAll(address,address)":"e985e9c5","mintNFT(address,string)":"eacabe14","name()":"06fdde03","owner()":"8da5cb5b","ownerOf(uint256)":"6352211e","renounceOwnership()":"715018a6","safeTransferFrom(address,address,uint256)":"42842e0e","safeTransferFrom(address,address,uint256,bytes)":"b88d4fde","setApprovalForAll(address,bool)":"a22cb465","supportsInterface(bytes4)":"01ffc9a7","symbol()":"95d89b41","tokenURI(uint256)":"c87b56dd","transferFrom(address,address,uint256)":"23b872dd","transferOwnership(address)":"f2fde38b"}},"storageLayout":{"storage":[{"astId":1778,"contract":"Contest.sol:kradlFactoryNFT","label":"_name","offset":0,"slot":"0","type":"t_string_storage"},{"astId":1780,"contract":"Contest.sol:kradlFactoryNFT","label":"_symbol","offset":0,"slot":"1","type":"t_string_storage"},{"astId":1784,"contract":"Contest.sol:kradlFactoryNFT","label":"_owners","offset":0,"slot":"2","type":"t_mapping(t_uint256,t_address)"},{"astId":1788,"contract":"Contest.sol:kradlFactoryNFT","label":"_balances","offset":0,"slot":"3","type":"t_mapping(t_address,t_uint256)"},{"astId":1792,"contract":"Contest.sol:kradlFactoryNFT","label":"_tokenApprovals","offset":0,"slot":"4","type":"t_mapping(t_uint256,t_address)"},{"astId":1798,"contract":"Contest.sol:kradlFactoryNFT","label":"_operatorApprovals","offset":0,"slot":"5","type":"t_mapping(t_address,t_mapping(t_address,t_bool))"},{"astId":2708,"contract":"Contest.sol:kradlFactoryNFT","label":"_tokenURIs","offset":0,"slot":"6","type":"t_mapping(t_uint256,t_string_storage)"},{"astId":1137,"contract":"Contest.sol:kradlFactoryNFT","label":"_owner","offset":0,"slot":"7","type":"t_address"},{"astId":2832,"contract":"Contest.sol:kradlFactoryNFT","label":"_tokenIds","offset":0,"slot":"8","type":"t_struct(Counter)5_storage"}],"types":{"t_address":{"encoding":"inplace","label":"address","numberOfBytes":"20"},"t_bool":{"encoding":"inplace","label":"bool","numberOfBytes":"1"},"t_mapping(t_address,t_bool)":{"encoding":"mapping","key":"t_address","label":"mapping(address => bool)","numberOfBytes":"32","value":"t_bool"},"t_mapping(t_address,t_mapping(t_address,t_bool))":{"encoding":"mapping","key":"t_address","label":"mapping(address => mapping(address => bool))","numberOfBytes":"32","value":"t_mapping(t_address,t_bool)"},"t_mapping(t_address,t_uint256)":{"encoding":"mapping","key":"t_address","label":"mapping(address => uint256)","numberOfBytes":"32","value":"t_uint256"},"t_mapping(t_uint256,t_address)":{"encoding":"mapping","key":"t_uint256","label":"mapping(uint256 => address)","numberOfBytes":"32","value":"t_address"},"t_mapping(t_uint256,t_string_storage)":{"encoding":"mapping","key":"t_uint256","label":"mapping(uint256 => string)","numberOfBytes":"32","value":"t_string_storage"},"t_string_storage":{"encoding":"bytes","label":"string","numberOfBytes":"32"},"t_struct(Counter)5_storage":{"encoding":"inplace","label":"struct Counters.Counter","members":[{"astId":4,"contract":"Contest.sol:kradlFactoryNFT","label":"_value","offset":0,"slot":"0","type":"t_uint256"}],"numberOfBytes":"32"},"t_uint256":{"encoding":"inplace","label":"uint256","numberOfBytes":"32"}}},"userdoc":{"kind":"user","methods":{},"version":1}}